:100000000C9423020C9454020C9454020C94540249
:100010000C9454020C9454020C9454020C94540208
:100020000C9454020C9454020C9454020C945402F8
:100030000C9454020C94332E0C9454020C945402DD
:100040000C9454020C94862E0C9454020C9454027A
:100050000C9454020C94E52E0C9454020C94692CCC
:100060000C9454020C943D2D0C94132D0C945402BA
:100070000C9454020C9454020C9454020C945402A8
:100080000C9454020C9454020C9454020C94540298
:100090000C94DD2C0C94B32C0C9454020C94442F2F
:1000A0000C9454020C9454020C9454020C94540278
:1000B0000C9454020C9454020C9454020C94732D1E
:1000C0000C9454020C9454020C9454020C94540258
:1000D0000C9454020C9454020C9454020C94540248
:1000E0000C9454020C944E030C94D5240C94580395
:1000F0000C948E290C94DD240C940E070C94700D36
:100100000C94300F0C940C070C94B8240C94D1244C
:100110000C946F0D0C9462060C94A3060C94920D33
:100120000C940D2C0C94B62B0C945E070C94DF24CD
:100130000C940B070C94722B0C94AE070C94700368
:100140000C94990D0C944A030C944A070C94420F9A
:100150000C9458060C9474030C94240F0C941608F9
:100160000C943C060C943D370C946B0E0C941606C4
:100170000C9420060C947A0F0C9454030C94660390
:100180000C946F030C946A030C943B070C941106B7
:100190000C9499060C9409060C94DB240C943503FA
:1001A0000C9471060C9462030C94E52B0C94082AB1
:1001B0000C947B060C94D7240C94492B0C94D924D2
:1001C0000C9441030C94C60D0C9444060C94340614
:1001D0000C945C030C94A1300C9439030C944403EC
:1001E0000C94FD2A0C947F0D0C94340F0C944E0645
:1001F0000C9485060C94670F0C942A060C948F06B9
:100200000C943D030C946C070C942F030C94690F11
:100210005570646174696E672074696D652E2E2E49
:1002200000496E636F727265637420536F6E67204E
:10023000466F726D61742100416C6C20617474654D
:100240006D707473207765726520756E7375636366
:1002500065737366756C2E00417474656D707420DF
:10026000746F2073796E63207769746820475053E8
:100270002E0044617465206F722054696D65206E94
:100280006F7420696E2072616E6765000201005311
:10029000746F7020546573740054656D702E2073F4
:1002A000656E736F72206E6F7420666F756E642E4C
:1002B00000475053204E4F54206465746563746545
:1002C000642100475053206465746563746564005D
:1002D00053746172742054657374004E4353333108
:1002E000322D3820485635313232206F7220485630
:1002F00035323232004669726D77617265207665FB
:100300007273696F6E3A20004661756C747920448F
:10031000533332333121004453333233315F543D50
:100320000000002100240027002A002D00300033A7
:100330000001010000040107010A0100002200255C
:100340000028002B002E00310034000201000005BF
:100350000108010B0100000A0B02090C0D0E080731
:100360000304010000000000000000000000000085
:10037000000000000000000000000000000000007D
:10038000001211100000000000000000000000003A
:10039000000000000000000000000000002000231A
:1003A00000260029002C002F00320000010000036D
:1003B00001060109010505050507050808080802E9
:1003C0000202020A0A0808040404040101010101EE
:1003D0000101010303030303030303040707070CDD
:1003E0000C0C0C0C0C0C0C02020202060606060693
:1003F0000606060B0B0B0B0B0B0B0B010210202040
:100400000808102040102040800201020108040268
:1004100001010204081020408080402010080402DE
:100420000180040201804020100804020108040237
:10043000010102040810204080010204081020403D
:100440008000A1303D3711241FBECFEFD1E2DEBFC7
:10045000CDBF00E00CBF2AE0A8E1B5E001C01D92CD
:10046000A133B207E1F715E0A0E0B2E0E0E3F9E77D
:1004700000E00BBF02C007900D92A831B107D9F779
:1004800012E0C2E2D2E000E006C021970109802F0D
:10049000FE010E94453AC132D10780E00807A9F762
:1004A0000E9490310C94863C0C9400008CBD9DBD44
:1004B00008958091E609E091E709F091E809F89440
:1004C0009181982B91832281382F30952323228389
:1004D000A7E0B0E01197F1F7918193239183A3E214
:1004E000B0E01197F1F790817894EFECF0E031975C
:1004F000F1F7982381E009F480E008959091E609EE
:10050000E091E709F091E809292F209580FF14C0B8
:10051000F8948281822382838181892B8183A3E263
:10052000B0E01197F1F78281982B9283789487ED50
:1005300090E00197F1F70895F894828182238283F5
:100540008181892B8183AFEFB0E01197F1F7828130
:10055000982B928378948FE090E0EBCF0F931F93CA
:10056000CF93DF93082FC8E0D0E011E081E0902F17
:10057000912309F480E00E947E02110F2197B1F7C8
:10058000F894E091E709F091E80991818091E609FA
:10059000809598239183E091E709F091E809928191
:1005A000892382837894DF91CF911F910F910895D1
:1005B0008091E609E091E709F091E809F8949181CA
:1005C000282F20959223918378943DE743E050E0D3
:1005D000315029F1DA011197F1F790819823C1F395
:1005E000F8949281922392839181982B91837894AD
:1005F000ABE7B7E01197F1F7F894918192239183DB
:10060000A3E1B1E01197F1F79081982381E009F01F
:1006100080E07894E3E6F6E03197F1F7089580E022
:1006200008958150823108F05AC0E82FF0E0882701
:10063000E35EFC4F8F4F0C94453A3D0341032F037B
:10064000350339036F0344034A034E03540358032D
:100650005C03620366036F036A0370037403809193
:1006600080008F77809380000895809180008F7D37
:10067000F9CF80918000877FF5CF84B58F7784BDD7
:10068000089584B58F7DFBCF8091B0008F778093E4
:10069000B00008958091B0008F7DF9CF80919000D7
:1006A0008F77809390000895809190008F7DF9CF8F
:1006B00080919000877FF5CF8091A0008F77809305
:1006C000A00008958091A0008F7DF9CF8091A000B7
:1006D000877FF5CF809120018F7780932001089547
:1006E000809120018F7DF9CF80912001877FF5CF08
:1006F000CF93DF93282F30E0F901EB5AFC4F849120
:10070000F901E550FC4FD491F901EB54FC4FC49131
:10071000CC23A1F081110E941103EC2FF0E0EE0F29
:10072000FF1FE556FC4FA591B491EC91ED2381E0BC
:1007300090E009F480E0DF91CF91089580E090E0AF
:10074000FACF1F93CF93DF93282F30E0F901EB5AB4
:10075000FC4F8491F901E550FC4FD491F901EB5421
:10076000FC4FC491CC23A9F0162F81110E941103D4
:10077000EC2FF0E0EE0FFF1FE55CFC4FA591B4916C
:100780008FB7F894EC91111108C0D095DE23DC935B
:100790008FBFDF91CF911F910895DE2BF8CFCF93BC
:1007A000DF9390E0FC01E550FC4F24918B549C4F6B
:1007B000FC0184918823C9F090E0880F991FFC0107
:1007C000EF5DFC4FA591B491FC01E55CFC4FC59138
:1007D000D49161110DC09FB7F8948C91209582231C
:1007E0008C938881282328839FBFDF91CF91089520
:1007F000623051F49FB7F8943C91822F8095832307
:100800008C93E8812E2BEFCF8FB7F894EC912E2BA1
:100810002C938FBFEACF4F925F926F927F928F920D
:100820009F92AF92BF92CF92DF92EF92FF920F937F
:100830001F93CF93DF9300D01F921F92CDB7DEB7E7
:1008400020917C0727FD2CC149835A836B837C83CD
:100850008C0161E080917B070E94CF0380917C072F
:100860008D834801B12CA12C8D7F09F031C160E04E
:1008700072E18AE790E0A50198010E94263A2901D9
:100880003A017A01690191E0C91AD108E108F10839
:10089000AFEFCA16D104E104F10409F00CF4C7C0AB
:1008A00060E472E48FE090E0A50198010E94263A8E
:1008B00069017A01B1E0CB1AD108E108F1088D8114
:1008C000823009F06AC082E09FEFC916D104E104CA
:1008D000F10409F00CF45EC160E970ED83E090E092
:1008E000A50198010E94263A69017A01A1E0CA1A7D
:1008F000D108E108F10883E0BFEFCB16D104E10491
:10090000F10409F00CF446C168E478EE81E090E06F
:10091000A50198010E94263A69017A0181E0C81A6E
:10092000D108E108F10884E09FEFC916D104E10481
:10093000F10409F00CF42EC164E274EF80E090E061
:10094000A50194010E94263A69017A01B1E0CB1A0F
:10095000D108E108F10885E09FEFC916D104E10450
:10096000F10409F008F416C162E17AE780E090E052
:10097000A50194010E94263A69017A01B1E0CB1ADF
:10098000D108E108F1088FEFC816D104E104F104A1
:1009900011F008F0F0C086E0FDC08FEFC816D1045A
:1009A000E104F10409F00CF491C068E478EE81E010
:1009B00090E0A50198010E94263A69017A0191E030
:1009C000C91AD108E108F108AD8184E0A111C4CFB2
:1009D00083E0AFEFCA16D104E104F10461F15CF1E8
:1009E00062E17AE780E090E0A50194010E94263A56
:1009F00069017A0181E0C81AD108E108F10884E0B0
:100A00009FEFC916D104E104F104A9F0A0F073012D
:100A100062019AE0F594E794D794C7949A95D1F738
:100A2000A1E0CA1AD108E108F10885E004C081E01C
:100A3000AD81A111AFC095B5987F892B85BD898106
:100A40009A81AB81BC812FEF3FEFA901892B8A2BC3
:100A50008B2B79F0D801AA0FBB1F29813A814B81DA
:100A60005C810E94123928EE33E040E050E00E94A1
:100A7000043A9D81913009F45CC0923009F46BC056
:100A800091110EC0C7BC209377073093780740932D
:100A9000790750937A0780916E00826080936E0090
:100AA0000F900F900F900F900F90DF91CF911F91AB
:100AB0000F91FF90EF90DF90CF90BF90AF909F90FD
:100AC0008F907F906F905F904F90089582E0B0CFAD
:100AD00060E072E18AE790E0A50198010E94263A61
:100AE00069017A01B1E0CB1AD108E108F10891E07F
:100AF000C114D10481E0E806F10484F068E478EEE2
:100B000081E090E0A50198010E94263A69017A01EE
:100B100091E0C91AD108E108F10893E0AD81A13054
:100B200009F08DCF80918100887F892B809381008F
:100B300086CFD0928900C0928800209373073093AB
:100B40007407409375075093760780916F00826019
:100B500080936F00A5CFC092B30020936F073093AE
:100B60007007409371075093720780917000826004
:100B70008093700095CF730162018AE0F594E79449
:100B8000D794C7948A95D1F7B1E0CB1AD108E10880
:100B9000F10887E09091B100987F892B8093B10094
:100BA0004ECF1F93CF93DF93182FEB0161E00E948C
:100BB000CF03209739F460E0812FDF91CF911F910F
:100BC0000C94A103CF3FD10511F461E0F5CFE12FE3
:100BD000F0E0EB5AFC4FE491E150E23108F0B3C091
:100BE000F0E08827E950FA4F8F4F0C94453A0906F8
:100BF0001106160620062A06A30634063C064406FD
:100C00004E065806620671067B06A30685068F0609
:100C1000990684B5806884BDC7BDDF91CF911F91CF
:100C2000089584B5806284BDC8BDF7CF80918000EF
:100C3000806880938000D0938900C0938800EDCFB6
:100C400080918000806280938000D0938B00C0935D
:100C50008A00E3CF80918000886080938000D093E9
:100C60008D00C0938C00D9CF8091B00080688093B4
:100C7000B000C093B300D1CF8091B0008062809368
:100C8000B000C093B400C9CF809190008068809379
:100C90009000D0939900C0939800BFCF80919000AE
:100CA000806280939000D0939B00C0939A00B5CF50
:100CB00080919000886080939000D0939D00C093B5
:100CC0009C00ABCF8091A00080688093A0008091B1
:100CD000A0008F7B8093A000D093A900C093A800B0
:100CE0009CCF8091A00080628093A000D093AB0045
:100CF000C093AA0092CF8091A00088608093A0004A
:100D0000D093AD00C093AC0088CF80912001806863
:100D100080932001D0932901C09328017ECF809138
:100D20002001806280932001D0932B01C0932A017F
:100D300074CF80912001886080932001D0932D0191
:100D4000C0932C016ACFC038D1050CF03ECF33CF11
:100D50003FB7F8948091FB069091FC06A091FD06A8
:100D6000B091FE0626B5A89B05C02F3F19F001964D
:100D7000A11DB11D3FBFBA2FA92F982F8827BC01F5
:100D8000CD01620F711D811D911D42E0660F771F1D
:100D9000881F991F4A95D1F708958F929F92AF921D
:100DA000BF92CF92DF92EF92FF924B015C010E94C3
:100DB000A8066B017C010E94A8066C197D098E09AA
:100DC0009F09683E734081059105A8F321E0821ACE
:100DD0009108A108B10888EEC80E83E0D81EE11C76
:100DE000F11C81149104A104B10429F7FF90EF9044
:100DF000DF90CF90BF90AF909F908F9008952FB7C6
:100E0000F8946091F7067091F8068091F906909138
:100E1000FA062FBF0895089508950895AF92BF92DE
:100E2000CF92DF92EF92FF920F931F93CF93DF93B6
:100E30006C017B018B01040F151FEB015E01AE18E5
:100E4000BF08C017D10759F06991D601ED91FC9107
:100E50000190F081E02DC6011995892B79F7C50124
:100E6000DF91CF911F910F91FF90EF90DF90CF9086
:100E7000BF90AF900895FC01538D448D252F30E035
:100E8000842F90E0821B930B541710F0CF96089597
:100E900001970895FC01918D828D981761F0A28DC4
:100EA000AE0FBF2FB11D5D968C91928D9F5F9F738A
:100EB000928F90E008958FEF9FEF0895FC01918D40
:100EC000828D981731F0828DE80FF11D858D90E0AD
:100ED00008958FEF9FEF0895FC01918D228D892F4A
:100EE00090E0805C9F4F821B91098F739927089532
:100EF0008DE797E00E946C0721E0892B09F420E040
:100F0000822F08958AE198E00E946C0721E0892BE6
:100F100009F420E0822F0895FC01A48DA80FB92FB9
:100F2000B11DA35ABF4F2C91848D90E001968F7311
:100F30009927848FA689B7892C93A089B1898C9130
:100F4000837080648C93938D848D981306C002887F
:100F5000F389E02D80818F7D80830895EF92FF9249
:100F60000F931F93CF93DF93EC0181E0888F9B8DCC
:100F70008C8D98131AC0E889F989808185FF15C086
:100F80009FB7F894EE89FF896083E889F9898081A9
:100F90008370806480839FBF81E090E0DF91CF9178
:100FA0001F910F91FF90EF900895F62E0B8D10E09A
:100FB0000F5F1F4F0F731127E02E8C8D8E110CC009
:100FC0000FB607FCFACFE889F989808185FFF5CF54
:100FD000CE010E948C07F1CFEB8DEC0FFD2FF11DA0
:100FE000E35AFF4FF0829FB7F8940B8FEA89FB8991
:100FF00080818062CFCF0F931F93CF93DF938C01BB
:10100000D0E0C0E0F801EC0FFD1F6491662341F0D1
:101010008AE198E00E94AE07892B11F02196F2CF69
:10102000CE01DF91CF911F910F910895CF93DF9360
:10103000EC01888D8823B9F0AA89BB89E889F989F0
:101040008C9185FD03C0808186FD0DC00FB607FC25
:10105000F7CF8C9185FFF2CF808185FFEDCFCE0158
:101060000E948C07E9CFDF91CF91089580E090E056
:10107000892B29F00E94820781110E94000080E0E4
:1010800090E0892B29F00E94780781110E940000CE
:1010900080E090E0892B49F080E090E0892B29F0F6
:1010A0000E94000081110E94000080E090E0892BE6
:1010B00049F080E090E0892B29F00E940000811126
:1010C0000C94000008956093C0067093C10680934D
:1010D000C2069093C306645D7E4F8F4F9F4F60930F
:1010E000BC067093BD068093BE069093BF0682E057
:1010F00090E09093BB068093BA060E94FF0660932F
:10110000B6067093B7068093B8069093B906089513
:10111000CF92DF92EF92FF920F931F930E94FF06F0
:101120008B019C01C090B606D090B706E090B8063F
:10113000F090B9066091C0067091C1068091C20618
:101140009091C3060C191D092E093F09083E134052
:1011500021053105E0F0DC01CB010196A11DB11D97
:101160008093C0069093C106A093C206B093C306B5
:10117000B701A60148515C4F6F4F7F4F4093B606B1
:101180005093B7066093B8067093B906C7CF1F9106
:101190000F91FF90EF90DF90CF9008954F925F9264
:1011A0006F927F928F929F92AF92BF92CF92DF9277
:1011B000EF92FF920F931F93CF93DF93FC01168161
:1011C000A12FB0E020E833E341EE51E00E94123954
:1011D0004B015C01C2EBD7E09D0104E610E080E921
:1011E000E82EFF24F394CE01825B97408217930789
:1011F0009CF14580512C2E54384FC90164E670E0B3
:101200000E94F0397C01C90160E971E00E94F03967
:101210006C0107EE13E0C1E0D0E0390183E0682201
:101220007724C415D5050CF040C0C230D10571F546
:101230006114710459F5E114F10419F4C114D104D5
:1012400029F5B0E88B0EBBE39B1EB6E2AB1EB11CCA
:1012500021960F5F1F4FE5CFCE0183709927892B11
:1012600099F4CE01B8010E94F039892B31F4CE01F6
:10127000B7010E94F039892B39F4A0E88A0EA1E564
:101280009A1EA1E0AA1EB11C2196ADCFD8018C9167
:10129000A82FB0E020E831E541E050E00E9412398B
:1012A000860E971EA81EB91ED3CF228130E0A0E182
:1012B000BEE00E941D396B017C01218130E0ACE36E
:1012C000B0E00E941D39C60ED71EE81EF91E8081AF
:1012D000C80ED11CE11CF11CA481A150BB0B20E85D
:1012E00031E541E050E00E94543A6C0D7D1D8E1DA9
:1012F0009F1D680D791D8A1D9B1DDF91CF911F9148
:101300000F91FF90EF90DF90CF90BF90AF909F90A4
:101310008F907F906F905F904F900895EF92FF9223
:101320000F9394E6E916F104CCF092EBE91A97E0FA
:10133000F90AE092CA060093C9062093C806809372
:10134000C6066093C5064093C40684EC96E00E94EE
:10135000CE080F91FF90EF900C9463089EE1E90E88
:10136000F11CE7CF6F927F928F929F92AF92BF92C4
:10137000CF92DF92EF92FF920F931F93CF93DF9361
:101380006B017C01EA018CE3882E912CA12CB12CFD
:10139000C701A50194010E94043A6883CA01B901FA
:1013A000A50194010E94043A6983C701B60120E1B6
:1013B0003EE040E050E00E94043ACA01B90128E151
:1013C00030E040E050E00E94043A6A83C701B60171
:1013D00020E831E541E050E00E94043A69017A01D9
:1013E000CA01B9016C5F7F4F8F4F9F4F27E030E0FC
:1013F00040E050E00E94043A6F5F6B83812C912C97
:10140000540140E094E6692E712C00E911E0242F8C
:1014100030E02E54384FF901E370FF273097F9F48C
:10142000C901B3010E94F039892B31F4C901B80117
:101430000E94F039892B99F48EE691E0A0E0B0E0AB
:10144000880E991EAA1EBB1ED501C401AA27BB2760
:10145000C816D906EA06FB0638F04F5FD8CF8DE6EE
:1014600091E0A0E0B0E0ECCF4E83C90164E670E00B
:101470000E94F0398C01C90160E971E00E94F039E5
:10148000309729F401151105E1F40097D1F04DE6EC
:1014900051E060E070E0841A950AA60AB70AC818FD
:1014A000D908EA08FB08A7EEB3E020E0213071F488
:1014B000309791F50115110511F4009769F54DE18B
:1014C00006C04EE651E060E070E0E5CF4C9150E0A0
:1014D00070E060E031E0320FC416D506E606F7068C
:1014E00040F0C41AD50AE60AF70A1196232F3C30B9
:1014F000E9F62F5F2D83C394CC82DF91CF911F91AA
:101500000F91FF90EF90DF90CF90BF90AF909F90A2
:101510008F907F906F9008954CE1D9CFCF92DF925A
:10152000EF92FF92C090B206D090B306E090B4065E
:10153000F090B506C616D706E806F90671F06B01FD
:101540007C0144EC56E00E94B209C092B206D092EF
:10155000B306E092B406F092B506FF90EF90DF90EC
:10156000CF9008950E9488080E948E0A8091CA0632
:1015700090E08E54984F08950E9488080E948E0A29
:101580008091C90690E008950E9488080E948E0A02
:101590008091C80690E008950E9488080E948E0AF3
:1015A0008091C40690E008950E9488080E948E0AE7
:1015B0008091C50690E008950E9488080E948E0AD6
:1015C0008091C60690E00895CF92DF92EF92FF924D
:1015D000CF93DF93EC010E94FF066B017C018F85A6
:1015E0000E9478039C0181E02115310509F480E017
:1015F000898B8889811105C091E0232B09F090E047
:10160000998B29898A89281721F0CD8ADE8AEF8A69
:10161000F88E8D899E89AF89B88DB701A601481BC8
:10162000590B6A0B7B0BDB01CA01CB80DC80ED80A0
:10163000FE80C816D906EA06FB0664F43A81231731
:1016400049F02A83222349F04B895C894F5F5F4F21
:101650005C8B4B8B3A81311117C0CF80D884E984E1
:10166000FA84C816D906EA06FB0634F48B899C89ED
:10167000998388831C8A1B8A2A8BDF91CF91FF90E4
:10168000EF90DF90CF900895CB84DC84ED84FE84CE
:10169000C816D906EA06FB067CF78B899C899195CA
:1016A00081959109E5CF20918F06260F3327331FAF
:1016B00021323105ECF420914507FC0190E080E0F7
:1016C000243069F082E00895A0918F062191AC0149
:1016D0004159594FA40FB52FB11D2C930196861770
:1016E00098F380918F06680F60938F0680E00895CD
:1016F00081E008951092450781E08093440710929D
:101700001F0761E084E10E94A10361E085E10E947E
:10171000A103E9EBF0E080818E7F808380818D7F63
:10172000808388E48093B80085E48093BC000895AA
:10173000CF93DF9391E090936E068823B9F0C09128
:10174000B800D091BA008091BC008A7B8093BC0025
:1017500060E084E10E94A10360E085E10E94A103B2
:101760000E947A0BD093BA00C093B800DF91CF915A
:101770000895CF92DF92EF92FF920F931F93CF9332
:10178000DF93D0916E0781E0D13208F09CC0C09108
:101790006D070E94A8066B017C01809145078111AD
:1017A0006CC082E08093450781E0809344078FEF0F
:1017B0008093430710924207D0934107ADE4B7E00E
:1017C000E1E2F7E080E0D8138DC01092200780910D
:1017D0002007CC0FC82BC093200780911F078130B2
:1017E00009F084C010921F070E94A8066B017C01BB
:1017F000809120078093BB00809147079091480714
:10180000A0914907B0914A07892B8A2B8B2BA1F015
:101810000E94A806009147071091480720914907A8
:1018200030914A076C197D098E099F090617170721
:101830002807390708F442C08091BC0083FDD8CF47
:1018400085EC8093BC000E94A8066B017C0180910E
:101850004507823009F44CC0809143078F3F09F45B
:1018600069C080914307803209F466C080914307C4
:10187000803309F463C084E026C0809147079091CB
:101880004807A0914907B0914A07892B8A2B8B2BD7
:1018900009F483CF0E94A8060091470710914807DA
:1018A0002091490730914A076C197D098E099F09DB
:1018B000061717072807390708F06FCF80914607EA
:1018C0000E94980B85E010924C0710926E071092C0
:1018D0004B07DF91CF911F910F91FF90EF90DF9019
:1018E000CF9008959D9191938F5F6DCF85EEA9CF95
:1018F0008091470790914807A0914907B0914A0706
:10190000892B8A2B8B2B09F4A2CF0E94A806009169
:101910004707109148072091490730914A076C19F1
:101920007D098E099F09061717072807390708F050
:101930008ECFC4CF80E0C7CF82E0C5CF83E0C3CFD6
:10194000CF92DF92EF92FF920F931F93CF93DF938B
:10195000D82FC62F613208F098C00E94A8066B01EC
:101960007C018091450781116BC081E08093450720
:10197000809344079FEF90934307109242079C0F78
:10198000909341078093200780912007DD0FD82B8B
:10199000D093200780911F07813009F078C0109202
:1019A0001F070E94A8066B017C018091200780938D
:1019B000BB008091470790914807A0914907B091DB
:1019C0004A07892B8A2B8B2BA1F00E94A806009135
:1019D0004707109148072091490730914A076C1931
:1019E0007D098E099F09061717072807390708F48C
:1019F00048C08091BC0083FDD8CF85EC8093BC00AB
:101A00000E94A8066B017C0180914507813009F492
:101A100040C0809142078C1710F4C0914207E1E268
:101A2000F7E0AFEFB6E080E08C1355C08C2FDF916C
:101A3000CF911F910F91FF90EF90DF90CF9008957D
:101A40008091470790914807A0914907B0914A07B4
:101A5000892B8A2B8B2B09F484CF0E94A806009136
:101A60004707109148072091490730914A076C19A0
:101A70007D098E099F09061717072807390708F0FF
:101A800070CF809146070E94980BC0E0CFCF85EEC3
:101A9000B5CF8091470790914807A0914907B09131
:101AA0004A07892B8A2B8B2B09F4AECF0E94A806FC
:101AB00000914707109148072091490730914A0744
:101AC0006C197D098E099F09061717072807390722
:101AD00008F09ACFD6CF91919D938F5FA5CF0895AF
:101AE000E091E7068091E606E81730F4F0E0E15077
:101AF000F94F808190E008958FEF9FEF08959091C6
:101B0000E7068091E6062FEF3FEF981748F4E92F9C
:101B1000F0E0E150F94F208130E09F5F9093E706BD
:101B2000C90108958091E6069091E706891B990BFB
:101B30000895CF92DF92EF92FF920F931F93CF936E
:101B4000DF937C01CB018A0120914B07222389F08E
:101B5000EB016B01C40ED51ECC15DD0569F0699152
:101B6000D701ED91FC910190F081E02DC70119950D
:101B7000F3CF642F0E94530BC801DF91CF911F91C7
:101B80000F91FF90EF90DF90CF900895CF93DF9368
:101B90001F92CDB7DEB7698320914B072223F9F05E
:101BA00020916E07203258F021E030E0FC013383B1
:101BB000228390E080E00F90DF91CF910895809193
:101BC0004C07E82FF0E0E35BF84F998190838F5F3B
:101BD00080934C0780936E0781E090E0ECCF61E04A
:101BE000CE0101960E94530BF7CFDF92EF92FF9246
:101BF0000F931F93CF93DF93182FF62ED42ED22F4F
:101C000081E080934B0788E680936D0710924C0724
:101C100010926E0760E087EB98E00E94C60DCAE064
:101C20008D2D6C2F0E94E4398295807F682F690F7B
:101C300087EB98E00E94C60D8F2D6C2F0E94E4392F
:101C40008295807F682F690F87EB98E00E94C60D10
:101C5000812F6C2F0E94E4398295807F682F690F55
:101C600087EB98E00E94C60D61E087EB98E00E9448
:101C7000C60D8D2F6C2F0E94E4398295807F682FCE
:101C8000690F87EB98E00E94C60D802F6C2F0E9491
:101C9000E4398295807F682F690F87EB98E00E9476
:101CA000C60D8E2D6C2F0E94E4398295807F682F9F
:101CB000690F87EB98E00E94C60D60E087EB98E023
:101CC0000E94C60DDF91CF911F910F91FF90EF9071
:101CD000DF900C94B90B90E080E00895CF92DF92F2
:101CE000EF92FF920F931F93CF93DF9390916D0626
:101CF00091110BC08FEF9FEFDF91CF911F910F914B
:101D0000FF90EF90DF90CF90089590916C0699230B
:101D100089F3082FC0916B06D0E080916306811192
:101D20000DC00E94FF0660935F067093600680936B
:101D300061069093620681E0809363060E94FF062D
:101D4000C0905F06D0906006E0906106F090620659
:101D50006C197D098E099F096D32714081059105CD
:101D6000B0F010915E060E94FF0660935F067093CC
:101D70006006809361069093620691E091279093AC
:101D80005E06992331F110925D0610925C06209157
:101D90005C0630915D062095309580915B06282386
:101DA00026FF1CC081E080935A0627FF1AC081E0FD
:101DB0008093590680915E06882309F49BCF02C068
:101DC000D595C7950A95E2F7C0FF94CF80E09CE3D4
:101DD00093CFD0935D06C0935C06D9CF10925A067C
:101DE000E4CF10925906E6CFEF92FF920F931F9324
:101DF000CF93DF93182F8091310681110DC00E947F
:101E0000FF0660932D0670932E0680932F06909305
:101E1000300681E080933106C0912B06D0912C06CC
:101E2000C930D10508F077C0FE018827E55EF04F84
:101E30008F4F0C94453A240F300F340F420F240F6C
:101E4000300F670F690F7A0F0E94D8022196CA30AF
:101E5000D10509F091C010922C0610922B0628C0D3
:101E60008CEC0E94AE02F2CF84E40E94AE020E948B
:101E7000FF0660932D0670932E0680932F06909395
:101E80003006E4CF0E94FF0600912D0610912E0629
:101E900020912F0630913006601B710B820B930B43
:101EA000C4E0D0E06E3E72408105910508F064C048
:101EB00060912706709128068091290690912A0644
:101EC000DF91CF911F910F91FF90EF9008958EEBCE
:101ED000C8CF98E0E92EF12C10E001E00E945902F1
:101EE0008111102B000F81E0E81AF108B9F7109367
:101EF0002506ACCF88E0E82EF12C10E001E00E942E
:101F000059028111102B000F21E0E21AF108B9F7F4
:101F1000109326069BCFC930D10509F097CF609169
:101F20002506709126066F3F760711F470E060E099
:101F3000072E000C880B990B0E94DF3720E030E061
:101F400040E85DE30E943E38111109C06093270606
:101F5000709328068093290690932A0677CF26E669
:101F600036E646EE5FE30E943E3820E030E040E097
:101F700052E40E942D39EACFD0932C06C0932B0651
:101F800097CF0F931F938091550290915602892B02
:101F900009F449C0809112068823A9F00E94FF0627
:101FA00000910E0610910F06209110063091110637
:101FB000601B710B820B930B693E73408105910589
:101FC00090F1109212060E94DC0A20914F0230918B
:101FD00050028217930739F50E94D40A20915102CA
:101FE0003091520282179307F1F40E94CC0A20919B
:101FF00053023091540282179307A9F40E94FF06FE
:1020000060930E0670930F0680931006909311064E
:1020100081E08093120680910A0290910B029093C6
:10202000E5068093E4061F910F910895CF93DF9307
:10203000EC012196FC0120812A33C9F42181243648
:1020400009F5229630E020E06AE0899190ED980F42
:102050009A3078F4629FA001639F500D1124082EDE
:10206000000C990BC0979A01280F391FEECFCE01B3
:10207000DFCF30930806209307062115310511F0B4
:102080002093090288818F3689F48A81082E000CFA
:10209000990B9C01205331093093080620930706C1
:1020A000C397059710F420930802249688818236FE
:1020B000F1F4229630E020E06AE0899190ED980FEB
:1020C0009A3068F4629FA001639F500D1124082E7E
:1020D000000C990BC0979A01280F391FEECF30934F
:1020E00008062093070630930702209306022091EA
:1020F000060230910702032E000C440B550B60E6DC
:102100007AEE80E090E00E94263A82E0220F331FB0
:10211000441F551F8A95D1F7209303063093040678
:102120004093050650930606CE01DF91CF910895A6
:10213000CF92DF92EF92FF920F931F93CF93DF9393
:10214000EC018B010E94FF06CE80DF80E884F984D9
:10215000AB01BC014C195D096E097F098881998129
:10216000092E000CAA0BBB0B84179507A607B7070F
:10217000A0F48A85882389F01A868D811C821D82AD
:10218000823060F181E090E0DF91CF911F910F915B
:10219000FF90EF90DF90CF9008958B859C858017FE
:1021A0009107C9F481E08C838D818F5F8D830E94BC
:1021B000FF066E837F838887998781E08A872D81D8
:1021C0008A819B81281719064CF01C821D821A8671
:1021D0008FEF9FEFD9CF8C81811103C090E080E019
:1021E000D3CF0F3F1F4FD1F7DFCF8EBD00000DB40F
:1021F00007FEFDCF8EB50895CF9381E080934B0706
:1022000088E680936D0710924C0710926E0760E08D
:1022100087EB98E00E94C60D0E94B90B67E088E644
:102220000E94A00C1092E7068093E60687EB98E0E8
:102230000E947F0D982F92959F70CAE08F709C9F8F
:10224000800D112490E09093F4068093F30687EBC1
:1022500098E00E947F0D982F92959F708F709C9FA1
:10226000800D112490E09093EB068093EA0687EBB3
:1022700098E00E947F0D982F929593708F709C9F8D
:10228000800D112490E09093E9068093E80687EB97
:1022900098E00E947F0D87EB98E00E947F0D982FB9
:1022A00092959F708F709C9F800D112490E0909369
:1022B000ED068093EC0687EB98E00E947F0D982F47
:1022C00092959F708F709C9F800D112490E0909349
:1022D000EF068093EE0687EB98E00E947F0D982F23
:1022E00092959F708F709C9F800D112490E0805379
:1022F000984F9093F1068093F006CF910895FC01DA
:1023000001900020E9F73197AF01481B590BBC0140
:102310008AE198E00C940E0787E194E00C947F1119
:10232000CF93DF930E94FB07EC010E948C118C0F6E
:102330009D1FDF91CF9108958F929F92AF92BF9290
:102340000F931F93CF93DF93CDB7DEB7A1970FB64F
:10235000F894DEBF0FBECDBF19A2423008F44AE0A8
:102360008E010F5D1F4F842E912CB12CA12CA50145
:1023700094010E94043AE62FB901CA01EA30F4F44C
:10238000E05DD801EE938D01232B242B252B79F7CB
:1023900090E080E0109719F0CD010E947F11A19686
:1023A0000FB6F894DEBF0FBECDBFDF91CF911F9166
:1023B0000F91BF90AF909F908F900895E95CE1CF0F
:1023C000CF93DF93682F70E090E080E04AE00E94B6
:1023D0009C11EC010E948C118C0F9D1FDF91CF91FD
:1023E0000895FC0180819181009711F00C9445378C
:1023F00060E070E0CB0108954F925F926F927F9200
:102400008F929F92AF92BF92CF92DF92EF92FF9204
:10241000CF93DF93CDB7DEB72D970FB6F894DEBF1D
:102420000FBECDBF0E94A806C0905506D09056069C
:10243000E0905706F09058066C197D098E099F09A7
:102440006A3171448105910508F429C20E94A806E9
:1024500060935506709356068093570690935806DE
:1024600080EE99E00E94F11169837A838B839C83CB
:1024700060E08AE00E94A103FAE0CF2ED12CE12C8B
:10248000F12C69817A818B819C81A70196010E9440
:10249000263A49015A01660F771F6D527C4FDB01C6
:1024A0004D905C9087E090E00E946E0E3C01C5016B
:1024B000B401A70196010E94263A660F771F6D525C
:1024C0007C4FFB01E080F18086E090E00E946E0E80
:1024D00046205720712C612C2AE0440C551C661CA8
:1024E000771C2A95D1F78E219F21B0E0A0E0482AE1
:1024F000592A6A2A7B2A69817A818B819C8124E608
:1025000030E040E050E00E94263A69017A01809173
:102510005A06882311F0689477F880915906882329
:1025200011F0689476F880915306909154060197C3
:1025300011F4FFE37F222091DA062D87872D99275A
:10254000AA27BB278D839E83AF83B8874301AA2424
:10255000BB24BB27A72D962D852D89879A87AB870E
:10256000BC87222309F46EC1842D0E94F510898551
:102570000E94F510882D0E94F5108D810E94F510A3
:102580008AE0882E912CA12CB12CC701B601A5019F
:1025900094010E94263A660F771F6D527C4FDB0133
:1025A000CD90DC9085E090E00E946E0E7C01698108
:1025B0007A818B819C8128EE33E040E050E00E94DC
:1025C000263ACA01B901A50194010E94263A660F74
:1025D000771F6D527C4FFB016080718084E090E03A
:1025E0000E946E0ECE20DF20F12CE12C34E1CC0CC9
:1025F000DD1CEE1CFF1C3A95D1F786219721B0E037
:10260000A0E04AE0880F991FAA1FBB1F4A95D1F787
:10261000C82AD92AEA2AFB2A69817A818B819C817E
:1026200020E137E240E050E00E94263ACA01B901B9
:10263000A50194010E94263A660F771F6D527C4FC8
:10264000DB01AD90BC9083E090E00E946E0E8A2189
:102650009B21B0E0A0E0C82AD92AEA2AFB2A698196
:102660007A818B819C8120EA36E841E050E00E942B
:10267000263A29013A0180915A06882309F4EDC0CF
:102680006894F7F880915906882309F4E9C06894A2
:10269000F6F88F2D9927AA27BB278D839E83AF83BA
:1026A000B8874701AA24BB24BB27AF2D9E2D8D2DB3
:1026B00089879A87AB87BC879D85992309F4D3C006
:1026C0008C2D0E94F51089850E94F510882D0E949E
:1026D000F5108D810E94F5103AE0832E912CA12CEB
:1026E000B12CC301B201A50194010E94263A660FE4
:1026F000771F6D527C4FDB01CD90DC9082E090E043
:102700000E946E0E7C0169817A818B819C8120E41C
:1027100032E44FE050E00E94263ACA01B901A50117
:1027200094010E94263A660F771F6D527C4FFB0181
:102730006080718081E090E00E946E0ECE20DF20EC
:10274000F12CE12C64E1CC0CDD1CEE1CFF1C6A9525
:10275000D1F786219721B0E0A0E07AE0880F991F99
:10276000AA1FBB1F7A95D1F7C82AD92AEA2AFB2AC1
:1027700069817A818B819C8120E836E948E950E0C3
:102780000E94263ACA01B901A50194010E94263A85
:10279000660F771F6D527C4FDB01AD90BC9090E0CF
:1027A00080E00E946E0E8A219B21B0E0A0E08C297F
:1027B0009D29AE29BF2920915A066C017D01222353
:1027C00009F45CC06894F7F880915906882309F4ED
:1027D00058C06894F6F84F2C552466247724470196
:1027E000AA24BB24BB27AF2D9E2D8D2D89839A83D0
:1027F000AB83BC839D85992309F446C08C2D0E9430
:10280000F51089810E94F510882D0E94F510842D05
:102810000E94F51061E08AE02D960FB6F894DEBFB5
:102820000FBECDBFDF91CF91FF90EF90DF90CF90A3
:10283000BF90AF909F908F907F906F905F904F90E0
:102840000C94A1038D810E94F510882D0E94F51033
:1028500089850E94F510842D91CEE894F7F812CF67
:10286000E894F6F816CF8D810E94F510882D0E940D
:10287000F51089850E94F5108C2D2CCFE894F7F87F
:10288000A3CFE894F6F8A7CF842D0E94F510882DE9
:102890000E94F51089810E94F5108C2DB9CF2D96DC
:1028A0000FB6F894DEBF0FBECDBFDF91CF91FF9082
:1028B000EF90DF90CF90BF90AF909F908F907F90E0
:1028C0006F905F904F9008950F931F93CF93DF9376
:1028D0008C01EB01FC01808191810097E1F068811E
:1028E000798161157105A9F0428153812C813D8167
:1028F0004217530770F00E947F3C8C819D81F80144
:10290000958384831D821C82DF91CF911F910F914B
:1029100008950E940C3B88819981F80191838083FE
:102920008A819B81938382838C819D81958384831B
:10293000198218821B821A82E5CFCF93DF93EC01B4
:1029400088819981009711F00E940C3B19821882AE
:102950001D821C821B821A82DF91CF910895FC0197
:1029600080819181009711F00C940C3B08950F9396
:102970001F93CF93DF93EC0188819981009759F0E1
:102980002A813B812617370730F081E0DF91CF9114
:102990001F910F9108958B016F5F7F4F0E94953BB0
:1029A000009759F0998388831B830A832C813D818A
:1029B000232B59F7FC011082E8CF80E0E7CFEF929C
:1029C000FF920F931F93CF93DF936115710541F42D
:1029D00080E0DF91CF911F910F91FF90EF900895CC
:1029E00041155105B1F07B01EC010C811D81040FF3
:1029F000151FB8010E94B714882351F3288139812B
:102A00008C819D81B701820F931F0E947F3C1D83A3
:102A10000C8381E0DECFEF92FF920F931F93CF9351
:102A2000DF93CDB7DEB72D970FB6F894DEBF0FBE9C
:102A3000CDBF7C01CB01BA012AE08E010F5F1F4F91
:102A4000A8010E948C37F80101900020E9F7319726
:102A5000AF01401B510BB801C7010E94DF14811167
:102A600003C0C7010E949D14C7012D960FB6F894AC
:102A7000DEBF0FBECDBFDF91CF911F910F91FF90B1
:102A8000EF900895CF93DF93EC01FB0101900020BC
:102A9000E9F73197AF01461B570B0E94DF148111F4
:102AA00003C0CE010E949D14CE01DF91CF91089505
:102AB000CF93DF93EC01FB014481558160817181EB
:102AC0000E94DF14811103C0CE010E949D14CE012B
:102AD000DF91CF910895EF92FF920F931F93CF93C1
:102AE000DF9300D01F92CDB7DEB77C01862F4AE07E
:102AF0008E010F5F1F4FB80190E00E946C37F80104
:102B000001900020E9F73197AF01401B510BB8014C
:102B1000C7010E94DF140F900F900F900F90DF916C
:102B2000CF911F910F91FF90EF900895EF92FF9238
:102B30000F931F93CF93DF93EC017B018A01BA01BE
:102B40000E94B71481110BC0CE010E949D14CE01CA
:102B5000DF91CF911F910F91FF90EF9008951D830A
:102B60000C83B701888199810E947F3CF0CFFB01E3
:102B700001900020E9F73197AF01461B570B0C94E9
:102B800096150F931F93CF93DF93CDB7DEB7629760
:102B90000FB6F894DEBF0FBECDBF8C01CB01F8019C
:102BA0001182108213821282158214824AE0BE01C1
:102BB0006F5F7F4F0E946C37BE016F5F7F4FC80110
:102BC0000E94B71562960FB6F894DEBF0FBECDBF58
:102BD000DF91CF911F910F910895CF93DF93EC0177
:102BE000FB018617970749F06081718161157105B6
:102BF00041F0448155810E949615CE01DF91CF911D
:102C000008950E949D14F9CFFC0111821082138255
:102C10001282158214820C94ED15FC01118210822F
:102C20001382128215821482FB0101900020E9F7C1
:102C30003197AF01461B570B0C949615AF92BF927C
:102C4000CF92DF92EF92FF920F931F93CF93DF9378
:102C50006C015B017A0189012417350720F48F2D5F
:102C60007901042F182F69E174E0C6010E940D1646
:102C7000D5011496CD91DC91EC16FD06E0F40C170D
:102C80001D0708F4E801D501ED91FC911197EC0FB7
:102C9000FD1F108110826D917C916E0D7F1DC6010C
:102CA00061157105A1F00E94B715F5018081918130
:102CB000C80FD91F1883C601DF91CF911F910F91C3
:102CC000FF90EF90DF90CF90BF90AF9008950E945B
:102CD0009D14EBCF4F925F926F927F928F929F9253
:102CE000AF92BF92CF92DF92EF92FF920F931F931A
:102CF000CF93DF9300D000D0CDB7DEB77C014B017E
:102D00005A018091240681113AC081E08093240603
:102D10009CE1692E96E0792E24E1422E26E0522E87
:102D200010E000E00F5F1F4F680181E0C81AD10872
:102D30009801A601B401CE0101960E941E16CE0193
:102D400001960E94F111D3016D933D01CE010196D0
:102D50000E94AF149801A601B501CE0101960E9410
:102D60001E16CE0101960E94F111F20161932F010E
:102D7000CE0101960E94AF140830110599F690918A
:102D800013068CE1C82E86E0D82EE4E1F6E0860139
:102D9000A801D8018C919A30D8F58F5F8C930F5F82
:102DA0001F4FDA018C918A3019F4D80111971C92C7
:102DB0003196B6E004321B0759F79F5F943169F1F1
:102DC0009093130669E174E0C7010E940D16F601A5
:102DD00061916F01C7010E946B150C151D05B9F7B4
:102DE000C70126960FB6F894DEBF0FBECDBFDF91A8
:102DF000CF911F910F91FF90EF90DF90CF90BF90F8
:102E0000AF909F908F907F906F905F904F900895BC
:102E10002081281721F28F5FC1CF109213061092E4
:102E20002406D0CFCF92DF92EF92FF921F93CF93E1
:102E3000DF93CDB7DEB72C970FB6F894DEBF0FBE89
:102E4000CDBF182F67E574E0CE0107960E940D16DE
:102E500022E030E050E040E0133081F024E030E048
:102E600042E050E01C3051F026E030E0103321F019
:102E7000103FA9F428E030E044E050E060EE79E053
:102E8000CE0101960E941E16BE016F5F7F4FCE01DC
:102E900007960E946414CE0101960E94AF14CE01E1
:102EA00007960E94F1116B01CE0107960E94AF14A4
:102EB000C6012C960FB6F894DEBF0FBECDBFDF91D2
:102EC000CF911F91FF90EF90DF90CF900895EF92F8
:102ED000FF920F931F93CF93DF93CDB7DEB7629727
:102EE0000FB6F894DEBF0FBECDBF7C018B0177FF1C
:102EF00003C0119501951109B801C7010E94C115C0
:102F0000083E83E018070CF082C0B801CE010D9690
:102F10000E94C1156CE474E0CE0101960E940D166A
:102F2000BE016F5F7F4FCE0107960E940416BE015F
:102F3000635F7F4FCE0107960E945815BC01C70101
:102F40000E94ED15CE0107960E94AF14CE010196A6
:102F50000E94AF14CE010D960E94AF1404361105E5
:102F60000CF055C0B801CE010D960E94C1156BE45E
:102F700074E0CE0101960E940D16BE016F5F7F4F77
:102F8000CE0107960E940416BE01635F7F4FCE01FB
:102F900007960E945815BC01C7010E94ED15CE018D
:102FA00007960E94AF14CE0101960E94AF14CE0185
:102FB0000D960E94AF140A3011054CF5B801CE01F0
:102FC0000D960E94C1156AE474E0CE0101960E943C
:102FD0000D16BE016F5F7F4FCE0107960E9404164B
:102FE000BE01635F7F4FCE0107960E945815BC015A
:102FF000C7010E94ED15CE0107960E94AF14CE01C5
:1030000001960E94AF14CE010D960E94AF14C70125
:1030100062960FB6F894DEBF0FBECDBFDF91CF91A1
:103020001F910F91FF90EF9008950F931F93CF93EF
:10303000DF93CDB7DEB762970FB6F894DEBF0FBE51
:10304000CDBF8C0177FF03C07195619571096A301E
:103050007105A4F5CE010D960E94C1156CE474E0D3
:10306000CE0101960E940D16BE016F5F7F4FCE010B
:1030700007960E940416BE01635F7F4FCE0107963C
:103080000E945815BC01C8010E940416CE01079683
:103090000E94AF14CE0101960E94AF14CE010D968E
:1030A0000E94AF14C80162960FB6F894DEBF0FBE3F
:1030B000CDBFDF91CF911F910F910895C8010E945C
:1030C000C115F0CF0F931F93CF93DF93CDB7DEB72A
:1030D00068970FB6F894DEBF0FBECDBF8B0183306B
:1030E000D9F52091E4093091E50942E050E060EE25
:1030F00079E0CE010D960E941E16B801CE01019610
:103100000E941518BE016F5F7F4FCE0107960E9487
:103110000416BE01635F7F4FCE0107960E945815CB
:10312000BC0180EE99E00E94ED15CE0107960E9449
:10313000AF14CE0101960E94AF14CE010D960E94ED
:10314000AF1468960FB6F894DEBF0FBECDBFDF9107
:10315000CF911F910F9108958C3009F042C02091BA
:10316000E4093091E50944E050E060EE79E0CE01F9
:1031700043960E941E16B801CE010D960E941518A6
:1031800022E030E050E040E060EE79E0CE010196D0
:103190000E941E16BE016F5F7F4FCE0107960E94F0
:1031A0000416BE01635F7F4FCE0107960E9458153B
:1031B000BE016D5E7F4F0E945815BC0180EE99E004
:1031C0000E94ED15CE0107960E94AF14CE01019624
:1031D0000E94AF14CE010D960E94AF14CE0143960B
:1031E000AECF2091E4093091E50946E050E080330C
:1031F00049F0803F09F0A5CF2091E4093091E5091D
:1032000048E050E060EE79E0CE0143960E941E1641
:10321000B801CE010D960E94151824E030E0B2CF1F
:103220000E94FF0660930A0670930B0680930C06BB
:1032300090930D0680910906882309F44FC02091D0
:10324000530630915406C901880F991F2131310569
:10325000A1F1FC01EB5CFD4F4081518141505109CE
:1032600051834083DC01AB5CBD4F6D917C91119724
:10327000FC01E35AFD4F40815181641775073CF40E
:10328000FC01EB57FD4F408151814D935C93203100
:10329000310509F520915502309156022130310552
:1032A000B9F420E820935B068B5C9D4FFC016081A4
:1032B000718180916B060C94621840915702509175
:1032C00058024C5051095093580240935702CACFAC
:1032D00010925B06E9CF2930310531F708950E943D
:1032E000FF0660930A0670930B0680930C0690937A
:1032F0000D0680910906882309F444C020915306E5
:1033000030915406C901880F991F2131310561F1AF
:10331000FC01EB5CFD4F408151814F5F5F4F51835A
:103320004083DC01AB5CBD4F6D917C911197FC013A
:10333000EB57FD4F40815181461757073CF4FC0184
:10334000E35AFD4F408151814D935C93203131050B
:10335000B1F410925B068B5C9D4FFC016081718122
:1033600080916B060C94621840915702509158025C
:10337000445F5F4F5093580240935702D2CF293099
:10338000310549F708958F929F92AF92BF92DF92D5
:10339000EF92FF920F931F93CF93DF93CDB7DEB7DA
:1033A000A2970FB6F894DEBF0FBECDBF8C018AE0A6
:1033B000E3EBF2E0DE01119601900D928A95E1F7C0
:1033C000809101069091020601968A3091050CF0D9
:1033D00086C09093020680930106E0910106F09169
:1033E000020681E090E08C0F9D1FE80FF91FD0804E
:1033F0008091570290915802489709F075C00E9439
:10340000FF064B015C010E94CC0ABC01CE014D9627
:103410000E9415180E94D40ABC01CE0147960E9452
:1034200015180E94DC0ABC01CE010B960E941518EB
:10343000BE01655F7F4FCE0141960E940416BE011A
:10344000695E7F4FCE0141960E945815BE01635EB2
:103450007F4F0E9458157C01C501B40128EE33E06E
:1034600040E050E00E94043A24E630E040E050E0C2
:103470000E94043ABA01A901C7010E940B157C0100
:103480006D2D0E946B15811103C0C7010E949D1410
:10349000B701C8010E940416CE0141960E94AF14E4
:1034A000CE010B960E94AF14CE0147960E94AF1436
:1034B000CE014D960E94AF14C801A2960FB6F894A3
:1034C000DEBF0FBECDBFDF91CF911F910F91FF9057
:1034D000EF90DF90BF90AF909F908F9008951092E3
:1034E00002061092010679CF0E94FF0628EE33E013
:1034F00040E050E00E94043A24E630E040E050E032
:103500000E94043A49015A010E94CC0ABC01CE0132
:103510004D960E9415180E94D40ABC01CE01479610
:103520000E9415180E9488080E948E0A8091C60683
:103530006CE070E0882331F0682F70E08D3010F07F
:103540006C507109CE010B960E941518BE01655F83
:103550007F4FCE0141960E940416BE01695E7F4FE7
:10356000CE0141960E945815BE01635E7F4F0E94B6
:103570005815B501A40181CF8F929F92AF92BF924F
:10358000CF92DF92EF92FF920F931F93CF93DF932F
:10359000CDB7DEB72C970FB6F894DEBF0FBECDBF08
:1035A0008C016A017B0180914B06811111C00E9440
:1035B000FF06645B7B4F8F4F9F4F6093470670936E
:1035C00048068093490690934A0681E080934B0613
:1035D00080913F06811109C067E474E089E396E0B9
:1035E0000E940D1681E080933F060E94FF068090A6
:1035F000470690904806A0904906B0904A06681980
:1036000079098A099B09693E73408105910508F48F
:10361000D8C00E94FF0660934706709348068093C7
:10362000490690934A0620E030E040E251E4C701A9
:10363000B6010E943E386B017C0120E030E0A90118
:103640000E94CF3920E030E040E05FE387FDD2C048
:10365000C701B6010E942D390E9499397B0177FF7D
:1036600004C0EE24FF24E61AF70A5B0139E1A31A2D
:103670003CEFB30A8091590290915A029B012D5957
:103680003F4F69012A5531094901B701892B09F0DA
:10369000B6C0CE0107960E94C1156CE474E0CE015D
:1036A00001960E940D16BE01695F7F4FCE01019603
:1036B0000E9458156CE474E00E944215BC0189E335
:1036C00096E00E94ED15CE0101960E94AF14CE0146
:1036D00007960E94AF143FECA31637E0B30618F527
:1036E000B701CE0107960E94C1156BE474E0CE01CC
:1036F00001960E940D16BE01695F7F4FCE010196B3
:103700000E9458156CE474E00E944215BC0189E3E4
:1037100096E00E94ED15CE0101960E94AF14CE01F5
:1037200007960E94AF1487ECC816D10418F5B701AC
:10373000CE0107960E94C1156AE474E0CE0101969D
:103740000E940D16BE01695F7F4FCE0101960E9457
:1037500058156CE474E00E944215BC0189E396E0C0
:103760000E94ED15CE0101960E94AF14CE0107967E
:103770000E94AF1423E18216910418F5B701CE011F
:1037800007960E94C11569E474E0CE0101960E947B
:103790000D16BE01695F7F4FCE0101960E9458153C
:1037A0006CE474E00E944215BC0189E396E00E943B
:1037B000ED15CE0101960E94AF14CE0107960E942E
:1037C000AF1469E376E0C8010E940416C8012C9684
:1037D0000FB6F894DEBF0FBECDBFDF91CF911F9122
:1037E0000F91FF90EF90DF90CF90BF90AF909F90A0
:1037F0008F900895C701B6010E942C392DCFCE01BC
:1038000007960E94C1156CE474E0CE0101960E94F7
:103810000D16BE01695F7F4FCE0101960E945815BB
:103820006CE474E00E944215BC0189E396E00E94BA
:10383000ED15CE0101960E94AF14CE0107960E94AD
:10384000AF143FECA31637E0B30638F5C7016AE0C2
:1038500070E00E94F039CE0107960E94C1156BE41A
:1038600074E0CE0101960E940D16BE01695F7F4F84
:10387000CE0101960E9458156BE474E00E94421537
:10388000BC0189E396E00E94ED15CE0101960E94ED
:10389000AF14CE0107960E94AF1487ECC816D1046E
:1038A00038F5C7016AE070E00E94F039CE01079652
:1038B0000E94C1156AE474E0CE0101960E940D16C3
:1038C000BE01695F7F4FCE0101960E9458156BE4DF
:1038D00074E00E944215BC0189E396E00E94ED1558
:1038E000CE0101960E94AF14CE0107960E94AF143C
:1038F00023E18216910408F064CFC7016AE070E00A
:103900000E94F039CE0107960E94C11569E474E067
:10391000CE0101960E940D16BE01695F7F4FCE0158
:1039200001960E9458156BE474E03CCF85ED8093BE
:10393000BC008091470790914807A0914907B0913A
:103940004A070796A11DB11D23E0B695A795979547
:1039500087952A95D1F72091BC0024FD03C01092D1
:1039600045070895409147075091480760914907DE
:1039700070914A07452B462B472B69F30097A10509
:10398000B10541F02AE22A95F1F700C00197A1099B
:10399000B109E1CF809146070C94980B0C9404393F
:1039A0000C94FC3888E090E00E94D01C682F70E0F6
:1039B00089E00E94D10589E090E00E94D01C682F28
:1039C00070E086E00E94D1058AE090E00E94D01C61
:1039D000682F70E083E00C94D1052F923F924F92B4
:1039E0005F926F927F928F929F92AF92BF92CF928F
:1039F000DF92EF92FF920F931F93CF93DF93CDB798
:103A0000DEB7EE970FB6F894DEBF0FBECDBF0E94B3
:103A1000FF0620E137E240E050E00E94043A672BC5
:103A2000682B692B01F58091F2068823E1F00E9452
:103A3000FC10E090F006F090F1060091EE06109177
:103A4000EF062091EC063091ED064091F30650917F
:103A5000F4066091EA067091EB068091E806909179
:103A6000E9060E948E090E94FF066093FD0570938F
:103A7000FE058093FF05909300060091F9051091D3
:103A8000FA052091FB053091FC05601B710B820B40
:103A9000930B61367A4E81059105E0F18091F8052E
:103AA000811107C088E592E00E94901181E0809327
:103AB000F8058DE797E00E946C07892B59F18DE797
:103AC00097E00E944A0790917005E92FF0E0E35ECD
:103AD000FA4F80839F5F923509F40AC19093700575
:103AE0008A30C1F4E0917005F0E0E35EFA4F108295
:103AF00010927005EEE1F5E021E030E040E05191F8
:103B0000C90101965A3209F4F6C045279C01833554
:103B10009105A9F78091FD059091FE05A091FF0503
:103B2000B09100064091F9055091FA056091FB05AE
:103B30007091FC058C019D01041B150B260B370BA6
:103B4000B901A801413C544D6140710570F080936A
:103B5000F9059093FA05A093FB05B093FC0588E363
:103B600092E00E9490111092F8051092EC051092CC
:103B7000ED051092EE051092EF058AEC98E0909317
:103B8000F3058093F2050091C70810E01093F50546
:103B90000093F4058091940990E09093F705809349
:103BA000F6058091C3088530A1F58091C7088A3158
:103BB00008F4B3C28091CA089091CB08843F914029
:103BC00008F07CC21092F1051092F0058FEF9FEF84
:103BD000DC018093EC059093ED05A093EE05B09386
:103BE000EF058BE090E09093E9058093E805609104
:103BF000EC057091ED058091EE059091EF0540E1A7
:103C00000E949C110E948C1182E08093C308109244
:103C1000C7086091EC057091ED058AE19AE00E9479
:103C200098109093E7058093E6056091EC057091FC
:103C3000ED058DE09AE00E9498109093E505809341
:103C4000E4056091EC057091ED0580E09AE00E943A
:103C500098109093E3058093E2050091E40610919B
:103C6000E506F8018081882309F4C1C30E94FF069C
:103C7000C0907705D0907805E0907905F0907A05AE
:103C80006C197D098E099F09C0907305D090740549
:103C9000E0907505F0907605C616D706E806F90699
:103CA00008F0A5C30E94FF064B015C0180927705D6
:103CB00090927805A0927905B0927A05780130E06B
:103CC00020E04AE0F801D1908F0180ED8D0D8A301F
:103CD00008F0C3C2429FC001439F900D11242D2DB7
:103CE000DD0C330B20533109280F391F7F01EACF38
:103CF00010927005F5CE835E9A4FFC01808181346D
:103D00000CF087538295807F235E3A4FF9019281B0
:103D100091348CF19753890F4813FCCE80911D0587
:103D2000843209F0F7CE80912005823509F0F2CE79
:103D3000809121058D3409F0EDCE809122058334E8
:103D400009F0E8CEA9E2B5E090E080E0ECE0F0E038
:103D50002D912C3209F091C101968130910569F4C1
:103D60002C91213409F489C18AE194E00E947F11E9
:103D70000E948C11CFCE9053CECF8830910509F0A0
:103D80007CC1EF5FA090240590902505B09026059A
:103D9000609027057090280540902905F0E0E35ECB
:103DA000FA4FC080D1808281082E000C990BC097F9
:103DB0001AE0189F7001199FF00C11248381E80EFE
:103DC000F11C87FDFA9400E3E01AF10804815580A4
:103DD0004CE050E061E070E0C7010E942F3788237B
:103DE00009F498CE8C2DCC0C990BC097189F90019C
:103DF000199F300D1124C9018D0D911DD7FC9A9585
:103E00006C0190E3C91AD1084FE150E061E070E025
:103E1000C6010E942F37882309F47CCE8A2DAA0C74
:103E2000990BC097189F9001199F300D1124F9012B
:103E3000E90DF11D97FCFA954F01F0E38F1A9108F7
:103E400047E150E070E060E0C4010E942F37882312
:103E500009F460CE8B2DBB0C990BC097189F5001B5
:103E6000199FB00C1124A60CB11C67FCBA9420E376
:103E7000A21AB1084BE350E070E060E0C5010E9477
:103E80002F37882309F446CE872D770C990BC097DE
:103E9000189F3001199F700C1124640C711C47FC91
:103EA0007A9430E3631A71084BE350E070E060E00D
:103EB000C3010E942F37882309F42CCE202F000F36
:103EC000330B20533109129FC001139F900D112411
:103ED0008C010053184F050D111D57FC1A95005306
:103EE0001109063E87E01807C4F46982AA828B8212
:103EF000CD82EE82025B0F83CE0101960E94CE0836
:103F000086519B4DAE014F5F5F4F0E94B2090F81FA
:103F100010E00E54184FEE80CD8046EF57E062EE71
:103F200077E0C8010E942F37882309F4F3CD8092EF
:103F3000F409A092F5096092F609C092F709E0929F
:103F4000F8091093FA090093F9090E94FF066B0122
:103F50007C01C092FC09D092FD09E092FE09F0922A
:103F6000FF0980911C0581118FC00E94FF066C190A
:103F70007D098E099F09693B7B408105910508F009
:103F8000C9CD80E192E00E9490118091F4090E94D5
:103F9000E0118091F5090E94E0118091F6090E94DC
:103FA000E0118091F9099091FA0918EEC12E13E001
:103FB000D12EB6010E94F0397C010091F80910E081
:103FC0002091F70930E04091F60950E06091F50941
:103FD00070E08091F40990E00E948E09A0915B024C
:103FE000B0915C0220E13EE00E944D3A0091C00693
:103FF0001091C1062091C2063091C306DC01CB01AD
:10400000800F911FA21FB31F8093C0069093C1061B
:10401000A093C206B093C3060E94880844EC56E001
:104020000E94B2090E94B20A4C010E94BC0A082FE9
:104030000E94C40AB82E0E94CC0AF82E0E94D40A0C
:10404000182F0E94DC0A382FC401B6010E94F039F3
:10405000E82E2B2D4F2D612F832F0E94F50D81E02F
:1040600080931C050E94FF06609318057093190544
:1040700080931A0590931B054DCD3196E335F105DC
:1040800009F066CEE0E07ECE0E94FF0600911805A2
:104090001091190520911A0530911B05601B710BB9
:1040A000820B930B613477478B41910518F0109286
:1040B0001C0530CD81E080931C052CCD8091CC086F
:1040C0009091CD0885974B9740F5E3ECF8E082E0BE
:1040D00090E040E050E0BA01DC0111962091C70861
:1040E0002A171B0609F00CF48EC02385348527504F
:1040F00031092730310508F085C0258536852351E3
:1041000031092F30310508F470C0258536852A50D5
:1041100031092930310508F470C0063011050CF45E
:1041200073CD83EC98E09EAF8DAF43E0242E312C0D
:1041300055ECC52E5DE9D52E5CE1E52E51E8F52E56
:10414000201631060CF078C0EDADFEAD65857685A4
:10415000A184B28490E080E00E94DD372B013C0115
:10416000B50190E080E00E94DD374B015C012DEC51
:104170003CEC4CE45FE30E943E389B01AC01C30180
:10418000B2010E94D837F0E0E0E087FD14C02DECCA
:104190003CEC4CE45FE3C301B2010E943E389B015A
:1041A000AC01C501B4010E94D837E2E0F0E087FD20
:1041B00002C0E1E0F0E0A701960163E971E080E070
:1041C00091E00E94D4396F01FF0FEE08FF08C62668
:1041D000D726E826F926FFEF2F1A3F0A2DAD3EAD70
:1041E0002E5F3F4F3EAF2DAFABCF440F551F661F25
:1041F000771F4160029634966FCF440F551F661F9C
:10420000771FF8CFCD010197959587959093F1058C
:104210008093F0050C972CF41092F1051092F005A4
:104220007CCF4093EC055093ED056093EE057093C1
:10423000EF0584E090E0D7CCC092EC05D092ED057C
:10424000E092EE05F092EF0580E290E09093F105A8
:104250008093F0058FEF9FEFC6CC30930806209334
:1042600007066091030670910406809105069091FF
:1042700006062115310511F1032E000C440B550BD8
:104280000E94263A20937305309374054093750578
:1042900050937605EFE9ED0DE730B0F40E2E000CEB
:1042A000FF0B8827E95AFE4D8F4F0C94453ADD24C9
:1042B000DF24D124D524D724D924DB24209109025A
:1042C00030E050E040E0DCCF10927205F7018181D0
:1042D000833241F4809172058F5F8093720587016C
:1042E0000E5F1F4FF80180818E32F1F4C09073058C
:1042F000D0907405E0907505F0907605C701B60181
:1043000022E030E040E050E00E94263AC20ED31E88
:10431000E41EF51EC0927305D0927405E0927505F7
:10432000F09276050F5F1F4FF801808180538A302D
:1043300008F047C3809371050F5F1F4FF80180811C
:104340008C3211F40F5F1F4FE0917205EE2309F4D8
:104350004EC0C0907305D0907405E0907505F09044
:104360007605809171058450990B4CE0489F90012F
:10437000499F300D1124E20FF32FF11DEE0FFF1FA7
:10438000EB52FD4FB701A601808191810E940B0481
:104390000E94FF06681979098A099B09C616D70683
:1043A000E806F90620F50E94FF06609377057093F2
:1043B00078058093790590937A0580917C07813008
:1043C00009F404C3823009F407C3811105C0809148
:1043D0006E008D7F80936E0060E080917B070E946D
:1043E000A10381E292E00E94901110E000E010939E
:1043F000E5060093E4060E94FF060091DE05109199
:10440000DF052091E0053091E105601B710B820B07
:10441000930B6630710581059105E8F080910C02DF
:104420008111E0C270E060E089E00E94D10570E097
:1044300060E086E00E94D10570E060E083E00E94C9
:10444000D1050E94FF066093DE057093DF0580931F
:10445000E0059093E1058091530690915406892BD5
:1044600021F08091DD058111DBC180910906811168
:10447000D7C18091910581110DC00E94FF06609304
:104480008D0570938E0580938F059093900581E044
:10449000809391058091850581110DC00E94FF06D2
:1044A00060938105709382058093830590938405C2
:1044B00081E0809385050E94FF0600918D05109193
:1044C0008E0520918F0530919005601B710B820B3A
:1044D000930B009100021091010220910202309191
:1044E0000302061717072807390708F04DC00E9476
:1044F000FF0660938D0570938E0580938F059093D2
:10450000900580917F0590918005009709F0D6C2B3
:1045100081E090E0909354068093530688E893E1FD
:10452000A0E0B0E08093000290930102A093020209
:10453000B093030280917F059091800582309105B0
:1045400081F4109254061092530640E65AEE60E051
:1045500070E0409300025093010260930202709356
:1045600003020196833091050CF0C8C29093800538
:1045700080937F058091DD05882321F010925406F9
:10458000109253061092DD050E94FF0600918D05E2
:1045900010918E0520918F0530919005601B710B55
:1045A000820B930B603D77408105910508F078C33D
:1045B0000E94FF06009181051091820520918305DC
:1045C00030918405601B710B820B930B653671056E
:1045D0008105910508F424C10E94FF0660938105BE
:1045E0007093820580938305909384058091530690
:1045F000909154062091DB06222309F484C2892B72
:1046000089F5CE0149960E94C31981E02091590293
:1046100030915A02232B09F480E00E94F40EAB0182
:10462000BC01CE0101960E94BC1AAE01475E5F4FED
:10463000BE016F5F7F4FCE014F960E946A16BE018A
:10464000615E7F4F80EE99E00E946414CE014F9628
:104650000E94AF14CE0101960E94AF14CE0149967C
:104660000E94AF148091530690915406019709F06F
:1046700062C00E94B20A68EE73E00E94F039BC0189
:10468000CE018B960E9415180E94BC0ABC01CE0177
:1046900085960E9415180E94C40ABC01CE01499655
:1046A0000E941518BE01675E7F4FCE014F960E9493
:1046B0000416BE016B5D7F4FCE014F960E945815C8
:1046C000BE01655D7F4F0E945815BC01CE01C196A9
:1046D0000E940416CE0101960E94C319AE014F5CE0
:1046E0005F4FBE016F5F7F4FCE01C7960E946A1673
:1046F000BE01695C7F4F80EE99E00E946414CE0198
:10470000C7960E94AF14CE0101960E94AF14CE014D
:10471000C1960E94AF14CE014F960E94AF14CE01F5
:1047200049960E94AF14CE0185960E94AF14CE0127
:104730008B960E94AF148091530690915406049773
:1047400009F06EC081E02091590230915A02232B6A
:1047500009F480E00E94F40EAB01BC01CE01C196C9
:104760000E94BC1A0E94B20A68EE73E00E94F039FF
:10477000BC01CE0185960E9415180E94BC0ABC019E
:10478000CE014F960E9415180E94C40ABC01CE01AA
:1047900001960E941518BE016F5F7F4FCE014996AA
:1047A0000E940416BE01615E7F4FCE0149960E94B1
:1047B0005815BE016B5D7F4F0E945815BC01CE019C
:1047C0008B960E940416AE014F5C5F4FBE01655D83
:1047D0007F4FCE01C7960E946A16BE01695C7F4F6B
:1047E00080EE99E00E946414CE01C7960E94AF1437
:1047F000CE018B960E94AF14CE0149960E94AF1451
:10480000CE0101960E94AF14CE014F960E94AF14C4
:10481000CE0185960E94AF14CE01C1960E94AF14BE
:104820000E94FC1187EC99E00E94E40A8EEA99E06C
:104830000E94E40A85E999E00E94E40A8091090651
:10484000811131C210926B068091C7099091C809FD
:10485000181619063CF08091E6059091E70501973E
:1048600009F00AC381E08093DD051092E5061092FD
:10487000E40644E650E060E070E088EE93E00E94D9
:104880000B040E94FF0660930A0670930B06809348
:104890000C0690930D068091530690915406019654
:1048A0008630910509F42CC29093540680935306E8
:1048B00020915306309154068901000F111FF80111
:1048C000E35FFD4F808180936B06D9011197FD0155
:1048D000EE0FFF1FED57FC4F60817181611571056F
:1048E00009F4BBC2AB0141505109FA01EE0FFF1FA1
:1048F000E55AFC4F0190F081E02DAE17BF0709F09B
:10490000ACC26230710509F000C288E1EDEBF2E063
:10491000DE01119601900D928A95E1F780914D028A
:1049200090914E0283709927892B21F48DE190E0BC
:104930009C838B8380914B0290914C020197880F4E
:10494000991F21E030E02C0F3D1F820F931F209113
:10495000490230914A02FC018081918182179307BC
:104960000CF0D3C18AE090E09093540680935306F4
:10497000EE960FB6F894DEBF0FBECDBFDF91CF919C
:104980001F910F91FF90EF90DF90CF90BF90AF906D
:104990009F908F907F906F905F904F903F902F905F
:1049A000089581E08093720591CC83E0FBCF85E090
:1049B000F9CF86E0F7CF88E0F5CF8AE0F3CF8CE03F
:1049C000F1CF8091080280937105B8CC80916F007F
:1049D0008D7F80936F0000CD809170008D7F8093DC
:1049E0007000FACC8091F50681112BCD00917D05E8
:1049F00010917E05F801EE0FFF1FE00FF11FDF01A0
:104A0000AA0FBB1FA95CBC4F8D919C9160910402C1
:104A100070910502680F791F70930502609304027C
:104A2000DF01AA0FBB1FA75CBC4FCD90DC9080912B
:104A3000D3059091D405C80ED91ED092D405C0924A
:104A4000D305EE0FFF1FE55CFC4FE080F180809105
:104A5000D1059091D205E80EF91EF092D205E092B0
:104A6000D10589E00E94D105B60186E00E94D105FA
:104A7000B70183E00E94D10580917B0590917C0570
:104A8000019690937C0580937B058F3F910551F4AF
:104A90000F5F1F4F10937E0500937D0510927C05DC
:104AA00010927B0580917D0590917E0506970CF410
:104AB000C8CC10927E0510927D05C3CC019709F0F9
:104AC00039CD84E090E0909354068093530688E8B3
:104AD00093E1A0E0B0E08093000290930102A093E4
:104AE0000202B09303028091DB068111EEC682E0E0
:104AF00090E09093800580937F051CCD10928005F7
:104B000010927F0537CD892B09F062C0CE01C19686
:104B10000E94C3190E94B20A68EE73E00E94F03945
:104B2000BC01CE0185960E9415180E94BC0ABC01EA
:104B3000CE014F960E9415180E94C40ABC01CE01F6
:104B400001960E941518BE016F5F7F4FCE014996F6
:104B50000E940416BE01615E7F4FCE0149960E94FD
:104B60005815BE016B5D7F4F0E945815BC01CE01E8
:104B70008B960E940416AE014F5C5F4FBE01655DCF
:104B80007F4FCE01C7960E946A16BE01695C7F4FB7
:104B900080EE99E00E946414CE01C7960E94AF1483
:104BA000CE018B960E94AF14CE0149960E94AF149D
:104BB000CE0101960E94AF14CE014F960E94AF1411
:104BC000CE0185960E94AF14CE01C1960E94AF140B
:104BD0008091530690915406019709F021CE0E94CE
:104BE000B20A68EE73E00E94F039BC01CE018B96E8
:104BF0000E9415180E94BC0ABC01CE0185960E9435
:104C000015180E94C40ABC01CE0149960E941518CD
:104C1000BE01675E7F4FCE014F960E940416BE0113
:104C20006B5D7F4FCE014F960E945815BE01655DAA
:104C30007F4F0E945815BC01CE01C1960E940416F8
:104C4000CE0101960E94C319AE014F5C5F4FBE01B9
:104C50006F5F7F4FCE01C7960E946A16BE01695CE6
:104C60007F4F80EE99E00E946414CE01C7960E94A7
:104C7000AF14CE0101960E94AF14CE01C1960E94DE
:104C8000AF14CE014F960E94AF14CE0149960E94F8
:104C9000AF14CE0185960E94AF14CE018B96BECD87
:104CA00010922406BDCD0E94FF0600910A061091C5
:104CB0000B0620910C0630910D06601B710B820BC8
:104CC000930B61367A4E8105910508F4BDCD1092A3
:104CD0000906E0915306F0915406EE0FFF1FE555CB
:104CE000FC4F808191819093540680935306880FE6
:104CF000991FFC01E35FFD4F808180936B06A4CD7B
:104D00001092540610925306D3CD10920906509378
:104D1000540640935306452BB9F40E94B20A7C0115
:104D20000E94BC0A8C010E94C40A40914502509125
:104D3000460260914302709144029C0180914102BD
:104D4000909142020E948E098091530690915406E0
:104D50000197F9F4E0904D02F0904E0200914B0261
:104D600010914C028090490290904A020E94CC0A15
:104D70005C010E94D40A6C010E94DC0A9401A50126
:104D8000B6010E948E09609147028DE090E00E947A
:104D9000CE1C80915306909154060297C1F4609105
:104DA0004F0282E090E00E94CE1C6091510283E0AD
:104DB00090E00E94CE1C6091530284E090E00E943B
:104DC000CE1C6091550286E090E00E94CE1C80913E
:104DD000530690915406039731F46091570281E095
:104DE00090E00E94CE1C8091530690915406049747
:104DF00031F4609159028BE090E00E94CE1C8091CA
:104E0000530690915406059749F460915B02809196
:104E10008302681B8CE090E00E94CE1C0E94B20AC4
:104E20005C010E94BC0A082F0E94C40AD82E0E946E
:104E3000CC0AF82E0E94D40A182F0E94DC0A382FC0
:104E4000C50168EE73E00E94F039E82E2D2D4F2D3C
:104E5000612F832F0E94F50D8BCD2331310561F039
:104E6000295031092230310538F00E941217F8011B
:104E7000EB5CFD4F918380838091C7099091C809B5
:104E800097FD07C08091E6059091E705019609F02E
:104E9000F4C044E650E060E070E088EE93E00E94E9
:104EA0000B0480910906811152C0009153061091A4
:104EB00054060E94FF0660930A0670930B068093C7
:104EC0000C0690930D06012B09F041C00E94CC0AFC
:104ED000BC01CE0185960E9415180E94D40ABC011F
:104EE000CE014F960E9415180E94DC0ABC01CE012B
:104EF00001960E941518BE016F5F7F4FCE01499643
:104F00000E940416BE01615E7F4FCE0149960E9449
:104F10005815BE016B5D7F4F0E9458156BE474E01D
:104F20000E944215BC0180EE99E00E94ED15CE0171
:104F300049960E94AF14CE0101960E94AF14CE0193
:104F40004F960E94AF14CE0185960E94AF148091B7
:104F5000530690915406019709F056C00E94C40A66
:104F600090934A02809349020E94BC0A90934C029B
:104F700080934B020E94B20ABC0190934E02809330
:104F80004D028091470290914802892B09F09BC104
:104F9000CE0185960E94151860914B0270914C02CB
:104FA000CE014F960E9415186091490270914A02F5
:104FB000CE0101960E941518BE016F5F7F4FCE0192
:104FC00049960E940416BE01615E7F4FCE0149964C
:104FD0000E945815BE016B5D7F4F0E945815BC01A1
:104FE00080EE99E00E94ED15CE0149960E94AF1423
:104FF000CE0101960E94AF14CE014F960E94AF14CD
:10500000CE0185960E94AF14E0915306F0915406AC
:10501000EE0FFF1FE555FC4F208131813093540680
:10502000209353062D30310549F481E090E09093B0
:1050300056028093550280E880935B0680910906B2
:1050400091E08927809309068901000F111FF8015B
:10505000E35FFD4F808180936B06A90142515109A6
:105060004230510550F02930310539F00E941217B5
:10507000F801EB5CFD4F918380838091AE099091A4
:10508000AF09009709F030C18091E4059091E505E2
:105090000197E1F481E08093DD051092E50610921E
:1050A000E40644E650E060E070E088EE93E00E94A1
:1050B0000B040E946F1980910906811107C010929C
:1050C000F50660E087E090E00E94CE1C8091DB0551
:1050D0009091DC05019609F010C18091B0098823F8
:1050E00009F40BC110926D06809109068823F9F02E
:1050F0000E94FF060091D7051091D8052091D9058F
:105100003091DA05601B710B820B930B67397105C7
:105110008105910560F00E94FF066093D7057093AA
:10512000D8058093D9059093DA050E946F19809174
:10513000950990919609009709F0E3C08091E205E6
:105140009091E305019771F511E01093DD05109240
:10515000E5061092E40644E650E060E070E088EE78
:1051600093E00E940B040E9410198091090681119E
:1051700019C01093F50661E087E090E00E94CE1C14
:105180006091040288E090E00E94CE1C6091D305FB
:1051900089E090E00E94CE1C6091D1058AE090E009
:1051A0000E94CE1C8091D5059091D605019609F0FC
:1051B000B1C080919709882309F4ACC08091090699
:1051C00010926C06882321F10E94FF060091CD0504
:1051D0001091CE052091CF053091D005601B710B49
:1051E000820B930B673971058105910508F449C05D
:1051F0000E94FF066093CD057093CE058093CF0586
:105200009093D0050E94101980910906811139C030
:105210008091AE099091AF0997FD06C08091E40599
:105220009091E505019691F444E650E060E070E06D
:1052300088EE93E00E940B0481E080930C0261E011
:1052400090E080E00E94CE1C0E94D21C80919509C3
:105250009091960997FD06C08091E2059091E30533
:10526000019679F444E650E060E070E088EE93E067
:105270000E940B0410920C0260E090E080E00E941B
:10528000CE1CE0915306F0915406E431F10508F08C
:105290006FCB8827E15BF64D8F4F0C94453A8E29F2
:1052A000082AFD2A492B722BB62BB824B824B8241F
:1052B000E52B0D2C0D2C0D2CB824B824B824B824C3
:1052C000B824722BB62BCE0185960E9415186091DA
:1052D000490270914A02CE014F960E9415186091C2
:1052E0004B0270914C0264CE9093DC058093DB05F9
:1052F000181619060CF4CECEC7CE81E080936D0649
:1053000016CF9093D6058093D505181619060CF480
:105310001BCF14CF81E080936C0676CF809124065A
:1053200081112DC00E94FF060091990510919A05E8
:1053300020919B0530919C05601B710B820B930B98
:10534000633371058105910508F45BC00E94FF0677
:105350006093990570939A0580939B0590939C05A3
:10536000CE0101960E94C319BE016F5F7F4F80EE90
:1053700099E00E946414CE0101960E94AF148091BE
:10538000A20581110DC00E94FF0660939E057093D7
:105390009F058093A0059093A10581E08093A205CD
:1053A00000919D0510E00E94CC0A0817190781F0B2
:1053B0000E94FF0660939E0570939F058093A00551
:1053C0009093A10510925B060E94CC0A80939D05E4
:1053D0000E94FF0600919E0510919F052091A00557
:1053E0003091A105601B710B820B930B653F7140DF
:1053F0008105910518F080EC80935B060E94C10F37
:10540000B7CA60EE79E0CE0101960E940416ACCFD7
:10541000809124068111DEC08091C505811111C0E3
:105420000E94FF0667517C4F8F4F9F4F6093C105CD
:105430007093C2058093C3059093C40581E0809367
:10544000C5058091B905811144C00E94B20A68EE79
:1054500073E00E94F039BC01CE0101960E9415183C
:105460000E94BC0ABC01CE0149960E9415180E94F8
:10547000C40ABC01CE0185960E941518BE016B5D61
:105480007F4FCE014F960E940416BE01675E7F4F8C
:10549000CE014F960E945815BE016F5F7F4F0E944C
:1054A0005815BC0183EB95E00E94041681E08093BF
:1054B000B905CE014F960E94AF14CE0185960E9489
:1054C000AF14CE0149960E94AF14CE0101960E94FE
:1054D000AF1400914702109148028091AB058111F1
:1054E00005C00093AA0581E08093AB050E94FF06EA
:1054F000C090C105D090C205E090C305F090C405EE
:105500006C197D098E099F09693E734081059105DB
:1055100030F48091AA058017110609F44AC00E9450
:10552000FF066093C1057093C2058093C3059093F5
:10553000C405012B09F050C00E94B20ABC01CE0183
:1055400001960E9415180E94BC0ABC01CE01499622
:105550000E9415180E94C40ABC01CE0185960E94C3
:105560001518BE016B5D7F4FCE014F960E94041649
:10557000BE01675E7F4FCE014F960E945815BE0157
:105580006F5F7F4F0E945815BC0183EB95E00E942E
:10559000ED15CE014F960E94AF14CE0185960E9464
:1055A000AF14CE0149960E94AF14CE0101960E941D
:1055B000AF1463EB75E0CE0101960E940416BE01A4
:1055C0006F5F7F4F80EE99E00E946414CE010196D8
:1055D0000E94AF1480E410CF0E94B20ABC01CE0139
:1055E00001960E9415180E94C40ABC01CE0149967A
:1055F0000E9415180E94BC0AAFCF609153027091AF
:105600005402CE0185960E94151860915102709146
:105610005202CE014F960E94151860914F02709170
:105620005002CE0101960E941518BE016F5F7F4F98
:10563000CE0149960E940416BE01615E7F4FCE01E5
:1056400049960E945815BE016B5D7F4F0E94581508
:105650006BE474E00E944215BC0180EE99E00E9468
:10566000ED15CE0149960E94AF14CE0101960E941D
:10567000AF14CE014F960E94AF14CE0185960E94C2
:10568000AF148091550290915602019741F580E840
:10569000B3CE6091570270915802CE0149960E9494
:1056A000C1156BE474E0CE0101960E940D16BE0197
:1056B000675E7F4FCE0101960E94581569E474E041
:1056C0000E944215BC0180EE99E00E94ED15CE01CA
:1056D00001960E94AF14CE0149960E94AF14109219
:1056E0005B068CCE80912406811124C081E020913C
:1056F000590230915A02232B09F480E00E94F40EE3
:10570000AB01BC01CE0101960E94BC1ABE016F5FC5
:105710007F4F80EE99E00E946414CE0101960E94B2
:10572000AF148091590290915A02892BD1F480E4F0
:1057300080935B0681E02091590230915A02232B1D
:1057400009F480E00E94F40E10915B0620E030E046
:10575000A9010E94D83787FF07C0106810935B0625
:1057600007C910925B06E6CF1F77F8CF60915B0206
:1057700070915C02CE0101960E941518BE016F5F08
:105780007F4FCE0149960E94041667E474E0CE0173
:1057900049960E944215BC0180EE99E00E94ED15E9
:1057A000CE0149960E94AF14CE0101960E94AF141B
:1057B00080915B0290915C0297FD03C010925B06A2
:1057C000D7C880E880935B06D3C880914702909148
:1057D0004802892B99F46CE274E080EE99E00E9413
:1057E000B71583E090E090932202809321028CE031
:1057F00090E09093240280932302BAC865E374E09A
:1058000080EE99E00E94B7158CE090E09093220220
:105810008093210283E090E0ECCF60914D02709183
:105820004E028091470290914802892BE9F5CE0102
:1058300085960E94671760914B0270914C02CE01D1
:105840004F960E9415186091490270914A02CE014C
:1058500001960E941518BE016F5F7F4FCE014996D9
:105860000E940416BE01615E7F4FCE0149960E94E0
:105870005815BE016B5D7F4F0E945815BC0180EE2C
:1058800099E00E94ED15CE0149960E94AF14CE0119
:1058900001960E94AF14CE014F960E94AF14CE0124
:1058A00085960E94AF1464C8CE0185960E94671742
:1058B0006091490270914A02CE014F960E941518DC
:1058C00060914B0270914C02C2CF81E090E00C9449
:1058D000B1221F920F920FB60F9211242F933F9374
:1058E0008F939F93AF93BF938091F7069091F806A3
:1058F000A091F906B091FA063091F60623E0230F45
:105900002D3758F50196A11DB11D2093F606809301
:10591000F7069093F806A093F906B093FA068091E3
:10592000FB069091FC06A091FD06B091FE06019643
:10593000A11DB11D8093FB069093FC06A093FD066C
:10594000B093FE06BF91AF919F918F913F912F91A0
:105950000F900FBE0F901F90189526E8230F029608
:10596000A11DB11DD2CF1F920F920FB60F9211241D
:105970000BB60F922F933F934F935F936F937F9349
:105980008F939F93AF93BF93EF93FF938DE797E030
:105990000E948C07FF91EF91BF91AF919F918F91E2
:1059A0007F916F915F914F913F912F910F900BBE1F
:1059B0000F900FBE0F901F9018951F920F920FB669
:1059C0000F9211240BB60F922F938F939F93EF9307
:1059D000FF93E0918D07F0918E078081E09193070E
:1059E000F091940782FD1DC09081809196078F5F92
:1059F0008F7320919707821741F0E0919607F0E0AE
:105A0000E358F84F958F80939607FF91EF919F9100
:105A10008F912F910F900BBE0F900FBE0F901F9084
:105A200018958081F2CF1F920F920FB60F9211241A
:105A30000BB60F922F933F934F935F936F937F9388
:105A40008F939F93AF93BF93EF93FF938AE198E077
:105A50000E948C07FF91EF91BF91AF919F918F9121
:105A60007F916F915F914F913F912F910F900BBE5E
:105A70000F900FBE0F901F9018951F920F920FB6A8
:105A80000F9211240BB60F922F938F939F93EF9346
:105A9000FF93E0912A08F0912B088081E091300873
:105AA000F091310882FD1DC09081809133088F5F95
:105AB0008F7320913408821741F0E0913308F0E0B1
:105AC000E65EF74F958F80933308FF91EF919F919A
:105AD0008F912F910F900BBE0F900FBE0F901F90C4
