:020000040000FA
:100000000C9423020C9454020C9454020C94540249
:100010000C9454020C9454020C9454020C94540208
:100020000C9454020C9454020C9454020C945402F8
:100030000C9454020C94FA2D0C9454020C94540217
:100040000C9454020C944D2E0C9454020C945402B3
:100050000C9454020C94AC2E0C9454020C94302C3E
:100060000C9454020C94042D0C94DA2C0C9454022D
:100070000C9454020C9454020C9454020C945402A8
:100080000C9454020C9454020C9454020C94540298
:100090000C94A42C0C947A2C0C9454020C940B2FDA
:1000A0000C9454020C9454020C9454020C94540278
:1000B0000C9454020C9454020C9454020C943A2D57
:1000C0000C9454020C9454020C9454020C94540258
:1000D0000C9454020C9454020C9454020C94540248
:1000E0000C9454020C944E030C94D5240C94580395
:1000F0000C948E290C94DD240C940E070C94700D36
:100100000C94300F0C94392B0C940C070C94B824DD
:100110000C94D1240C946F0D0C94AC2B0C946206AF
:100120000C94A3060C94920D0C947D2B0C945E07FA
:100130000C94DF240C940B070C94AE070C94700302
:100140000C94990D0C944A030C944A070C94420F9A
:100150000C9458060C9474030C94240F0C941608F9
:100160000C943C060C9404370C946B0E0C941606FD
:100170000C9420060C947A0F0C9454030C94660390
:100180000C946F030C946A030C943B070C940E2B95
:100190000C9411060C9499060C9409060C94DB241B
:1001A0000C9435030C9471060C9462030C94CD29C5
:1001B0000C947B060C94D7240C94D9240C94410302
:1001C0000C94C60D0C9444060C9434060C945C03F9
:1001D0000C94D42B0C9468300C9439030C94440385
:1001E0000C947F0D0C94340F0C94C22A0C944E0680
:1001F0000C9485060C94670F0C942A060C948F06B9
:100200000C943D030C946C070C942F030C94690F11
:100210005570646174696E672074696D652E2E2E49
:1002200000496E636F727265637420536F6E67204E
:10023000466F726D61742100416C6C20617474654D
:100240006D707473207765726520756E7375636366
:1002500065737366756C2E00417474656D707420DF
:10026000746F2073796E63207769746820475053E8
:100270002E0044617465206F722054696D65206E94
:100280006F7420696E2072616E6765000201005311
:10029000746F7020546573740054656D702E2073F4
:1002A000656E736F72206E6F7420666F756E642E4C
:1002B00000475053204E4F54206465746563746545
:1002C000642100475053206465746563746564005D
:1002D00053746172742054657374004E4353333108
:1002E000322D3820485635313232206F7220485630
:1002F00035323232004669726D77617265207665FB
:100300007273696F6E3A20004661756C747920448F
:10031000533332333121004453333233315F543D50
:100320000000002100240027002A002D00300033A7
:100330000001010000040107010A0100002200255C
:100340000028002B002E00310034000201000005BF
:100350000108010B0100000A0B02090C0D0E080731
:100360000304010000000000000000000000000085
:10037000000000000000000000000000000000007D
:10038000001211100000000000000000000000003A
:10039000000000000000000000000000002000231A
:1003A00000260029002C002F00320000010000036D
:1003B00001060109010505050507050808080802E9
:1003C0000202020A0A0808040404040101010101EE
:1003D0000101010303030303030303040707070CDD
:1003E0000C0C0C0C0C0C0C02020202060606060693
:1003F0000606060B0B0B0B0B0B0B0B010210202040
:100400000808102040102040800201020108040268
:1004100001010204081020408080402010080402DE
:100420000180040201804020100804020108040237
:10043000010102040810204080010204081020403D
:1004400080006830043711241FBECFEFD1E2DEBF39
:10045000CDBF00E00CBF2AE0A8E1B5E001C01D92CD
:10046000A432B207E1F715E0A0E0B2E0EEEBF8E766
:1004700000E00BBF02C007900D92A831B107D9F779
:1004800012E0C2E2D2E000E006C021970109802F0D
:10049000FE010E940C3AC132D10780E00807A9F79B
:1004A0000E9457310C944D3C0C9400008CBD9DBDB6
:1004B00008958091D909E091DA09F091DB09F89467
:1004C0009181982B91832281382F30952323228389
:1004D000A7E0B0E01197F1F7918193239183A3E214
:1004E000B0E01197F1F790817894EFECF0E031975C
:1004F000F1F7982381E009F480E008959091D909FB
:10050000E091DA09F091DB09292F209580FF14C0D2
:10051000F8948281822382838181892B8183A3E263
:10052000B0E01197F1F78281982B9283789487ED50
:1005300090E00197F1F70895F894828182238283F5
:100540008181892B8183AFEFB0E01197F1F7828130
:10055000982B928378948FE090E0EBCF0F931F93CA
:10056000CF93DF93082FC8E0D0E011E081E0902F17
:10057000912309F480E00E947E02110F2197B1F7C8
:10058000F894E091DA09F091DB0991818091D90921
:10059000809598239183E091DA09F091DB099281AB
:1005A000892382837894DF91CF911F910F910895D1
:1005B0008091D909E091DA09F091DB09F8949181F1
:1005C000282F20959223918378943DE743E050E0D3
:1005D000315029F1DA011197F1F790819823C1F395
:1005E000F8949281922392839181982B91837894AD
:1005F000ABE7B7E01197F1F7F894918192239183DB
:10060000A3E1B1E01197F1F79081982381E009F01F
:1006100080E07894E3E6F6E03197F1F7089580E022
:1006200008958150823108F05AC0E82FF0E0882701
:10063000E35EFC4F8F4F0C940C3A3D0341032F03B4
:10064000350339036F0344034A034E03540358032D
:100650005C03620366036F036A0370037403809193
:1006600080008F77809380000895809180008F7D37
:10067000F9CF80918000877FF5CF84B58F7784BDD7
:10068000089584B58F7DFBCF8091B0008F778093E4
:10069000B00008958091B0008F7DF9CF80919000D7
:1006A0008F77809390000895809190008F7DF9CF8F
:1006B00080919000877FF5CF8091A0008F77809305
:1006C000A00008958091A0008F7DF9CF8091A000B7
:1006D000877FF5CF809120018F7780932001089547
:1006E000809120018F7DF9CF80912001877FF5CF08
:1006F000CF93DF93282F30E0F901EB5AFC4F849120
:10070000F901E550FC4FD491F901EB54FC4FC49131
:10071000CC23A1F081110E941103EC2FF0E0EE0F29
:10072000FF1FE556FC4FA591B491EC91ED2381E0BC
:1007300090E009F480E0DF91CF91089580E090E0AF
:10074000FACF1F93CF93DF93282F30E0F901EB5AB4
:10075000FC4F8491F901E550FC4FD491F901EB5421
:10076000FC4FC491CC23A9F0162F81110E941103D4
:10077000EC2FF0E0EE0FFF1FE55CFC4FA591B4916C
:100780008FB7F894EC91111108C0D095DE23DC935B
:100790008FBFDF91CF911F910895DE2BF8CFCF93BC
:1007A000DF9390E0FC01E550FC4F24918B549C4F6B
:1007B000FC0184918823C9F090E0880F991FFC0107
:1007C000EF5DFC4FA591B491FC01E55CFC4FC59138
:1007D000D49161110DC09FB7F8948C91209582231C
:1007E0008C938881282328839FBFDF91CF91089520
:1007F000623051F49FB7F8943C91822F8095832307
:100800008C93E8812E2BEFCF8FB7F894EC912E2BA1
:100810002C938FBFEACF4F925F926F927F928F920D
:100820009F92AF92BF92CF92DF92EF92FF920F937F
:100830001F93CF93DF9300D01F921F92CDB7DEB7E7
:1008400020916F0727FD2CC149835A836B837C83DA
:100850008C0161E080916E070E94CF0380916F0749
:100860008D834801B12CA12C8D7F09F031C160E04E
:1008700072E18AE790E0A50198010E94ED39290113
:100880003A017A01690191E0C91AD108E108F10839
:10089000AFEFCA16D104E104F10409F00CF4C7C0AB
:1008A00060E472E48FE090E0A50198010E94ED39C8
:1008B00069017A01B1E0CB1AD108E108F1088D8114
:1008C000823009F06AC082E09FEFC916D104E104CA
:1008D000F10409F00CF45EC160E970ED83E090E092
:1008E000A50198010E94ED3969017A01A1E0CA1AB7
:1008F000D108E108F10883E0BFEFCB16D104E10491
:10090000F10409F00CF446C168E478EE81E090E06F
:10091000A50198010E94ED3969017A0181E0C81AA8
:10092000D108E108F10884E09FEFC916D104E10481
:10093000F10409F00CF42EC164E274EF80E090E061
:10094000A50194010E94ED3969017A01B1E0CB1A49
:10095000D108E108F10885E09FEFC916D104E10450
:10096000F10409F008F416C162E17AE780E090E052
:10097000A50194010E94ED3969017A01B1E0CB1A19
:10098000D108E108F1088FEFC816D104E104F104A1
:1009900011F008F0F0C086E0FDC08FEFC816D1045A
:1009A000E104F10409F00CF491C068E478EE81E010
:1009B00090E0A50198010E94ED3969017A0191E06A
:1009C000C91AD108E108F108AD8184E0A111C4CFB2
:1009D00083E0AFEFCA16D104E104F10461F15CF1E8
:1009E00062E17AE780E090E0A50194010E94ED3990
:1009F00069017A0181E0C81AD108E108F10884E0B0
:100A00009FEFC916D104E104F104A9F0A0F073012D
:100A100062019AE0F594E794D794C7949A95D1F738
:100A2000A1E0CA1AD108E108F10885E004C081E01C
:100A3000AD81A111AFC095B5987F892B85BD898106
:100A40009A81AB81BC812FEF3FEFA901892B8A2BC3
:100A50008B2B79F0D801AA0FBB1F29813A814B81DA
:100A60005C810E94D93828EE33E040E050E00E94DB
:100A7000CB399D81913009F45CC0923009F46BC090
:100A800091110EC0C7BC20936A0730936B07409347
:100A90006C0750936D0780916E00826080936E00AA
:100AA0000F900F900F900F900F90DF91CF911F91AB
:100AB0000F91FF90EF90DF90CF90BF90AF909F90FD
:100AC0008F907F906F905F904F90089582E0B0CFAD
:100AD00060E072E18AE790E0A50198010E94ED399B
:100AE00069017A01B1E0CB1AD108E108F10891E07F
:100AF000C114D10481E0E806F10484F068E478EEE2
:100B000081E090E0A50198010E94ED3969017A0128
:100B100091E0C91AD108E108F10893E0AD81A13054
:100B200009F08DCF80918100887F892B809381008F
:100B300086CFD0928900C0928800209366073093B8
:100B40006707409368075093690780916F00826040
:100B500080936F00A5CFC092B300209362073093BB
:100B6000630740936407509365078091700082602B
:100B70008093700095CF730162018AE0F594E79449
:100B8000D794C7948A95D1F7B1E0CB1AD108E10880
:100B9000F10887E09091B100987F892B8093B10094
:100BA0004ECF1F93CF93DF93182FEB0161E00E948C
:100BB000CF03209739F460E0812FDF91CF911F910F
:100BC0000C94A103CF3FD10511F461E0F5CFE12FE3
:100BD000F0E0EB5AFC4FE491E150E23108F0B3C091
:100BE000F0E08827E950FA4F8F4F0C940C3A090631
:100BF0001106160620062A06A30634063C064406FD
:100C00004E065806620671067B06A30685068F0609
:100C1000990684B5806884BDC7BDDF91CF911F91CF
:100C2000089584B5806284BDC8BDF7CF80918000EF
:100C3000806880938000D0938900C0938800EDCFB6
:100C400080918000806280938000D0938B00C0935D
:100C50008A00E3CF80918000886080938000D093E9
:100C60008D00C0938C00D9CF8091B00080688093B4
:100C7000B000C093B300D1CF8091B0008062809368
:100C8000B000C093B400C9CF809190008068809379
:100C90009000D0939900C0939800BFCF80919000AE
:100CA000806280939000D0939B00C0939A00B5CF50
:100CB00080919000886080939000D0939D00C093B5
:100CC0009C00ABCF8091A00080688093A0008091B1
:100CD000A0008F7B8093A000D093A900C093A800B0
:100CE0009CCF8091A00080628093A000D093AB0045
:100CF000C093AA0092CF8091A00088608093A0004A
:100D0000D093AD00C093AC0088CF80912001806863
:100D100080932001D0932901C09328017ECF809138
:100D20002001806280932001D0932B01C0932A017F
:100D300074CF80912001886080932001D0932D0191
:100D4000C0932C016ACFC038D1050CF03ECF33CF11
:100D50003FB7F8948091EE069091EF06A091F006CF
:100D6000B091F10626B5A89B05C02F3F19F001965A
:100D7000A11DB11D3FBFBA2FA92F982F8827BC01F5
:100D8000CD01620F711D811D911D42E0660F771F1D
:100D9000881F991F4A95D1F708958F929F92AF921D
:100DA000BF92CF92DF92EF92FF924B015C010E94C3
:100DB000A8066B017C010E94A8066C197D098E09AA
:100DC0009F09683E734081059105A8F321E0821ACE
:100DD0009108A108B10888EEC80E83E0D81EE11C76
:100DE000F11C81149104A104B10429F7FF90EF9044
:100DF000DF90CF90BF90AF909F908F9008952FB7C6
:100E0000F8946091EA067091EB068091EC0690915F
:100E1000ED062FBF0895089508950895AF92BF92EB
:100E2000CF92DF92EF92FF920F931F93CF93DF93B6
:100E30006C017B018B01040F151FEB015E01AE18E5
:100E4000BF08C017D10759F06991D601ED91FC9107
:100E50000190F081E02DC6011995892B79F7C50124
:100E6000DF91CF911F910F91FF90EF90DF90CF9086
:100E7000BF90AF900895FC01538D448D252F30E035
:100E8000842F90E0821B930B541710F0CF96089597
:100E900001970895FC01918D828D981761F0A28DC4
:100EA000AE0FBF2FB11D5D968C91928D9F5F9F738A
:100EB000928F90E008958FEF9FEF0895FC01918D40
:100EC000828D981731F0828DE80FF11D858D90E0AD
:100ED00008958FEF9FEF0895FC01918D228D892F4A
:100EE00090E0805C9F4F821B91098F739927089532
:100EF00080E797E00E946C0721E0892B09F420E04D
:100F0000822F08958DE098E00E946C0721E0892BE4
:100F100009F420E0822F0895FC01A48DA80FB92FB9
:100F2000B11DA35ABF4F2C91848D90E001968F7311
:100F30009927848FA689B7892C93A089B1898C9130
:100F4000837080648C93938D848D981306C002887F
:100F5000F389E02D80818F7D80830895EF92FF9249
:100F60000F931F93CF93DF93EC0181E0888F9B8DCC
:100F70008C8D98131AC0E889F989808185FF15C086
:100F80009FB7F894EE89FF896083E889F9898081A9
:100F90008370806480839FBF81E090E0DF91CF9178
:100FA0001F910F91FF90EF900895F62E0B8D10E09A
:100FB0000F5F1F4F0F731127E02E8C8D8E110CC009
:100FC0000FB607FCFACFE889F989808185FFF5CF54
:100FD000CE010E948C07F1CFEB8DEC0FFD2FF11DA0
:100FE000E35AFF4FF0829FB7F8940B8FEA89FB8991
:100FF00080818062CFCF0F931F93CF93DF938C01BB
:10100000D0E0C0E0F801EC0FFD1F6491662341F0D1
:101010008DE098E00E94AE07892B11F02196F2CF67
:10102000CE01DF91CF911F910F910895CF93DF9360
:10103000EC01888D8823B9F0AA89BB89E889F989F0
:101040008C9185FD03C0808186FD0DC00FB607FC25
:10105000F7CF8C9185FFF2CF808185FFEDCFCE0158
:101060000E948C07E9CFDF91CF91089580E090E056
:10107000892B29F00E94820781110E94000080E0E4
:1010800090E0892B29F00E94780781110E940000CE
:1010900080E090E0892B49F080E090E0892B29F0F6
:1010A0000E94000081110E94000080E090E0892BE6
:1010B00049F080E090E0892B29F00E940000811126
:1010C0000C94000008956093B3067093B406809367
:1010D000B5069093B606645D7E4F8F4F9F4F609329
:1010E000AF067093B0068093B1069093B20682E08B
:1010F00090E09093AE068093AD060E94FF06609349
:10110000A9067093AA068093AB069093AC06089547
:10111000CF92DF92EF92FF920F931F930E94FF06F0
:101120008B019C01C090A906D090AA06E090AB0666
:10113000F090AC066091B3067091B4068091B5064C
:101140009091B6060C191D092E093F09083E13405F
:1011500021053105E0F0DC01CB010196A11DB11D97
:101160008093B3069093B406A093B506B093B606E9
:10117000B701A60148515C4F6F4F7F4F4093A906BE
:101180005093AA066093AB067093AC06C7CF1F912D
:101190000F91FF90EF90DF90CF9008954F925F9264
:1011A0006F927F928F929F92AF92BF92CF92DF9277
:1011B000EF92FF920F931F93CF93DF93FC01168161
:1011C000A12FB0E020E833E341EE51E00E94D9388E
:1011D0004B015C01C2EBD7E09D0104E610E080E921
:1011E000E82EFF24F394CE01825B97408217930789
:1011F0009CF14580512C2E54384FC90164E670E0B3
:101200000E94B7397C01C90160E971E00E94B739D9
:101210006C0107EE13E0C1E0D0E0390183E0682201
:101220007724C415D5050CF040C0C230D10571F546
:101230006114710459F5E114F10419F4C114D104D5
:1012400029F5B0E88B0EBBE39B1EB6E2AB1EB11CCA
:1012500021960F5F1F4FE5CFCE0183709927892B11
:1012600099F4CE01B8010E94B739892B31F4CE012F
:10127000B7010E94B739892B39F4A0E88A0EA1E59D
:101280009A1EA1E0AA1EB11C2196ADCFD8018C9167
:10129000A82FB0E020E831E541E050E00E94D938C5
:1012A000860E971EA81EB91ED3CF228130E0A0E182
:1012B000BEE00E94E4386B017C01218130E0ACE3A8
:1012C000B0E00E94E438C60ED71EE81EF91E8081E9
:1012D000C80ED11CE11CF11CA481A150BB0B20E85D
:1012E00031E541E050E00E941B3A6C0D7D1D8E1DE2
:1012F0009F1D680D791D8A1D9B1DDF91CF911F9148
:101300000F91FF90EF90DF90CF90BF90AF909F90A4
:101310008F907F906F905F904F900895EF92FF9223
:101320000F9394E6E916F104CCF092EBE91A97E0FA
:10133000F90AE092BD060093BC062093BB06809399
:10134000B9066093B8064093B70687EB96E00E9413
:10135000CE080F91FF90EF900C9463089EE1E90E88
:10136000F11CE7CF6F927F928F929F92AF92BF92C4
:10137000CF92DF92EF92FF920F931F93CF93DF9361
:101380006B017C01EA018CE3882E912CA12CB12CFD
:10139000C701A50194010E94CB396883CA01B90134
:1013A000A50194010E94CB396983C701B60120E1F0
:1013B0003EE040E050E00E94CB39CA01B90128E18B
:1013C00030E040E050E00E94CB396A83C701B601AB
:1013D00020E831E541E050E00E94CB3969017A0113
:1013E000CA01B9016C5F7F4F8F4F9F4F27E030E0FC
:1013F00040E050E00E94CB396F5F6B83812C912CD1
:10140000540140E094E6692E712C00E911E0242F8C
:1014100030E02E54384FF901E370FF273097F9F48C
:10142000C901B3010E94B739892B31F4C901B80150
:101430000E94B739892B99F48EE691E0A0E0B0E0E4
:10144000880E991EAA1EBB1ED501C401AA27BB2760
:10145000C816D906EA06FB0638F04F5FD8CF8DE6EE
:1014600091E0A0E0B0E0ECCF4E83C90164E670E00B
:101470000E94B7398C01C90160E971E00E94B73957
:10148000309729F401151105E1F40097D1F04DE6EC
:1014900051E060E070E0841A950AA60AB70AC818FD
:1014A000D908EA08FB08A7EEB3E020E0213071F488
:1014B000309791F50115110511F4009769F54DE18B
:1014C00006C04EE651E060E070E0E5CF4C9150E0A0
:1014D00070E060E031E0320FC416D506E606F7068C
:1014E00040F0C41AD50AE60AF70A1196232F3C30B9
:1014F000E9F62F5F2D83C394CC82DF91CF911F91AA
:101500000F91FF90EF90DF90CF90BF90AF909F90A2
:101510008F907F906F9008954CE1D9CFCF92DF925A
:10152000EF92FF92C090A506D090A606E090A70685
:10153000F090A806C616D706E806F90671F06B010A
:101540007C0147EB56E00E94B209C092A506D092FA
:10155000A606E092A706F092A806FF90EF90DF9013
:10156000CF9008950E9488080E948E0A8091BD063F
:1015700090E08E54984F08950E9488080E948E0A29
:101580008091BC0690E008950E9488080E948E0A0F
:101590008091BB0690E008950E9488080E948E0A00
:1015A0008091B70690E008950E9488080E948E0AF4
:1015B0008091B80690E008950E9488080E948E0AE3
:1015C0008091B90690E00895CF92DF92EF92FF925A
:1015D000CF93DF93EC010E94FF066B017C018F85A6
:1015E0000E9478039C0181E02115310509F480E017
:1015F000898B8889811105C091E0232B09F090E047
:10160000998B29898A89281721F0CD8ADE8AEF8A69
:10161000F88E8D899E89AF89B88DB701A601481BC8
:10162000590B6A0B7B0BDB01CA01CB80DC80ED80A0
:10163000FE80C816D906EA06FB0664F43A81231731
:1016400049F02A83222349F04B895C894F5F5F4F21
:101650005C8B4B8B3A81311117C0CF80D884E984E1
:10166000FA84C816D906EA06FB0634F48B899C89ED
:10167000998388831C8A1B8A2A8BDF91CF91FF90E4
:10168000EF90DF90CF900895CB84DC84ED84FE84CE
:10169000C816D906EA06FB067CF78B899C899195CA
:1016A00081959109E5CF20918206260F3327331FBC
:1016B00021323105ECF420913807FC0190E080E004
:1016C000243069F082E00895A09182062191AC0156
:1016D0004E59594FA40FB52FB11D2C930196861763
:1016E00098F380918206680F6093820680E00895E7
:1016F00081E008951092380781E0809337071092B7
:10170000120761E084E10E94A10361E085E10E948B
:10171000A103E9EBF0E080818E7F808380818D7F63
:10172000808388E48093B80085E48093BC000895AA
:10173000CF93DF9391E0909361068823B9F0C09135
:10174000B800D091BA008091BC008A7B8093BC0025
:1017500060E084E10E94A10360E085E10E94A103B2
:101760000E947A0BD093BA00C093B800DF91CF915A
:101770000895CF92DF92EF92FF920F931F93CF9332
:10178000DF93D091610781E0D13208F09CC0C09115
:1017900060070E94A8066B017C01809138078111C7
:1017A0006CC082E08093380781E0809337078FEF29
:1017B0008093360710923507D0933407A0E4B7E042
:1017C000E4E1F7E080E0D8138DC010921307809118
:1017D0001307CC0FC82BC0931307809112078130D9
:1017E00009F084C0109212070E94A8066B017C01C8
:1017F000809113078093BB0080913A0790913B073B
:10180000A0913C07B0913D07892B8A2B8B2BA1F02F
:101810000E94A80600913A0710913B0720913C07CF
:1018200030913D076C197D098E099F09061717072E
:101830002807390708F442C08091BC0083FDD8CF47
:1018400085EC8093BC000E94A8066B017C0180910E
:101850003807823009F44CC0809136078F3F09F475
:1018600069C080913607803209F466C080913607DE
:10187000803309F463C084E026C080913A079091D8
:101880003B07A0913C07B0913D07892B8A2B8B2BFE
:1018900009F483CF0E94A80600913A0710913B07F4
:1018A00020913C0730913D076C197D098E099F09F5
:1018B000061717072807390708F06FCF80913907F7
:1018C0000E94980B85E010923F07109261071092DA
:1018D0003E07DF91CF911F910F91FF90EF90DF9026
:1018E000CF9008959D9191938F5F6DCF85EEA9CF95
:1018F00080913A0790913B07A0913C07B0913D073A
:10190000892B8A2B8B2B09F4A2CF0E94A806009169
:101910003A0710913B0720913C0730913D076C1925
:101920007D098E099F09061717072807390708F050
:101930008ECFC4CF80E0C7CF82E0C5CF83E0C3CFD6
:10194000CF92DF92EF92FF920F931F93CF93DF938B
:10195000D82FC62F613208F098C00E94A8066B01EC
:101960007C018091380781116BC081E0809338073A
:10197000809337079FEF90933607109235079C0F9F
:10198000909334078093130780911307DD0FD82BB2
:10199000D093130780911207813009F078C010921C
:1019A00012070E94A8066B017C01809113078093A7
:1019B000BB0080913A0790913B07A0913C07B09102
:1019C0003D07892B8A2B8B2BA1F00E94A806009142
:1019D0003A0710913B0720913C0730913D076C1965
:1019E0007D098E099F09061717072807390708F48C
:1019F00048C08091BC0083FDD8CF85EC8093BC00AB
:101A00000E94A8066B017C0180913807813009F49F
:101A100040C0809135078C1710F4C0913507E4E180
:101A2000F7E0A2EFB6E080E08C1355C08C2FDF9179
:101A3000CF911F910F91FF90EF90DF90CF9008957D
:101A400080913A0790913B07A0913C07B0913D07E8
:101A5000892B8A2B8B2B09F484CF0E94A806009136
:101A60003A0710913B0720913C0730913D076C19D4
:101A70007D098E099F09061717072807390708F0FF
:101A800070CF809139070E94980BC0E0CFCF85EED0
:101A9000B5CF80913A0790913B07A0913C07B09158
:101AA0003D07892B8A2B8B2B09F4AECF0E94A80609
:101AB00000913A0710913B0720913C0730913D0778
:101AC0006C197D098E099F09061717072807390722
:101AD00008F09ACFD6CF91919D938F5FA5CF0895AF
:101AE000E091DA068091D906E81730F4F0E0EE5084
:101AF000F94F808190E008958FEF9FEF08959091C6
:101B0000DA068091D9062FEF3FEF981748F4E92FB6
:101B1000F0E0EE50F94F208130E09F5F9093DA06BD
:101B2000C90108958091D9069091DA06891B990B15
:101B30000895CF92DF92EF92FF920F931F93CF936E
:101B4000DF937C01CB018A0120913E07222389F09B
:101B5000EB016B01C40ED51ECC15DD0569F0699152
:101B6000D701ED91FC910190F081E02DC70119950D
:101B7000F3CF642F0E94530BC801DF91CF911F91C7
:101B80000F91FF90EF90DF90CF900895CF93DF9368
:101B90001F92CDB7DEB7698320913E072223F9F06B
:101BA00020916107203258F021E030E0FC013383BE
:101BB000228390E080E00F90DF91CF910895809193
:101BC0003F07E82FF0E0E05CF84F998190838F5F4A
:101BD00080933F078093610781E090E0ECCF61E064
:101BE000CE0101960E94530BF7CFDF92EF92FF9246
:101BF0000F931F93CF93DF93182FF62ED42ED22F4F
:101C000081E080933E0788E68093600710923F074B
:101C10001092610760E08AEA98E00E94C60DCAE06F
:101C20008D2D6C2F0E94AB398295807F682F690FB4
:101C30008AEA98E00E94C60D8F2D6C2F0E94AB3966
:101C40008295807F682F690F8AEA98E00E94C60D0E
:101C5000812F6C2F0E94AB398295807F682F690F8E
:101C60008AEA98E00E94C60D61E08AEA98E00E9444
:101C7000C60D8D2F6C2F0E94AB398295807F682F07
:101C8000690F8AEA98E00E94C60D802F6C2F0E948F
:101C9000AB398295807F682F690F8AEA98E00E94AD
:101CA000C60D8E2D6C2F0E94AB398295807F682FD8
:101CB000690F8AEA98E00E94C60D60E08AEA98E01F
:101CC0000E94C60DDF91CF911F910F91FF90EF9071
:101CD000DF900C94B90B90E080E00895CF92DF92F2
:101CE000EF92FF920F931F93CF93DF939091600633
:101CF00091110BC08FEF9FEFDF91CF911F910F914B
:101D0000FF90EF90DF90CF90089590915F06992318
:101D100089F3082FC0915E06D0E0809156068111AC
:101D20000DC00E94FF066093520670935306809385
:101D300054069093550681E0809356060E94FF0654
:101D4000C0905206D0905306E0905406F09055068D
:101D50006C197D098E099F096D32714081059105CD
:101D6000B0F0109151060E94FF06609352067093E6
:101D70005306809354069093550691E091279093D3
:101D80005106992331F11092500610924F0620917E
:101D90004F06309150062095309580914E062823AD
:101DA00026FF1CC081E080934D0627FF1AC081E00A
:101DB00080934C0680915106882309F49BCF02C082
:101DC000D595C7950A95E2F7C0FF94CF80E09CE3D4
:101DD00093CFD0935006C0934F06D9CF10924D06A3
:101DE000E4CF10924C06E6CFEF92FF920F931F9331
:101DF000CF93DF93182F8091240681110DC00E948C
:101E0000FF0660932006709321068093220690932C
:101E1000230681E080932406C0911E06D0911F0600
:101E2000C930D10508F077C0FE018827E55EF04F84
:101E30008F4F0C940C3A240F300F340F420F240FA5
:101E4000300F670F690F7A0F0E94D8022196CA30AF
:101E5000D10509F091C010921F0610921E0628C0ED
:101E60008CEC0E94AE02F2CF84E40E94AE020E948B
:101E7000FF066093200670932106809322069093BC
:101E80002306E4CF0E94FF06009120061091210650
:101E90002091220630912306601B710B820B930B5D
:101EA000C4E0D0E06E3E72408105910508F064C048
:101EB00060911A0670911B0680911C0690911D0678
:101EC000DF91CF911F910F91FF90EF9008958EEBCE
:101ED000C8CF98E0E92EF12C10E001E00E945902F1
:101EE0008111102B000F81E0E81AF108B9F7109367
:101EF0001806ACCF88E0E82EF12C10E001E00E943B
:101F000059028111102B000F21E0E21AF108B9F7F4
:101F1000109319069BCFC930D10509F097CF609176
:101F20001806709119066F3F760711F470E060E0B3
:101F3000072E000C880B990B0E94A63720E030E09A
:101F400040E85DE30E940538111109C060931A064C
:101F500070931B0680931C0690931D0677CF26E690
:101F600036E646EE5FE30E94053820E030E040E0D0
:101F700052E40E94F438EACFD0931F06C0931E06A5
:101F800097CF0F931F938091550290915602892B02
:101F900009F449C0809105068823A9F00E94FF0634
:101FA000009101061091020620910306309104066B
:101FB000601B710B820B930B693E73408105910589
:101FC00090F1109205060E94DC0A20914F02309198
:101FD00050028217930739F50E94D40A20915102CA
:101FE0003091520282179307F1F40E94CC0A20919B
:101FF00053023091540282179307A9F40E94FF06FE
:102000006093010670930206809303069093040682
:1020100081E08093050680910A0290910B029093D3
:10202000D8068093D7061F910F910895CF93DF9321
:10203000EC012196FC0120812A33C9F42181243648
:1020400009F5229630E020E06AE0899190ED980F42
:102050009A3078F4629FA001639F500D1124082EDE
:10206000000C990BC0979A01280F391FEECFCE01B3
:10207000DFCF3093FB052093FA052115310511F0D0
:102080002093090288818F3689F48A81082E000CFA
:10209000990B9C01205331093093FB052093FA05DD
:1020A000C397059710F420930802249688818236FE
:1020B000F1F4229630E020E06AE0899190ED980FEB
:1020C0009A3068F4629FA001639F500D1124082E7E
:1020D000000C990BC0979A01280F391FEECF30934F
:1020E000FB052093FA053093070220930602209106
:1020F000060230910702032E000C440B550B60E6DC
:102100007AEE80E090E00E94ED3982E0220F331FEA
:10211000441F551F8A95D1F72093F6053093F70594
:102120004093F8055093F905CE01DF91CF910895C2
:10213000CF92DF92EF92FF920F931F93CF93DF9393
:10214000EC018B010E94FF06CE80DF80E884F984D9
:10215000AB01BC014C195D096E097F098881998129
:10216000092E000CAA0BBB0B84179507A607B7070F
:10217000A0F48A85882389F01A868D811C821D82AD
:10218000823060F181E090E0DF91CF911F910F915B
:10219000FF90EF90DF90CF9008958B859C858017FE
:1021A0009107C9F481E08C838D818F5F8D830E94BC
:1021B000FF066E837F838887998781E08A872D81D8
:1021C0008A819B81281719064CF01C821D821A8671
:1021D0008FEF9FEFD9CF8C81811103C090E080E019
:1021E000D3CF0F3F1F4FD1F7DFCF8EBD00000DB40F
:1021F00007FEFDCF8EB50895CF9381E080933E0713
:1022000088E68093600710923F071092610760E0B4
:102210008AEA98E00E94C60D0E94B90B67E088E642
:102220000E94A00C1092DA068093D9068AEA98E000
:102230000E947F0D982F92959F70CAE08F709C9F8F
:10224000800D112490E09093E7068093E6068AEAD9
:1022500098E00E947F0D982F92959F708F709C9FA1
:10226000800D112490E09093DE068093DD068AEACB
:1022700098E00E947F0D982F929593708F709C9F8D
:10228000800D112490E09093DC068093DB068AEAAF
:1022900098E00E947F0D8AEA98E00E947F0D982FB7
:1022A00092959F708F709C9F800D112490E0909369
:1022B000E0068093DF068AEA98E00E947F0D982F5F
:1022C00092959F708F709C9F800D112490E0909349
:1022D000E2068093E1068AEA98E00E947F0D982F3B
:1022E00092959F708F709C9F800D112490E0805379
:1022F000984F9093E4068093E306CF910895FC01F4
:1023000001900020E9F73197AF01481B590BBC0140
:102310008DE098E00C940E0787E194E00C947F1117
:10232000CF93DF930E94FB07EC010E948C118C0F6E
:102330009D1FDF91CF9108958F929F92AF92BF9290
:102340000F931F93CF93DF93CDB7DEB7A1970FB64F
:10235000F894DEBF0FBECDBF19A2423008F44AE0A8
:102360008E010F5D1F4F842E912CB12CA12CA50145
:1023700094010E94CB39E62FB901CA01EA30F4F486
:10238000E05DD801EE938D01232B242B252B79F7CB
:1023900090E080E0109719F0CD010E947F11A19686
:1023A0000FB6F894DEBF0FBECDBFDF91CF911F9166
:1023B0000F91BF90AF909F908F900895E95CE1CF0F
:1023C000CF93DF93682F70E090E080E04AE00E94B6
:1023D0009C11EC010E948C118C0F9D1FDF91CF91FD
:1023E0000895FC0180819181009711F00C940C37C5
:1023F00060E070E0CB0108954F925F926F927F9200
:102400008F929F92AF92BF92CF92DF92EF92FF9204
:10241000CF93DF93CDB7DEB72D970FB6F894DEBF1D
:102420000FBECDBF0E94A806C0904806D0904906B6
:10243000E0904A06F0904B066C197D098E099F09C1
:102440006A3171448105910508F429C20E94A806E9
:10245000609348067093490680934A0690934B0612
:1024600083ED99E00E94F11169837A838B839C83C9
:1024700060E08AE00E94A103FAE0CF2ED12CE12C8B
:10248000F12C69817A818B819C81A70196010E9440
:10249000ED3949015A01660F771F6D527C4FDB0100
:1024A0004D905C9087E090E00E946E0E3C01C5016B
:1024B000B401A70196010E94ED39660F771F6D5296
:1024C0007C4FFB01E080F18086E090E00E946E0E80
:1024D00046205720712C612C2AE0440C551C661CA8
:1024E000771C2A95D1F78E219F21B0E0A0E0482AE1
:1024F000592A6A2A7B2A69817A818B819C8124E608
:1025000030E040E050E00E94ED3969017A018091AD
:102510004D06882311F0689477F880914C06882343
:1025200011F0689476F880914606909147060197DD
:1025300011F4FFE37F222091CD062D87872D992767
:10254000AA27BB278D839E83AF83B8874301AA2424
:10255000BB24BB27A72D962D852D89879A87AB870E
:10256000BC87222309F46EC1842D0E94F510898551
:102570000E94F510882D0E94F5108D810E94F510A3
:102580008AE0882E912CA12CB12CC701B601A5019F
:1025900094010E94ED39660F771F6D527C4FDB016D
:1025A000CD90DC9085E090E00E946E0E7C01698108
:1025B0007A818B819C8128EE33E040E050E00E94DC
:1025C000ED39CA01B901A50194010E94ED39660FE8
:1025D000771F6D527C4FFB016080718084E090E03A
:1025E0000E946E0ECE20DF20F12CE12C34E1CC0CC9
:1025F000DD1CEE1CFF1C3A95D1F786219721B0E037
:10260000A0E04AE0880F991FAA1FBB1F4A95D1F787
:10261000C82AD92AEA2AFB2A69817A818B819C817E
:1026200020E137E240E050E00E94ED39CA01B901F3
:10263000A50194010E94ED39660F771F6D527C4F02
:10264000DB01AD90BC9083E090E00E946E0E8A2189
:102650009B21B0E0A0E0C82AD92AEA2AFB2A698196
:102660007A818B819C8120EA36E841E050E00E942B
:10267000ED3929013A0180914D06882309F4EDC016
:102680006894F7F880914C06882309F4E9C06894AF
:10269000F6F88F2D9927AA27BB278D839E83AF83BA
:1026A000B8874701AA24BB24BB27AF2D9E2D8D2DB3
:1026B00089879A87AB87BC879D85992309F4D3C006
:1026C0008C2D0E94F51089850E94F510882D0E949E
:1026D000F5108D810E94F5103AE0832E912CA12CEB
:1026E000B12CC301B201A50194010E94ED39660F1E
:1026F000771F6D527C4FDB01CD90DC9082E090E043
:102700000E946E0E7C0169817A818B819C8120E41C
:1027100032E44FE050E00E94ED39CA01B901A50151
:1027200094010E94ED39660F771F6D527C4FFB01BB
:102730006080718081E090E00E946E0ECE20DF20EC
:10274000F12CE12C64E1CC0CDD1CEE1CFF1C6A9525
:10275000D1F786219721B0E0A0E07AE0880F991F99
:10276000AA1FBB1F7A95D1F7C82AD92AEA2AFB2AC1
:1027700069817A818B819C8120E836E948E950E0C3
:102780000E94ED39CA01B901A50194010E94ED39F9
:10279000660F771F6D527C4FDB01AD90BC9090E0CF
:1027A00080E00E946E0E8A219B21B0E0A0E08C297F
:1027B0009D29AE29BF2920914D066C017D01222360
:1027C00009F45CC06894F7F880914C06882309F4FA
:1027D00058C06894F6F84F2C552466247724470196
:1027E000AA24BB24BB27AF2D9E2D8D2D89839A83D0
:1027F000AB83BC839D85992309F446C08C2D0E9430
:10280000F51089810E94F510882D0E94F510842D05
:102810000E94F51061E08AE02D960FB6F894DEBFB5
:102820000FBECDBFDF91CF91FF90EF90DF90CF90A3
:10283000BF90AF909F908F907F906F905F904F90E0
:102840000C94A1038D810E94F510882D0E94F51033
:1028500089850E94F510842D91CEE894F7F812CF67
:10286000E894F6F816CF8D810E94F510882D0E940D
:10287000F51089850E94F5108C2D2CCFE894F7F87F
:10288000A3CFE894F6F8A7CF842D0E94F510882DE9
:102890000E94F51089810E94F5108C2DB9CF2D96DC
:1028A0000FB6F894DEBF0FBECDBFDF91CF91FF9082
:1028B000EF90DF90CF90BF90AF909F908F907F90E0
:1028C0006F905F904F9008950F931F93CF93DF9376
:1028D0008C01EB01FC01808191810097E1F068811E
:1028E000798161157105A9F0428153812C813D8167
:1028F0004217530770F00E94463C8C819D81F8017D
:10290000958384831D821C82DF91CF911F910F914B
:1029100008950E94D33A88819981F8019183808338
:102920008A819B81938382838C819D81958384831B
:10293000198218821B821A82E5CFCF93DF93EC01B4
:1029400088819981009711F00E94D33A19821882E8
:102950001D821C821B821A82DF91CF910895FC0197
:1029600080819181009711F00C94D33A08950F93D0
:102970001F93CF93DF93EC0188819981009759F0E1
:102980002A813B812617370730F081E0DF91CF9114
:102990001F910F9108958B016F5F7F4F0E945C3BE9
:1029A000009759F0998388831B830A832C813D818A
:1029B000232B59F7FC011082E8CF80E0E7CFEF929C
:1029C000FF920F931F93CF93DF936115710541F42D
:1029D00080E0DF91CF911F910F91FF90EF900895CC
:1029E00041155105B1F07B01EC010C811D81040FF3
:1029F000151FB8010E94B714882351F3288139812B
:102A00008C819D81B701820F931F0E94463C1D83DC
:102A10000C8381E0DECFEF92FF920F931F93CF9351
:102A2000DF93CDB7DEB72D970FB6F894DEBF0FBE9C
:102A3000CDBF7C01CB01BA012AE08E010F5F1F4F91
:102A4000A8010E945337F80101900020E9F731975F
:102A5000AF01401B510BB801C7010E94DF14811167
:102A600003C0C7010E949D14C7012D960FB6F894AC
:102A7000DEBF0FBECDBFDF91CF911F910F91FF90B1
:102A8000EF900895CF93DF93EC01FB0101900020BC
:102A9000E9F73197AF01461B570B0E94DF148111F4
:102AA00003C0CE010E949D14CE01DF91CF91089505
:102AB000CF93DF93EC01FB014481558160817181EB
:102AC0000E94DF14811103C0CE010E949D14CE012B
:102AD000DF91CF910895EF92FF920F931F93CF93C1
:102AE000DF9300D01F92CDB7DEB77C01862F4AE07E
:102AF0008E010F5F1F4FB80190E00E943337F8013D
:102B000001900020E9F73197AF01401B510BB8014C
:102B1000C7010E94DF140F900F900F900F90DF916C
:102B2000CF911F910F91FF90EF900895EF92FF9238
:102B30000F931F93CF93DF93EC017B018A01BA01BE
:102B40000E94B71481110BC0CE010E949D14CE01CA
:102B5000DF91CF911F910F91FF90EF9008951D830A
:102B60000C83B701888199810E94463CF0CFFB011C
:102B700001900020E9F73197AF01461B570B0C94E9
:102B800096150F931F93CF93DF93CDB7DEB7629760
:102B90000FB6F894DEBF0FBECDBF8C01CB01F8019C
:102BA0001182108213821282158214824AE0BE01C1
:102BB0006F5F7F4F0E943337BE016F5F7F4FC80149
:102BC0000E94B71562960FB6F894DEBF0FBECDBF58
:102BD000DF91CF911F910F910895CF93DF93EC0177
:102BE000FB018617970749F06081718161157105B6
:102BF00041F0448155810E949615CE01DF91CF911D
:102C000008950E949D14F9CFFC0111821082138255
:102C10001282158214820C94ED15FC01118210822F
:102C20001382128215821482FB0101900020E9F7C1
:102C30003197AF01461B570B0C949615AF92BF927C
:102C4000CF92DF92EF92FF920F931F93CF93DF9378
:102C50006C015B017A0189012417350720F48F2D5F
:102C60007901042F182F69E174E0C6010E940D1646
:102C7000D5011496CD91DC91EC16FD06E0F40C170D
:102C80001D0708F4E801D501ED91FC911197EC0FB7
:102C9000FD1F108110826D917C916E0D7F1DC6010C
:102CA00061157105A1F00E94B715F5018081918130
:102CB000C80FD91F1883C601DF91CF911F910F91C3
:102CC000FF90EF90DF90CF90BF90AF9008950E945B
:102CD0009D14EBCF4F925F926F927F928F929F9253
:102CE000AF92BF92CF92DF92EF92FF920F931F931A
:102CF000CF93DF9300D000D0CDB7DEB77C014B017E
:102D00005A018091170681113AC081E0809317061D
:102D10009FE0692E96E0792E27E0422E26E0522E83
:102D200010E000E00F5F1F4F680181E0C81AD10872
:102D30009801A601B401CE0101960E941E16CE0193
:102D400001960E94F111D3016D933D01CE010196D0
:102D50000E94AF149801A601B501CE0101960E9410
:102D60001E16CE0101960E94F111F20161932F010E
:102D7000CE0101960E94AF140830110599F690918A
:102D800006068FE0C82E86E0D82EE7E0F6E0860142
:102D9000A801D8018C919A30D8F58F5F8C930F5F82
:102DA0001F4FDA018C918A3019F4D80111971C92C7
:102DB0003196B6E007311B0759F79F5F943169F1EF
:102DC0009093060669E174E0C7010E940D16F601B2
:102DD00061916F01C7010E946B150C151D05B9F7B4
:102DE000C70126960FB6F894DEBF0FBECDBFDF91A8
:102DF000CF911F910F91FF90EF90DF90CF90BF90F8
:102E0000AF909F908F907F906F905F904F900895BC
:102E10002081281721F28F5FC1CF109206061092F1
:102E20001706D0CFCF92DF92EF92FF921F93CF93EE
:102E3000DF93CDB7DEB72C970FB6F894DEBF0FBE89
:102E4000CDBF182F67E574E0CE0107960E940D16DE
:102E500022E030E050E040E0133081F024E030E048
:102E600042E050E01C3051F026E030E0103321F019
:102E7000103FA9F428E030E044E050E063ED79E051
:102E8000CE0101960E941E16BE016F5F7F4FCE01DC
:102E900007960E946414CE0101960E94AF14CE01E1
:102EA00007960E94F1116B01CE0107960E94AF14A4
:102EB000C6012C960FB6F894DEBF0FBECDBFDF91D2
:102EC000CF911F91FF90EF90DF90CF900895EF92F8
:102ED000FF920F931F93CF93DF93CDB7DEB7629727
:102EE0000FB6F894DEBF0FBECDBF7C018B0177FF1C
:102EF00003C0119501951109B801C7010E94C115C0
:102F0000083E83E018070CF082C0B801CE010D9690
:102F10000E94C1156CE474E0CE0101960E940D166A
:102F2000BE016F5F7F4FCE0107960E940416BE015F
:102F3000635F7F4FCE0107960E945815BC01C70101
:102F40000E94ED15CE0107960E94AF14CE010196A6
:102F50000E94AF14CE010D960E94AF1404361105E5
:102F60000CF055C0B801CE010D960E94C1156BE45E
:102F700074E0CE0101960E940D16BE016F5F7F4F77
:102F8000CE0107960E940416BE01635F7F4FCE01FB
:102F900007960E945815BC01C7010E94ED15CE018D
:102FA00007960E94AF14CE0101960E94AF14CE0185
:102FB0000D960E94AF140A3011054CF5B801CE01F0
:102FC0000D960E94C1156AE474E0CE0101960E943C
:102FD0000D16BE016F5F7F4FCE0107960E9404164B
:102FE000BE01635F7F4FCE0107960E945815BC015A
:102FF000C7010E94ED15CE0107960E94AF14CE01C5
:1030000001960E94AF14CE010D960E94AF14C70125
:1030100062960FB6F894DEBF0FBECDBFDF91CF91A1
:103020001F910F91FF90EF9008950F931F93CF93EF
:10303000DF93CDB7DEB762970FB6F894DEBF0FBE51
:10304000CDBF8C0177FF03C07195619571096A301E
:103050007105A4F5CE010D960E94C1156CE474E0D3
:10306000CE0101960E940D16BE016F5F7F4FCE010B
:1030700007960E940416BE01635F7F4FCE0107963C
:103080000E945815BC01C8010E940416CE01079683
:103090000E94AF14CE0101960E94AF14CE010D968E
:1030A0000E94AF14C80162960FB6F894DEBF0FBE3F
:1030B000CDBFDF91CF911F910F910895C8010E945C
:1030C000C115F0CF0F931F93CF93DF93CDB7DEB72A
:1030D00068970FB6F894DEBF0FBECDBF8B0183306B
:1030E000D9F52091D7093091D80942E050E063ED3D
:1030F00079E0CE010D960E941E16B801CE01019610
:103100000E941518BE016F5F7F4FCE0107960E9487
:103110000416BE01635F7F4FCE0107960E945815CB
:10312000BC0183ED99E00E94ED15CE0107960E9447
:10313000AF14CE0101960E94AF14CE010D960E94ED
:10314000AF1468960FB6F894DEBF0FBECDBFDF9107
:10315000CF911F910F9108958C3009F042C02091BA
:10316000D7093091D80944E050E063ED79E0CE0111
:1031700043960E941E16B801CE010D960E941518A6
:1031800022E030E050E040E063ED79E0CE010196CE
:103190000E941E16BE016F5F7F4FCE0107960E94F0
:1031A0000416BE01635F7F4FCE0107960E9458153B
:1031B000BE016D5E7F4F0E945815BC0183ED99E002
:1031C0000E94ED15CE0107960E94AF14CE01019624
:1031D0000E94AF14CE010D960E94AF14CE0143960B
:1031E000AECF2091D7093091D80946E050E0803326
:1031F00049F0803F09F0A5CF2091D7093091D80937
:1032000048E050E063ED79E0CE0143960E941E163F
:10321000B801CE010D960E94151824E030E0B2CF1F
:103220000E94FF066093FD057093FE058093FF05E5
:10323000909300068091FC05882309F44FC02091EB
:10324000460630914706C901880F991F2131310583
:10325000A1F1FC01EB5CFD4F4081518141505109CE
:1032600051834083DC01AB5CBD4F6D917C91119724
:10327000FC01E35AFD4F40815181641775073CF40E
:10328000FC01EB57FD4F408151814D935C93203100
:10329000310509F520915502309156022130310552
:1032A000B9F420E820934E068B5C9D4FFC016081B1
:1032B000718180915E060C94621840915702509182
:1032C00058024C5051095093580240935702CACFAC
:1032D00010924E06E9CF2930310531F708950E944A
:1032E000FF066093FD057093FE058093FF059093A4
:1032F00000068091FC05882309F444C0209146060D
:1033000030914706C901880F991F2131310561F1BC
:10331000FC01EB5CFD4F408151814F5F5F4F51835A
:103320004083DC01AB5CBD4F6D917C911197FC013A
:10333000EB57FD4F40815181461757073CF4FC0184
:10334000E35AFD4F408151814D935C93203131050B
:10335000B1F410924E068B5C9D4FFC01608171812F
:1033600080915E060C946218409157025091580269
:10337000445F5F4F5093580240935702D2CF293099
:10338000310549F708958F929F92AF92BF92DF92D5
:10339000EF92FF920F931F93CF93DF93CDB7DEB7DA
:1033A000A2970FB6F894DEBF0FBECDBF8C018AE0A6
:1033B000E3EBF2E0DE01119601900D928A95E1F7C0
:1033C0008091F4059091F50501968A3091050CF0F5
:1033D00086C09093F5058093F405E091F405F09193
:1033E000F50581E090E08C0F9D1FE80FF91FD0805C
:1033F0008091570290915802489709F075C00E9439
:10340000FF064B015C010E94CC0ABC01CE014D9627
:103410000E9415180E94D40ABC01CE0147960E9452
:1034200015180E94DC0ABC01CE010B960E941518EB
:10343000BE01655F7F4FCE0141960E940416BE011A
:10344000695E7F4FCE0141960E945815BE01635EB2
:103450007F4F0E9458157C01C501B40128EE33E06E
:1034600040E050E00E94CB3924E630E040E050E0FC
:103470000E94CB39BA01A901C7010E940B157C013A
:103480006D2D0E946B15811103C0C7010E949D1410
:10349000B701C8010E940416CE0141960E94AF14E4
:1034A000CE010B960E94AF14CE0147960E94AF1436
:1034B000CE014D960E94AF14C801A2960FB6F894A3
:1034C000DEBF0FBECDBFDF91CF911F910F91FF9057
:1034D000EF90DF90BF90AF909F908F9008951092E3
:1034E000F5051092F40579CF0E94FF0628EE33E02F
:1034F00040E050E00E94CB3924E630E040E050E06C
:103500000E94CB3949015A010E94CC0ABC01CE016C
:103510004D960E9415180E94D40ABC01CE01479610
:103520000E9415180E9488080E948E0A8091B90690
:103530006CE070E0882331F0682F70E08D3010F07F
:103540006C507109CE010B960E941518BE01655F83
:103550007F4FCE0141960E940416BE01695E7F4FE7
:10356000CE0141960E945815BE01635E7F4F0E94B6
:103570005815B501A40181CF8F929F92AF92BF924F
:10358000CF92DF92EF92FF920F931F93CF93DF932F
:10359000CDB7DEB72C970FB6F894DEBF0FBECDBF08
:1035A0008C016A017B0180913E06811111C00E944D
:1035B000FF06645B7B4F8F4F9F4F60933A0670937B
:1035C0003B0680933C0690933D0681E080933E0647
:1035D00080913206811109C067E474E08CE296E0C4
:1035E0000E940D1681E0809332060E94FF068090B3
:1035F0003A0690903B06A0903C06B0903D066819B4
:1036000079098A099B09693E73408105910508F48F
:10361000D8C00E94FF0660933A0670933B068093E1
:103620003C0690933D0620E030E040E251E4C701C3
:10363000B6010E9405386B017C0120E030E0A90151
:103640000E94963920E030E040E05FE387FDD2C081
:10365000C701B6010E94F4380E9460397B0177FFF0
:1036600004C0EE24FF24E61AF70A5B0139E1A31A2D
:103670003CEFB30A8091590290915A029B012D5957
:103680003F4F69012A5531094901B701892B09F0DA
:10369000B6C0CE0107960E94C1156CE474E0CE015D
:1036A00001960E940D16BE01695F7F4FCE01019603
:1036B0000E9458156CE474E00E944215BC018CE233
:1036C00096E00E94ED15CE0101960E94AF14CE0146
:1036D00007960E94AF143FECA31637E0B30618F527
:1036E000B701CE0107960E94C1156BE474E0CE01CC
:1036F00001960E940D16BE01695F7F4FCE010196B3
:103700000E9458156CE474E00E944215BC018CE2E2
:1037100096E00E94ED15CE0101960E94AF14CE01F5
:1037200007960E94AF1487ECC816D10418F5B701AC
:10373000CE0107960E94C1156AE474E0CE0101969D
:103740000E940D16BE01695F7F4FCE0101960E9457
:1037500058156CE474E00E944215BC018CE296E0BE
:103760000E94ED15CE0101960E94AF14CE0107967E
:103770000E94AF1423E18216910418F5B701CE011F
:1037800007960E94C11569E474E0CE0101960E947B
:103790000D16BE01695F7F4FCE0101960E9458153C
:1037A0006CE474E00E944215BC018CE296E00E9439
:1037B000ED15CE0101960E94AF14CE0107960E942E
:1037C000AF146CE276E0C8010E940416C8012C9682
:1037D0000FB6F894DEBF0FBECDBFDF91CF911F9122
:1037E0000F91FF90EF90DF90CF90BF90AF909F90A0
:1037F0008F900895C701B6010E94F3382DCFCE01F6
:1038000007960E94C1156CE474E0CE0101960E94F7
:103810000D16BE01695F7F4FCE0101960E945815BB
:103820006CE474E00E944215BC018CE296E00E94B8
:10383000ED15CE0101960E94AF14CE0107960E94AD
:10384000AF143FECA31637E0B30638F5C7016AE0C2
:1038500070E00E94B739CE0107960E94C1156BE453
:1038600074E0CE0101960E940D16BE01695F7F4F84
:10387000CE0101960E9458156BE474E00E94421537
:10388000BC018CE296E00E94ED15CE0101960E94EB
:10389000AF14CE0107960E94AF1487ECC816D1046E
:1038A00038F5C7016AE070E00E94B739CE0107968B
:1038B0000E94C1156AE474E0CE0101960E940D16C3
:1038C000BE01695F7F4FCE0101960E9458156BE4DF
:1038D00074E00E944215BC018CE296E00E94ED1556
:1038E000CE0101960E94AF14CE0107960E94AF143C
:1038F00023E18216910408F064CFC7016AE070E00A
:103900000E94B739CE0107960E94C11569E474E0A0
:10391000CE0101960E940D16BE01695F7F4FCE0158
:1039200001960E9458156BE474E03CCF85ED8093BE
:10393000BC0080913A0790913B07A0913C07B09161
:103940003D070796A11DB11D23E0B695A795979554
:1039500087952A95D1F72091BC0024FD03C01092D1
:103960003807089540913A0750913B0760913C0712
:1039700070913D07452B462B472B69F30097A10516
:10398000B10541F02AE22A95F1F700C00197A1099B
:10399000B109E1CF809139070C94980B0C94CB3886
:1039A0000C94C33888E090E00E94D01C682F70E02F
:1039B00089E00E94D10589E090E00E94D01C682F28
:1039C00070E086E00E94D1058AE090E00E94D01C61
:1039D000682F70E083E00C94D1052F923F924F92B4
:1039E0005F926F927F928F929F92AF92BF92CF928F
:1039F000DF92EF92FF920F931F93CF93DF93CDB798
:103A0000DEB7EE970FB6F894DEBF0FBECDBF0E94B3
:103A1000FF0620E137E240E050E00E94CB39672BFF
:103A2000682B692B01F58091E5068823E1F00E945F
:103A3000FC10E090E306F090E4060091E10610919E
:103A4000E2062091DF063091E0064091E6065091B3
:103A5000E7066091DD067091DE068091DB069091AD
:103A6000DC060E948E090E94FF066093F0057093A9
:103A7000F1058093F2059093F3050091EC05109108
:103A8000ED052091EE053091EF05601B710B820B67
:103A9000930B61367A4E81059105E0F18091EB053B
:103AA000811107C088E592E00E94901181E0809327
:103AB000EB0580E797E00E946C07892B59F180E7BE
:103AC00097E00E944A0790917005E92FF0E0E35ECD
:103AD000FA4F80839F5F923509F40AC19093700575
:103AE0008A30C1F4E0917005F0E0E35EFA4F108295
:103AF00010927005EEE1F5E021E030E040E05191F8
:103B0000C90101965A3209F4F6C045279C01833554
:103B10009105A9F78091F0059091F105A091F2052A
:103B2000B091F3054091EC055091ED056091EE05E3
:103B30007091EF058C019D01041B150B260B370BB3
:103B4000B901A801413C544D6140710570F080936A
:103B5000EC059093ED05A093EE05B093EF0588E397
:103B600092E00E9490111092EB051092DF051092E6
:103B7000E0051092E1051092E2058DEB98E090933C
:103B8000E6058093E5050091BA0810E01093E8057A
:103B90000093E7058091870990E09093EA05809370
:103BA000E9058091B6088530A1F58091BA088A317F
:103BB00008F4B3C28091BD089091BE08843F914043
:103BC00008F07CC21092E4051092E3058FEF9FEF9E
:103BD000DC018093DF059093E005A093E105B093AD
:103BE000E2058BE090E09093DC058093DB0560912B
:103BF000DF057091E0058091E1059091E20540E1DB
:103C00000E949C110E948C1182E08093B608109251
:103C1000BA086091DF057091E0058DE09AE00E949E
:103C200098109093DA058093D9056091DF05709123
:103C3000E00580E09AE00E9498109093D805809368
:103C4000D7056091DF057091E00583EF99E00E9450
:103C500098109093D6058093D5050091D7061091C2
:103C6000D806F8018081882309F4C1C30E94FF06A9
:103C7000C0907705D0907805E0907905F0907A05AE
:103C80006C197D098E099F09C0907305D090740549
:103C9000E0907505F0907605C616D706E806F90699
:103CA00008F0A5C30E94FF064B015C0180927705D6
:103CB00090927805A0927905B0927A05780130E06B
:103CC00020E04AE0F801D1908F0180ED8D0D8A301F
:103CD00008F0C3C2429FC001439F900D11242D2DB7
:103CE000DD0C330B20533109280F391F7F01EACF38
:103CF00010927005F5CE835E9A4FFC01808181346D
:103D00000CF087538295807F235E3A4FF9019281B0
:103D100091348CF19753890F4813FCCE80911D0587
:103D2000843209F0F7CE80912005823509F0F2CE79
:103D3000809121058D3409F0EDCE809122058334E8
:103D400009F0E8CEA9E2B5E090E080E0ECE0F0E038
:103D50002D912C3209F091C101968130910569F4C1
:103D60002C91213409F489C18AE194E00E947F11E9
:103D70000E948C11CFCE9053CECF8830910509F0A0
:103D80007CC1EF5FA090240590902505B09026059A
:103D9000609027057090280540902905F0E0E35ECB
:103DA000FA4FC080D1808281082E000C990BC097F9
:103DB0001AE0189F7001199FF00C11248381E80EFE
:103DC000F11C87FDFA9400E3E01AF10804815580A4
:103DD0004CE050E061E070E0C7010E94F6368823B5
:103DE00009F498CE8C2DCC0C990BC097189F90019C
:103DF000199F300D1124C9018D0D911DD7FC9A9585
:103E00006C0190E3C91AD1084FE150E061E070E025
:103E1000C6010E94F636882309F47CCE8A2DAA0CAE
:103E2000990BC097189F9001199F300D1124F9012B
:103E3000E90DF11D97FCFA954F01F0E38F1A9108F7
:103E400047E150E070E060E0C4010E94F63688234C
:103E500009F460CE8B2DBB0C990BC097189F5001B5
:103E6000199FB00C1124A60CB11C67FCBA9420E376
:103E7000A21AB1084BE350E070E060E0C5010E9477
:103E8000F636882309F446CE872D770C990BC09718
:103E9000189F3001199F700C1124640C711C47FC91
:103EA0007A9430E3631A71084BE350E070E060E00D
:103EB000C3010E94F636882309F42CCE202F000F70
:103EC000330B20533109129FC001139F900D112411
:103ED0008C010053184F050D111D57FC1A95005306
:103EE0001109063E87E01807C4F46982AA828B8212
:103EF000CD82EE82025B0F83CE0101960E94CE0836
:103F000086519B4DAE014F5F5F4F0E94B2090F81FA
:103F100010E00E54184FEE80CD8046EF57E062EE71
:103F200077E0C8010E94F636882309F4F3CD809229
:103F3000E709A092E8096092E909C092EA09E092D3
:103F4000EB091093ED090093EC090E94FF066B0149
:103F50007C01C092EF09D092F009E092F109F09251
:103F6000F20980911C0581118FC00E94FF066C1917
:103F70007D098E099F09693B7B408105910508F009
:103F8000C9CD80E192E00E9490118091E7090E94E2
:103F9000E0118091E8090E94E0118091E9090E94F6
:103FA000E0118091EC099091ED0918EEC12E13E01B
:103FB000D12EB6010E94B7397C010091EB0910E0C7
:103FC0002091EA0930E04091E90950E06091E80968
:103FD00070E08091E70990E00E948E09A0915B0259
:103FE000B0915C0220E13EE00E94143A0091B306D9
:103FF0001091B4062091B5063091B606DC01CB01D4
:10400000800F911FA21FB31F8093B3069093B40635
:10401000A093B506B093B6060E94880847EB56E019
:104020000E94B2090E94B20A4C010E94BC0A082FE9
:104030000E94C40AB82E0E94CC0AF82E0E94D40A0C
:10404000182F0E94DC0A382FC401B6010E94B7392C
:10405000E82E2B2D4F2D612F832F0E94F50D81E02F
:1040600080931C050E94FF06609318057093190544
:1040700080931A0590931B054DCD3196E335F105DC
:1040800009F066CEE0E07ECE0E94FF0600911805A2
:104090001091190520911A0530911B05601B710BB9
:1040A000820B930B613477478B41910518F0109286
:1040B0001C0530CD81E080931C052CCD8091BF087C
:1040C0009091C00885974B9740F5E6EBF8E082E0C9
:1040D00090E040E050E0BA01DC0111962091BA086E
:1040E0002A171B0609F00CF48EC02385348527504F
:1040F00031092730310508F085C0258536852351E3
:1041000031092F30310508F470C0258536852A50D5
:1041100031092930310508F470C0063011050CF45E
:1041200073CD86EB98E09EAF8DAF43E0242E312C0B
:1041300055ECC52E5DE9D52E5CE1E52E51E8F52E56
:10414000201631060CF078C0EDADFEAD65857685A4
:10415000A184B28490E080E00E94A4372B013C014E
:10416000B50190E080E00E94A4374B015C012DEC8A
:104170003CEC4CE45FE30E9405389B01AC01C301B9
:10418000B2010E949F37F0E0E0E087FD14C02DEC03
:104190003CEC4CE45FE3C301B2010E9405389B0193
:1041A000AC01C501B4010E949F37E2E0F0E087FD59
:1041B00002C0E1E0F0E0A701960163E971E080E070
:1041C00091E00E949B396F01FF0FEE08FF08C626A1
:1041D000D726E826F926FFEF2F1A3F0A2DAD3EAD70
:1041E0002E5F3F4F3EAF2DAFABCF440F551F661F25
:1041F000771F4160029634966FCF440F551F661F9C
:10420000771FF8CFCD010197959587959093E40599
:104210008093E3050C972CF41092E4051092E305CB
:104220007CCF4093DF055093E0056093E1057093E8
:10423000E20584E090E0D7CCC092DF05D092E005A3
:10424000E092E105F092E20580E290E09093E405CF
:104250008093E3058FEF9FEFC6CC3093FB0520934F
:10426000FA056091F6057091F7058091F805909137
:10427000F9052115310511F1032E000C440B550BE6
:104280000E94ED39209373053093740540937505B2
:1042900050937605EFE9ED0DE730B0F40E2E000CEB
:1042A000FF0B8827E95AFE4D8F4F0C940C3ADD2402
:1042B000DF24D124D524D724D924DB24209109025A
:1042C00030E050E040E0DCCF10927205F7018181D0
:1042D000833241F4809172058F5F8093720587016C
:1042E0000E5F1F4FF80180818E32F1F4C09073058C
:1042F000D0907405E0907505F0907605C701B60181
:1043000022E030E040E050E00E94ED39C20ED31EC2
:10431000E41EF51EC0927305D0927405E0927505F7
:10432000F09276050F5F1F4FF801808180538A302D
:1043300008F047C3809371050F5F1F4FF80180811C
:104340008C3211F40F5F1F4FE0917205EE2309F4D8
:104350004EC0C0907305D0907405E0907505F09044
:104360007605809171058450990B4CE0489F90012F
:10437000499F300D1124E20FF32FF11DEE0FFF1FA7
:10438000EB52FD4FB701A601808191810E940B0481
:104390000E94FF06681979098A099B09C616D70683
:1043A000E806F90620F50E94FF06609377057093F2
:1043B00078058093790590937A0580916F07813015
:1043C00009F404C3823009F407C3811105C0809148
:1043D0006E008D7F80936E0060E080916E070E947A
:1043E000A10381E292E00E94901110E000E010939E
:1043F000D8060093D7060E94FF060091D1051091C0
:10440000D2052091D3053091D405601B710B820B2E
:10441000930B6630710581059105E8F080910C02DF
:104420008111E0C270E060E089E00E94D10570E097
:1044300060E086E00E94D10570E060E083E00E94C9
:10444000D1050E94FF066093D1057093D205809339
:10445000D3059093D4058091460690914706892B09
:1044600021F08091D0058111DBC18091FC05811183
:10447000D7C18091910581110DC00E94FF06609304
:104480008D0570938E0580938F059093900581E044
:10449000809391058091850581110DC00E94FF06D2
:1044A00060938105709382058093830590938405C2
:1044B00081E0809385050E94FF0600918D05109193
:1044C0008E0520918F0530919005601B710B820B3A
:1044D000930B009100021091010220910202309191
:1044E0000302061717072807390708F04DC00E9476
:1044F000FF0660938D0570938E0580938F059093D2
:10450000900580917F0590918005009709F0D6C2B3
:1045100081E090E0909347068093460688E893E117
:10452000A0E0B0E08093000290930102A093020209
:10453000B093030280917F059091800582309105B0
:1045400081F4109247061092460640E65AEE60E06B
:1045500070E0409300025093010260930202709356
:1045600003020196833091050CF0C8C29093800538
:1045700080937F058091D005882321F01092470613
:10458000109246061092D0050E94FF0600918D05FC
:1045900010918E0520918F0530919005601B710B55
:1045A000820B930B603D77408105910508F078C33D
:1045B0000E94FF06009181051091820520918305DC
:1045C00030918405601B710B820B930B653671056E
:1045D0008105910508F424C10E94FF0660938105BE
:1045E000709382058093830590938405809146069D
:1045F000909147062091CE06222309F484C2892B8C
:1046000089F5CE0149960E94C31981E02091590293
:1046100030915A02232B09F480E00E94F40EAB0182
:10462000BC01CE0101960E94BC1AAE01475E5F4FED
:10463000BE016F5F7F4FCE014F960E946A16BE018A
:10464000615E7F4F83ED99E00E946414CE014F9626
:104650000E94AF14CE0101960E94AF14CE0149967C
:104660000E94AF148091460690914706019709F089
:1046700062C00E94B20A68EE73E00E94B739BC01C2
:10468000CE018B960E9415180E94BC0ABC01CE0177
:1046900085960E9415180E94C40ABC01CE01499655
:1046A0000E941518BE01675E7F4FCE014F960E9493
:1046B0000416BE016B5D7F4FCE014F960E945815C8
:1046C000BE01655D7F4F0E945815BC01CE01C196A9
:1046D0000E940416CE0101960E94C319AE014F5CE0
:1046E0005F4FBE016F5F7F4FCE01C7960E946A1673
:1046F000BE01695C7F4F83ED99E00E946414CE0196
:10470000C7960E94AF14CE0101960E94AF14CE014D
:10471000C1960E94AF14CE014F960E94AF14CE01F5
:1047200049960E94AF14CE0185960E94AF14CE0127
:104730008B960E94AF14809146069091470604978D
:1047400009F06EC081E02091590230915A02232B6A
:1047500009F480E00E94F40EAB01BC01CE01C196C9
:104760000E94BC1A0E94B20A68EE73E00E94B73938
:10477000BC01CE0185960E9415180E94BC0ABC019E
:10478000CE014F960E9415180E94C40ABC01CE01AA
:1047900001960E941518BE016F5F7F4FCE014996AA
:1047A0000E940416BE01615E7F4FCE0149960E94B1
:1047B0005815BE016B5D7F4F0E945815BC01CE019C
:1047C0008B960E940416AE014F5C5F4FBE01655D83
:1047D0007F4FCE01C7960E946A16BE01695C7F4F6B
:1047E00083ED99E00E946414CE01C7960E94AF1435
:1047F000CE018B960E94AF14CE0149960E94AF1451
:10480000CE0101960E94AF14CE014F960E94AF14C4
:10481000CE0185960E94AF14CE01C1960E94AF14BE
:104820000E94FC118AEB99E00E94E40A81EA99E077
:104830000E94E40A88E899E00E94E40A8091FC055D
:10484000811131C210925E068091BA099091BB0924
:10485000181619063CF08091D9059091DA05019758
:1048600009F00AC381E08093D0051092D806109217
:10487000D70644E650E060E070E088EE93E00E94E6
:104880000B040E94FF066093FD057093FE05809364
:10489000FF05909300068091460690914706019689
:1048A0008630910509F42CC2909347068093460602
:1048B00020914606309147068901000F111FF8012B
:1048C000E35FFD4F808180935E06D9011197FD0162
:1048D000EE0FFF1FED57FC4F60817181611571056F
:1048E00009F4BBC2AB0141505109FA01EE0FFF1FA1
:1048F000E55AFC4F0190F081E02DAE17BF0709F09B
:10490000ACC26230710509F000C288E1EDEBF2E063
:10491000DE01119601900D928A95E1F780914D028A
:1049200090914E0283709927892B21F48DE190E0BC
:104930009C838B8380914B0290914C020197880F4E
:10494000991F21E030E02C0F3D1F820F931F209113
:10495000490230914A02FC018081918182179307BC
:104960000CF0D3C18AE090E090934706809346060E
:10497000EE960FB6F894DEBF0FBECDBFDF91CF919C
:104980001F910F91FF90EF90DF90CF90BF90AF906D
:104990009F908F907F906F905F904F903F902F905F
:1049A000089581E08093720591CC83E0FBCF85E090
:1049B000F9CF86E0F7CF88E0F5CF8AE0F3CF8CE03F
:1049C000F1CF8091080280937105B8CC80916F007F
:1049D0008D7F80936F0000CD809170008D7F8093DC
:1049E0007000FACC8091E80681112BCD00917D05F5
:1049F00010917E05F801EE0FFF1FE00FF11FDF01A0
:104A0000AA0FBB1FA95CBC4F8D919C9160910402C1
:104A100070910502680F791F70930502609304027C
:104A2000DF01AA0FBB1FA75CBC4FCD90DC9080912B
:104A3000C6059091C705C80ED91ED092C705C09271
:104A4000C605EE0FFF1FE55CFC4FE080F180809112
:104A5000C4059091C505E80EF91EF092C505E092D7
:104A6000C40589E00E94D105B60186E00E94D10507
:104A7000B70183E00E94D10580917B0590917C0570
:104A8000019690937C0580937B058F3F910551F4AF
:104A90000F5F1F4F10937E0500937D0510927C05DC
:104AA00010927B0580917D0590917E0506970CF410
:104AB000C8CC10927E0510927D05C3CC019709F0F9
:104AC00039CD84E090E0909347068093460688E8CD
:104AD00093E1A0E0B0E08093000290930102A093E4
:104AE0000202B09303028091CE068111B5C682E026
:104AF00090E09093800580937F051CCD10928005F7
:104B000010927F0537CD892B09F062C0CE01C19686
:104B10000E94C3190E94B20A68EE73E00E94B7397E
:104B2000BC01CE0185960E9415180E94BC0ABC01EA
:104B3000CE014F960E9415180E94C40ABC01CE01F6
:104B400001960E941518BE016F5F7F4FCE014996F6
:104B50000E940416BE01615E7F4FCE0149960E94FD
:104B60005815BE016B5D7F4F0E945815BC01CE01E8
:104B70008B960E940416AE014F5C5F4FBE01655DCF
:104B80007F4FCE01C7960E946A16BE01695C7F4FB7
:104B900083ED99E00E946414CE01C7960E94AF1481
:104BA000CE018B960E94AF14CE0149960E94AF149D
:104BB000CE0101960E94AF14CE014F960E94AF1411
:104BC000CE0185960E94AF14CE01C1960E94AF140B
:104BD0008091460690914706019709F021CE0E94E8
:104BE000B20A68EE73E00E94B739BC01CE018B9621
:104BF0000E9415180E94BC0ABC01CE0185960E9435
:104C000015180E94C40ABC01CE0149960E941518CD
:104C1000BE01675E7F4FCE014F960E940416BE0113
:104C20006B5D7F4FCE014F960E945815BE01655DAA
:104C30007F4F0E945815BC01CE01C1960E940416F8
:104C4000CE0101960E94C319AE014F5C5F4FBE01B9
:104C50006F5F7F4FCE01C7960E946A16BE01695CE6
:104C60007F4F83ED99E00E946414CE01C7960E94A5
:104C7000AF14CE0101960E94AF14CE01C1960E94DE
:104C8000AF14CE014F960E94AF14CE0149960E94F8
:104C9000AF14CE0185960E94AF14CE018B96BECD87
:104CA00010921706BDCD0E94FF060091FD051091E0
:104CB000FE052091FF0530910006601B710B820BF1
:104CC000930B61367A4E8105910508F4BDCD1092A3
:104CD000FC05E0914606F0914706EE0FFF1FE555F3
:104CE000FC4F808191819093470680934606880F00
:104CF000991FFC01E35FFD4F808180935E06A4CD88
:104D00001092470610924606D3CD1092FC055093A0
:104D1000470640934606452BB9F40E94B20A7C012F
:104D20000E94BC0A8C010E94C40A40914502509125
:104D3000460260914302709144029C0180914102BD
:104D4000909142020E948E098091460690914706FA
:104D50000197F9F4E0904D02F0904E0200914B0261
:104D600010914C028090490290904A020E94CC0A15
:104D70005C010E94D40A6C010E94DC0A9401A50126
:104D8000B6010E948E09609147028DE090E00E947A
:104D9000CE1C80914606909147060297C1F460911F
:104DA0004F0282E090E00E94CE1C6091510283E0AD
:104DB00090E00E94CE1C6091530284E090E00E943B
:104DC000CE1C6091550286E090E00E94CE1C80913E
:104DD000460690914706039731F46091570281E0AF
:104DE00090E00E94CE1C8091460690914706049761
:104DF00031F4609159028BE090E00E94CE1C8091CA
:104E0000460690914706059749F460915B028091B0
:104E10008302681B8CE090E00E94CE1C0E94B20AC4
:104E20005C010E94BC0A082F0E94C40AD82E0E946E
:104E3000CC0AF82E0E94D40A182F0E94DC0A382FC0
:104E4000C50168EE73E00E94B739E82E2D2D4F2D75
:104E5000612F832F0E94F50D8BCD2331310561F039
:104E6000295031092230310538F00E941217F8011B
:104E7000EB5CFD4F918380838091BA099091BB09CF
:104E800097FD07C08091D9059091DA05019609F048
:104E9000F4C044E650E060E070E088EE93E00E94E9
:104EA0000B048091FC05811152C0009146061091BF
:104EB00047060E94FF066093FD057093FE058093F0
:104EC000FF0590930006012B09F041C00E94CC0A17
:104ED000BC01CE0185960E9415180E94D40ABC011F
:104EE000CE014F960E9415180E94DC0ABC01CE012B
:104EF00001960E941518BE016F5F7F4FCE01499643
:104F00000E940416BE01615E7F4FCE0149960E9449
:104F10005815BE016B5D7F4F0E9458156BE474E01D
:104F20000E944215BC0183ED99E00E94ED15CE016F
:104F300049960E94AF14CE0101960E94AF14CE0193
:104F40004F960E94AF14CE0185960E94AF148091B7
:104F5000460690914706019709F056C00E94C40A80
:104F600090934A02809349020E94BC0A90934C029B
:104F700080934B020E94B20ABC0190934E02809330
:104F80004D028091470290914802892B09F09BC104
:104F9000CE0185960E94151860914B0270914C02CB
:104FA000CE014F960E9415186091490270914A02F5
:104FB000CE0101960E941518BE016F5F7F4FCE0192
:104FC00049960E940416BE01615E7F4FCE0149964C
:104FD0000E945815BE016B5D7F4F0E945815BC01A1
:104FE00083ED99E00E94ED15CE0149960E94AF1421
:104FF000CE0101960E94AF14CE014F960E94AF14CD
:10500000CE0185960E94AF14E0914606F0914706C6
:10501000EE0FFF1FE555FC4F20813181309347068D
:10502000209346062D30310549F481E090E09093BD
:1050300056028093550280E880934E068091FC05CD
:1050400091E089278093FC058901000F111FF80169
:10505000E35FFD4F808180935E06A90142515109B3
:105060004230510550F02930310539F00E941217B5
:10507000F801EB5CFD4F918380838091A1099091B1
:10508000A209009709F030C18091D7059091D80509
:105090000197E1F481E08093D0051092D806109238
:1050A000D70644E650E060E070E088EE93E00E94AE
:1050B0000B040E946F198091FC05811107C01092AA
:1050C000E80660E087E090E00E94CE1C8091CE056B
:1050D0009091CF05019609F010C18091A309882312
:1050E00009F40BC1109260068091FC058823F9F049
:1050F0000E94FF060091CA051091CB052091CC05B6
:105100003091CD05601B710B820B930B67397105D4
:105110008105910560F00E94FF066093CA057093B7
:10512000CB058093CC059093CD050E946F1980919B
:10513000880990918909009709F0E3C08091D5050D
:105140009091D605019771F511E01093D00510925A
:10515000D8061092D70644E650E060E070E088EE92
:1051600093E00E940B040E9410198091FC058111AC
:1051700019C01093E80661E087E090E00E94CE1C21
:105180006091040288E090E00E94CE1C6091C60508
:1051900089E090E00E94CE1C6091C4058AE090E016
:1051A0000E94CE1C8091C8059091C905019609F016
:1051B000B1C080918A09882309F4ACC08091FC05B4
:1051C00010925F06882321F10E94FF060091C0051E
:1051D0001091C1052091C2053091C305601B710B70
:1051E000820B930B673971058105910508F449C05D
:1051F0000E94FF066093C0057093C1058093C205AD
:105200009093C3050E9410198091FC05811139C04B
:105210008091A1099091A20997FD06C08091D705C0
:105220009091D805019691F444E650E060E070E07A
:1052300088EE93E00E940B0481E080930C0261E011
:1052400090E080E00E94CE1C0E94D21C80918809D0
:105250009091890997FD06C08091D5059091D6055A
:10526000019679F444E650E060E070E088EE93E067
:105270000E940B0410920C0260E090E080E00E941B
:10528000CE1CE0914606F0914706E431F10508F0A6
:105290006FCB8827E15BF64D8F4F0C940C3A8E292B
:1052A000CD29C22A0E2B392B7D2BB824B824B82443
:1052B000AC2BD42BD42BD42BB824B824B824B824AA
:1052C000B824392B7D2BCE0185960E94151860914C
:1052D000490270914A02CE014F960E9415186091C2
:1052E0004B0270914C0264CE9093CF058093CE0513
:1052F000181619060CF4CECEC7CE81E08093600656
:1053000016CF9093C9058093C805181619060CF49A
:105310001BCF14CF81E080935F0676CF8091170674
:1053200081112CC00E94FF060091990510919A05E9
:1053300020919B0530919C05601B710B820B930B98
:10534000633371058105910508F10E94FF066093A2
:10535000990570939A0580939B0590939C05CE01C7
:1053600001960E94C319BE016F5F7F4F83ED99E0E4
:105370000E946414CE0101960E94AF140E94CC0AD0
:1053800080FD72C180EC80934E0670C163ED79E0C0
:10539000CE0101960E940416E6CF80911706811176
:1053A000DEC08091B805811111C00E94FF066751CF
:1053B0007C4F8F4F9F4F6093B4057093B5058093DA
:1053C000B6059093B70581E08093B8058091AC0550
:1053D000811144C00E94B20A68EE73E00E94B7399E
:1053E000BC01CE0101960E9415180E94BC0ABC01A6
:1053F000CE0149960E9415180E94C40ABC01CE0134
:1054000085960E941518BE016B5D7F4FCE014F96A9
:105410000E940416BE01675E7F4FCE014F960E9428
:105420005815BE016F5F7F4F0E945815BC0186EA78
:1054300095E00E94041681E08093AC05CE014F9662
:105440000E94AF14CE0185960E94AF14CE014996FA
:105450000E94AF14CE0101960E94AF140091470242
:105460001091480280919E05811105C000939D0511
:1054700081E080939E050E94FF06C090B405D09005
:10548000B505E090B605F090B7056C197D098E0959
:105490009F09693E73408105910530F480919D0517
:1054A0008017110609F44AC00E94FF066093B405F4
:1054B0007093B5058093B6059093B705012B09F05D
:1054C00050C00E94B20ABC01CE0101960E9415187C
:1054D0000E94BC0ABC01CE0149960E9415180E9488
:1054E000C40ABC01CE0185960E941518BE016B5DF1
:1054F0007F4FCE014F960E940416BE01675E7F4F1C
:10550000CE014F960E945815BE016F5F7F4F0E94DB
:105510005815BC0186EA95E00E94ED15CE014F9624
:105520000E94AF14CE0185960E94AF14CE01499619
:105530000E94AF14CE0101960E94AF1466EA75E096
:10554000CE0101960E940416BE016F5F7F4F83ED6E
:1055500099E00E946414CE0101960E94AF1480E489
:1055600012CF0E94B20ABC01CE0101960E9415180A
:105570000E94C40ABC01CE0149960E9415180E94DF
:10558000BC0AAFCF6091530270915402CE01859650
:105590000E9415186091510270915202CE014F96EF
:1055A0000E94151860914F0270915002CE01019631
:1055B0000E941518BE016F5F7F4FCE0149960E9471
:1055C0000416BE01615E7F4FCE0149960E945815B8
:1055D000BE016B5D7F4F0E9458156BE474E00E9422
:1055E0004215BC0183ED99E00E94ED15CE0149966C
:1055F0000E94AF14CE0101960E94AF14CE014F96C7
:105600000E94AF14CE0185960E94AF14809155027E
:1056100090915602019741F580E8B5CE609157020E
:1056200070915802CE0149960E94C1156BE474E056
:10563000CE0101960E940D16BE01675E7F4FCE011E
:1056400001960E94581569E474E00E944215BC015D
:1056500083ED99E00E94ED15CE0101960E94AF14F2
:10566000CE0149960E94AF1410924E060E94C10FBF
:105670007FC980911706811124C081E020915902D1
:1056800030915A02232B09F480E00E94F40EAB0102
:10569000BC01CE0101960E94BC1ABE016F5F7F4F14
:1056A00083ED99E00E946414CE0101960E94AF142C
:1056B0008091590290915A02892BD1F480E4809311
:1056C0004E0681E02091590230915A02232B09F4B1
:1056D00080E00E94F40E10914E0620E030E0A90117
:1056E0000E949F3787FF07C0106810934E0640C97D
:1056F00010924E06E6CF1F77F8CF60915B02709153
:105700005C02CE0101960E941518BE016F5F7F4FAB
:10571000CE0149960E94041667E474E0CE014996D2
:105720000E944215BC0183ED99E00E94ED15CE0167
:1057300049960E94AF14CE0101960E94AF14809149
:105740005B0290915C0297FD03C010924E0610C957
:1057500080E880934E060CC98091470290914802E0
:10576000892B99F46CE274E083ED99E00E94B715FF
:1057700083E090E090932202809321028CE090E0FD
:105780009093240280932302F3C865E374E083EDD1
:1057900099E00E94B7158CE090E0909322028093EC
:1057A000210283E090E0ECCF60914D0270914E02B7
:1057B0008091470290914802892BE9F5CE018596A8
:1057C0000E94671760914B0270914C02CE014F9678
:1057D0000E9415186091490270914A02CE0101960B
:1057E0000E941518BE016F5F7F4FCE0149960E943F
:1057F0000416BE01615E7F4FCE0149960E94581586
:10580000BE016B5D7F4F0E945815BC0183ED99E08E
:105810000E94ED15CE0149960E94AF14CE0101966B
:105820000E94AF14CE014F960E94AF14CE01859610
:105830000E94AF149DC8CE0185960E9467176091A3
:10584000490270914A02CE014F960E94151860914C
:105850004B0270914C02C2CF81E090E00C94B122D7
:105860001F920F920FB60F9211242F933F938F9395
:105870009F93AF93BF938091EA069091EB06A0911E
:10588000EC06B091ED063091E90623E0230F2D37A9
:1058900058F50196A11DB11D2093E9068093EA06F3
:1058A0009093EB06A093EC06B093ED068091EE0684
:1058B0009091EF06A091F006B091F1060196A11D1E
:1058C000B11D8093EE069093EF06A093F006B0937F
:1058D000F106BF91AF919F918F913F912F910F90C2
:1058E0000FBE0F901F90189526E8230F0296A11D5A
:1058F000B11DD2CF1F920F920FB60F9211240BB68B
:105900000F922F933F934F935F936F937F938F9358
:105910009F93AF93BF93EF93FF9380E797E00E942D
:105920008C07FF91EF91BF91AF919F918F917F91E4
:105930006F915F914F913F912F910F900BBE0F9000
:105940000FBE0F901F9018951F920F920FB60F92D7
:1059500011240BB60F922F938F939F93EF93FF9386
:10596000E0918007F09181078081E0918607F091B6
:10597000870782FD1DC09081809189078F5F8F739B
:1059800020918A07821741F0E0918907F0E0E05901
:10599000F84F958F80938907FF91EF919F918F9199
:1059A0002F910F900BBE0F900FBE0F901F90189568
:1059B0008081F2CF1F920F920FB60F9211240BB677
:1059C0000F922F933F934F935F936F937F938F9398
:1059D0009F93AF93BF93EF93FF938DE098E00E9466
:1059E0008C07FF91EF91BF91AF919F918F917F9124
:1059F0006F915F914F913F912F910F900BBE0F9040
:105A00000FBE0F901F9018951F920F920FB60F9216
:105A100011240BB60F922F938F939F93EF93FF93C5
:105A2000E0911D08F0911E088081E0912308F0911B
:105A3000240882FD1DC09081809126088F5F8F739E
:105A400020912708821741F0E0912608F0E0E35FFB
:105A5000F74F958F80932608FF91EF919F918F913B
:105A60002F910F900BBE0F900FBE0F901F901895A7
:105A70008081F2CF1F920F920FB60F9211240BB6B6
:105A80000F922F933F934F935F936F937F938F93D7
:105A90009F93AF93BF93EF93FF938091B7080E94BA
:105AA00078032091BB083091BC082F5F3F4F3093A3
:105AB000BC082093BB089091BA08953618F096E080
:105AC0009093B6089091B608943009F466C0B8F483
:105AD0009230F1F0933009F444C09091B9089923C1
