:100000000C941E020C944F020C944F020C944F025D
:100010000C944F020C944F020C944F020C944F021C
:100020000C944F020C944F020C944F020C944F020C
:100030000C944F020C94D62E0C944F020C944F0249
:100040000C944F020C94292F0C944F020C944F02E5
:100050000C944F020C94882F0C944F020C940C2D8E
:100060000C944F020C94E02D0C94B62D0C944F027E
:100070000C944F020C944F020C944F020C944F02BC
:100080000C944F020C944F020C944F020C944F02AC
:100090000C94802D0C94562D0C944F020C94E72F49
:1000A0000C944F020C944F020C944F020C944F028C
:1000B0000C944F020C944F020C944F020C94162E89
:1000C0000C944F020C944F020C944F020C944F026C
:1000D0000C944F020C944F020C944F020C944F025C
:1000E0000C944F020C941B080C942F060C94650E74
:1000F0000C94E9240C9434030C9446030C94690E7C
:100100000C9479030C9474030C94F3240C949E06C1
:100110000C9439060C9467060C94EB240C94B52BC4
:100120000C9411070C948A060C9413070C94590331
:100130000C9441060C9480060C941B060C94160635
:100140000C94A8060C943E030C9476060C94A60C12
:100150000C9453060C94E02B0C9440070C949E0EC8
:100160000C944F070C945D030C9425060C94EF241B
:100170000C945D060C94692B0C94770E0C940E066F
:100180000C9471070C9449030C9442030C944F0394
:100190000C94D42C0C949C0E0C94CF0C0C94590EF3
:1001A0000C94AF0E0C947B2C0C9410070C94A50CA3
:1001B0000C946B030C94FC0C0C94E5240C947503C8
:1001C0000C9440380C9453030C94B50C0C94B30766
:1001D0000C94532C0C94A00D0C94CC240C94ED2472
:1001E0000C94242C0C94742A0C9449060C94C80C7E
:1001F0000C94F1240C94352A0C9494060C946F03FF
:100200000C9461030C943A030C9463070C946703F9
:100210000C9444315570646174696E672074696D23
:10022000652E2E2E00496E636F72726563742053C3
:100230006F6E6720466F726D61742100416C6C2097
:10024000617474656D707473207765726520756E66
:100250007375636365737366756C2E0041747465A2
:100260006D707420746F2073796E63207769746881
:10027000204750532E0044617465206F72205469EA
:100280006D65206E6F7420696E2072616E67650007
:1002900002010053746F7020546573740054656DCF
:1002A000702E2073656E736F72206E6F7420666F90
:1002B000756E642E00475053204E4F542064657471
:1002C00065637465642100475053206465746563F9
:1002D0007465640053746172742054657374004EC5
:1002E00043533331322D3820485635313232206F66
:1002F0007220485635323232004669726D7761722B
:10030000652076657273696F6E3A20004661756C80
:10031000747920525443210000002100240027005A
:100320002A002D0030003300010100000401070104
:100330000A0100002200250028002B002E003100B9
:10034000340002010000050108010B0100000A0B46
:1003500002090C0D0E080703040100000000000054
:10036000000000000000000000000000000000008D
:10037000000000000000000012111000000000004A
:10038000000000000000000000000000000000006D
:100390000000000020002300260029002C002F0070
:1003A00032000001000003010601090105050505F1
:1003B000070508080808020202020A0A08080404DD
:1003C000040401010101010101010303030303030B
:1003D0000303040707070C0C0C0C0C0C0C0C02029A
:1003E000020206060606060606060B0B0B0B0B0B97
:1003F0000B0B010210202008081020401020408024
:1004000002010201080402010102040810204080D8
:100410008040201008040201800402018040201066
:1004200008040201080402010102040810204080AF
:1004300001020408102040804431403811241FBEBE
:10044000CFEFD1E2DEBFCDBF00E00CBF2AE0A8E4D1
:10045000B5E001C01D92AF35B207E1F715E0A0E0AD
:10046000B2E0E6E3FBE700E00BBF02C007900D92AD
:10047000A834B107D9F712E0CDE1D2E000E006C020
:1004800021970109802FFE010E94483BCC31D10702
:1004900080E00807A9F70E9433320C94893D0C9440
:1004A00000008CBD9DBD08958091140AE091150A4D
:1004B000F091160AF8949181982B91832281382F1C
:1004C000309523232283A7E0B0E01197F1F79181C3
:1004D00093239183A3E2B0E01197F1F79081789490
:1004E000EFECF0E03197F1F7982381E009F480E038
:1004F00008959091140AE091150AF091160A292F97
:10050000209580FF14C0F8948281822382838181A8
:10051000892B8183A3E2B0E01197F1F78281982BB8
:100520009283789487ED90E00197F1F70895F8941D
:100530008281822382838181892B8183AFEFB0E026
:100540001197F1F78281982B928378948FE090E055
:10055000EBCF0F931F93CF93DF93082FC8E0D0E02A
:1005600011E081E0902F912309F480E00E9479024C
:10057000110F2197B1F7F894E091150AF091160A3E
:1005800091818091140A809598239183E091150AB6
:10059000F091160A9281892382837894DF91CF911A
:1005A0001F910F9108958091140AE091150AF0911E
:1005B000160AF8949181282F20959223918378949C
:1005C0003DE743E050E0315029F1DA011197F1F7AE
:1005D00090819823C1F3F894928192239283918120
:1005E000982B91837894ABE7B7E01197F1F7F894E3
:1005F000918192239183A3E1B1E01197F1F790816A
:10060000982381E009F080E07894E3E6F6E0319702
:10061000F1F7089580E0089591E090937907809331
:100620009B0710927A0710929C070895815082319F
:1006300008F05AC0E82FF0E08827EE5DFC4F8F4F9E
:100640000C94483B4203460334033A033E037403CD
:1006500049034F03530359035D03610367036B03AE
:1006600074036F0375037903809180008F77809303
:1006700080000895809180008F7DF9CF8091800067
:10068000877FF5CF84B58F7784BD089584B58F7D3E
:10069000FBCF8091B0008F778093B0000895809158
:1006A000B0008F7DF9CF809190008F77809390007C
:1006B0000895809190008F7DF9CF80919000877F81
:1006C000F5CF8091A0008F778093A000089580914E
:1006D000A0008F7DF9CF8091A000877FF5CF80911A
:1006E00020018F77809320010895809120018F7DD4
:1006F000F9CF80912001877FF5CFCF93DF93282F0B
:1007000030E0F901E45BFC4F8491F901EE50FC4FBD
:10071000D491F901E455FC4FC491CC23A1F081118F
:100720000E941603EC2FF0E0EE0FFF1FEE56FC4F79
:10073000A591B491EC91ED2381E090E009F480E083
:10074000DF91CF91089580E090E0FACF1F93CF938F
:10075000DF93282F30E0F901E45BFC4F8491F9012D
:10076000EE50FC4FD491F901E455FC4FC491CC23D9
:10077000A9F0162F81110E941603EC2FF0E0EE0F66
:10078000FF1FEE5CFC4FA591B4918FB7F894EC91EC
:10079000111108C0D095DE23DC938FBFDF91CF917C
:1007A0001F910895DE2BF8CFCF93DF9390E0FC01EB
:1007B000EE50FC4F249184559C4FFC01849188237A
:1007C000C9F090E0880F991FFC01E85EFC4FA591ED
:1007D000B491FC01EE5CFC4FC591D49161110DC048
:1007E0009FB7F8948C91209582238C93888128233D
:1007F00028839FBFDF91CF910895623051F49FB756
:10080000F8943C91822F809583238C93E8812E2B42
:10081000EFCF8FB7F894EC912E2B2C938FBFEACFAC
:100820004F925F926F927F928F929F92AF92BF9200
:10083000CF92DF92EF92FF920F931F93CF93DF93AC
:1008400000D01F921F92CDB7DEB72091AA0727FDD7
:100850002CC149835A836B837C838C0161E0809136
:10086000A9070E94D4038091AA078D834801B12C67
:10087000A12C8D7F09F031C160E072E18AE790E040
:10088000A50198010E94293B29013A017A016901D9
:1008900091E0C91AD108E108F108AFEFCA16D104F6
:1008A000E104F10409F00CF4C7C060E472E48FE0E5
:1008B00090E0A50198010E94293B69017A01B1E00D
:1008C000CB1AD108E108F1088D81823009F06AC0A5
:1008D00082E09FEFC916D104E104F10409F00CF4A1
:1008E0005EC160E970ED83E090E0A50198010E948F
:1008F000293B69017A01A1E0CA1AD108E108F1088F
:1009000083E0BFEFCB16D104E104F10409F00CF44D
:1009100046C168E478EE81E090E0A50198010E946C
:10092000293B69017A0181E0C81AD108E108F10880
:1009300084E09FEFC916D104E104F10409F00CF43E
:100940002EC164E274EF80E090E0A50194010E9462
:10095000293B69017A01B1E0CB1AD108E108F1081D
:1009600085E09FEFC916D104E104F10409F008F411
:1009700016C162E17AE780E090E0A50194010E944F
:10098000293B69017A01B1E0CB1AD108E108F108ED
:100990008FEFC816D104E104F10411F008F0F0C0A3
:1009A00086E0FDC08FEFC816D104E104F10409F020
:1009B0000CF491C068E478EE81E090E0A501980124
:1009C0000E94293B69017A0191E0C91AD108E10826
:1009D000F108AD8184E0A111C4CF83E0AFEFCA1666
:1009E000D104E104F10461F15CF162E17AE780E0B5
:1009F00090E0A50194010E94293B69017A0181E000
:100A0000C81AD108E108F10884E09FEFC916D104A3
:100A1000E104F104A9F0A0F0730162019AE0F594F9
:100A2000E794D794C7949A95D1F7A1E0CA1AD10850
:100A3000E108F10885E004C081E0AD81A111AFC0FB
:100A400095B5987F892B85BD89819A81AB81BC81C1
:100A50002FEF3FEFA901892B8A2B8B2B79F0D8013F
:100A6000AA0FBB1F29813A814B815C810E94153AF4
:100A700028EE33E040E050E00E94073B9D8191303A
:100A800009F45CC0923009F46BC091110EC0C7BC70
:100A90002093A5073093A6074093A7075093A80774
:100AA00080916E00826080936E000F900F900F9087
:100AB0000F900F90DF91CF911F910F91FF90EF90CA
:100AC000DF90CF90BF90AF909F908F907F906F906E
:100AD0005F904F90089582E0B0CF60E072E18AE7C6
:100AE00090E0A50198010E94293B69017A01B1E0DB
:100AF000CB1AD108E108F10891E0C114D10481E0DA
:100B0000E806F10484F068E478EE81E090E0A50165
:100B100098010E94293B69017A0191E0C91AD10824
:100B2000E108F10893E0AD81A13009F08DCF80910B
:100B30008100887F892B8093810086CFD0928900A5
:100B4000C09288002093A1073093A2074093A30787
:100B50005093A40780916F00826080936F00A5CFAF
:100B6000C092B30020939D0730939E0740939F0748
:100B70005093A0078091700082608093700095CFA1
:100B8000730162018AE0F594E794D794C7948A953B
:100B9000D1F7B1E0CB1AD108E108F10887E09091D4
:100BA000B100987F892B8093B1004ECF1F93CF93D4
:100BB000DF93182FEB0161E00E94D403209739F4F2
:100BC00060E0812FDF91CF911F910C94A603CF3F5E
:100BD000D10511F461E0F5CFE12FF0E0E45BFC4FCB
:100BE000E491E150E23108F0B3C0F0E08827E4502E
:100BF000FA4F8F4F0C94483B0E0616061B0625062F
:100C00002F06A80639064106490653065D06670603
:100C100076068006A8068A0694069E0684B5806835
:100C200084BDC7BDDF91CF911F91089584B58062C7
:100C300084BDC8BDF7CF809180008068809380001C
:100C4000D0938900C0938800EDCF809180008062AE
:100C500080938000D0938B00C0938A00E3CF809173
:100C60008000886080938000D0938D00C0938C00BA
:100C7000D9CF8091B00080688093B000C093B3005A
:100C8000D1CF8091B00080628093B000C093B40057
:100C9000C9CF80919000806880939000D093990094
:100CA000C0939800BFCF80919000806280939000A5
:100CB000D0939B00C0939A00B5CF8091900088603C
:100CC00080939000D0939D00C0939C00ABCF809107
:100CD000A00080688093A0008091A0008F7B80930B
:100CE000A000D093A900C093A8009CCF8091A00041
:100CF00080628093A000D093AB00C093AA0092CFF3
:100D00008091A00088608093A000D093AD00C09334
:100D1000AC0088CF80912001806880932001D0931F
:100D20002901C09328017ECF8091200180628093A9
:100D30002001D0932B01C0932A0174CF8091200110
:100D4000886080932001D0932D01C0932C016ACF3D
:100D5000C038D1050CF03ECF33CF3FB7F894809127
:100D6000270790912807A0912907B0912A0726B557
:100D7000A89B05C02F3F19F00196A11DB11D3FBFD3
:100D8000BA2FA92F982F8827BC01CD01620F711DA2
:100D9000811D911D42E0660F771F881F991F4A959C
:100DA000D1F708958F929F92AF92BF92CF92DF9228
:100DB000EF92FF924B015C010E94AD066B017C013A
:100DC0000E94AD066C197D098E099F09683E73402B
:100DD00081059105A8F321E0821A9108A108B108C4
:100DE00088EEC80E83E0D81EE11CF11C811491042A
:100DF000A104B10429F7FF90EF90DF90CF90BF904E
:100E0000AF909F908F9008952FB7F894609123072B
:100E10007091240780912507909126072FBF089590
:100E2000089508950895AF92BF92CF92DF92EF9206
:100E3000FF920F931F93CF93DF936C017B018B0184
:100E4000040F151FEB015E01AE18BF08C017D107D4
:100E500059F06991D601ED91FC910190F081E02D5E
:100E6000C6011995892B79F7C501DF91CF911F91A3
:100E70000F91FF90EF90DF90CF90BF90AF900895CB
:100E8000FC01538D448D252F30E0842F90E0821B90
:100E9000930B541710F0CF96089501970895FC0115
:100EA000918D828D981761F0A28DAE0FBF2FB11D6D
:100EB0005D968C91928D9F5F9F73928F90E00895C5
:100EC0008FEF9FEF0895FC01918D828D981731F07F
:100ED000828DE80FF11D858D90E008958FEF9FEFD3
:100EE0000895FC01918D228D892F90E0805C9F4FA9
:100EF000821B91098F73992708958BEA97E00E94CE
:100F0000710721E0892B09F420E0822F089588E4FD
:100F100098E00E94710721E0892B09F420E0822FDC
:100F20000895FC01A48DA80FB92FB11DA35ABF4F7E
:100F30002C91848D90E001968F739927848FA689D8
:100F4000B7892C93A089B1898C91837080648C932C
:100F5000938D848D981306C00288F389E02D8081DB
:100F60008F7D80830895EF92FF920F931F93CF930D
:100F7000DF93EC0181E0888F9B8D8C8D98131AC0D4
:100F8000E889F989808185FF15C09FB7F894EE89BB
:100F9000FF896083E889F989808183708064808318
:100FA0009FBF81E090E0DF91CF911F910F91FF9063
:100FB000EF900895F62E0B8D10E00F5F1F4F0F730B
:100FC0001127E02E8C8D8E110CC00FB607FCFACFC6
:100FD000E889F989808185FFF5CFCE010E949107CC
:100FE000F1CFEB8DEC0FFD2FF11DE35AFF4FF08297
:100FF0009FB7F8940B8FEA89FB8980818062CFCFFD
:101000000F931F93CF93DF938C01D0E0C0E0F801E2
:10101000EC0FFD1F6491662341F088E498E00E9484
:10102000B307892B11F02196F2CFCE01DF91CF913A
:101030001F910F910895CF93DF93EC01888D882342
:10104000B9F0AA89BB89E889F9898C9185FD03C02B
:10105000808186FD0DC00FB607FCF7CF8C9185FF10
:10106000F2CF808185FFEDCFCE010E949107E9CFBD
:10107000DF91CF91089580E090E0892B29F00E94C4
:10108000870781110E94000080E090E0892B29F001
:101090000E947D0781110E94000080E090E0892B72
:1010A00049F080E090E0892B29F00E940000811136
:1010B0000E94000080E090E0892B49F080E090E001
:1010C000892B29F00E94000081110C9400000895E2
:1010D0006093EE067093EF068093F0069093F1060E
:1010E000645D7E4F8F4F9F4F6093EA067093EB06CF
:1010F0008093EC069093ED0682E090E09093E906F1
:101100008093E8060E9404076093E4067093E50666
:101110008093E6069093E7060895CF92DF92EF92D0
:10112000FF920F931F930E9404078B019C01C090B4
:10113000E406D090E506E090E606F090E7066091C0
:10114000EE067091EF068091F0069091F1060C1971
:101150001D092E093F09083E134021053105E0F025
:10116000DC01CB010196A11DB11D8093EE06909389
:10117000EF06A093F006B093F106B701A60148511F
:101180005C4F6F4F7F4F4093E4065093E5066093AA
:10119000E6067093E706C7CF1F910F91FF90EF907F
:1011A000DF90CF9008954F925F926F927F928F92CF
:1011B0009F92AF92BF92CF92DF92EF92FF920F93E6
:1011C0001F93CF93DF93FC011681A12FB0E020E89D
:1011D00033E341EE51E00E94153A4B015C01C2EB52
:1011E000D7E09D0104E610E080E9E82EFF24F394A7
:1011F000CE01825B9740821793079CF14580512C6A
:101200002E54384FC90164E670E00E94F33A7C0125
:10121000C90160E971E00E94F33A6C0102E114E057
:10122000C1E0D0E0390183E068227724C415D505F8
:101230000CF040C0C230D10571F56114710459F54C
:10124000E114F10419F4C114D10429F5B0E88B0EAE
:10125000BBE39B1EB6E2AB1EB11C21960F5F1F4F76
:10126000E5CFCE0183709927892B99F4CE01B8017F
:101270000E94F33A892B31F4CE01B7010E94F33A70
:10128000892B39F4A0E88A0EA1E59A1EA1E0AA1ED6
:10129000B11C2196ADCFD8018C91A82FB0E020E8E9
:1012A00031E541E050E00E94153A860E971EA81ED7
:1012B000B91ED3CF228130E0A0E1BEE00E94203AE7
:1012C0006B017C01218130E0ACE3B0E00E94203A68
:1012D000C60ED71EE81EF91E8081C80ED11CE11C67
:1012E000F11CA481A150BB0B20E831E541E050E0A6
:1012F0000E94573B6C0D7D1D8E1D9F1D680D791D35
:101300008A1D9B1DDF91CF911F910F91FF90EF9050
:10131000DF90CF90BF90AF909F908F907F906F9015
:101320005F904F900895EF92FF920F9394E6E91625
:10133000F104CCF092EBE91A97E0F90AE092F80692
:101340000093F7062093F6068093F4066093F30665
:101350004093F20682EF96E00E94D3080F91FF902F
:10136000EF900C9468089EE1E90EF11CE7CF6F92B4
:101370007F928F929F92AF92BF92CF92DF92EF9225
:10138000FF920F931F93CF93DF936B017C01EA01D0
:101390008CE3882E912CA12CB12CC701A5019401BE
:1013A0000E94073B6883CA01B901A50194010E940C
:1013B000073B6983C701B60120E13EE040E050E011
:1013C0000E94073BCA01B90128E130E040E050E04B
:1013D0000E94073B6A83C701B60120E831E541E07E
:1013E00050E00E94073B69017A01CA01B9016C5FB4
:1013F0007F4F8F4F9F4F27E030E040E050E00E944A
:10140000073B6F5F6B83812C912C540140E094E685
:10141000692E712C00E911E0242F30E02E54384F52
:10142000F901E370FF273097F9F4C901B3010E9475
:10143000F33A892B31F4C901B8010E94F33A892BA0
:1014400099F48EE691E0A0E0B0E0880E991EAA1E05
:10145000BB1ED501C401AA27BB27C816D906EA06B8
:10146000FB0638F04F5FD8CF8DE691E0A0E0B0E00A
:10147000ECCF4E83C90164E670E00E94F33A8C0120
:10148000C90160E971E00E94F33A309729F401152F
:101490001105E1F40097D1F04DE651E060E070E015
:1014A000841A950AA60AB70AC818D908EA08FB08D8
:1014B000A2E1B4E020E0213071F4309791F50115FC
:1014C000110511F4009769F54DE106C04EE651E0B3
:1014D00060E070E0E5CF4C9150E070E060E031E01A
:1014E000320FC416D506E606F70640F0C41AD50A30
:1014F000E60AF70A1196232F3C30E9F62F5F2D8379
:10150000C394CC82DF91CF911F910F91FF90EF9008
:10151000DF90CF90BF90AF909F908F907F906F9013
:1015200008954CE1D9CFCF92DF92EF92FF92C09015
:10153000E006D090E106E090E206F090E306C616E1
:10154000D706E806F90671F06B017C0142EF56E020
:101550000E94B709C092E006D092E106E092E2064E
:10156000F092E306FF90EF90DF90CF9008950E94F5
:101570008D080E94930A8091F80690E08E54984F4F
:1015800008950E948D080E94930A8091F70690E0CA
:1015900008950E948D080E94930A8091F60690E0BB
:1015A00008950E948D080E94930A8091F20690E0AF
:1015B00008950E948D080E94930A8091F30690E09E
:1015C00008950E948D080E94930A8091F40690E08D
:1015D0000895CF92DF92EF92FF92CF93DF93EC01C9
:1015E0000E9404076B017C018F850E947D039C0192
:1015F00081E02115310509F480E0898B888981110A
:1016000005C091E0232B09F090E0998B29898A8904
:10161000281721F0CD8ADE8AEF8AF88E8D899E897F
:10162000AF89B88DB701A601481B590B6A0B7B0B1C
:10163000DB01CA01CB80DC80ED80FE80C816D906B4
:10164000EA06FB0664F43A81231749F02A83222331
:1016500049F04B895C894F5F5F4F5C8B4B8B3A81C4
:10166000311117C0CF80D884E984FA84C816D9060E
:10167000EA06FB0634F48B899C89998388831C8A4B
:101680001B8A2A8BDF91CF91FF90EF90DF90CF9054
:101690000895CB84DC84ED84FE84C816D906EA065E
:1016A000FB067CF78B899C89919581959109E5CF03
:1016B0002091BD06260F3327331F21323105ECF46C
:1016C00020917307FC0190E080E0243069F082E013
:1016D0000895A091BD062191AC014356594FA40F26
:1016E000B52FB11D2C930196861798F38091BD06F6
:1016F000680F6093BD0680E0089581E00895109220
:10170000730781E08093720710924D0761E084E1D6
:101710000E94A60361E085E10E94A603E9EBF0E0E8
:1017200080818E7F808380818D7F808388E4809319
:10173000B80085E48093BC000895CF93DF9391E0D7
:1017400090939C068823B9F0C091B800D091BA005C
:101750008091BC008A7B8093BC0060E084E10E94A1
:10176000A60360E085E10E94A6030E947F0BD09350
:10177000BA00C093B800DF91CF910895CF92DF9265
:10178000EF92FF920F931F93CF93DF93D0919C071B
:1017900081E0D13208F09CC0C0919B070E94AD0649
:1017A0006B017C018091730781116CC082E0809392
:1017B000730781E0809372078FEF80937107109217
:1017C0007007D0936F07ABE7B7E0EFE4F7E080E096
:1017D000D8138DC010924E0780914E07CC0FC82BA6
:1017E000C0934E0780914D07813009F084C010925C
:1017F0004D070E94AD066B017C0180914E078093DE
:10180000BB008091750790917607A0917707B09102
:101810007807892B8A2B8B2BA1F00E94AD060091B3
:1018200075071091760720917707309178076C192A
:101830007D098E099F09061717072807390708F43D
:1018400042C08091BC0083FDD8CF85EC8093BC0062
:101850000E94AD066B017C0180917307823009F410
:101860004CC0809171078F3F09F469C08091710766
:10187000803209F466C080917107803309F463C037
:1018800084E026C08091750790917607A091770734
:10189000B0917807892B8A2B8B2B09F483CF0E9478
:1018A000AD0600917507109176072091770730916A
:1018B00078076C197D098E099F09061717072807F5
:1018C000390708F06FCF809174070E949D0B85E067
:1018D00010927A0710929C0710927907DF91CF91AE
:1018E0001F910F91FF90EF90DF90CF9008959D9101
:1018F00091938F5F6DCF85EEA9CF80917507909101
:101900007607A0917707B0917807892B8A2B8B2BCC
:1019100009F4A2CF0E94AD060091750710917607D9
:1019200020917707309178076C197D098E099F09FE
:10193000061717072807390708F08ECFC4CF80E0B5
:10194000C7CF82E0C5CF83E0C3CF0895E0912C07D5
:1019500080912B07E81730F4F0E0E35DF84F8081C9
:1019600090E008958FEF9FEF089590912C0780915C
:101970002B072FEF3FEF981748F4E92FF0E0E35DD6
:10198000F84F208130E09F5F90932C07C9010895A4
:1019900080912B0790912C07891B990B0895CF926A
:1019A000DF92EF92FF920F931F93CF93DF937C010F
:1019B000CB018A0120917907222389F0EB016B0189
:1019C000C40ED51ECC15DD0569F06991D701ED91E6
:1019D000FC910190F081E02DC7011995F3CF642FA0
:1019E0000E94580BC801DF91CF911F910F91FF907A
:1019F000EF90DF90CF900895CF93DF931F92CDB7F4
:101A0000DEB76983209179072223F9F020919C07A2
:101A1000203258F021E030E0FC013383228390E053
:101A200080E00F90DF91CF91089580917A07E82FA1
:101A3000F0E0E558F84F998190838F5F80937A07A3
:101A400080939C0781E090E0ECCF61E0CE010196AD
:101A50000E94580BF7CF682F85EE98E00C94FC0C91
:101A6000DF92EF92FF920F931F93CF93DF93182F84
:101A7000F62ED42ED22F8091C5020E940C0360E076
:101A800085EE98E00E94FC0CCAE08D2D6C2F0E9420
:101A9000E73A8295807F682F690F85EE98E00E9473
:101AA000FC0C8F2D6C2F0E94E73A8295807F682F67
:101AB000690F85EE98E00E94FC0C812F6C2F0E942C
:101AC000E73A8295807F682F690F85EE98E00E9443
:101AD000FC0C61E085EE98E00E94FC0C8D2F6C2FD1
:101AE0000E94E73A8295807F682F690F85EE98E023
:101AF0000E94FC0C802F6C2F0E94E73A8295807F19
:101B0000682F690F85EE98E00E94FC0C8E2D6C2FDB
:101B10000E94E73A8295807F682F690F85EE98E0F2
:101B20000E94FC0C60E085EE98E00E94FC0CDF91C6
:101B3000CF911F910F91FF90EF90DF900C94BE0B0F
:101B400090E080E00895CF92DF92EF92FF920F93A2
:101B50001F93CF93DF9390919B0691110BC08FEF52
:101B60009FEFDF91CF911F910F91FF90EF90DF904A
:101B7000CF90089590919A06992389F3082FC091E8
:101B80009906D0E08091910681110DC00E94040752
:101B900060938D0670938E0680938F0690939006C7
:101BA00081E0809391060E940407C0908D06D0903A
:101BB0008E06E0908F06F09090066C197D098E09D4
:101BC0009F096D32714081059105B0F010918C062E
:101BD0000E94040760938D0670938E0680938F0693
:101BE0009093900691E0912790938C06992331F180
:101BF00010928B0610928A0620918A0630918B06ED
:101C00002095309580918906282326FF1CC081E00D
:101C10008093880627FF1AC081E080938706809111
:101C20008C06882309F49BCF02C0D595C7950A95E9
:101C3000E2F7C0FF94CF80E09CE393CFD0938B0674
:101C4000C0938A06D9CF10928806E4CF10928706F7
:101C5000E6CFEF92FF920F931F93CF93DF93182F4E
:101C600080915D0681110DC00E94040760935906A2
:101C700070935A0680935B0690935C0681E0809394
:101C80005D06C0915706D0915806C930D10508F0BD
:101C900077C0FE018827E05BF14F8F4F0C94483BE3
:101CA000590E650E690E770E590E650E9C0E9E0E2E
:101CB000AF0E0E94D3022196CA30D10509F091C01F
:101CC000109258061092570628C08CEC0E94A90268
:101CD000F2CF84E40E94A9020E940407609359068F
:101CE00070935A0680935B0690935C06E4CF0E9443
:101CF00004070091590610915A0620915B06309115
:101D00005C06601B710B820B930BC4E0D0E06E3E4F
:101D100072408105910508F064C06091530670918E
:101D200054068091550690915606DF91CF911F91F0
:101D30000F91FF90EF9008958EEBC8CF98E0E92EB9
:101D4000F12C10E001E00E9454028111102B000FD1
:101D500081E0E81AF108B9F710935106ACCF88E09A
:101D6000E82EF12C10E001E00E9454028111102BAA
:101D7000000F21E0E21AF108B9F7109352069BCF49
:101D8000C930D10509F097CF609151067091520684
:101D90006F3F760711F470E060E0072E000C880BAF
:101DA000990B0E94E23820E030E040E85DE30E94B9
:101DB0004139111109C06093530670935406809302
:101DC00055069093560677CF26E636E646EE5FE355
:101DD0000E94413920E030E040E052E40E94303A75
:101DE000EACFD0935806C093570697CFCF93DF938F
:101DF000EC012196FC0120812A33C9F4218124368B
:101E000009F5229630E020E06AE0899190ED980F84
:101E10009A3078F4629FA001639F500D1124082E20
:101E2000000C990BC0979A01280F391FEECFCE01F5
:101E3000DFCF30933406209333062115310511F09E
:101E40002093090288818F3689F48A81082E000C3C
:101E5000990B9C01205331093093340620933306AB
:101E6000C397059710F42093080224968881823640
:101E7000F1F4229630E020E06AE0899190ED980F2D
:101E80009A3068F4629FA001639F500D1124082EC0
:101E9000000C990BC0979A01280F391FEECF309391
:101EA00034062093330630930702209306022091D4
:101EB000060230910702032E000C440B550B60E61E
:101EC0007AEE80E090E00E94293B82E0220F331FEF
:101ED000441F551F8A95D1F720932F063093300663
:101EE0004093310650933206CE01DF91CF91089591
:101EF000CF92DF92EF92FF920F931F93CF93DF93D6
:101F0000EC018B010E940407CE80DF80E884F98415
:101F1000AB01BC014C195D096E097F09888199816B
:101F2000092E000CAA0BBB0B84179507A607B70751
:101F3000A0F48A85882389F01A868D811C821D82EF
:101F4000823060F181E090E0DF91CF911F910F919D
:101F5000FF90EF90DF90CF9008958B859C85801740
:101F60009107C9F481E08C838D818F5F8D830E94FE
:101F700004076E837F838887998781E08A872D8114
:101F80008A819B81281719064CF01C821D821A86B3
:101F90008FEF9FEFD9CF8C81811103C090E080E05B
:101FA000D3CF0F3F1F4FD1F7DFCF8EBD00000DB451
:101FB00007FEFDCF8EB508958F929F92AF92BF928C
:101FC000CF92DF92EF92FF920F931F93CF93DF9305
:101FD0007C01D62F0E94AD064B015C0180917307F6
:101FE000811167C0CD2F81E08093730780937207C2
:101FF0009FEF90937107109270079D0F90936F075A
:1020000080934E0780914E07EE0CFF1C8E29809323
:102010004E0780914D07813009F083C010924D0723
:102020000E94AD066B017C0180914E078093BB003E
:102030008091750790917607A0917707B091780706
:10204000892B8A2B8B2BA1F00E94AD0680907507FF
:1020500090907607A0907707B09078076C197D096B
:102060008E099F0986169706A806B90608F442C08D
:102070008091BC0083FDD8CF85EC8093BC000E948A
:10208000AD066B017C0180917307813009F44BC070
:10209000809170078D1710F4C0917007EFE4F7E09E
:1020A000ADE2B7E080E08C1751F191919D938F5F85
:1020B000FACF8091750790917607A0917707B0913C
:1020C0007807892B8A2B8B2B09F488CF0E94AD06C9
:1020D0000091750710917607209177073091780766
:1020E000681979098A099B0906171707280739070C
:1020F00008F074CF809174070E949D0BC0E010928D
:102100002C07C0932B078C2FDF91CF911F910F913C
:10211000FF90EF90DF90CF90BF90AF909F908F9007
:10212000089585EEAACF8091750790917607A091CA
:102130007707B0917807892B8A2B8B2B09F4A3CFD3
:102140000E94AD068090750790907607A090770763
:10215000B09078076C197D098E099F09861697063D
:10216000A806B90608F08FCFC5CFCF93C091C5029E
:102170008C2F0E940C0360E085EE98E00E94FC0C1E
:102180000E94BE0B67E070E08C2F90E00E94DC0F95
:1021900085EE98E00E94B50C982F92959F70CAE04A
:1021A0008F709C9F800D112490E090932007809366
:1021B0001F0785EE98E00E94B50C982F92959F70AE
:1021C0008F709C9F800D112490E09093170780934F
:1021D000160785EE98E00E94B50C982F92959370A3
:1021E0008F709C9F800D112490E090931507809331
:1021F000140785EE98E00E94B50C85EE98E00E94E9
:10220000B50C982F92959F708F709C9F800D112414
:1022100090E0909319078093180785EE98E00E944C
:10222000B50C982F92959F708F709C9F800D1124F4
:1022300090E090931B0780931A0785EE98E00E9428
:10224000B50C982F92959F708F709C9F800D1124D4
:1022500090E08053984F90931D0780931C07CF9177
:102260000895FC0101900020E9F73197AF01481B68
:10227000590BBC0188E498E00C941307CF93DF93CB
:102280000E940008EC0182E494E00E9431118C0F5E
:102290009D1FDF91CF9108958F929F92AF92BF9231
:1022A0000F931F93CF93DF93CDB7DEB7A1970FB6F0
:1022B000F894DEBF0FBECDBF19A2423008F44AE049
:1022C0008E010F5D1F4F842E912CB12CA12CA501E6
:1022D00094010E94073BE62FB901CA01EA30F4F4E9
:1022E000E05DD801EE938D01232B242B252B79F76C
:1022F00090E080E0109719F0CD010E943111A19675
:102300000FB6F894DEBF0FBECDBFDF91CF911F9106
:102310000F91BF90AF909F908F900895E95CE1CFAF
:10232000CF93DF93682F70E090E080E04AE00E9456
:102330004C11EC0182E494E00E9431118C0F9D1F3E
:10234000DF91CF910895FC0180819181009711F078
:102350000C94483860E070E0CB0108954F925F9292
:102360006F927F928F929F92AF92BF92CF92DF92A5
:10237000EF92FF92CF93DF93CDB7DEB72D970FB6D5
:10238000F894DEBF0FBECDBF0E94AD06C09083069D
:10239000D0908406E0908506F09086066C197D0941
:1023A0008E099F096A3171448105910508F44AC27A
:1023B0000E94AD0660938306709384068093850621
:1023C00090938606809182068823A1F180E00E9486
:1023D000D50F80E00E94D50F80E00E94D50F80E0ED
:1023E0000E94D50F80E00E94D50F80E00E94D50F9B
:1023F00080E00E94D50F80E00E94D50F61E08AE066
:102400000E94A60360E08AE02D960FB6F894DEBF26
:102410000FBECDBFDF91CF91FF90EF90DF90CF90B7
:10242000BF90AF909F908F907F906F905F904F90F4
:102430000C94A6038EE09AE00E94A31169837A832C
:102440008B839C8360E08AE00E94A603FAE0CF2E93
:10245000D12CE12CF12C69817A818B819C81A7019F
:1024600096010E94293B49015A01660F771F62506D
:102470007C4FDB014D905C9087E090E00E94A30DC3
:102480003C01C501B401A70196010E94293B660FDA
:10249000771F62507C4FFB01E080F18086E090E086
:1024A0000E94A30D46205720712C612C2AE0440C79
:1024B000551C661C771C2A95D1F78E219F21B0E010
:1024C000A0E0482A592A6A2A7B2A69817A818B816D
:1024D0009C8124E630E040E050E00E94293B690105
:1024E0007A0180918806882311F0689477F88091AA
:1024F0008706882311F0689476F880918006909181
:102500008106019711F4FFE37F22209108072D87B0
:10251000872D9927AA27BB278D839E83AF83B887F2
:102520004301AA24BB24BB27A72D962D852D89877F
:102530009A87AB87BC87222309F457C1842D0E9458
:10254000D50F89850E94D50F882D0E94D50F8D81CA
:102550000E94D50F8AE0882E912CA12CB12CC701A6
:10256000B601A50194010E94293B660F771F6250B6
:102570007C4FDB01CD90DC9085E090E00E94A30DC4
:102580007C0169817A818B819C8128EE33E040E077
:1025900050E00E94293BCA01B901A50194010E94A3
:1025A000293B660F771F62507C4FFB016080718072
:1025B00084E090E00E94A30DCE20DF20F12CE12CDE
:1025C00034E1CC0CDD1CEE1CFF1C3A95D1F78621C2
:1025D0009721B0E0A0E04AE0880F991FAA1FBB1F17
:1025E0004A95D1F7C82AD92AEA2AFB2A69817A8131
:1025F0008B819C8120E137E240E050E00E94293B42
:10260000CA01B901A50194010E94293B660F771FF9
:1026100062507C4FDB01AD90BC9083E090E00E9463
:10262000A30D8A219B21B0E0A0E0C82AD92AEA2A7A
:10263000FB2A69817A818B819C8120EA36E841E01E
:1026400050E00E94293B29013A01809188068823A5
:1026500009F4D6C06894F7F880918706882309F4B6
:10266000D2C06894F6F88F2D9927AA27BB278D83AF
:102670009E83AF83B8874701AA24BB24BB27AF2D15
:102680009E2D8D2D89879A87AB87BC879D85992341
:1026900009F4BCC08C2D0E94D50F89850E94D50FEE
:1026A000882D0E94D50F8D810E94D50F3AE0832E90
:1026B000912CA12CB12CC301B201A50194010E945F
:1026C000293B660F771F62507C4FDB01CD90DC9079
:1026D00082E090E00E94A30D7C0169817A818B8168
:1026E0009C8120E432E44FE050E00E94293BCA0183
:1026F000B901A50194010E94293B660F771F625022
:102700007C4FFB016080718081E090E00E94A30D0E
:10271000CE20DF20F12CE12C64E1CC0CDD1CEE1C82
:10272000FF1C6A95D1F786219721B0E0A0E07AE0FE
:10273000880F991FAA1FBB1F7A95D1F7C82AD92ADB
:10274000EA2AFB2A69817A818B819C8120E836E91B
:1027500048E950E00E94293BCA01B901A501940152
:102760000E94293B660F771F62507C4FDB01AD90C2
:10277000BC9090E080E00E94A30D8A219B21B0E0F4
:10278000A0E08C299D29AE29BF29209188066C01E3
:102790007D01222309F445C06894F7F880918706EB
:1027A000882309F441C06894F6F84F2C5524662418
:1027B00077244701AA24BB24BB27AF2D9E2D8D2D46
:1027C00089839A83AB83BC839D85992381F18C2D6A
:1027D0000E94D50F89810E94D50F882D0E94D50FA8
:1027E000842D0E94D50F61E00ECE8D810E94D50F01
:1027F000882D0E94D50F89850E94D50F842DA8CEE3
:10280000E894F7F829CFE894F6F82DCF8D810E944F
:10281000D50F882D0E94D50F89850E94D50F8C2D4C
:1028200043CFE894F7F8BACFE894F6F8BECF842DFA
:102830000E94D50F882D0E94D50F89810E94D50F47
:102840008C2DCFCF2D960FB6F894DEBF0FBECDBF27
:10285000DF91CF91FF90EF90DF90CF90BF90AF903E
:102860009F908F907F906F905F904F9008950F93FF
:102870001F93CF93DF938C01EB01FC018081918149
:102880000097E1F06881798161157105A9F04281B5
:1028900053812C813D814217530770F00E94823D85
:1028A0008C819D81F801958384831D821C82DF9138
:1028B000CF911F910F9108950E940F3C88819981BB
:1028C000F801918380838A819B81938382838C81A9
:1028D0009D8195838483198218821B821A82E5CF99
:1028E000CF93DF93EC0188819981009711F00E94CA
:1028F0000F3C198218821D821C821B821A82DF9172
:10290000CF910895FC0180819181009711F00C9482
:102910000F3C08950F931F93CF93DF93EC018881B1
:102920009981009759F02A813B812617370730F0AB
:1029300081E0DF91CF911F910F9108958B016F5F1F
:102940007F4F0E94983C009759F0998388831B839E
:102950000A832C813D81232B59F7FC011082E8CF9B
:1029600080E0E7CFEF92FF920F931F93CF93DF9317
:102970006115710541F480E0DF91CF911F910F91B6
:10298000FF90EF90089541155105B1F07B01EC01E6
:102990000C811D81040F151FB8010E948A14882321
:1029A00051F3288139818C819D81B701820F931F5A
:1029B0000E94823D1D830C8381E0DECFEF92FF9267
:1029C0000F931F93CF93DF93CDB7DEB72D970FB63D
:1029D000F894DEBF0FBECDBF7C01CB01BA012AE067
:1029E0008E010F5F1F4FA8010E948F38F8010190E0
:1029F0000020E9F73197AF01401B510BB801C70127
:102A00000E94B214811103C0C7010E947014C70153
:102A10002D960FB6F894DEBF0FBECDBFDF91CF91DC
:102A20001F910F91FF90EF900895CF93DF93EC01EA
:102A3000FB0101900020E9F73197AF01461B570BCE
:102A40000E94B214811103C0CE010E947014CE0105
:102A5000DF91CF910895CF93DF93EC01FB01448187
:102A60005581608171810E94B214811103C0CE0131
:102A70000E947014CE01DF91CF910895EF92FF92E2
:102A80000F931F93CF93DF9300D01F92CDB7DEB784
:102A90007C01862F4AE08E010F5F1F4FB80190E046
:102AA0000E946F38F80101900020E9F73197AF01DB
:102AB000401B510BB801C7010E94B2140F900F9038
:102AC0000F900F90DF91CF911F910F91FF90EF909A
:102AD0000895EF92FF920F931F93CF93DF93EC0132
:102AE0007B018A01BA010E948A1481110BC0CE01B8
:102AF0000E947014CE01DF91CF911F910F91FF9032
:102B0000EF9008951D830C83B701888199810E94FD
:102B1000823DF0CFFB0101900020E9F73197AF0132
:102B2000461B570B0C9469150F931F93CF93DF939C
:102B3000CDB7DEB762970FB6F894DEBF0FBECDBF3C
:102B40008C01CB01F801118210821382128215824E
:102B500014824AE0BE016F5F7F4F0E946F38BE0152
:102B60006F5F7F4FC8010E948A1562960FB6F89476
:102B7000DEBF0FBECDBFDF91CF911F910F910895A2
:102B8000CF93DF93EC01FB018617970749F0608133
:102B900071816115710541F0448155810E9469156B
:102BA000CE01DF91CF9108950E947014F9CFFC01FE
:102BB0001182108213821282158214820C94C01525
:102BC000FC01118210821382128215821482FB0191
:102BD00001900020E9F73197AF01461B570B0C9489
:102BE0006915AF92BF92CF92DF92EF92FF920F934F
:102BF0001F93CF93DF936C015B017A018901241746
:102C0000350720F48F2D7901042F182F64E474E028
:102C1000C6010E94E015D5011496CD91DC91EC1609
:102C2000FD06E0F40C171D0708F4E801D501ED914D
:102C3000FC911197EC0FFD1F108110826D917C911A
:102C40006E0D7F1DC60161157105A1F00E948A15E8
:102C5000F50180819181C80FD91F1883C601DF91CA
:102C6000CF911F910F91FF90EF90DF90CF90BF9089
:102C7000AF9008950E947014EBCF4F925F926F92C5
:102C80007F928F929F92AF92BF92CF92DF92EF92FC
:102C9000FF920F931F93CF93DF9300D000D0CDB757
:102CA000DEB77C014B015A018091500681113AC078
:102CB00081E08093500698E4692E96E0792E20E416
:102CC000422E26E0522E10E000E00F5F1F4F6801F9
:102CD00081E0C81AD1089801A601B401CE0101967D
:102CE0000E94F115CE0101960E94A311D3016D93AC
:102CF0003D01CE0101960E9482149801A601B50102
:102D0000CE0101960E94F115CE0101960E94A311F9
:102D1000F20161932F01CE0101960E9482140830C6
:102D2000110599F690913F0688E4C82E86E0D82ECA
:102D3000E0E4F6E08601A801D8018C919A30D8F53C
:102D40008F5F8C930F5F1F4FDA018C918A3019F4DB
:102D5000D80111971C923196B6E000351B0759F740
:102D60009F5F943169F190933F0664E474E0C7017A
:102D70000E94E015F60161916F01C7010E943E15A6
:102D80000C151D05B9F7C70126960FB6F894DEBFDE
:102D90000FBECDBFDF91CF911F910F91FF90EF90AC
:102DA000DF90CF90BF90AF909F908F907F906F906B
:102DB0005F904F9008952081281721F28F5FC1CF37
:102DC00010923F0610925006D0CFCF92DF92EF9232
:102DD000FF921F93CF93DF93CDB7DEB72C970FB63B
:102DE000F894DEBF0FBECDBF182F67E874E0CE01A8
:102DF00007960E94E01522E030E050E040E01330FA
:102E000081F024E030E042E050E01C3051F026E058
:102E100030E0103321F0103FA9F428E030E044E026
:102E200050E06EE07AE0CE0101960E94F115BE01FD
:102E30006F5F7F4FCE0107960E943714CE01019637
:102E40000E948214CE0107960E94A3116B01CE014D
:102E500007960E948214C6012C960FB6F894DEBF26
:102E60000FBECDBFDF91CF911F91FF90EF90DF900C
:102E7000CF900895EF92FF920F931F93CF93DF931C
:102E8000CDB7DEB762970FB6F894DEBF0FBECDBFE9
:102E90007C018B0177FF03C0119501951109B801E1
:102EA000C7010E949415083E83E018070CF082C009
:102EB000B801CE010D960E9494156CE774E0CE0126
:102EC00001960E94E015BE016F5F7F4FCE0107960D
:102ED0000E94D715BE01635F7F4FCE0107960E9407
:102EE0002B15BC01C7010E94C015CE0107960E9498
:102EF0008214CE0101960E948214CE010D960E948A
:102F00008214043611050CF055C0B801CE010D969F
:102F10000E9494156BE774E0CE0101960E94E015C3
:102F2000BE016F5F7F4FCE0107960E94D715BE018D
:102F3000635F7F4FCE0107960E942B15BC01C7012E
:102F40000E94C015CE0107960E948214CE01019600
:102F50000E948214CE010D960E9482140A3011053F
:102F60004CF5B801CE010D960E9494156AE774E005
:102F7000CE0101960E94E015BE016F5F7F4FCE012A
:102F800007960E94D715BE01635F7F4FCE0107965B
:102F90000E942B15BC01C7010E94C015CE010796E7
:102FA0000E948214CE0101960E948214CE010D96D9
:102FB0000E948214C70162960FB6F894DEBF0FBE5E
:102FC000CDBFDF91CF911F910F91FF90EF900895AA
:102FD0000F931F93CF93DF93CDB7DEB762970FB6F2
:102FE000F894DEBF0FBECDBF8C0177FF03C0719593
:102FF000619571096A307105A4F5CE010D960E94A4
:1030000094156CE774E0CE0101960E94E015BE01B4
:103010006F5F7F4FCE0107960E94D715BE01635F99
:103020007F4FCE0107960E942B15BC01C8010E945C
:10303000D715CE0107960E948214CE0101960E94F8
:103040008214CE010D960E948214C80162960FB6BA
:10305000F894DEBF0FBECDBFDF91CF911F910F91CE
:103060000895C8010E949415F0CF0F931F93CF933A
:10307000DF93CDB7DEB768970FB6F894DEBF0FBE0B
:10308000CDBF8B018330D9F52091120A3091130AFC
:1030900042E050E06EE07AE0CE010D960E94F1151C
:1030A000B801CE0101960E94E817BE016F5F7F4F05
:1030B000CE0107960E94D715BE01635F7F4FCE01F8
:1030C00007960E942B15BC018EE09AE00E94C01565
:1030D000CE0107960E948214CE0101960E948214AE
:1030E000CE010D960E94821468960FB6F894DEBF4A
:1030F0000FBECDBFDF91CF911F910F9108958C30FE
:1031000009F042C02091120A3091130A44E050E0C5
:103110006EE07AE0CE0143960E94F115B801CE012F
:103120000D960E94E81722E030E050E040E06EE0AB
:103130007AE0CE0101960E94F115BE016F5F7F4FCC
:10314000CE0107960E94D715BE01635F7F4FCE0167
:1031500007960E942B15BE016D5E7F4F0E942B15B6
:10316000BC018EE09AE00E94C015CE0107960E9435
:103170008214CE0101960E948214CE010D960E9407
:103180008214CE014396AECF2091120A3091130AD9
:1031900046E050E0803349F0803F09F0A5CF209110
:1031A000120A3091130A48E050E06EE07AE0CE0156
:1031B00043960E94F115B801CE010D960E94E817C2
:1031C00024E030E0B2CF0E9404076093360670938B
:1031D0003706809338069093390680913506882308
:1031E00009F44FC02091800630918106C901880FF3
:1031F000991F22313105A1F1FC01E55CFD4F4081B1
:1032000051814150510951834083DC01A55CBD4F80
:103210006D917C911197FC01E759FD4F40815181DF
:10322000641775073CF4FC01E956FD4F408151815C
:103230004D935C932131310509F520915D02309168
:103240005E0221303105B9F420E820938906855CBF
:103250009D4FFC0160817181809199060C94351815
:1032600040915F02509160024C50510950936002AE
:1032700040935F02CACF10928906E9CF2A30310508
:1032800031F708950E94040760933606709337065D
:10329000809338069093390680913506882309F487
:1032A00044C02091800630918106C901880F991F82
:1032B0002231310561F1FC01E55CFD4F4081518116
:1032C0004F5F5F4F51834083DC01A55CBD4F6D9123
:1032D0007C911197FC01E956FD4F408151814617C1
:1032E00057073CF4FC01E759FD4F408151814D9354
:1032F0005C9321313105B1F410928906855C9D4FB4
:10330000FC0160817181809199060C94351840917F
:103310005F0250916002445F5F4F509360024093A0
:103320005F02D2CF2A30310549F708958F929F92DC
:10333000AF92BF92DF92EF92FF920F931F93CF93C2
:10334000DF93CDB7DEB7A2970FB6F894DEBF0FBEFE
:10335000CDBF8C018AE0ECECF2E0DE011196019029
:103360000D928A95E1F780912D0690912E06019697
:103370008A3091050CF086C090932E0680932D061E
:10338000E0912D06F0912E0681E090E08C0F9D1FBC
:10339000E80FF91FD08080915F02909160024897FA
:1033A00009F075C00E9404074B015C010E94D10A1C
:1033B000BC01CE014D960E94E8170E94D90ABC01BB
:1033C000CE0147960E94E8170E94E10ABC01CE0197
:1033D0000B960E94E817BE01655F7F4FCE014196B4
:1033E0000E94D715BE01695E7F4FCE0141960E94B3
:1033F0002B15BE01635E7F4F0E942B157C01C5011A
:10340000B40128EE33E040E050E00E94073B24E6A0
:1034100030E040E050E00E94073BBA01A901C7013B
:103420000E94DE147C016D2D0E943E15811103C0A7
:10343000C7010E947014B701C8010E94D715CE01C0
:1034400041960E948214CE010B960E948214CE01F6
:1034500047960E948214CE014D960E948214C801A4
:10346000A2960FB6F894DEBF0FBECDBFDF91CF910D
:103470001F910F91FF90EF90DF90BF90AF909F90C2
:103480008F90089510922E0610922D0679CF0E94EB
:10349000040728EE33E040E050E00E94073B24E6BA
:1034A00030E040E050E00E94073B49015A010E9491
:1034B000D10ABC01CE014D960E94E8170E94D90A9C
:1034C000BC01CE0147960E94E8170E948D080E9419
:1034D000930A8091F4066CE070E0882331F0682F45
:1034E00070E08D3010F06C507109CE010B960E9487
:1034F000E817BE01655F7F4FCE0141960E94D71548
:10350000BE01695E7F4FCE0141960E942B15BE0120
:10351000635E7F4F0E942B15B501A40181CF8F926E
:103520009F92AF92BF92CF92DF92EF92FF920F9352
:103530001F93CF93DF93CDB7DEB72C970FB6F894D8
:10354000DEBF0FBECDBF8C016A017B018091770683
:10355000811111C00E940407645B7B4F8F4F9F4F06
:103560006093730670937406809375069093760645
:1035700081E08093770680916B06811109C067E72F
:1035800074E085E696E00E94E01581E080936B068A
:103590000E9404078090730690907406A0907506B0
:1035A000B0907606681979098A099B09693E7340CB
:1035B0008105910508F4D8C00E9404076093730642
:1035C00070937406809375069093760620E030E041
:1035D00040E251E4C701B6010E9441396B017C0110
:1035E00020E030E0A9010E94D23A20E030E040E043
:1035F0005FE387FDD2C0C701B6010E94303A0E9446
:103600009C3A7B0177FF04C0EE24FF24E61AF70AF8
:103610005B0139E1A31A3CEFB30A809161029091FA
:1036200062029B012D593F4F69012A553109490119
:10363000B701892B09F0B6C0CE0107960E949415F8
:103640006CE774E0CE0101960E94E015BE01695F4F
:103650007F4FCE0101960E942B156CE774E00E940B
:103660001515BC0185E696E00E94C015CE010196B5
:103670000E948214CE0107960E9482143FECA3168A
:1036800037E0B30618F5B701CE0107960E949415EE
:103690006BE774E0CE0101960E94E015BE01695F00
:1036A0007F4FCE0101960E942B156CE774E00E94BB
:1036B0001515BC0185E696E00E94C015CE01019665
:1036C0000E948214CE0107960E94821487ECC816CD
:1036D000D10418F5B701CE0107960E9494156AE748
:1036E00074E0CE0101960E94E015BE01695F7F4F34
:1036F000CE0101960E942B156CE774E00E9415150F
:10370000BC0185E696E00E94C015CE0101960E949C
:103710008214CE0107960E94821423E1821691043E
:1037200018F5B701CE0107960E94941569E774E079
:10373000CE0101960E94E015BE01695F7F4FCE0168
:1037400001960E942B156CE774E00E941515BC01D0
:1037500085E696E00E94C015CE0101960E94821473
:10376000CE0107960E94821465E676E0C8010E94A9
:10377000D715C8012C960FB6F894DEBF0FBECDBF8B
:10378000DF91CF911F910F91FF90EF90DF90CF903D
:10379000BF90AF909F908F900895C701B6010E948F
:1037A0002F3A2DCFCE0107960E9494156CE774E056
:1037B000CE0101960E94E015BE01695F7F4FCE01E8
:1037C00001960E942B156CE774E00E941515BC0150
:1037D00085E696E00E94C015CE0101960E948214F3
:1037E000CE0107960E9482143FECA31637E0B30681
:1037F00038F5C7016AE070E00E94F33ACE010796FF
:103800000E9494156BE774E0CE0101960E94E015CA
:10381000BE01695F7F4FCE0101960E942B156BE7B9
:1038200074E00E941515BC0185E696E00E94C01563
:10383000CE0101960E948214CE0107960E94821446
:1038400087ECC816D10438F5C7016AE070E00E9421
:10385000F33ACE0107960E9494156AE774E0CE0110
:1038600001960E94E015BE01695F7F4FCE0101966F
:103870000E942B156BE774E00E941515BC0185E6CC
:1038800096E00E94C015CE0101960E948214CE01DE
:1038900007960E94821423E18216910408F064CFF7
:1038A000C7016AE070E00E94F33ACE0107960E94D9
:1038B000941569E774E0CE0101960E94E015BE01FF
:1038C000695F7F4FCE0101960E942B156BE774E074
:1038D0003CCF85ED8093BC00809175079091760771
:1038E000A0917707B09178070796A11DB11D23E03D
:1038F000B695A795979587952A95D1F72091BC0005
:1039000024FD03C0109273070895409175075091EC
:1039100076076091770770917807452B462B472BE8
:1039200069F30097A105B10541F02AE22A95F1F764
:1039300000C00197A109B109E1CF809174070C94EF
:103940009D0B0C94073A0C94FF3980910C0288234C
:10395000D9F088E090E00E94A31C682F70E089E015
:103960000E94D60589E090E00E94A31C682F70E0B9
:1039700086E00E94D6058AE090E00E94A31C682F92
:1039800070E083E00C94D60570E060E089E00E946E
:10399000D60570E060E086E00E94D60570E060E049
:1039A000F0CF80918206882341F0109282068091A8
:1039B0007F0680930C020C94A51C08950F931F930F
:1039C00080915D0290915E02892B09F44BC0809139
:1039D0003E068823A9F00E94040700913A06109140
:1039E0003B0620913C0630913D06601B710B820B1B
:1039F000930B693E734081059105A0F110923E063C
:103A00000E94E10A209157023091580282179307D1
:103A100049F50E94D90A2091590230915A02821721
:103A2000930701F50E94D10A20915B0230915C025C
:103A300082179307B9F40E94D11C0E940407609377
:103A40003A0670933B0680933C0690933D0681E0D6
:103A500080933E0680910A0290910B029093130787
:103A6000809312071F910F9108952F923F924F92CA
:103A70005F926F927F928F929F92AF92BF92CF92FE
:103A8000DF92EF92FF920F931F93CF93DF93CDB707
:103A9000DEB7EE970FB6F894DEBF0FBECDBF8091B4
:103AA0004905811107C00E94E10A8093480581E021
:103AB0008093490580913506811129C00091480500
:103AC00010E00E94E10A0817190709F10E94E10AB3
:103AD000809348050E94E10A2091650230916602B8
:103AE0008217930749F481E08093820680910C024B
:103AF00080937F0610920C020E94E10A20916702D7
:103B0000309168028217930711F40E94D11C0E9421
:103B1000040720E137E240E050E00E94073B672BBA
:103B2000682B692B01F580911E078823E1F00E9424
:103B3000B510E0901C07F0901D0700911A07109136
:103B40001B07209118073091190740911F075091CA
:103B500020076091160770911707809114079091C4
:103B600015070E9493090E94040760932906709329
:103B70002A0680932B0690932C060091250610911F
:103B800026062091270630912806601B710B820BB8
:103B9000930B61367A4E81059105E0F18091240600
:103BA000811107C08CE592E00E943E1181E0809374
:103BB00024068BEA97E00E947107892B59F18BEA62
:103BC00097E00E944F079091A905E92FF0E0EA5A8B
:103BD000FA4F80839F5F923509F40CC19093A90539
:103BE0008A30C1F4E091A905F0E0EA5AFA4F108258
:103BF0001092A905E7E5F5E021E030E040E05191C1
:103C0000C90101965A3209F4F8C045279C01833551
:103C10009105A9F78091290690912A06A0912B067B
:103C2000B0912C06409125065091260660912706FA
:103C3000709128068C019D01041B150B260B370B78
:103C4000B901A801413C544D6140710570F0809369
:103C5000250690932606A0932706B09328068CE3AA
:103C600092E00E943E1110922406109218061092C3
:103C7000190610921A0610921B0688EF98E090938E
:103C80001F0680931E060091F50810E01093210690
:103C9000009320068091C20990E0909323068093C0
:103CA00022068091F1088530B1F58091F5088A31BE
:103CB00008F4B7C28091F8089091F908843F9140C8
:103CC00008F080C210921D0610921C068FEF9FEF25
:103CD000DC018093180690931906A0931A06B093FE
:103CE0001B068BE090E0909315068093140660917C
:103CF00018067091190680911A0690911B0640E1F2
:103D00000E944C1182E494E00E94311182E0809381
:103D1000F1081092F508609118067091190688E470
:103D20009AE00E94780F9093130680931206609198
:103D30001806709119068BE39AE00E94780F909311
:103D400011068093100660911806709119068EE294
:103D50009AE00E94780F90930F0680930E060091D0
:103D6000120710911307F8018081882309F4C3C357
:103D70000E940407C090B005D090B105E090B20554
:103D8000F090B3056C197D098E099F09C090AC05B0
:103D9000D090AD05E090AE05F090AF05C616D70601
:103DA000E806F90608F0A7C30E9404074B015C016E
:103DB0008092B0059092B105A092B205B092B30581
:103DC000780130E020E04AE0F801D1908F0180EDE9
:103DD0008D0D8A3008F0C5C2429FC001439F900DEF
:103DE00011242D2DDD0C330B20533109280F391FE1
:103DF0007F01EACF1092A905F3CE8A5A9A4FFC01AF
:103E0000808181340CF087538295807F2A5A3A4F03
:103E1000F901928191349CF19753890F4813FACE9E
:103E200080915605843209F0F5CE8091590582358E
:103E300009F0F0CE80915A058D3409F0EBCE8091D7
:103E40005B05833409F0E6CEA2E6B5E090E080E0C1
:103E5000ECE0F0E02D912C3209F093C10196813015
:103E6000910579F42C91213409F48BC185E494E017
:103E70000E94311182E494E00E943111CBCE905324
:103E8000CCCF8830910509F07CC1EF5FA0905D0533
:103E900090905E05B0905F05609060057090610540
:103EA00040906205F0E0EA5AFA4FC080D1808281EA
:103EB000082E000C990BC0971AE0189F7001199FEB
:103EC000F00C11248381E80EF11C87FDFA9400E3C5
:103ED000E01AF108048155804CE050E061E070E0A8
:103EE000C7010E943238882309F494CE8C2DCC0C63
:103EF000990BC097189F9001199F300D1124C9018B
:103F00008D0D911DD7FC9A956C0190E3C91AD108CB
:103F10004FE150E061E070E0C6010E943238882332
:103F200009F478CE8A2DAA0C990BC097189F90019E
:103F3000199F300D1124F901E90DF11D97FCFA9537
:103F40004F01F0E38F1A910847E150E070E060E024
:103F5000C4010E943238882309F45CCE8B2DBB0C3F
:103F6000990BC097189F5001199FB00C1124A60CF3
:103F7000B11C67FCBA9420E3A21AB1084BE350E0ED
:103F800070E060E0C5010E943238882309F442CE17
:103F9000872D770C990BC097189F3001199F700CD3
:103FA0001124640C711C47FC7A9430E3631A710885
:103FB0004BE350E070E060E0C3010E943238882398
:103FC00009F428CE202F000F330B20533109129F04
:103FD000C001139F900D11248C010053184F050D43
:103FE000111D57FC1A9500531109063E87E018076A
:103FF000C4F46982AA828B82CD82EE82025B0F8337
:10400000CE0101960E94D30886519B4DAE014F5FB1
:104010005F4F0E94B7090F8110E00E54184FEE80D9
:10402000CD8046EF57E062EE77E0C8010E9432385B
:10403000882309F4EFCD8092220AA092230A60928D
:10404000240AC092250AE092260A1093280A0093B7
:10405000270A0E9404076B017C01C0922A0AD092B1
:104060002B0AE0922C0AF0922D0A809155058111BD
:104070008FC00E9404076C197D098E099F09693B56
:104080007B408105910508F0C5CD84E192E00E9456
:104090003E118091220A0E9490118091230A0E9471
:1040A00090118091240A0E9490118091270A90918A
:1040B000280A18EEC12E13E0D12EB6010E94F33A61
:1040C0007C010091260A10E02091250A30E0409101
:1040D000240A50E06091230A70E08091220A90E067
:1040E0000E949309A0916302B091640220E13EE036
:1040F0000E94503B0091EE061091EF062091F006D1
:104100003091F106DC01CB01800F911FA21FB31F7C
:104110008093EE069093EF06A093F006B093F1061D
:104120000E948D0842EF56E00E94B7090E94B70A2C
:104130004C010E94C10A082F0E94C90AB82E0E9491
:10414000D10AF82E0E94D90A182F0E94E10A382FAE
:10415000C401B6010E94F33AE82E2B2D4F2D612F9A
:10416000832F0E94300D81E0809355050E94040743
:1041700060935105709352058093530590935405B5
:1041800049CD3196E335F10509F064CEE0E07ECE0D
:104190000E9404070091510510915205209153058A
:1041A00030915405601B710B820B930B6134774780
:1041B0008B41910518F0109255052CCD81E080932C
:1041C000550528CD8091FA089091FB0885974B976B
:1041D00040F5E1EFF8E082E090E040E050E0BA0125
:1041E000DC0111962091F5082A171B0609F00CF442
:1041F0008EC023853485275031092730310508F0DA
:1042000085C025853685235131092F30310508F4C5
:1042100070C0258536852A5031092930310508F4CA
:1042200070C0063011050CF471CD81EF98E09EAF9F
:104230008DAF43E0242E312C55ECC52E5DE9D52EF3
:104240005CE1E52E51E8F52E201631060CF078C021
:10425000EDADFEAD65857685A184B28490E080E009
:104260000E94E0382B013C01B50190E080E00E9403
:10427000E0384B015C012DEC3CEC4CE45FE30E9428
:1042800041399B01AC01C301B2010E94DB38F0E06F
:10429000E0E087FD14C02DEC3CEC4CE45FE3C3018F
:1042A000B2010E9441399B01AC01C501B4010E94D9
:1042B000DB38E2E0F0E087FD02C0E1E0F0E0A701DA
:1042C000960163E971E080E091E00E94D73A6F01C6
:1042D000FF0FEE08FF08C626D726E826F926FFEFCF
:1042E0002F1A3F0A2DAD3EAD2E5F3F4F3EAF2DAF93
:1042F000ABCF440F551F661F771F4160029634965F
:104300006FCF440F551F661F771FF8CFCD01019760
:104310009595879590931D0680931C060C972CF419
:1043200010921D0610921C067CCF409318065093E5
:10433000190660931A0670931B0684E090E0D3CCB4
:10434000C0921806D0921906E0921A06F0921B0647
:1043500080E290E090931D0680931C068FEF9FEF04
:10436000C2CC309334062093330660912F067091AF
:10437000300680913106909132062115310511F1F8
:10438000032E000C440B550B0E94293B2093AC05D7
:104390003093AD054093AE055093AF05EFE9ED0DB9
:1043A000E730B0F40E2E000CFF0B8827E552FE4DCF
:1043B0008F4F0C94483BF124F324E524E924EB24AB
:1043C000ED24EF242091090230E050E040E0DCCF02
:1043D0001092AB05F7018181833241F48091AB05E6
:1043E0008F5F8093AB0587010E5F1F4FF8018081BF
:1043F0008E32F1F4C090AC05D090AD05E090AE05E2
:10440000F090AF05C701B60122E030E040E050E097
:104410000E94293BC20ED31EE41EF51EC092AC05BD
:10442000D092AD05E092AE05F092AF050F5F1F4F41
:10443000F801808180538A3008F0D7C28093AA05A2
:104440000F5F1F4FF80180818C3211F40F5F1F4FF7
:10445000E091AB05EE2309F44EC0C090AC05D090BE
:10446000AD05E090AE05F090AF058091AA058450AF
:10447000990B4CE0489F9001499F300D1124E20FA9
:10448000F32FF11DEE0FFF1FE251FD4FB701A60103
:10449000808191810E9410040E94040768197909A3
:1044A0008A099B09C616D706E806F90620F50E9478
:1044B00004076093B0057093B1058093B2059093A3
:1044C000B3058091AA07813009F494C2823009F4BF
:1044D00097C2811105C080916E008D7F80936E0020
:1044E00060E08091A9070E94A60385E292E00E9405
:1044F0003E1110E000E010931307009312070E9492
:10450000040700910A0610910B0620910C063091C9
:104510000D06601B710B820B930B663071058105D4
:104520009105E8F080910C02811170C270E060E0AA
:1045300089E00E94D60570E060E086E00E94D60522
:1045400070E060E083E00E94D6050E94040760935B
:104550000A0670930B0680930C0690930D068091CB
:10456000800690918106892B21F0809109068111A6
:10457000DBC1809135068111D7C18091CA058111B7
:104580000DC00E9404076093C6057093C705809311
:10459000C8059093C90581E08093CA058091BE0546
:1045A00081110DC00E9404076093BA057093BB058A
:1045B0008093BC059093BD0581E08093BE050E9469
:1045C00004070091C6051091C7052091C8053091D8
:1045D000C905601B710B820B930B009100021091B7
:1045E00001022091020230910302061717072807E3
:1045F000390708F04DC00E9404076093C605709308
:10460000C7058093C8059093C9058091B80590911E
:10461000B905009709F066C281E090E090938106A9
:104620008093800688E893E1A0E0B0E080930002E8
:1046300090930102A0930202B09303028091B80507
:104640009091B9058230910581F410928106109203
:10465000800640E65AEE60E070E04093000250931E
:104660000102609302027093030201968330910568
:104670000CF058C29093B9058093B8058091090653
:10468000882321F01092810610928006109209066C
:104690000E9404070091C6051091C7052091C80526
:1046A0003091C905601B710B820B930B603D774005
:1046B0008105910508F008C30E9404070091BA051E
:1046C0001091BB052091BC053091BD05601B710B9D
:1046D000820B930B653671058105910508F424C1A1
:1046E0000E9404076093BA057093BB058093BC05D4
:1046F0009093BD05809180069091810620910907D5
:10470000222309F414C2892B89F5CE0149960E940F
:10471000961981E02091610230916202232B09F405
:1047200080E00E94290EAB01BC01CE0101960E94DF
:104730008F1AAE01475E5F4FBE016F5F7F4FCE01A4
:104740004F960E943D16BE01615E7F4F8EE09AE05B
:104750000E943714CE014F960E948214CE0101961A
:104760000E948214CE0149960E9482148091800694
:1047700090918106019709F062C00E94B70A68EE25
:1047800073E00E94F33ABC01CE018B960E94E817B9
:104790000E94C10ABC01CE0185960E94E8170E94C2
:1047A000C90ABC01CE0149960E94E817BE01675EA6
:1047B0007F4FCE014F960E94D715BE016B5D7F4F94
:1047C000CE014F960E942B15BE01655D7F4F0E9462
:1047D0002B15BC01CE01C1960E94D715CE010196C2
:1047E0000E949619AE014F5C5F4FBE016F5F7F4F15
:1047F000CE01C7960E943D16BE01695C7F4F8EE0D8
:104800009AE00E943714CE01C7960E948214CE010E
:1048100001960E948214CE01C1960E948214CE019C
:104820004F960E948214CE0149960E948214CE01B6
:1048300085960E948214CE018B960E9482148091EC
:10484000800690918106049709F06EC081E0209166
:10485000610230916202232B09F480E00E94290E4C
:10486000AB01BC01CE01C1960E948F1A0E94B70A0B
:1048700068EE73E00E94F33ABC01CE0185960E9477
:10488000E8170E94C10ABC01CE014F960E94E817AA
:104890000E94C90ABC01CE0101960E94E817BE0120
:1048A0006F5F7F4FCE0149960E94D715BE01615EB2
:1048B0007F4FCE0149960E942B15BE016B5D7F4F45
:1048C0000E942B15BC01CE018B960E94D715AE011C
:1048D0004F5C5F4FBE01655D7F4FCE01C7960E9462
:1048E0003D16BE01695C7F4F8EE09AE00E9437144E
:1048F000CE01C7960E948214CE018B960E9482142C
:10490000CE0149960E948214CE0101960E94821423
:10491000CE014F960E948214CE0185960E94821489
:10492000CE01C1960E9482140E94AE1185EF99E0DB
:104930000E94E90A8CED99E00E94E90A83EC99E073
:104940000E94E90A809135068111C1C11092990631
:104950008091F5099091F609181619063CF080919E
:10496000120690911306019709F022C381E080930B
:104970000906109213071092120744E650E060E017
:1049800070E088EE93E00E941004809182068823F4
:1049900009F4CAC10E94D11CEE960FB6F894DEBF8E
:1049A0000FBECDBFDF91CF911F910F91FF90EF9080
:1049B000DF90CF90BF90AF909F908F907F906F903F
:1049C0005F904F903F902F90089581E08093AB05CA
:1049D00001CD83E0FBCF85E0F9CF86E0F7CF88E01B
:1049E000F5CF8AE0F3CF8CE0F1CF8091080280937D
:1049F000AA0528CD80916F008D7F80936F0070CDC8
:104A0000809170008D7F809370006ACD8091210726
:104A100081119BCD0091B6051091B705F801EE0FFD
:104A2000FF1FE00FF11FDF01AA0FBB1FA05BBC4FF0
:104A30008D919C916091040270910502680F791F1D
:104A40007093050260930402DF01AA0FBB1FAE5AE8
:104A5000BC4FCD90DC908091FF0590910006C80E70
:104A6000D91ED0920006C092FF05EE0FFF1FEC5A30
:104A7000FC4FE080F1808091FD059091FE05E80EED
:104A8000F91EF092FE05E092FD0589E00E94D60530
:104A9000B60186E00E94D605B70183E00E94D605E4
:104AA0008091B4059091B50501969093B5058093DA
:104AB000B4058F3F910551F40F5F1F4F1093B70559
:104AC0000093B6051092B5051092B4058091B60515
:104AD0009091B70506970CF438CD1092B705109257
:104AE000B60533CD019709F0A9CD84E090E090930D
:104AF00081068093800688E893E1A0E0B0E080938F
:104B0000000290930102A0930202B09303028091ED
:104B1000090781117DC782E090E09093B9058093E9
:104B2000B8058CCD1092B9051092B805A7CD892B88
:104B300009F062C0CE01C1960E9496190E94B70A80
:104B400068EE73E00E94F33ABC01CE0185960E94A4
:104B5000E8170E94C10ABC01CE014F960E94E817D7
:104B60000E94C90ABC01CE0101960E94E817BE014D
:104B70006F5F7F4FCE0149960E94D715BE01615EDF
:104B80007F4FCE0149960E942B15BE016B5D7F4F72
:104B90000E942B15BC01CE018B960E94D715AE0149
:104BA0004F5C5F4FBE01655D7F4FCE01C7960E948F
:104BB0003D16BE01695C7F4F8EE09AE00E9437147B
:104BC000CE01C7960E948214CE018B960E94821459
:104BD000CE0149960E948214CE0101960E94821451
:104BE000CE014F960E948214CE0185960E948214B7
:104BF000CE01C1960E948214809180069091810618
:104C0000019709F091CE0E94B70A68EE73E00E9406
:104C1000F33ABC01CE018B960E94E8170E94C10AAC
:104C2000BC01CE0185960E94E8170E94C90ABC010A
:104C3000CE0149960E94E817BE01675E7F4FCE0104
:104C40004F960E94D715BE016B5D7F4FCE014F96E8
:104C50000E942B15BE01655D7F4F0E942B15BC0184
:104C6000CE01C1960E94D715CE0101960E949619D9
:104C7000AE014F5C5F4FBE016F5F7F4FCE01C796A5
:104C80000E943D16BE01695C7F4F8EE09AE00E9453
:104C90003714CE01C7960E948214CE0101960E945D
:104CA0008214CE01C1960E948214CE014F960E94BA
:104CB0008214CE0149960E948214CE0185960E94EC
:104CC0008214CE018B962ECE109250062DCE0E94CD
:104CD000040700913606109137062091380630916E
:104CE0003906601B710B820B930B61367A4E81057E
:104CF000910508F42DCE10923506E0918006F091D2
:104D00008106EE0FFF1FE053FC4F8081918190934D
:104D1000810680938006880F991FFC01E35FFD4F99
:104D200080818093990614CE0E9404076093360612
:104D300070933706809338069093390680918006E9
:104D40009091810601968730910509F463C0909394
:104D5000810680938006209180063091810689012A
:104D6000000F111FF801E35FFD4F808180939906CA
:104D7000D9011197FD01EE0FFF1FEE55FC4F608129
:104D800071816115710509F404C1AB0141505109EC
:104D9000FA01EE0FFF1FEC58FC4F0190F081E02D5F
:104DA000AE17BF0709F0F5C062307105C1F588E1A3
:104DB000E6EDF2E0DE01119601900D928A95E1F7A1
:104DC000809155029091560283709927892B21F486
:104DD0008DE190E09C838B838091530290915402EB
:104DE0000197880F991F21E030E02C0F3D1F820FA3
:104DF000931F2091510230915202FC0180819181D8
:104E00008217930764F48BE090E09093810680937F
:104E10008006C2CD10928106109280069CCF10921F
:104E200035065093810640938006452BB9F40E94C5
:104E3000B70A7C010E94C10A8C010E94C90A4091F4
:104E40004D0250914E0260914B0270914C029C01B8
:104E50008091490290914A020E94930980918006B4
:104E6000909181060197F9F4E0905502F090560276
:104E7000009153021091540280905102909052027E
:104E80000E94D10A5C010E94D90A6C010E94E10AC9
:104E90009401A501B6010E94930960914F028DE033
:104EA00090E00E94A11C809180069091810602975B
:104EB000C1F46091570282E090E00E94A11C6091D1
:104EC000590283E090E00E94A11C60915B0284E0A3
:104ED00090E00E94A11C60915D0286E090E00E943B
:104EE000A11C8091800690918106039731F4609116
:104EF0005F0281E090E00E94A11C80918006909169
:104F00008106049731F4609161028BE090E00E9489
:104F1000A11C8091800690918106059749F46091CB
:104F2000630280919102681B8CE090E00E94A11CBA
:104F30008091800690918106069761F460916502E8
:104F40008EE090E00E94A11C609167028FE090E0EB
:104F50000E94A11C0E94B70A5C010E94C10A082F8E
:104F60000E94C90AD82E0E94D10AF82E0E94D90A9E
:104F7000182F0E94E10A382FC50168EE73E00E94E5
:104F8000F33AE82E2D2D4F2D612F832F0E94300DE7
:104F900003CD2431310561F02A5031092230310529
:104FA00038F00E94E516F801E55CFD4F918380839F
:104FB0008091F5099091F60997FD07C0809112063E
:104FC00090911306019609F0F4C044E650E060E0C9
:104FD00070E088EE93E00E94100480913506811104
:104FE00052C000918006109181060E9404076093D0
:104FF0003606709337068093380690933906012B56
:1050000009F041C00E94D10ABC01CE0185960E94E0
:10501000E8170E94D90ABC01CE014F960E94E817FA
:105020000E94E10ABC01CE0101960E94E817BE0170
:105030006F5F7F4FCE0149960E94D715BE01615E1A
:105040007F4FCE0149960E942B15BE016B5D7F4FAD
:105050000E942B156BE774E00E941515BC018EE0D1
:105060009AE00E94C015CE0149960E948214CE019A
:1050700001960E948214CE014F960E948214CE01A6
:1050800085960E94821480918006909181060197F6
:1050900009F056C00E94C90A9093520280935102AF
:1050A0000E94C10A90935402809353020E94B70A4F
:1050B000BC01909356028093550280914F029091CB
:1050C0005002892B09F0A6C1CE0185960E94E817EF
:1050D0006091530270915402CE014F960E94E817DE
:1050E0006091510270915202CE0101960E94E81720
:1050F000BE016F5F7F4FCE0149960E94D715BE015A
:10510000615E7F4FCE0149960E942B15BE016B5DFB
:105110007F4F0E942B15BC018EE09AE00E94C015C3
:10512000CE0149960E948214CE0101960E948214FB
:10513000CE014F960E948214CE0185960E94821461
:10514000E0918006F0918106EE0FFF1FE053FC4FC7
:105150002081318130938106209380062E303105E5
:1051600049F481E090E090935E0280935D0280E8D4
:10517000809389068091350691E0892780933506D2
:105180008901000F111FF801E35FFD4F80818093BB
:105190009906A901435151094230510550F02A3076
:1051A000310539F00E94E516F801E55CFD4F918369
:1051B00080838091DC099091DD09009709F03BC163
:1051C0008091100690911106019701F581E080937E
:1051D0000906109213071092120744E650E060E0AF
:1051E00070E088EE93E00E941004809182068111A5
:1051F000D1CB0E94421980913506811107C01092CF
:10520000210760E087E090E00E94A11C80910706E2
:1052100090910806019609F017C18091DE09882354
:1052200009F412C110929B06809135068823F9F08B
:105230000E940407009103061091040620910506C0
:1052400030910606601B710B820B930B6739710559
:105250008105910560F00E94040760930306709336
:10526000040680930506909306060E9442198091D9
:10527000C3099091C409009709F0EAC080910E0615
:1052800090910F06019791F511E010930906109285
:1052900013071092120744E650E060E070E088EED9
:1052A00093E00E94100480918206811173CB0E94CA
:1052B000E31880913506811119C01093210761E030
:1052C00087E090E00E94A11C6091040288E090E0D9
:1052D0000E94A11C6091FF0589E090E00E94A11C42
:1052E0006091FD058AE090E00E94A11C809101067A
:1052F00090910206019609F0B4C08091C5098823F7
:1053000009F4AFC08091350610929A06882321F1E6
:105310000E9404070091F9051091FA052091FB0500
:105320003091FC05601B710B820B930B6739710583
:105330008105910508F449C00E9404076093F905AE
:105340007093FA058093FB059093FC050E94E31887
:1053500080913506811139C08091DC099091DD0979
:1053600097FD06C08091100690911106019691F468
:1053700044E650E060E070E088EE93E00E941004A4
:1053800081E080930C0261E090E080E00E94A11C2B
:105390000E94A51C8091C3099091C40997FD06C085
:1053A00080910E0690910F06019679F444E650E044
:1053B00060E070E088EE93E00E94100410920C020E
:1053C00060E090E080E00E94A11CE0918006F091F6
:1053D0008106E731F10508F0DFCA8827ED50F64D68
:1053E0008F4F0C94483B352A742A692BB52BE02B40
:1053F000242CD42CCC24CC24CC24532C7B2C7B2CC0
:105400007B2CCC24CC24CC24CC24CC24E02B242CEA
:10541000D42CD42CCE0185960E94E81760915102BD
:1054200070915202CE014F960E94E817609153028C
:105430007091540259CE909308068093070618166F
:1054400019060CF4C3CEBCCE81E080939B060FCF2F
:105450009093020680930106181619060CF414CFD7
:105460000DCF81E080939A0673CF80915006811111
:105470002CC00E9404070091D2051091D305209101
:10548000D4053091D505601B710B820B930B6333F0
:1054900071058105910508F10E9404076093D2050A
:1054A0007093D3058093D4059093D505CE010196D2
:1054B0000E949619BE016F5F7F4F8EE09AE00E94B6
:1054C0003714CE0101960E9482140E94D10A80FDF9
:1054D00072C180EC8093890670C16EE07AE0CE01E3
:1054E00001960E94D715E6CF809150068111DEC04B
:1054F0008091F105811111C00E94040767517C4F12
:105500008F4F9F4F6093ED057093EE058093EF05ED
:105510009093F00581E08093F1058091E50581117C
:1055200044C00E94B70A68EE73E00E94F33ABC01DF
:10553000CE0101960E94E8170E94C10ABC01CE016B
:1055400049960E94E8170E94C90ABC01CE018596BF
:105550000E94E817BE016B5D7F4FCE014F960E94FF
:10556000D715BE01675E7F4FCE014F960E942B1567
:10557000BE016F5F7F4F0E942B15BC018FED95E040
:105580000E94D71581E08093E505CE014F960E94D9
:105590008214CE0185960E948214CE0149960E9403
:1055A0008214CE0101960E94821400914F02109144
:1055B00050028091D705811105C00093D60581E086
:1055C0008093D7050E940407C090ED05D090EE05AA
:1055D000E090EF05F090F0056C197D098E099F09A8
:1055E000693E73408105910530F48091D60580179E
:1055F000110609F44AC00E9404076093ED057093F8
:10560000EE058093EF059093F005012B09F050C053
:105610000E94B70ABC01CE0101960E94E8170E94C1
:10562000C10ABC01CE0149960E94E8170E94C90A2E
:10563000BC01CE0185960E94E817BE016B5D7F4FCD
:10564000CE014F960E94D715BE01675E7F4FCE01F7
:105650004F960E942B15BE016F5F7F4F0E942B1546
:10566000BC018FED95E00E94C015CE014F960E94BF
:105670008214CE0185960E948214CE0149960E9422
:105680008214CE0101960E9482146FED75E0CE0166
:1056900001960E94D715BE016F5F7F4F8EE09AE0A2
:1056A0000E943714CE0101960E94821480E412CF2A
:1056B0000E94B70ABC01CE0101960E94E8170E9421
:1056C000C90ABC01CE0149960E94E8170E94C10A8E
:1056D000AFCF60915B0270915C02CE0185960E9413
:1056E000E8176091590270915A02CE014F960E94BC
:1056F000E8176091570270915802CE0101960E94FE
:10570000E817BE016F5F7F4FCE0149960E94D71503
:10571000BE01615E7F4FCE0149960E942B15BE01EE
:105720006B5D7F4F0E942B156BE774E00E9415158F
:10573000BC018EE09AE00E94C015CE0149960E94FD
:105740008214CE0101960E948214CE014F960E94CF
:105750008214CE0185960E94821480915D02909100
:105760005E02019741F580E8B5CE60915F027091CD
:105770006002CE0149960E9494156BE774E0CE0159
:1057800001960E94E015BE01675E7F4FCE01019633
:105790000E942B1569E774E00E941515BC018EE08C
:1057A0009AE00E94C015CE0101960E948214CE019B
:1057B00049960E948214109289060E94DE1CECC851
:1057C00080915006811124C081E0209161023091C6
:1057D0006202232B09F480E00E94290EAB01BC0178
:1057E000CE0101960E948F1ABE016F5F7F4F8EE03F
:1057F0009AE00E943714CE0101960E948214809193
:10580000610290916202892BD1F480E48093890631
:1058100081E02091610230916202232B09F480E043
:105820000E94290E1091890620E030E0A9010E9413
:10583000DB3887FF07C0106810938906ADC8109247
:105840008906E6CF1F77F8CF6091630270916402FA
:10585000CE0101960E94E817BE016F5F7F4FCE0117
:1058600049960E94D71567E774E0CE0149960E94D9
:105870001515BC018EE09AE00E94C015CE01499634
:105880000E948214CE0101960E94821480916302CC
:105890009091640297FD03C0109289067DC880E84C
:1058A0008093890679C880914F0290915002892B8C
:1058B00099F467E574E08EE09AE00E948A1583E02F
:1058C00090E090932402809323028CE090E09093E8
:1058D00026028093250260C860E674E08EE09AE0BC
:1058E0000E948A158CE090E090932402809323021A
:1058F00083E090E0ECCF6091550270915602809168
:105900004F0290915002892BF1F5CE0185960E94AD
:105910003A176091530270915402CE014F960E9443
:10592000E8176091510270915202CE0101960E94D7
:10593000E817BE016F5F7F4FCE0149960E94D715D1
:10594000BE01615E7F4FCE0149960E942B15BE01BC
:105950006B5D7F4F0E942B15BC018EE09AE00E9488
:10596000C015CE0149960E948214CE0101960E9474
:105970008214CE014F960E948214CE0185960E9419
:1059800082140C94CC24CE0185960E943A17609123
:10599000510270915202CE014F960E94E817609119
:1059A000530270915402C1CF6091670270916802F6
:1059B000CE014F960E94E8176091650270916602D1
:1059C000CE0101960E94E817BE016F5F7F4FCE01A6
:1059D00049960E94D715BE01615E7F4FCE01499660
:1059E0000E942B1569E674E00E941515BC018EE03B
:1059F0009AE00E94C015CE0149960E948214CE0101
:105A000001960E948214CE014F960E94821444CFC8
:105A100081E090E00C9435231F920F920FB60F9205
:105A200011242F933F938F939F93AF93BF938091B4
:105A3000230790912407A0912507B0912607309164
:105A4000220723E0230F2D3758F50196A11DB11D24
:105A5000209322078093230790932407A093250780
:105A6000B09326078091270790912807A0912907D6
:105A7000B0912A070196A11DB11D8093270790932D
:105A80002807A0932907B0932A07BF91AF919F9150
:105A90008F913F912F910F900FBE0F901F901895EF
:105AA00026E8230F0296A11DB11DD2CF1F920F929F
:105AB0000FB60F9211240BB60F922F933F934F9373
:105AC0005F936F937F938F939F93AF93BF93EF9366
:105AD000FF938BEA97E00E949107FF91EF91BF91AE
