:100000000C941C020C944D020C944D020C944D0265
:100010000C944D020C944D020C944D020C944D0224
:100020000C944D020C944D020C944D020C944D0214
:100030000C944D020C94032E0C944D020C944D0222
:100040000C944D020C94562E0C944D020C944D02BF
:100050000C944D020C94B52E0C944D020C94392C3A
:100060000C944D020C940D2D0C94E32C0C944D0229
:100070000C944D020C944D020C944D020C944D02C4
:100080000C944D020C944D020C944D020C944D02B4
:100090000C94AD2C0C94832C0C944D020C94142FC6
:1000A0000C944D020C944D020C944D020C944D0294
:1000B0000C944D020C944D020C944D020C94432D63
:1000C0000C944D020C944D020C944D020C944D0274
:1000D0000C944D020C944D020C944D020C944D0264
:1000E0000C944D020C9411070C94B52B0C944D03F9
:1000F0000C9469030C9432030C94FA0C0C94E024D5
:100100000C949C060C944D070C9440030C9423060D
:100110000C94862B0C94C60C0C940F070C9457036C
:100120000C9451060C94630E0C940E070C946D0302
:100130000C940C060C9465060C945F030C94E42458
:100140000C9492060C9451030C949E0D0C94190877
:100150000C94E6240C9473030C9447030C947703DB
:100160000C9497290C94DD2B0C94172B0C94DE2403
:100170000C94570E0C94CB2A0C94AD0E0C94650382
:100180000C94670E0C94B30C0C9438030C945B0322
:100190000C9437060C94A6060C94CD0C0C941906FE
:1001A0000C94A40C0C947E060C943F060C94470609
:1001B0000C945B060C949C0E0C9488060C94A30C77
:1001C0000C94422B0C9457370C9474060C942D0607
:1001D0000C94B1070C9461070C943E070C94713099
:1001E0000C9414060C949A0E0C94E2240C94D629C8
:1001F0000C94C1240C94DA240C943C030C946F07E7
:100200000C94750E0C9472030C94E8240C94440323
:100210005570646174696E672074696D652E2E2E49
:1002200000496E636F727265637420536F6E67204E
:10023000466F726D61742100416C6C20617474654D
:100240006D707473207765726520756E7375636366
:1002500065737366756C2E00417474656D707420DF
:10026000746F2073796E63207769746820475053E8
:100270002E0044617465206F722054696D65206E94
:100280006F7420696E2072616E6765000201005311
:10029000746F7020546573740054656D702E2073F4
:1002A000656E736F72206E6F7420666F756E642E4C
:1002B00000475053204E4F54206465746563746545
:1002C000642100475053206465746563746564005D
:1002D00053746172742054657374004E4353333108
:1002E000322D3820485635313232206F7220485630
:1002F00035323232004669726D77617265207665FB
:100300007273696F6E3A20004661756C7479205281
:100310005443210000002100240027002A002D0062
:100320003000330001010000040107010A01000050
:100330002200250028002B002E003100340002018D
:100340000000050108010B0100000A0B02090C0D59
:100350000E08070304010000000000000000000078
:10036000000000000000000000000000000000008D
:10037000000000001211100000000000000000004A
:10038000000000000000000000000000000000006D
:1003900020002300260029002C002F00320000013D
:1003A0000000030106010901050505050705080808
:1003B0000808020202020A0A0808040404040101EF
:1003C0000101010101010303030303030303040704
:1003D00007070C0C0C0C0C0C0C0C0202020206069B
:1003E0000606060606060B0B0B0B0B0B0B0B01028E
:1003F0001020200808102040102040800201020137
:1004000008040201010204081020408080402010EE
:100410000804020180040201804020100804020147
:1004200008040201010204081020408001020408AF
:10043000102040807130573711241FBECFEFD1E21A
:10044000DEBFCDBF00E00CBF2AE0AAE1B5E001C0ED
:100450001D92A632B207E1F715E0A0E0B2E0E4E6B3
:10046000F9E700E00BBF02C007900D92AA31B10777
:10047000D9F712E0CBE1D2E000E006C021970109F4
:10048000802FFE010E945F3ACA31D10780E0080741
:10049000A9F70E9460310C94A03C0C9400008CBD24
:1004A0009DBD08958091DB09E091DC09F091DD09A3
:1004B000F8949181982B91832281382F30952323B2
:1004C0002283A7E0B0E01197F1F791819323918304
:1004D000A3E2B0E01197F1F790817894EFECF0E0AF
:1004E0003197F1F7982381E009F480E00895909125
:1004F000DB09E091DC09F091DD09292F209580FFCF
:1005000014C0F8948281822382838181892B818324
:10051000A3E2B0E01197F1F78281982B928378944F
:1005200087ED90E00197F1F70895F8948281822396
:1005300082838181892B8183AFEFB0E01197F1F73E
:100540008281982B928378948FE090E0EBCF0F9389
:100550001F93CF93DF93082FC8E0D0E011E081E034
:10056000902F912309F480E00E947702110F2197C8
:10057000B1F7F894E091DC09F091DD099181809167
:10058000DB09809598239183E091DC09F091DD09E6
:100590009281892382837894DF91CF911F910F916B
:1005A00008958091DB09E091DC09F091DD09F89470
:1005B0009181282F20959223918378943DE743E001
:1005C00050E0315029F1DA011197F1F79081982329
:1005D000C1F3F8949281922392839181982B918315
:1005E0007894ABE7B7E01197F1F7F89491819223F3
:1005F0009183A3E1B1E01197F1F79081982381E015
:1006000009F080E07894E3E6F6E03197F1F7089599
:1006100080E0089591E090934007809362071092E4
:1006200041071092630708958150823108F05AC043
:10063000E82FF0E08827E05EFC4F8F4F0C945F3A84
:1006400040034403320338033C03720347034D0362
:10065000510357035B035F036503690372036D0373
:1006600073037703809180008F77809380000895D3
:10067000809180008F7DF9CF80918000877FF5CFBA
:1006800084B58F7784BD089584B58F7DFBCF80912D
:10069000B0008F778093B00008958091B0008F7D77
:1006A000F9CF809190008F7780939000089580918A
:1006B00090008F7DF9CF80919000877FF5CF80915A
:1006C000A0008F778093A00008958091A0008F7D77
:1006D000F9CF8091A000877FF5CF809120018F779F
:1006E000809320010895809120018F7DF9CF809122
:1006F0002001877FF5CFCF93DF93282F30E0F901DA
:10070000E85BFC4F8491F901E251FC4FD491F9016F
:10071000E855FC4FC491CC23A1F081110E94140331
:10072000EC2FF0E0EE0FFF1FE257FC4FA591B491C4
:10073000EC91ED2381E090E009F480E0DF91CF912E
:10074000089580E090E0FACF1F93CF93DF93282F96
:1007500030E0F901E85BFC4F8491F901E251FC4F74
:10076000D491F901E855FC4FC491CC23A9F0162F80
:1007700081110E941403EC2FF0E0EE0FFF1FE25DE9
:10078000FC4FA591B4918FB7F894EC91111108C06A
:10079000D095DE23DC938FBFDF91CF911F91089519
:1007A000DE2BF8CFCF93DF9390E0FC01E251FC4FBA
:1007B000249188559C4FFC0184918823C9F090E0D6
:1007C000880F991FFC01EC5EFC4FA591B491FC01D0
:1007D000E25DFC4FC591D49161110DC09FB7F894B3
:1007E0008C91209582238C938881282328839FBF16
:1007F000DF91CF910895623051F49FB7F8943C9106
:10080000822F809583238C93E8812E2BEFCF8FB797
:10081000F894EC912E2B2C938FBFEACF4F925F92DE
:100820006F927F928F929F92AF92BF92CF92DF9200
:10083000EF92FF920F931F93CF93DF9300D01F92FD
:100840001F92CDB7DEB72091710727FD2CC14983D8
:100850005A836B837C838C0161E0809170070E94D6
:10086000D203809171078D834801B12CA12C8D7F1B
:1008700009F031C160E072E18AE790E0A5019801DA
:100880000E94403A29013A017A01690191E0C91AAE
:10089000D108E108F108AFEFCA16D104E104F10470
:1008A00009F00CF4C7C060E472E48FE090E0A501A9
:1008B00098010E94403A69017A01B1E0CB1AD1084F
:1008C000E108F1088D81823009F06AC082E09FEF73
:1008D000C916D104E104F10409F00CF45EC160E929
:1008E00070ED83E090E0A50198010E94403A690113
:1008F0007A01A1E0CA1AD108E108F10883E0BFEF4C
:10090000CB16D104E104F10409F00CF446C168E40B
:1009100078EE81E090E0A50198010E94403A6901DB
:100920007A0181E0C81AD108E108F10884E09FEF5C
:10093000C916D104E104F10409F00CF42EC164E2FB
:1009400074EF80E090E0A50194010E94403A6901B3
:100950007A01B1E0CB1AD108E108F10885E09FEFF8
:10096000C916D104E104F10409F008F416C162E1EA
:100970007AE780E090E0A50194010E94403A690185
:100980007A01B1E0CB1AD108E108F1088FEFC8165F
:10099000D104E104F10411F008F0F0C086E0FDC0DC
:1009A0008FEFC816D104E104F10409F00CF491C0F2
:1009B00068E478EE81E090E0A50198010E94403A59
:1009C00069017A0191E0C91AD108E108F108AD8105
:1009D00084E0A111C4CF83E0AFEFCA16D104E104D3
:1009E000F10461F15CF162E17AE780E090E0A50159
:1009F00094010E94403A69017A0181E0C81AD10845
:100A0000E108F10884E09FEFC916D104E104F10484
:100A1000A9F0A0F0730162019AE0F594E794D794ED
:100A2000C7949A95D1F7A1E0CA1AD108E108F10854
:100A300085E004C081E0AD81A111AFC095B5987F7C
:100A4000892B85BD89819A81AB81BC812FEF3FEFD6
:100A5000A901892B8A2B8B2B79F0D801AA0FBB1FF8
:100A600029813A814B815C810E942C3928EE33E048
:100A700040E050E00E941E3A9D81913009F45CC034
:100A8000923009F46BC091110EC0C7BC20936C0763
:100A900030936D0740936E0750936F0780916E00FF
:100AA000826080936E000F900F900F900F900F90C8
:100AB000DF91CF911F910F91FF90EF90DF90CF903A
:100AC000BF90AF909F908F907F906F905F904F906E
:100AD000089582E0B0CF60E072E18AE790E0A5017E
:100AE00098010E94403A69017A01B1E0CB1AD1081D
:100AF000E108F10891E0C114D10481E0E806F104B5
:100B000084F068E478EE81E090E0A50198010E940D
:100B1000403A69017A0191E0C91AD108E108F10867
:100B200093E0AD81A13009F08DCF80918100887F65
:100B3000892B8093810086CFD0928900C092880053
:100B4000209368073093690740936A0750936B07B7
:100B500080916F00826080936F00A5CFC092B30038
:100B600020936407309365074093660750936707A7
:100B70008091700082608093700095CF7301620154
:100B80008AE0F594E794D794C7948A95D1F7B1E0B9
:100B9000CB1AD108E108F10887E09091B100987F65
:100BA000892B8093B1004ECF1F93CF93DF93182FE3
:100BB000EB0161E00E94D203209739F460E0812FBD
:100BC000DF91CF911F910C94A403CF3FD10511F475
:100BD00061E0F5CFE12FF0E0E85BFC4FE491E150FC
:100BE000E23108F0B3C0F0E08827E650FA4F8F4FAB
:100BF0000C945F3A0C061406190623062D06A60669
:100C000037063F06470651065B06650674067E06F4
:100C1000A606880692069C0684B5806884BDC7BD7A
:100C2000DF91CF911F91089584B5806284BDC8BDC6
:100C3000F7CF80918000806880938000D0938900F6
:100C4000C0938800EDCF8091800080628093800007
:100C5000D0938B00C0938A00E3CF8091800088609E
:100C600080938000D0938D00C0938C00D9CF809169
:100C7000B00080688093B000C093B300D1CF809162
:100C8000B00080628093B000C093B400C9CF80915F
:100C90009000806880939000D0939900C093980052
:100CA000BFCF80919000806280939000D0939B0092
:100CB000C0939A00B5CF8091900088608093900097
:100CC000D0939D00C0939C00ABCF8091A000806822
:100CD0008093A0008091A0008F7B8093A000D09390
:100CE000A900C093A8009CCF8091A000806280934F
:100CF000A000D093AB00C093AA0092CF8091A00037
:100D000088608093A000D093AD00C093AC0088CFE2
:100D100080912001806880932001D0932901C093A5
:100D200028017ECF80912001806280932001D093A2
:100D30002B01C0932A0174CF809120018860809399
:100D40002001D0932D01C0932C016ACFC038D1056A
:100D50000CF03ECF33CF3FB7F8948091EE069091E0
:100D6000EF06A091F006B091F10626B5A89B05C04C
:100D70002F3F19F00196A11DB11D3FBFBA2FA92F1A
:100D8000982F8827BC01CD01620F711D811D911D17
:100D900042E0660F771F881F991F4A95D1F7089583
:100DA0008F929F92AF92BF92CF92DF92EF92FF927B
:100DB0004B015C010E94AB066B017C010E94AB06FB
:100DC0006C197D098E099F09683E73408105910564
:100DD000A8F321E0821A9108A108B10888EEC80E94
:100DE00083E0D81EE11CF11C81149104A104B1041C
:100DF00029F7FF90EF90DF90CF90BF90AF909F903A
:100E00008F9008952FB7F8946091EA067091EB06E1
:100E10008091EC069091ED062FBF089508950895F6
:100E20000895AF92BF92CF92DF92EF92FF920F930D
:100E30001F93CF93DF936C017B018B01040F151F70
:100E4000EB015E01AE18BF08C017D10759F06991D8
:100E5000D601ED91FC910190F081E02DC60119952C
:100E6000892B79F7C501DF91CF911F910F91FF90E9
:100E7000EF90DF90CF90BF90AF900895FC01538D1D
:100E8000448D252F30E0842F90E0821B930B541764
:100E900010F0CF96089501970895FC01918D828DF1
:100EA000981761F0A28DAE0FBF2FB11D5D968C918A
:100EB000928D9F5F9F73928F90E008958FEF9FEFC9
:100EC0000895FC01918D828D981731F0828DE80F85
:100ED000F11D858D90E008958FEF9FEF0895FC013F
:100EE000918D228D892F90E0805C9F4F821B91090C
:100EF0008F739927089582E797E00E946F0721E09A
:100F0000892B09F420E0822F08958FE098E00E9459
:100F10006F0721E0892B09F420E0822F0895FC015E
:100F2000A48DA80FB92FB11DA35ABF4F2C91848D4A
:100F300090E001968F739927848FA689B7892C93A7
:100F4000A089B1898C91837080648C93938D848DFA
:100F5000981306C00288F389E02D80818F7D8083FD
:100F60000895EF92FF920F931F93CF93DF93EC01BD
:100F700081E0888F9B8D8C8D98131AC0E889F98940
:100F8000808185FF15C09FB7F894EE89FF89608343
:100F9000E889F98980818370806480839FBF81E0C4
:100FA00090E0DF91CF911F910F91FF90EF90089506
:100FB000F62E0B8D10E00F5F1F4F0F731127E02EE1
:100FC0008C8D8E110CC00FB607FCFACFE889F98919
:100FD000808185FFF5CFCE010E948F07F1CFEB8D89
:100FE000EC0FFD2FF11DE35AFF4FF0829FB7F894ED
:100FF0000B8FEA89FB8980818062CFCF0F931F938B
:10100000CF93DF938C01D0E0C0E0F801EC0FFD1F1F
:101010006491662341F08FE098E00E94B107892B2C
:1010200011F02196F2CFCE01DF91CF911F910F9158
:101030000895CF93DF93EC01888D8823B9F0AA89B6
:10104000BB89E889F9898C9185FD03C0808186FD83
:101050000DC00FB607FCF7CF8C9185FFF2CF8081D2
:1010600085FFEDCFCE010E948F07E9CFDF91CF91B1
:10107000089580E090E0892B29F00E948507811176
:101080000E94000080E090E0892B29F00E947B07FD
:1010900081110E94000080E090E0892B49F080E0FF
:1010A00090E0892B29F00E94000081110E9400002D
:1010B00080E090E0892B49F080E090E0892B29F0D6
:1010C0000E94000081110C94000008956093B50601
:1010D0007093B6068093B7069093B806645D7E4F12
:1010E0008F4F9F4F6093B1067093B2068093B30603
:1010F0009093B40682E090E09093B0068093AF06A0
:101100000E9402076093AB067093AC068093AD0615
:101110009093AE060895CF92DF92EF92FF920F93D5
:101120001F930E9402078B019C01C090AB06D090D8
:10113000AC06E090AD06F090AE066091B5067091F9
:10114000B6068091B7069091B8060C191D092E09B4
:101150003F09083E134021053105E0F0DC01CB01D9
:101160000196A11DB11D8093B5069093B606A0937C
:10117000B706B093B806B701A60148515C4F6F4F50
:101180007F4F4093AB065093AC066093AD067093CF
:10119000AE06C7CF1F910F91FF90EF90DF90CF90D9
:1011A00008954F925F926F927F928F929F92AF922B
:1011B000BF92CF92DF92EF92FF920F931F93CF9344
:1011C000DF93FC011681A12FB0E020E833E341EE6C
:1011D00051E00E942C394B015C01C2EBD7E09D012C
:1011E00004E610E080E9E82EFF24F394CE01825B50
:1011F0009740821793079CF14580512C2E54384F0D
:10120000C90164E670E00E940A3A7C01C90160E904
:1012100071E00E940A3A6C0108EE13E0C1E0D0E0F0
:10122000390183E068227724C415D5050CF040C04D
:10123000C230D10571F56114710459F5E114F1045E
:1012400019F4C114D10429F5B0E88B0EBBE39B1E41
:10125000B6E2AB1EB11C21960F5F1F4FE5CFCE014A
:1012600083709927892B99F4CE01B8010E940A3A1C
:10127000892B31F4CE01B7010E940A3A892B39F447
:10128000A0E88A0EA1E59A1EA1E0AA1EB11C219633
:10129000ADCFD8018C91A82FB0E020E831E541E036
:1012A00050E00E942C39860E971EA81EB91ED3CF7F
:1012B000228130E0A0E1BEE00E9437396B017C0161
:1012C000218130E0ACE3B0E00E943739C60ED71E72
:1012D000E81EF91E8081C80ED11CE11CF11CA481FE
:1012E000A150BB0B20E831E541E050E00E946E3A8E
:1012F0006C0D7D1D8E1D9F1D680D791D8A1D9B1D0A
:10130000DF91CF911F910F91FF90EF90DF90CF90E1
:10131000BF90AF909F908F907F906F905F904F9015
:101320000895EF92FF920F9394E6E916F104CCF042
:1013300092EBE91A97E0F90AE092BF060093BE0625
:101340002093BD068093BB066093BA064093B9060E
:1013500089EB96E00E94D1080F91FF90EF900C94DA
:1013600066089EE1E90EF11CE7CF6F927F928F92A3
:101370009F92AF92BF92CF92DF92EF92FF920F9324
:101380001F93CF93DF936B017C01EA018CE3882EDE
:10139000912CA12CB12CC701A50194010E941E3AE9
:1013A0006883CA01B901A50194010E941E3A6983AC
:1013B000C701B60120E13EE040E050E00E941E3A45
:1013C000CA01B90128E130E040E050E00E941E3A35
:1013D0006A83C701B60120E831E541E050E00E9490
:1013E0001E3A69017A01CA01B9016C5F7F4F8F4FC4
:1013F0009F4F27E030E040E050E00E941E3A6F5FD0
:101400006B83812C912C540140E094E6692E712C61
:1014100000E911E0242F30E02E54384FF901E37039
:10142000FF273097F9F4C901B3010E940A3A892BCA
:1014300031F4C901B8010E940A3A892B99F48EE669
:1014400091E0A0E0B0E0880E991EAA1EBB1ED50157
:10145000C401AA27BB27C816D906EA06FB0638F03E
:101460004F5FD8CF8DE691E0A0E0B0E0ECCF4E83A7
:10147000C90164E670E00E940A3A8C01C90160E982
:1014800071E00E940A3A309729F401151105E1F440
:101490000097D1F04DE651E060E070E0841A950AC3
:1014A000A60AB70AC818D908EA08FB08A8EEB3E0EC
:1014B00020E0213071F4309791F50115110511F4F8
:1014C000009769F54DE106C04EE651E060E070E03E
:1014D000E5CF4C9150E070E060E031E0320FC4168F
:1014E000D506E606F70640F0C41AD50AE60AF70A5A
:1014F0001196232F3C30E9F62F5F2D83C394CC82C5
:10150000DF91CF911F910F91FF90EF90DF90CF90DF
:10151000BF90AF909F908F907F906F9008954CE117
:10152000D9CFCF92DF92EF92FF92C090A706D090D2
:10153000A806E090A906F090AA06C616D706E80607
:10154000F90671F06B017C0149EB56E00E94B50988
:10155000C092A706D092A806E092A906F092AA0629
:10156000FF90EF90DF90CF9008950E948B080E942B
:10157000910A8091BF0690E08E54984F08950E9482
:101580008B080E94910A8091BE0690E008950E9407
:101590008B080E94910A8091BD0690E008950E94F8
:1015A0008B080E94910A8091B90690E008950E94EC
:1015B0008B080E94910A8091BA0690E008950E94DB
:1015C0008B080E94910A8091BB0690E00895CF920B
:1015D000DF92EF92FF92CF93DF93EC010E9402071C
:1015E0006B017C018F850E947B039C0181E02115AA
:1015F000310509F480E0898B8889811105C091E06B
:10160000232B09F090E0998B29898A89281721F0EA
:10161000CD8ADE8AEF8AF88E8D899E89AF89B88D52
:10162000B701A601481B590B6A0B7B0BDB01CA01F2
:10163000CB80DC80ED80FE80C816D906EA06FB066A
:1016400064F43A81231749F02A83222349F04B8915
:101650005C894F5F5F4F5C8B4B8B3A81311117C0B8
:10166000CF80D884E984FA84C816D906EA06FB0636
:1016700034F48B899C89998388831C8A1B8A2A8BE2
:10168000DF91CF91FF90EF90DF90CF900895CB84C2
:10169000DC84ED84FE84C816D906EA06FB067CF7D6
:1016A0008B899C89919581959109E5CF209184063C
:1016B000260F3327331F21323105ECF420913A07EE
:1016C000FC0190E080E0243069F082E00895A09170
:1016D00084062191AC014C59594FA40FB52FB11D6F
:1016E0002C930196861798F380918406680F609377
:1016F000840680E0089581E0089510923A0781E021
:10170000809339071092140761E084E10E94A403DA
:1017100061E085E10E94A403E9EBF0E080818E7F27
:10172000808380818D7F808388E48093B80085E406
:101730008093BC000895CF93DF9391E0909363066C
:101740008823B9F0C091B800D091BA008091BC0054
:101750008A7B8093BC0060E084E10E94A40360E087
:1017600085E10E94A4030E947D0BD093BA00C09330
:10177000B800DF91CF910895CF92DF92EF92FF9260
:101780000F931F93CF93DF93D091630781E0D13202
:1017900008F09CC0C09162070E94AB066B017C01FF
:1017A00080913A0781116CC082E080933A0781E012
:1017B000809339078FEF8093380710923707D093C3
:1017C0003607A2E4B7E0E6E1F7E080E0D8138DC089
:1017D0001092150780911507CC0FC82BC0931507E1
:1017E00080911407813009F084C0109214070E9480
:1017F000AB066B017C01809115078093BB00809143
:101800003C0790913D07A0913E07B0913F07892B7F
:101810008A2B8B2BA1F00E94AB0600913C07109104
:101820003D0720913E0730913F076C197D098E09D5
:101830009F09061717072807390708F442C0809147
:10184000BC0083FDD8CF85EC8093BC000E94AB0622
:101850006B017C0180913A07823009F44CC0809181
:1018600038078F3F09F469C080913807803209F446
:1018700066C080913807803309F463C084E026C0D5
:1018800080913C0790913D07A0913E07B0913F07A2
:10189000892B8A2B8B2B09F483CF0E94AB060091F6
:1018A0003C0710913D0720913E0730913F076C198E
:1018B0007D098E099F09061717072807390708F0C1
:1018C0006FCF80913B070E949B0B85E010924107F0
:1018D0001092630710924007DF91CF911F910F91F3
:1018E000FF90EF90DF90CF9008959D9191938F5F3F
:1018F0006DCF85EEA9CF80913C0790913D07A091D7
:101900003E07B0913F07892B8A2B8B2B09F4A2CF7E
:101910000E94AB0600913C0710913D0720913E07C5
:1019200030913F076C197D098E099F09061717072B
:101930002807390708F08ECFC4CF80E0C7CF82E0F8
:10194000C5CF83E0C3CF0895E091F3068091F206FE
:10195000E81730F4F0E0EC50F94F808190E0089502
:101960008FEF9FEF08959091F3068091F2062FEF8D
:101970003FEF981748F4E92FF0E0EC50F94F208141
:1019800030E09F5F9093F306C90108958091F206BD
:101990009091F306891B990B0895CF92DF92EF92F5
:1019A000FF920F931F93CF93DF937C01CB018A01AA
:1019B00020914007222389F0EB016B01C40ED51E54
:1019C000CC15DD0569F06991D701ED91FC9101908D
:1019D000F081E02DC7011995F3CF642F0E94560BBB
:1019E000C801DF91CF911F910F91FF90EF90DF9091
:1019F000CF900895CF93DF931F92CDB7DEB7698361
:101A0000209140072223F9F020916307203258F0FB
:101A100021E030E0FC013383228390E080E00F90EE
:101A2000DF91CF91089580914107E82FF0E0EE5BC0
:101A3000F84F998190838F5F80934107809363076C
:101A400081E090E0ECCF61E0CE0101960E94560B60
:101A5000F7CF682F8CEA98E00C94FA0CDF92EF92A3
:101A6000FF920F931F93CF93DF93182FF62ED42E50
:101A7000D22F8091AD020E940A0360E08CEA98E0C8
:101A80000E94FA0CCAE08D2D6C2F0E94FE398295BF
:101A9000807F682F690F8CEA98E00E94FA0C8F2DE6
:101AA0006C2F0E94FE398295807F682F690F8CEA27
:101AB00098E00E94FA0C812F6C2F0E94FE398295CB
:101AC000807F682F690F8CEA98E00E94FA0C61E031
:101AD0008CEA98E00E94FA0C8D2F6C2F0E94FE3940
:101AE0008295807F682F690F8CEA98E00E94FA0C3B
:101AF000802F6C2F0E94FE398295807F682F690F9E
:101B00008CEA98E00E94FA0C8E2D6C2F0E94FE3910
:101B10008295807F682F690F8CEA98E00E94FA0C0A
:101B200060E08CEA98E00E94FA0CDF91CF911F915F
:101B30000F91FF90EF90DF900C94BC0B90E080E051
:101B40000895CF92DF92EF92FF920F931F93CF935E
:101B5000DF939091620691110BC08FEF9FEFDF91A1
:101B6000CF911F910F91FF90EF90DF90CF9008954C
:101B700090916106992389F3082FC0916006D0E007
:101B80008091580681110DC00E940207609354068F
:101B900070935506809356069093570681E0809384
:101BA00058060E940207C0905406D0905506E09057
:101BB0005606F09057066C197D098E099F096D3203
:101BC000714081059105B0F0109153060E94020703
:101BD000609354067093550680935606909357066B
:101BE00091E0912790935306992331F11092520678
:101BF0001092510620915106309152062095309551
:101C000080915006282326FF1CC081E080934F0658
:101C100027FF1AC081E080934E06809153068823E7
:101C200009F49BCF02C0D595C7950A95E2F7C0FF8E
:101C300094CF80E09CE393CFD0935206C09351069B
:101C4000D9CF10924F06E4CF10924E06E6CFEF9216
:101C5000FF920F931F93CF93DF93182F8091260647
:101C600081110DC00E940207609322067093230623
:101C7000809324069093250681E080932606C091E8
:101C80002006D0912106C930D10508F077C0FE01A9
:101C90008827E25BF14F8F4F0C945F3A570E630E2B
:101CA000670E750E570E630E9A0E9C0EAD0E0E94B7
:101CB000D1022196CA30D10509F091C010922106B7
:101CC0001092200628C08CEC0E94A702F2CF84E478
:101CD0000E94A7020E9402076093220670932306C7
:101CE0008093240690932506E4CF0E94020700917A
:101CF0002206109123062091240630912506601BB0
:101D0000710B820B930BC4E0D0E06E3E72408105F4
:101D1000910508F064C060911C0670911D068091C9
:101D20001E0690911F06DF91CF911F910F91FF909A
:101D3000EF9008958EEBC8CF98E0E92EF12C10E0DB
:101D400001E00E9452028111102B000F81E0E81A7D
:101D5000F108B9F710931A06ACCF88E0E82EF12C01
:101D600010E001E00E9452028111102B000F21E0CF
:101D7000E21AF108B9F710931B069BCFC930D105C1
:101D800009F097CF60911A0670911B066F3F760796
:101D900011F470E060E0072E000C880B990B0E9494
:101DA000F93720E030E040E85DE30E945838111137
:101DB00009C060931C0670931D0680931E069093C5
:101DC0001F0677CF26E636E646EE5FE30E945838D8
:101DD00020E030E040E052E40E944739EACFD0935F
:101DE0002106C093200697CF0F931F938091550231
:101DF00090915602892B09F449C0809107068823E7
:101E0000A9F00E9402070091030610910406209198
:101E1000050630910606601B710B820B930B693E21
:101E200073408105910590F1109207060E94DF0A28
:101E300020914F02309150028217930739F50E948A
:101E4000D70A209151023091520282179307F1F480
:101E50000E94CF0A209153023091540282179307B7
:101E6000A9F40E940207609303067093040680930E
:101E700005069093060681E08093070680910A028A
:101E800090910B029093DA068093D9061F910F91DF
:101E90000895CF93DF93EC012196FC0120812A3332
:101EA000C9F42181243609F5229630E020E06AE069
:101EB000899190ED980F9A3078F4629FA001639F0A
:101EC000500D1124082E000C990BC0979A01280F71
:101ED000391FEECFCE01DFCF3093FD052093FC05F7
:101EE0002115310511F02093090288818F3689F47C
:101EF0008A81082E000C990B9C01205331093093E4
:101F0000FD052093FC05C397059710F42093080264
:101F1000249688818236F1F4229630E020E06AE04F
:101F2000899190ED980F9A3068F4629FA001639FA9
:101F3000500D1124082E000C990BC0979A01280F00
:101F4000391FEECF3093FD052093FC053093070237
:101F5000209306022091060230910702032E000C06
:101F6000440B550B60E67AEE80E090E00E94403A28
:101F700082E0220F331F441F551F8A95D1F720930B
:101F8000F8053093F9054093FA055093FB05CE010F
:101F9000DF91CF910895CF92DF92EF92FF920F934E
:101FA0001F93CF93DF93EC018B010E940207CE8039
:101FB000DF80E884F984AB01BC014C195D096E092E
:101FC0007F0988819981092E000CAA0BBB0B84170D
:101FD0009507A607B707A0F48A85882389F01A8693
:101FE0008D811C821D82823060F181E090E0DF9162
:101FF000CF911F910F91FF90EF90DF90CF900895B8
:102000008B859C8580179107C9F481E08C838D8135
:102010008F5F8D830E9402076E837F8388879987F5
:1020200081E08A872D818A819B81281719064CF0CF
:102030001C821D821A868FEF9FEFD9CF8C81811170
:1020400003C090E080E0D3CF0F3F1F4FD1F7DFCF29
:102050008EBD00000DB407FEFDCF8EB508958F92A2
:102060009F92AF92BF92CF92DF92EF92FF920F9327
:102070001F93CF93DF937C01D62F0E94AB064B01B9
:102080005C0180913A07811167C0CD2F81E0809378
:102090003A07809339079FEF9093380710923707DC
:1020A0009D0F909336078093150780911507EE0CCE
:1020B000FF1C8E298093150780911407813009F049
:1020C00083C0109214070E94AB066B017C018091C3
:1020D00015078093BB0080913C0790913D07A0912C
:1020E0003E07B0913F07892B8A2B8B2BA1F00E94D2
:1020F000AB0680903C0790903D07A0903E07B090C3
:102100003F076C197D098E099F0986169706A80658
:10211000B90608F442C08091BC0083FDD8CF85EC9D
:102120008093BC000E94AB066B017C0180913A0752
:10213000813009F44BC0809137078D1710F4C0919E
:102140003707E6E1F7E0A4EFB6E080E08C1751F145
:1021500091919D938F5FFACF80913C0790913D07BD
:10216000A0913E07B0913F07892B8A2B8B2B09F456
:1021700088CF0E94AB0600913C0710913D0720914B
:102180003E0730913F07681979098A099B090617AC
:1021900017072807390708F074CF80913B070E9482
:1021A0009B0BC0E01092F306C093F2068C2FDF91D8
:1021B000CF911F910F91FF90EF90DF90CF90BF9044
:1021C000AF909F908F90089585EEAACF80913C07A5
:1021D00090913D07A0913E07B0913F07892B8A2B34
:1021E0008B2B09F4A3CF0E94AB0680903C07909004
:1021F0003D07A0903E07B0903F076C197D098E09FE
:102200009F0986169706A806B90608F08FCFC5CF96
:10221000CF93C091AD028C2F0E940A0360E08CEA3C
:1022200098E00E94FA0C0E94BC0B67E070E08C2FD3
:1022300090E00E942F108CEA98E00E94B30C982F37
:1022400092959F70CAE08F709C9F800D112490E042
:102250009093E7068093E6068CEA98E00E94B30C20
:10226000982F92959F708F709C9F800D112490E005
:102270009093DE068093DD068CEA98E00E94B30C12
:10228000982F929593708F709C9F800D112490E0F1
:102290009093DC068093DB068CEA98E00E94B30CF6
:1022A0008CEA98E00E94B30C982F92959F708F70E3
:1022B0009C9F800D112490E09093E0068093DF06B0
:1022C0008CEA98E00E94B30C982F92959F708F70C3
:1022D0009C9F800D112490E09093E2068093E1068C
:1022E0008CEA98E00E94B30C982F92959F708F70A3
:1022F0009C9F800D112490E08053984F9093E406AA
:102300008093E306CF910895FC0101900020E9F746
:102310003197AF01481B590BBC018FE098E00C943A
:102320001107CF93DF930E94FE07EC0188E194E050
:102330000E9484118C0F9D1FDF91CF9108958F9281
:102340009F92AF92BF920F931F93CF93DF93CDB71E
:10235000DEB7A1970FB6F894DEBF0FBECDBF19A2AE
:10236000423008F44AE08E010F5D1F4F842E912CFD
:10237000B12CA12CA50194010E941E3AE62FB901AF
:10238000CA01EA30F4F4E05DD801EE938D01232B0D
:10239000242B252B79F790E080E0109719F0CD01E0
:1023A0000E948411A1960FB6F894DEBF0FBECDBF78
:1023B000DF91CF911F910F91BF90AF909F908F9021
:1023C0000895E95CE1CFCF93DF93682F70E090E050
:1023D00080E04AE00E949F11EC0188E194E00E94B5
:1023E00084118C0F9D1FDF91CF910895FC01808196
:1023F0009181009711F00C945F3760E070E0CB01A1
:1024000008954F925F926F927F928F929F92AF92B8
:10241000BF92CF92DF92EF92FF92CF93DF93CDB72F
:10242000DEB72D970FB6F894DEBF0FBECDBF0E946A
:10243000AB06C0904A06D0904B06E0904C06F09058
:102440004D066C197D098E099F096A317144810519
:10245000910508F429C20E94AB0660934A06709366
:102460004B0680934C0690934D0685ED99E00E94B3
:10247000F61169837A838B839C8360E08AE00E94F3
:10248000A403FAE0CF2ED12CE12CF12C69817A81C2
:102490008B819C81A70196010E94403A49015A0113
:1024A000660F771F6C527C4FDB014D905C9087E08C
:1024B00090E00E94A10D3C01C501B401A701960165
:1024C0000E94403A660F771F6C527C4FFB01E08000
:1024D000F18086E090E00E94A10D46205720712CEB
:1024E000612C2AE0440C551C661C771C2A95D1F7F8
:1024F0008E219F21B0E0A0E0482A592A6A2A7B2A2F
:1025000069817A818B819C8124E630E040E050E053
:102510000E94403A69017A0180914F06882311F0A8
:10252000689477F880914E06882311F0689476F8C5
:102530008091480690914906019711F4FFE37F22AC
:102540002091CF062D87872D9927AA27BB278D831A
:102550009E83AF83B8874301AA24BB24BB27A72D42
:10256000962D852D89879A87AB87BC87222309F40E
:102570006EC1842D0E94281089850E942810882D04
:102580000E9428108D810E9428108AE0882E912CAC
:10259000A12CB12CC701B601A50194010E94403ABB
:1025A000660F771F6C527C4FDB01CD90DC9085E08D
:1025B00090E00E94A10D7C0169817A818B819C81D0
:1025C00028EE33E040E050E00E94403ACA01B901F1
:1025D000A50194010E94403A660F771F6C527C4F10
:1025E000FB016080718084E090E00E94A10DCE200C
:1025F000DF20F12CE12C34E1CC0CDD1CEE1CFF1CA7
:102600003A95D1F786219721B0E0A0E04AE0880F03
:10261000991FAA1FBB1F4A95D1F7C82AD92AEA2AAF
:10262000FB2A69817A818B819C8120E137E240E03D
:1026300050E00E94403ACA01B901A50194010E94EC
:10264000403A660F771F6C527C4FDB01AD90BC9017
:1026500083E090E00E94A10D8A219B21B0E0A0E0E0
:10266000C82AD92AEA2AFB2A69817A818B819C812E
:1026700020EA36E841E050E00E94403A29013A0160
:1026800080914F06882309F4EDC06894F7F8809193
:102690004E06882309F4E9C06894F6F88F2D99272F
:1026A000AA27BB278D839E83AF83B8874701AA24BF
:1026B000BB24BB27AF2D9E2D8D2D89879A87AB8795
:1026C000BC879D85992309F4D3C08C2D0E942810C6
:1026D00089850E942810882D0E9428108D810E94D3
:1026E00028103AE0832E912CA12CB12CC301B20109
:1026F000A50194010E94403A660F771F6C527C4FEF
:10270000DB01CD90DC9082E090E00E94A10D7C0185
:1027100069817A818B819C8120E432E44FE050E032
:102720000E94403ACA01B901A50194010E94403AB1
:10273000660F771F6C527C4FFB016080718081E0D7
:1027400090E00E94A10DCE20DF20F12CE12C64E16D
:10275000CC0CDD1CEE1CFF1C6A95D1F7862197215D
:10276000B0E0A0E07AE0880F991FAA1FBB1F7A95FE
:10277000D1F7C82AD92AEA2AFB2A69817A818B8172
:102780009C8120E836E948E950E00E94403ACA01BD
:10279000B901A50194010E94403A660F771F6C525F
:1027A0007C4FDB01AD90BC9090E080E00E94A10DD9
:1027B0008A219B21B0E0A0E08C299D29AE29BF2968
:1027C00020914F066C017D01222309F45CC06894BE
:1027D000F7F880914E06882309F458C06894F6F8FB
:1027E0004F2C5524662477244701AA24BB24BB27F9
:1027F000AF2D9E2D8D2D89839A83AB83BC839D85C0
:10280000992309F446C08C2D0E94281089810E94CA
:102810002810882D0E942810842D0E94281061E025
:102820008AE02D960FB6F894DEBF0FBECDBFDF91C4
:10283000CF91FF90EF90DF90CF90BF90AF909F909F
:102840008F907F906F905F904F900C94A4038D8138
:102850000E942810882D0E94281089850E94281027
:10286000842D91CEE894F7F812CFE894F6F816CFBD
:102870008D810E942810882D0E94281089850E9431
:1028800028108C2D2CCFE894F7F8A3CFE894F6F815
:10289000A7CF842D0E942810882D0E94281089819E
:1028A0000E9428108C2DB9CF2D960FB6F894DEBF5C
:1028B0000FBECDBFDF91CF91FF90EF90DF90CF9013
:1028C000BF90AF909F908F907F906F905F904F9050
:1028D00008950F931F93CF93DF938C01EB01FC01BD
:1028E000808191810097E1F068817981611571059E
:1028F000A9F0428153812C813D814217530770F02A
:102900000E94993C8C819D81F801958384831D826E
:102910001C82DF91CF911F910F9108950E94263B59
:1029200088819981F801918380838A819B81938337
:1029300082838C819D8195838483198218821B8276
:102940001A82E5CFCF93DF93EC01888199810097BC
:1029500011F00E94263B198218821D821C821B8264
:102960001A82DF91CF910895FC01808191810097B7
:1029700011F00C94263B08950F931F93CF93DF9390
:10298000EC0188819981009759F02A813B812617B3
:10299000370730F081E0DF91CF911F910F910895BB
:1029A0008B016F5F7F4F0E94AF3B009759F0998377
:1029B00088831B830A832C813D81232B59F7FC01DB
:1029C0001082E8CF80E0E7CFEF92FF920F931F9342
:1029D000CF93DF936115710541F480E0DF91CF91D2
:1029E0001F910F91FF90EF90089541155105B1F09F
:1029F0007B01EC010C811D81040F151FB8010E94A1
:102A0000BC14882351F3288139818C819D81B701C1
:102A1000820F931F0E94993C1D830C8381E0DECFBF
:102A2000EF92FF920F931F93CF93DF93CDB7DEB753
:102A30002D970FB6F894DEBF0FBECDBF7C01CB0142
:102A4000BA012AE08E010F5F1F4FA8010E94A6372E
:102A5000F80101900020E9F73197AF01401B510BBD
:102A6000B801C7010E94E414811103C0C7010E948C
:102A7000A214C7012D960FB6F894DEBF0FBECDBFCE
:102A8000DF91CF911F910F91FF90EF900895CF9319
:102A9000DF93EC01FB0101900020E9F73197AF01D2
:102AA000461B570B0E94E414811103C0CE010E9403
:102AB000A214CE01DF91CF910895CF93DF93EC0163
:102AC000FB0144815581608171810E94E414811170
:102AD00003C0CE010E94A214CE01DF91CF910895D0
:102AE000EF92FF920F931F93CF93DF9300D01F922B
:102AF000CDB7DEB77C01862F4AE08E010F5F1F4FF6
:102B0000B80190E00E948637F80101900020E9F7B3
:102B10003197AF01401B510BB801C7010E94E4146B
:102B20000F900F900F900F90DF91CF911F910F9109
:102B3000FF90EF900895EF92FF920F931F93CF9322
:102B4000DF93EC017B018A01BA010E94BC14811160
:102B50000BC0CE010E94A214CE01DF91CF911F9134
:102B60000F91FF90EF9008951D830C83B70188812A
:102B700099810E94993CF0CFFB0101900020E9F778
:102B80003197AF01461B570B0C949B150F931F9366
:102B9000CF93DF93CDB7DEB762970FB6F894DEBF61
:102BA0000FBECDBF8C01CB01F801118210821382C0
:102BB0001282158214824AE0BE016F5F7F4F0E942D
:102BC0008637BE016F5F7F4FC8010E94BC156296B9
:102BD0000FB6F894DEBF0FBECDBFDF91CF911F912E
:102BE0000F910895CF93DF93EC01FB0186179707B0
:102BF00049F0608171816115710541F04481558111
:102C00000E949B15CE01DF91CF9108950E94A214DE
:102C1000F9CFFC0111821082138212821582148274
:102C20000C94F215FC01118210821382128215821B
:102C30001482FB0101900020E9F73197AF01461B98
:102C4000570B0C949B15AF92BF92CF92DF92EF92ED
:102C5000FF920F931F93CF93DF936C015B017A0177
:102C600089012417350720F48F2D7901042F182F9F
:102C70006AE174E0C6010E941216D5011496CD9146
:102C8000DC91EC16FD06E0F40C171D0708F4E801D2
:102C9000D501ED91FC911197EC0FFD1F1081108271
:102CA0006D917C916E0D7F1DC60161157105A1F0BE
:102CB0000E94BC15F50180819181C80FD91F18832E
:102CC000C601DF91CF911F910F91FF90EF90DF90A0
:102CD000CF90BF90AF9008950E94A214EBCF4F9277
:102CE0005F926F927F928F929F92AF92BF92CF929C
:102CF000DF92EF92FF920F931F93CF93DF9300D059
:102D000000D0CDB7DEB77C014B015A018091190686
:102D100081113AC081E08093190691E1692E96E015
:102D2000792E29E0422E26E0522E10E000E00F5FBF
:102D30001F4F680181E0C81AD1089801A601B401AB
:102D4000CE0101960E942316CE0101960E94F61133
:102D5000D3016D933D01CE0101960E94B4149801F8
:102D6000A601B501CE0101960E942316CE0101965F
:102D70000E94F611F20161932F01CE0101960E948B
:102D8000B4140830110599F69091080681E1C82E17
:102D900086E0D82EE9E0F6E08601A801D8018C9102
:102DA0009A30D8F58F5F8C930F5F1F4FDA018C91AB
:102DB0008A3019F4D80111971C923196B6E0093186
:102DC0001B0759F79F5F943169F1909308066AE1F8
:102DD00074E0C7010E941216F60161916F01C701EC
:102DE0000E9470150C151D05B9F7C70126960FB680
:102DF000F894DEBF0FBECDBFDF91CF911F910F9131
:102E0000FF90EF90DF90CF90BF90AF909F908F900A
:102E10007F906F905F904F9008952081281721F246
:102E20008F5FC1CF1092080610921906D0CFCF92B3
:102E3000DF92EF92FF921F93CF93DF93CDB7DEB770
:102E40002C970FB6F894DEBF0FBECDBF182F68E5E4
:102E500074E0CE0107960E94121622E030E050E0A6
:102E600040E0133081F024E030E042E050E01C30DC
:102E700051F026E030E0103321F0103FA9F428E0B3
:102E800030E044E050E065ED79E0CE0101960E942B
:102E90002316BE016F5F7F4FCE0107960E94691413
:102EA000CE0101960E94B414CE0107960E94F6113D
:102EB0006B01CE0107960E94B414C6012C960FB682
:102EC000F894DEBF0FBECDBFDF91CF911F91FF9071
:102ED000EF90DF90CF900895EF92FF920F931F93A2
:102EE000CF93DF93CDB7DEB762970FB6F894DEBF0E
:102EF0000FBECDBF7C018B0177FF03C011950195FB
:102F00001109B801C7010E94C615083E83E01807E1
:102F10000CF082C0B801CE010D960E94C6156DE47A
:102F200074E0CE0101960E941216BE016F5F7F4FC2
:102F3000CE0107960E940916BE01635F7F4FCE0146
:102F400007960E945D15BC01C7010E94F215CE01D3
:102F500007960E94B414CE0101960E94B414CE01CB
:102F60000D960E94B414043611050CF055C0B8013A
:102F7000CE010D960E94C6156CE474E0CE01019658
:102F80000E941216BE016F5F7F4FCE0107960E940E
:102F90000916BE01635F7F4FCE0107960E945D1543
:102FA000BC01C7010E94F215CE0107960E94B4141D
:102FB000CE0101960E94B414CE010D960E94B41465
:102FC0000A3011054CF5B801CE010D960E94C615C8
:102FD0006BE474E0CE0101960E941216BE016F5F91
:102FE0007F4FCE0107960E940916BE01635F7F4F97
:102FF000CE0107960E945D15BC01C7010E94F21523
:10300000CE0107960E94B414CE0101960E94B4141A
:10301000CE010D960E94B414C70162960FB6F894C3
:10302000DEBF0FBECDBFDF91CF911F910F91FF90FB
:10303000EF9008950F931F93CF93DF93CDB7DEB733
:1030400062970FB6F894DEBF0FBECDBF8C0177FF3D
:1030500003C07195619571096A307105A4F5CE01BF
:103060000D960E94C6156DE474E0CE0101960E9493
:103070001216BE016F5F7F4FCE0107960E940916A0
:10308000BE01635F7F4FCE0107960E945D15BC01B4
:10309000C8010E940916CE0107960E94B414CE0101
:1030A00001960E94B414CE010D960E94B414C8017A
:1030B00062960FB6F894DEBF0FBECDBFDF91CF9101
:1030C0001F910F910895C8010E94C615F0CF0F936C
:1030D0001F93CF93DF93CDB7DEB768970FB6F89401
:1030E000DEBF0FBECDBF8B018330D9F52091D9094A
:1030F0003091DA0942E050E065ED79E0CE010D96BD
:103100000E942316B801CE0101960E941A18BE0132
:103110006F5F7F4FCE0107960E940916BE01635F65
:103120007F4FCE0107960E945D15BC0185ED99E0A9
:103130000E94F215CE0107960E94B414CE010196AA
:103140000E94B414CE010D960E94B41468960FB676
:10315000F894DEBF0FBECDBFDF91CF911F910F91CD
:1031600008958C3009F042C02091D9093091DA09D4
:1031700044E050E065ED79E0CE0143960E942316CD
:10318000B801CE010D960E941A1822E030E050E0FE
:1031900040E065ED79E0CE0101960E942316BE0164
:1031A0006F5F7F4FCE0107960E940916BE01635FD5
:1031B0007F4FCE0107960E945D15BE016D5E7F4F69
:1031C0000E945D15BC0185ED99E00E94F215CE01CB
:1031D00007960E94B414CE0101960E94B414CE0149
:1031E0000D960E94B414CE014396AECF2091D9091A
:1031F0003091DA0946E050E0803349F0803F09F031
:10320000A5CF2091D9093091DA0948E050E065ED69
:1032100079E0CE0143960E942316B801CE010D96A7
:103220000E941A1824E030E0B2CF0E940207609397
:10323000FF0570930006809301069093020680912B
:10324000FE05882309F44FC02091480630914906B5
:10325000C901880F991F21313105A1F1FC01EB5CF7
:10326000FD4F408151814150510951834083DC0120
:10327000AB5CBD4F6D917C911197FC01E35AFD4F02
:1032800040815181641775073CF4FC01EB57FD4FF9
:10329000408151814D935C932031310509F5209196
:1032A00055023091560221303105B9F420E82093BF
:1032B00050068B5C9D4FFC0160817181809160069E
:1032C0000C94671840915702509158024C50510984
:1032D0005093580240935702CACF10925006E9CF3C
:1032E0002930310531F708950E9402076093FF05E8
:1032F0007093000680930106909302068091FE056C
:10330000882309F444C02091480630914906C90138
:10331000880F991F2131310561F1FC01EB5CFD4FF4
:10332000408151814F5F5F4F51834083DC01AB5C33
:10333000BD4F6D917C911197FC01EB57FD4F408182
:103340005181461757073CF4FC01E35AFD4F408179
:1033500051814D935C9320313105B1F410925006A8
:103360008B5C9D4FFC0160817181809160060C94A3
:1033700067184091570250915802445F5F4F509335
:10338000580240935702D2CF2930310549F70895AA
:103390008F929F92AF92BF92DF92EF92FF920F9324
:1033A0001F93CF93DF93CDB7DEB7A2970FB6F894F4
:1033B000DEBF0FBECDBF8C018AE0E4EBF2E0DE01A0
:1033C000119601900D928A95E1F78091F605909102
:1033D000F70501968A3091050CF086C09093F705A9
:1033E0008093F605E091F605F091F70581E090E015
:1033F0008C0F9D1FE80FF91FD0808091570290918C
:103400005802489709F075C00E9402074B015C0101
:103410000E94CF0ABC01CE014D960E941A180E944C
:10342000D70ABC01CE0147960E941A180E94DF0AF3
:10343000BC01CE010B960E941A18BE01655F7F4F3A
:10344000CE0141960E940916BE01695E7F4FCE01F2
:1034500041960E945D15BE01635E7F4F0E945D151F
:103460007C01C501B40128EE33E040E050E00E9449
:103470001E3A24E630E040E050E00E941E3ABA01D5
:10348000A901C7010E9410157C016D2D0E947015C5
:10349000811103C0C7010E94A214B701C8010E9494
:1034A0000916CE0141960E94B414CE010B960E94DB
:1034B000B414CE0147960E94B414CE014D960E94DA
:1034C000B414C801A2960FB6F894DEBF0FBECDBFEC
:1034D000DF91CF911F910F91FF90EF90DF90BF9000
:1034E000AF909F908F9008951092F7051092F60577
:1034F00079CF0E94020728EE33E040E050E00E94BE
:103500001E3A24E630E040E050E00E941E3A4901B5
:103510005A010E94CF0ABC01CE014D960E941A1892
:103520000E94D70ABC01CE0147960E941A180E9439
:103530008B080E94910A8091BB066CE070E08823A2
:1035400031F0682F70E08D3010F06C507109CE01B1
:103550000B960E941A18BE01655F7F4FCE014196FF
:103560000E940916BE01695E7F4FCE0141960E94FE
:103570005D15BE01635E7F4F0E945D15B501A4011C
:1035800081CF8F929F92AF92BF92CF92DF92EF92B4
:10359000FF920F931F93CF93DF93CDB7DEB72C9796
:1035A0000FB6F894DEBF0FBECDBF8C016A017B0160
:1035B00080914006811111C00E940207645B7B4F1D
:1035C0008F4F9F4F60933C0670933D0680933E065D
:1035D00090933F0681E080934006809134068111EC
:1035E00009C068E474E08EE296E00E94121681E061
:1035F000809334060E94020780903C0690903D061E
:10360000A0903E06B0903F06681979098A099B0987
:10361000693E73408105910508F4D8C00E940207F5
:1036200060933C0670933D0680933E0690933F0660
:1036300020E030E040E251E4C701B6010E94583872
:103640006B017C0120E030E0A9010E94E93920E013
:1036500030E040E05FE387FDD2C0C701B6010E94C1
:1036600047390E94B3397B0177FF04C0EE24FF2461
:10367000E61AF70A5B0139E1A31A3CEFB30A80911D
:10368000590290915A029B012D593F4F69012A55C9
:1036900031094901B701892B09F0B6C0CE0107965F
:1036A0000E94C6156DE474E0CE0101960E941216C8
:1036B000BE01695F7F4FCE0101960E945D156DE4EA
:1036C00074E00E944715BC018EE296E00E94F2155C
:1036D000CE0101960E94B414CE0107960E94B41444
:1036E0003FECA31637E0B30618F5B701CE010796F5
:1036F0000E94C6156CE474E0CE0101960E94121679
:10370000BE01695F7F4FCE0101960E945D156DE499
:1037100074E00E944715BC018EE296E00E94F2150B
:10372000CE0101960E94B414CE0107960E94B414F3
:1037300087ECC816D10418F5B701CE0107960E9490
:10374000C6156BE474E0CE0101960E941216BE010C
:10375000695F7F4FCE0101960E945D156DE474E0B4
:103760000E944715BC018EE296E00E94F215CE0140
:1037700001960E94B414CE0107960E94B41423E16E
:103780008216910418F5B701CE0107960E94C6155E
:103790006AE474E0CE0101960E941216BE01695FD0
:1037A0007F4FCE0101960E945D156DE474E00E948A
:1037B0004715BC018EE296E00E94F215CE010196FB
:1037C0000E94B414CE0107960E94B4146EE276E013
:1037D000C8010E940916C8012C960FB6F894DEBFE6
:1037E0000FBECDBFDF91CF911F910F91FF90EF9052
:1037F000DF90CF90BF90AF909F908F900895C701BA
:10380000B6010E9446392DCFCE0107960E94C615FB
:103810006DE474E0CE0101960E941216BE01695F4C
:103820007F4FCE0101960E945D156DE474E00E9409
:103830004715BC018EE296E00E94F215CE0101967A
:103840000E94B414CE0107960E94B4143FECA31654
:1038500037E0B30638F5C7016AE070E00E940A3A23
:10386000CE0107960E94C6156CE474E0CE01019665
:103870000E941216BE01695F7F4FCE0101960E9421
:103880005D156CE474E00E944715BC018EE296E081
:103890000E94F215CE0101960E94B414CE01079643
:1038A0000E94B41487ECC816D10438F5C7016AE049
:1038B00070E00E940A3ACE0107960E94C6156BE49A
:1038C00074E0CE0101960E941216BE01695F7F4F1F
:1038D000CE0101960E945D156CE474E00E944715CC
:1038E000BC018EE296E00E94F215CE0101960E9484
:1038F000B414CE0107960E94B41423E182169104F9
:1039000008F064CFC7016AE070E00E940A3ACE0175
:1039100007960E94C6156AE474E0CE0101960E94E3
:103920001216BE01695F7F4FCE0101960E945D15A0
:103930006CE474E03CCF85ED8093BC0080913C0743
:1039400090913D07A0913E07B0913F070796A11DBA
:10395000B11D23E0B695A795979587952A95D1F740
:103960002091BC0024FD03C010923A0708954091B5
:103970003C0750913D0760913E0770913F07452BF2
:10398000462B472B69F30097A105B10541F02AE2C8
:103990002A95F1F700C00197A109B109E1CF809103
:1039A0003B070C949B0B0C941E390C94163988E041
:1039B00090E00E94D51C682F70E089E00E94D40539
:1039C00089E090E00E94D51C682F70E086E00E949C
:1039D000D4058AE090E00E94D51C682F70E083E057
:1039E0000C94D4052F923F924F925F926F927F92E8
:1039F0008F929F92AF92BF92CF92DF92EF92FF92FF
:103A00000F931F93CF93DF93CDB7DEB7EE970FB62B
:103A1000F894DEBF0FBECDBF0E94020720E137E25F
:103A200040E050E00E941E3A672B682B692B01F59D
:103A30008091E5068823E1F00E940811E090E306FA
:103A4000F090E4060091E1061091E2062091DF0675
:103A50003091E0064091E6065091E7066091DD0660
:103A60007091DE068091DB069091DC060E94910940
:103A70000E9402076093F2057093F3058093F405AA
:103A80009093F5050091EE051091EF052091F0055A
:103A90003091F105601B710B820B930B61367A4EEE
:103AA00081059105E0F18091ED05811107C088E560
:103AB00092E00E94911181E08093ED0582E797E00A
:103AC0000E946F07892B59F182E797E00E944D070A
:103AD00090917205E92FF0E0E15EFA4F80839F5FDD
:103AE000923509F40CC1909372058A30C1F4E091CB
:103AF0007205F0E0E15EFA4F108210927205E0E28A
:103B0000F5E021E030E040E05191C90101965A32E0
:103B100009F4F8C045279C0183359105A9F78091E8
:103B2000F2059091F305A091F405B091F50540914F
:103B3000EE055091EF056091F0057091F1058C0153
:103B40009D01041B150B260B370BB901A801413C45
:103B5000544D6140710570F08093EE059093EF0530
:103B6000A093F005B093F10588E392E00E949111D3
:103B70001092ED051092E1051092E2051092E30516
:103B80001092E4058FEB98E09093E8058093E705A9
:103B90000091BC0810E01093EA050093E9058091BC
:103BA000890990E09093EC058093EB058091B8082B
:103BB0008530B1F58091BC088A3108F4B7C2809194
:103BC000BF089091C008843F914008F080C21092D5
:103BD000E6051092E5058FEF9FEFDC018093E1058C
:103BE0009093E205A093E305B093E4058BE090E0A9
:103BF0009093DE058093DD056091E1057091E2050B
:103C00008091E3059091E40540E10E949F1188E1D5
:103C100094E00E94841182E08093B8081092BC085E
:103C20006091E1057091E2058FE09AE00E94CB0F70
:103C30009093DC058093DB056091E1057091E205CE
:103C400082E09AE00E94CB0F9093DA058093D90529
:103C50006091E1057091E20585EF99E00E94CB0F3C
:103C60009093D8058093D7050091D9061091DA0674
:103C7000F8018081882309F4C3C30E940207C09021
:103C80007905D0907A05E0907B05F0907C056C1961
:103C90007D098E099F09C0907505D0907605E0904A
:103CA0007705F0907805C616D706E806F90608F0FD
:103CB000A7C30E9402074B015C0180927905909294
:103CC0007A05A0927B05B0927C05780130E020E077
:103CD0004AE0F801D1908F0180ED8D0D8A3008F017
:103CE000C5C2429FC001439F900D11242D2DDD0CB4
:103CF000330B20533109280F391F7F01EACF10926F
:103D00007205F3CE815E9A4FFC01808181340CF004
:103D100087538295807F215E3A4FF90192819134D9
:103D20009CF19753890F4813FACE80911F05843276
:103D300009F0F5CE80912205823509F0F0CE809110
:103D400023058D3409F0EBCE80912405833409F0EE
:103D5000E6CEABE2B5E090E080E0ECE0F0E02D9163
:103D60002C3209F093C101968130910579F42C91A0
:103D7000213409F48BC18BE194E00E94841188E125
:103D800094E00E948411CBCE9053CCCF8830910523
:103D900009F07CC1EF5FA090260590902705B090B8
:103DA00028056090290570902A0540902B05F0E0C9
:103DB000E15EFA4FC080D1808281082E000C990B01
:103DC000C0971AE0189F7001199FF00C112483818D
:103DD000E80EF11C87FDFA9400E3E01AF108048173
:103DE00055804CE050E061E070E0C7010E94493727
:103DF000882309F494CE8C2DCC0C990BC097189F76
:103E00009001199F300D1124C9018D0D911DD7FC12
:103E10009A956C0190E3C91AD1084FE150E061E036
:103E200070E0C6010E944937882309F478CE8A2DB4
:103E3000AA0C990BC097189F9001199F300D11245F
:103E4000F901E90DF11D97FCFA954F01F0E38F1A86
:103E5000910847E150E070E060E0C4010E944937FA
:103E6000882309F45CCE8B2DBB0C990BC097189F4F
:103E70005001199FB00C1124A60CB11C67FCBA9418
:103E800020E3A21AB1084BE350E070E060E0C50106
:103E90000E944937882309F442CE872D770C990B6D
:103EA000C097189F3001199F700C1124640C711C6D
:103EB00047FC7A9430E3631A71084BE350E070E0FA
:103EC00060E0C3010E944937882309F428CE202FDF
:103ED000000F330B20533109129FC001139F900D27
:103EE00011248C010053184F050D111D57FC1A9514
:103EF00000531109063E87E01807C4F46982AA82BC
:103F00008B82CD82EE82025B0F83CE0101960E94EE
:103F1000D10886519B4DAE014F5F5F4F0E94B5099E
:103F20000F8110E00E54184FEE80CD8046EF57E021
:103F300062EE77E0C8010E944937882309F4EFCD8B
:103F40008092E909A092EA096092EB09C092EC091B
:103F5000E092ED091093EF090093EE090E94020729
:103F60006B017C01C092F109D092F209E092F30951
:103F7000F092F40980911E0581118FC00E94020702
:103F80006C197D098E099F09693B7B40810591056C
:103F900008F0C5CD80E192E00E9491118091E9097D
:103FA0000E94E3118091EA090E94E3118091EB09DC
:103FB0000E94E3118091EE099091EF0918EEC12E55
:103FC00013E0D12EB6010E940A3A7C010091ED095E
:103FD00010E02091EC0930E04091EB0950E0609155
:103FE000EA0970E08091E90990E00E949109A091AE
:103FF0005B02B0915C0220E13EE00E94673A0091D2
:10400000B5061091B6062091B7063091B806DC01CE
:10401000CB01800F911FA21FB31F8093B506909311
:10402000B606A093B706B093B8060E948B0849EB7A
:1040300056E00E94B5090E94B50A4C010E94BF0AD1
:10404000082F0E94C70AB82E0E94CF0AF82E0E949D
:10405000D70A182F0E94DF0A382FC401B6010E9428
:104060000A3AE82E2B2D4F2D612F832F0E942E0D03
:1040700081E080931E050E94020760931A057093E9
:104080001B0580931C0590931D0549CD3196E335A2
:10409000F10509F064CEE0E07ECE0E9402070091B7
:1040A0001A0510911B0520911C0530911D05601B00
:1040B000710B820B930B613477478B41910518F09C
:1040C00010921E052CCD81E080931E0528CD809195
:1040D000C1089091C20885974B9740F5E8EBF8E04E
:1040E00082E090E040E050E0BA01DC0111962091BE
:1040F000BC082A171B0609F00CF48EC023853485F2
:10410000275031092730310508F085C025853685CF
:10411000235131092F30310508F470C025853685CB
:104120002A5031092930310508F470C006301105D4
:104130000CF471CD88EB98E09EAF8DAF43E0242E58
:10414000312C55ECC52E5DE9D52E5CE1E52E51E80C
:10415000F52E201631060CF078C0EDADFEAD65856C
:104160007685A184B28490E080E00E94F7372B012D
:104170003C01B50190E080E00E94F7374B015C0103
:104180002DEC3CEC4CE45FE30E9458389B01AC0101
:10419000C301B2010E94F237F0E0E0E087FD14C0F5
:1041A0002DEC3CEC4CE45FE3C301B2010E945838B3
:1041B0009B01AC01C501B4010E94F237E2E0F0E0DE
:1041C00087FD02C0E1E0F0E0A701960163E971E03C
:1041D00080E091E00E94EE396F01FF0FEE08FF08CA
:1041E000C626D726E826F926FFEF2F1A3F0A2DAD5F
:1041F0003EAD2E5F3F4F3EAF2DAFABCF440F551FAF
:10420000661F771F4160029634966FCF440F551F8B
:10421000661F771FF8CFCD010197959587959093ED
:10422000E6058093E5050C972CF41092E6051092B4
:10423000E5057CCF4093E1055093E2056093E305EB
:104240007093E40584E090E0D3CCC092E105D09275
:10425000E205E092E305F092E40580E290E09093BD
:10426000E6058093E5058FEF9FEFC2CC3093FD0507
:104270002093FC056091F8057091F9058091FA058D
:104280009091FB052115310511F1032E000C440B13
:10429000550B0E94403A2093750530937605409364
:1042A000770550937805EFE9ED0DE730B0F40E2E69
:1042B000000CFF0B8827E05AFE4D8F4F0C945F3A9D
:1042C000E624E824DA24DE24E024E224E424209115
:1042D000090230E050E040E0DCCF10927405F701B5
:1042E0008181833241F4809174058F5F80937405DE
:1042F00087010E5F1F4FF80180818E32F1F4C0906C
:104300007505D0907605E0907705F0907805C701A7
:10431000B60122E030E040E050E00E94403AC20E98
:10432000D31EE41EF51EC0927505D0927605E0926C
:104330007705F09278050F5F1F4FF8018081805359
:104340008A3008F047C3809373050F5F1F4FF80151
:1043500080818C3211F40F5F1F4FE0917405EE23C2
:1043600009F44EC0C0907505D0907605E0907705B1
:10437000F0907805809173058450990B4CE0489F2C
:104380009001499F300D1124E20FF32FF11DEE0F24
:10439000FF1FEA52FD4FB701A601808191810E9463
:1043A0000E040E940207681979098A099B09C6163A
:1043B000D706E806F90620F50E9402076093790502
:1043C00070937A0580937B0590937C0580917107AB
:1043D000813009F404C3823009F407C3811105C098
:1043E00080916E008D7F80936E0060E080917007F9
:1043F0000E94A40381E292E00E94911110E000E08B
:104400001093DA060093D9060E9402070091D305A3
:104410001091D4052091D5053091D605601B710B04
:10442000820B930B6630710581059105E8F0809150
:104430000C028111E0C270E060E089E00E94D405C6
:1044400070E060E086E00E94D40570E060E083E008
:104450000E94D4050E9402076093D3057093D4058F
:104460008093D5059093D605809148069091490692
:10447000892B21F08091D2058111DBC18091FE054D
:104480008111D7C18091930581110DC00E9402074F
:1044900060938F057093900580939105909392059A
:1044A00081E0809393058091870581110DC00E9462
:1044B000020760938305709384058093850590932C
:1044C000860581E0809387050E94020700918F0591
:1044D000109190052091910530919205601B710B10
:1044E000820B930B009100021091010220910202B5
:1044F00030910302061717072807390708F04DC047
:104500000E94020760938F05709390058093910538
:10451000909392058091810590918205009709F012
:10452000D6C281E090E0909349068093480688E8DF
:1045300093E1A0E0B0E08093000290930102A09389
:104540000202B0930302809181059091820582302E
:10455000910581F4109249061092480640E65AEE01
:1045600060E070E040930002509301026093020209
:10457000709303020196833091050CF0C8C29093AA
:104580008205809381058091D205882321F01092C5
:104590004906109248061092D2050E940207009127
:1045A0008F05109190052091910530919205601B27
:1045B000710B820B930B603D77408105910508F0EC
:1045C00078C30E9402070091830510918405209111
:1045D000850530918605601B710B820B930B653648
:1045E00071058105910508F424C10E9402076093BA
:1045F000830570938405809385059093860580914B
:104600004806909149062091D006222309F484C2DD
:10461000892B89F5CE0149960E94C81981E0209125
:10462000590230915A02232B09F480E00E94270E90
:10463000AB01BC01CE0101960E94C11AAE01475EDA
:104640005F4FBE016F5F7F4FCE014F960E946F1686
:10465000BE01615E7F4F85ED99E00E946914CE0135
:104660004F960E94B414CE0101960E94B414CE015C
:1046700049960E94B414809148069091490601978A
:1046800009F062C00E94B50A68EE73E00E940A3A1F
:10469000BC01CE018B960E941A180E94BF0ABC0171
:1046A000CE0185960E941A180E94C70ABC01CE014D
:1046B00049960E941A18BE01675E7F4FCE014F9641
:1046C0000E940916BE016B5D7F4FCE014F960E947E
:1046D0005D15BE01655D7F4F0E945D15BC01CE0179
:1046E000C1960E940916CE0101960E94C819AE011A
:1046F0004F5C5F4FBE016F5F7F4FCE01C7960E9438
:104700006F16BE01695C7F4F85ED99E00E946914C8
:10471000CE01C7960E94B414CE0101960E94B41433
:10472000CE01C1960E94B414CE014F960E94B414DB
:10473000CE0149960E94B414CE0185960E94B4140D
:10474000CE018B960E94B414809148069091490640
:10475000049709F06EC081E02091590230915A020D
:10476000232B09F480E00E94270EAB01BC01CE018F
:10477000C1960E94C11A0E94B50A68EE73E00E94B9
:104780000A3ABC01CE0185960E941A180E94BF0AFF
:10479000BC01CE014F960E941A180E94C70ABC01A4
:1047A000CE0101960E941A18BE016F5F7F4FCE01A5
:1047B00049960E940916BE01615E7F4FCE0149965F
:1047C0000E945D15BE016B5D7F4F0E945D15BC01AF
:1047D000CE018B960E940916AE014F5C5F4FBE0161
:1047E000655D7F4FCE01C7960E946F16BE01695C62
:1047F0007F4F85ED99E00E946914CE01C7960E9413
:10480000B414CE018B960E94B414CE0149960E9436
:10481000B414CE0101960E94B414CE014F960E94AA
:10482000B414CE0185960E94B414CE01C1960E94A4
:10483000B4140E9401128CEB99E00E94E70A83EA0B
:1048400099E00E94E70A8AE899E00E94E70A8091CD
:10485000FE05811131C2109260068091BC099091D1
:10486000BD09181619063CF08091DB059091DC0516
:10487000019709F00AC381E08093D2051092DA060D
:104880001092D90644E650E060E070E088EE93E0D4
:104890000E940E040E9402076093FF0570930006B9
:1048A00080930106909302068091480690914906F4
:1048B00001968630910509F42CC2909349068093A5
:1048C000480620914806309149068901000F111FC2
:1048D000F801E35FFD4F808180936006D901119755
:1048E000FD01EE0FFF1FEC57FC4F608171816115D8
:1048F000710509F4BBC2AB0141505109FA01EE0F39
:10490000FF1FE45AFC4F0190F081E02DAE17BF0766
:1049100009F0ACC26230710509F000C288E1EEEB2B
:10492000F2E0DE01119601900D928A95E1F78091F7
:104930004D0290914E0283709927892B21F48DE1CD
:1049400090E09C838B8380914B0290914C02019765
:10495000880F991F21E030E02C0F3D1F820F931F1D
:104960002091490230914A02FC0180819181821795
:1049700093070CF0D3C18AE090E0909349068093AE
:104980004806EE960FB6F894DEBF0FBECDBFDF919E
:10499000CF911F910F91FF90EF90DF90CF90BF903C
:1049A000AF909F908F907F906F905F904F903F90CF
:1049B0002F90089581E08093740591CC83E0FBCF24
:1049C00085E0F9CF86E0F7CF88E0F5CF8AE0F3CF36
:1049D0008CE0F1CF8091080280937305B8CC809170
:1049E0006F008D7F80936F0000CD809170008D7F70
:1049F00080937000FACC8091E80681112BCD009154
:104A00007F0510918005F801EE0FFF1FE00FF11FE9
:104A1000DF01AA0FBB1FA85CBC4F8D919C916091D8
:104A2000040270910502680F791F7093050260936C
:104A30000402DF01AA0FBB1FA65CBC4FCD90DC9027
:104A40008091C8059091C905C80ED91ED092C9059C
:104A5000C092C805EE0FFF1FE45CFC4FE080F180C0
:104A60008091C6059091C705E80EF91EF092C70522
:104A7000E092C60589E00E94D405B60186E00E9456
:104A8000D405B70183E00E94D40580917D05909103
:104A90007E05019690937E0580937D058F3F91055D
:104AA00051F40F5F1F4F1093800500937F05109204
:104AB0007E0510927D0580917F0590918005069777
:104AC0000CF4C8CC1092800510927F05C3CC0197DE
:104AD00009F039CD84E090E0909349068093480630
:104AE00088E893E1A0E0B0E0809300029093010297
:104AF000A0930202B09303028091D0068111B5C643
:104B000082E090E090938205809381051CCD109205
:104B100082051092810537CD892B09F062C0CE0144
:104B2000C1960E94C8190E94B50A68EE73E00E94FF
:104B30000A3ABC01CE0185960E941A180E94BF0A4B
:104B4000BC01CE014F960E941A180E94C70ABC01F0
:104B5000CE0101960E941A18BE016F5F7F4FCE01F1
:104B600049960E940916BE01615E7F4FCE014996AB
:104B70000E945D15BE016B5D7F4F0E945D15BC01FB
:104B8000CE018B960E940916AE014F5C5F4FBE01AD
:104B9000655D7F4FCE01C7960E946F16BE01695CAE
:104BA0007F4F85ED99E00E946914CE01C7960E945F
:104BB000B414CE018B960E94B414CE0149960E9483
:104BC000B414CE0101960E94B414CE014F960E94F7
:104BD000B414CE0185960E94B414CE01C1960E94F1
:104BE000B4148091480690914906019709F021CEAE
:104BF0000E94B50A68EE73E00E940A3ABC01CE0139
:104C00008B960E941A180E94BF0ABC01CE0185969D
:104C10000E941A180E94C70ABC01CE0149960E9440
:104C20001A18BE01675E7F4FCE014F960E9409168B
:104C3000BE016B5D7F4FCE014F960E945D15BE0198
:104C4000655D7F4F0E945D15BC01CE01C1960E943B
:104C50000916CE0101960E94C819AE014F5C5F4F44
:104C6000BE016F5F7F4FCE01C7960E946F16BE01D7
:104C7000695C7F4F85ED99E00E946914CE01C7966B
:104C80000E94B414CE0101960E94B414CE01C196C4
:104C90000E94B414CE014F960E94B414CE014996DE
:104CA0000E94B414CE0185960E94B414CE018B9656
:104CB000BECD10921906BDCD0E9402070091FF05DE
:104CC000109100062091010630910206601B710BC5
:104CD000820B930B61367A4E8105910508F4BDCDA8
:104CE0001092FE05E0914806F0914906EE0FFF1F75
:104CF000E455FC4F8081918190934906809348064A
:104D0000880F991FFC01E35FFD4F8081809360064F
:104D1000A4CD1092490610924806D3CD1092FE05FC
:104D20005093490640934806452BB9F40E94B50AB2
:104D30007C010E94BF0A8C010E94C70A4091450273
:104D40005091460260914302709144029C0180910F
:104D50004102909142020E949109809148069091EF
:104D600049060197F9F4E0904D02F0904E0200914F
:104D70004B0210914C028090490290904A020E948E
:104D8000CF0A5C010E94D70A6C010E94DF0A9401DD
:104D9000A501B6010E949109609147028DE090E063
:104DA0000E94D31C80914806909149060297C1F455
:104DB00060914F0282E090E00E94D31C609151020A
:104DC00083E090E00E94D31C6091530284E090E065
:104DD0000E94D31C6091550286E090E00E94D31C93
:104DE0008091480690914906039731F460915702EB
:104DF00081E090E00E94D31C809148069091490682
:104E0000049731F4609159028BE090E00E94D31C2A
:104E10008091480690914906059749F460915B029C
:104E200080918302681B8CE090E00E94D31C0E945A
:104E3000B50A5C010E94BF0A082F0E94C70AD82E3B
:104E40000E94CF0AF82E0E94D70A182F0E94DF0A6C
:104E5000382FC50168EE73E00E940A3AE82E2D2D26
:104E60004F2D612F832F0E942E0D8BCD23313105C5
:104E700061F0295031092230310538F00E941717AE
:104E8000F801EB5CFD4F918380838091BC09909188
:104E9000BD0997FD07C08091DB059091DC05019667
:104EA00009F0F4C044E650E060E070E088EE93E082
:104EB0000E940E048091FE05811152C000914806A7
:104EC000109149060E9402076093FF057093000647
:104ED0008093010690930206012B09F041C00E94C5
:104EE000CF0ABC01CE0185960E941A180E94D70AEB
:104EF000BC01CE014F960E941A180E94DF0ABC0125
:104F0000CE0101960E941A18BE016F5F7F4FCE013D
:104F100049960E940916BE01615E7F4FCE014996F7
:104F20000E945D15BE016B5D7F4F0E945D156CE4B4
:104F300074E00E944715BC0185ED99E00E94F215CE
:104F4000CE0149960E94B414CE0101960E94B41479
:104F5000CE014F960E94B414CE0185960E94B414DF
:104F60008091480690914906019709F056C00E9429
:104F7000C70A90934A02809349020E94BF0A909305
:104F80004C0280934B020E94B50ABC0190934E02E2
:104F900080934D028091470290914802892B09F03D
:104FA0009BC1CE0185960E941A1860914B027091A8
:104FB0004C02CE014F960E941A18609149027091DE
:104FC0004A02CE0101960E941A18BE016F5F7F4F00
:104FD000CE0149960E940916BE01615E7F4FCE0147
:104FE00049960E945D15BE016B5D7F4F0E945D1565
:104FF000BC0185ED99E00E94F215CE0149960E9410
:10500000B414CE0101960E94B414CE014F960E94B2
:10501000B414CE0185960E94B414E0914806F09134
:105020004906EE0FFF1FE455FC4F2081318130937C
:105030004906209348062D30310549F481E090E07F
:10504000909356028093550280E880935006809199
:10505000FE0591E089278093FE058901000F111F4D
:10506000F801E35FFD4F808180936006A901425102
:1050700051094230510550F02930310539F00E9474
:105080001717F801EB5CFD4F918380838091A30992
:105090009091A409009709F030C18091D9059091B1
:1050A000DA050197E1F481E08093D2051092DA06E7
:1050B0001092D90644E650E060E070E088EE93E09C
:1050C0000E940E040E9474198091FE05811107C090
:1050D0001092E80660E087E090E00E94D31C809187
:1050E000D0059091D105019609F010C18091A509D4
:1050F000882309F40BC1109262068091FE05882373
:10510000F9F00E9402070091CC051091CD05209185
:10511000CE053091CF05601B710B820B930B673965
:1051200071058105910560F00E9402076093CC052E
:105130007093CD058093CE059093CF050E9474198E
:1051400080918A0990918B09009709F0E3C08091C2
:10515000D7059091D805019771F511E01093D2050C
:105160001092DA061092D90644E650E060E070E052
:1051700088EE93E00E940E040E9415198091FE05AE
:10518000811119C01093E80661E087E090E00E9469
:10519000D31C6091040288E090E00E94D31C6091CF
:1051A000C80589E090E00E94D31C6091C6058AE0A2
:1051B00090E00E94D31C8091CA059091CB05019686
:1051C00009F0B1C080918C09882309F4ACC08091AA
:1051D000FE0510926106882321F10E9402070091CA
:1051E000C2051091C3052091C4053091C505601B0F
:1051F000710B820B930B673971058105910508F4DA
:1052000049C00E9402076093C2057093C305809352
:10521000C4059093C5050E9415198091FE05811162
:1052200039C08091A3099091A40997FD06C080918F
:10523000D9059091DA05019691F444E650E060E0DA
:1052400070E088EE93E00E940E0481E080930C02EF
:1052500061E090E080E00E94D31C0E94D71C809106
:105260008A0990918B0997FD06C08091D70590918E
:10527000D805019679F444E650E060E070E088EEED
:1052800093E00E940E0410920C0260E090E080E037
:105290000E94D31CE0914806F0914906E431F105E3
:1052A00008F06FCB8827E85AF64D8F4F0C945F3A81
:1052B0009729D629CB2A172B422B862BC124C12410
:1052C000C124B52BDD2BDD2BDD2BC124C124C12452
:1052D000C124C124422B862BCE0185960E941A1828
:1052E0006091490270914A02CE014F960E941A18AD
:1052F00060914B0270914C0264CE9093D1058093E3
:10530000D005181619060CF4CECEC7CE81E08093D6
:10531000620616CF9093CB058093CA05181619061E
:105320000CF41BCF14CF81E08093610676CF80917F
:10533000190681112CC00E94020700919B05109153
:105340009C0520919D0530919E05601B710B820B81
:10535000930B633371058105910508F10E940207E3
:1053600060939B0570939C0580939D0590939E058B
:10537000CE0101960E94C819BE016F5F7F4F85ED77
:1053800099E00E946914CE0101960E94B4140E9413
:10539000CF0A80FD72C180EC8093500670C165ED2C
:1053A00079E0CE0101960E940916E6CF8091190698
:1053B0008111DEC08091BA05811111C00E940207DF
:1053C00067517C4F8F4F9F4F6093B6057093B70521
:1053D0008093B8059093B90581E08093BA058091D8
:1053E000AE05811144C00E94B50A68EE73E00E94C8
:1053F0000A3ABC01CE0101960E941A180E94BF0A07
:10540000BC01CE0149960E941A180E94C70ABC012D
:10541000CE0185960E941A18BE016B5D7F4FCE01AA
:105420004F960E940916BE01675E7F4FCE014F96D0
:105430000E945D15BE016F5F7F4F0E945D15BC012C
:1054400088EA95E00E94091681E08093AE05CE01BE
:105450004F960E94B414CE0185960E94B414CE01DA
:1054600049960E94B414CE0101960E94B414009192
:105470004702109148028091A005811105C0009358
:105480009F0581E08093A0050E940207C090B605A9
:10549000D090B705E090B805F090B9056C197D097A
:1054A0008E099F09693E73408105910530F4809112
:1054B0009F058017110609F44AC00E9402076093F5
:1054C000B6057093B7058093B8059093B905012B85
:1054D00009F050C00E94B50ABC01CE0101960E949D
:1054E0001A180E94BF0ABC01CE0149960E941A18E0
:1054F0000E94C70ABC01CE0185960E941A18BE01FF
:105500006B5D7F4FCE014F960E940916BE01675E0C
:105510007F4FCE014F960E945D15BE016F5F7F4F9A
:105520000E945D15BC0188EA95E00E94F215CE014B
:105530004F960E94B414CE0185960E94B414CE01F9
:1055400049960E94B414CE0101960E94B41468EAF0
:1055500075E0CE0101960E940916BE016F5F7F4F74
:1055600085ED99E00E946914CE0101960E94B41461
:1055700080E412CF0E94B50ABC01CE0101960E94C0
:105580001A180E94C70ABC01CE0149960E941A1837
:105590000E94BF0AAFCF6091530270915402CE01B6
:1055A00085960E941A186091510270915202CE01A4
:1055B0004F960E941A1860914F0270915002CE01CE
:1055C00001960E941A18BE016F5F7F4FCE01499667
:1055D0000E940916BE01615E7F4FCE0149960E946E
:1055E0005D15BE016B5D7F4F0E945D156CE474E03C
:1055F0000E944715BC0185ED99E00E94F215CE018D
:1056000049960E94B414CE0101960E94B414CE01B2
:105610004F960E94B414CE0185960E94B4148091D6
:10562000550290915602019741F580E8B5CE609100
:10563000570270915802CE0149960E94C6156CE43B
:1056400074E0CE0101960E941216BE01675E7F4F84
:10565000CE0101960E945D156AE474E00E94471530
:10566000BC0185ED99E00E94F215CE0101960E94E1
:10567000B414CE0149960E94B414109250060E94B0
:10568000F40E7FC980911906811124C081E0209118
:10569000590230915A02232B09F480E00E94270E10
:1056A000AB01BC01CE0101960E94C11ABE016F5F21
:1056B0007F4F85ED99E00E946914CE0101960E940A
:1056C000B4148091590290915A02892BD1F480E44C
:1056D0008093500681E02091590230915A02232B89
:1056E00009F480E00E94270E1091500620E030E07F
:1056F000A9010E94F23787FF07C010681093500677
:1057000040C910925006E6CF1F77F8CF60915B0238
:1057100070915C02CE0101960E941A18BE016F5F63
:105720007F4FCE0149960E94091668E474E0CE01CD
:1057300049960E944715BC0185ED99E00E94F2153B
:10574000CE0149960E94B414CE0101960E94B41471
:1057500080915B0290915C0297FD03C0109250060D
:1057600010C980E8809350060CC98091470290913F
:105770004802892B99F46DE274E085ED99E00E946E
:10578000BC1583E090E090932202809321028CE08C
:1057900090E09093240280932302F3C866E374E0C0
:1057A00085ED99E00E94BC158CE090E09093220278
:1057B0008093210283E090E0ECCF60914D027091E4
:1057C0004E028091470290914802892BE9F5CE0163
:1057D00085960E946C1760914B0270914C02CE012D
:1057E0004F960E941A186091490270914A02CE01A8
:1057F00001960E941A18BE016F5F7F4FCE01499635
:105800000E940916BE01615E7F4FCE0149960E943B
:105810005D15BE016B5D7F4F0E945D15BC0185ED7E
:1058200099E00E94F215CE0149960E94B414CE016F
:1058300001960E94B414CE014F960E94B414CE017A
:1058400085960E94B4149DC8CE0185960E946C175F
:105850006091490270914A02CE014F960E941A1837
:1058600060914B0270914C02C2CF81E090E00C94A9
:10587000BA221F920F920FB60F9211242F933F93CB
:105880008F939F93AF93BF938091EA069091EB061D
:10589000A091EC06B091ED063091E90623E0230FCC
:1058A0002D3758F50196A11DB11D2093E90680936F
:1058B000EA069093EB06A093EC06B093ED06809178
:1058C000EE069091EF06A091F006B091F1060196D8
:1058D000A11DB11D8093EE069093EF06A093F006F4
:1058E000B093F106BF91AF919F918F913F912F910E
:1058F0000F900FBE0F901F90189526E8230F029669
:10590000A11DB11DD2CF1F920F920FB60F9211247D
:105910000BB60F922F933F934F935F936F937F93A9
:105920008F939F93AF93BF93EF93FF9382E797E09B
:105930000E948F07FF91EF91BF91AF919F918F913F
:105940007F916F915F914F913F912F910F900BBE7F
:105950000F900FBE0F901F9018951F920F920FB6C9
:105960000F9211240BB60F922F938F939F93EF9367
:10597000FF93E0918207F09183078081E09188078F
:10598000F091890782FD1DC0908180918B078F5F08
:105990008F7320918C07821741F0E0918B07F0E024
:1059A000EE58F84F958F80938B07FF91EF919F9161
:1059B0008F912F910F900BBE0F900FBE0F901F90E5
:1059C00018958081F2CF1F920F920FB60F9211247B
:1059D0000BB60F922F933F934F935F936F937F93E9
:1059E0008F939F93AF93BF93EF93FF938FE098E0D4
:1059F0000E948F07FF91EF91BF91AF919F918F917F
:105A00007F916F915F914F913F912F910F900BBEBE
:105A10000F900FBE0F901F9018951F920F920FB608
:105A20000F9211240BB60F922F938F939F93EF93A6
:105A3000FF93E0911F08F09120088081E0912508F4
:105A4000F091260882FD1DC09081809128088F5F0B
:105A50008F7320912908821741F0E0912808F0E027
:105A6000E15FF74F958F80932808FF91EF919F9109
:105A70008F912F910F900BBE0F900FBE0F901F9024
:105A800018958081F2CF1F920F920FB60F921124BA
:105A90000BB60F922F933F934F935F936F937F9328
:105AA0008F939F93AF93BF93EF93FF938091B90828
:105AB0000E947B032091BD083091BE082F5F3F4FAD
:105AC0003093BE082093BD089091BC08953618F01D
:105AD00096E09093B8089091B808943009F466C0A5
