:100000000C94A3000C94CB000C94CB000C94CB006C
:100010000C94CB000C94CB000C94CB000C94DF25FB
:100020000C94CB000C94CB000C94CB000C942E269B
:100030000C94CB000C94CB000C9489260C94CB0030
:100040000C943D250C94CB000C94AD250C94872585
:100050000C94CB000C94CB000C94CB000C94CB00F4
:100060000C94E4260C94CB00496E636F7272656346
:100070007420536F6E6720466F726D6174210002A9
:10008000010053746F7020546573740054656D7073
:100090002E2073656E736F72206E6F7420666F759D
:1000A0006E642E0053746172742054657374004E34
:1000B00043533331322D3820485635313232206F98
:1000C0007220485635323232004669726D7761725D
:1000D000652076657273696F6E3A20004661756CB3
:1000E00074792052544321000000000024002700AE
:1000F0002A0000000000250028002B000000000856
:1001000000020100000304070000000000000000DE
:100110000000000023002600290004040404040455
:1001200004040202020202020303030303030102A6
:100130000408102040800102040810200102040875
:1001400010203C28242E11241FBECFEFD8E0DEBFA4
:10015000CDBF27E0A8E0B4E001C01D92A030B207F7
:10016000E1F714E0A0E0B1E0E8EEF6E602C00590A9
:100170000D92A830B107D9F710E0C2EAD0E004C070
:100180002197FE010E945331C13AD107C9F70E945D
:10019000C7280C9467330C9400008CBD9DBD089556
:1001A0008091E806E091E906F091EA06F8949181E1
:1001B000982B91832281382F309523232283A7E027
:1001C000B0E01197F1F7918193239183A3E2B0E01E
:1001D0001197F1F790817894EFECF0E03197F1F717
:1001E000982381E009F480E008959091E806E09179
:1001F000E906F091EA06292F209580FF14C0F894B3
:100200008281822382838181892B8183A3E2B0E072
:100210001197F1F78281982B9283789487ED90E083
:100220000197F1F70895F894828182238283818176
:10023000892B8183AFEFB0E01197F1F78281982B82
:10024000928378948FE090E0EBCF0F931F93CF933E
:10025000DF93082FC8E0D0E011E081E0902F9123D8
:1002600009F480E00E94F500110F2197B1F7F8948E
:10027000E091E906F091EA0691818091E806809587
:1002800098239183E091E906F091EA06928189230F
:1002900082837894DF91CF911F910F91089580917F
:1002A000E806E091E906F091EA06F8949181282F9A
:1002B00020959223918378943DE743E050E03150BC
:1002C00029F1DA011197F1F790819823C1F3F8949D
:1002D0009281922392839181982B91837894ABE7BA
:1002E000B7E01197F1F7F894918192239183A3E1FC
:1002F000B1E01197F1F79081982381E009F080E057
:100300007894E3E6F6E03197F1F7089580E00895F8
:1003100091E09093BC058093DE051092BD0510928C
:10032000DF050895833081F028F4813099F0823020
:10033000A9F008958730A9F08830C9F08430B1F46D
:10034000809180008F7D03C0809180008F778093A3
:100350008000089584B58F7784BD089584B58F7D1E
:10036000FBCF8091B0008F778093B000089580918B
:10037000B0008F7DF9CFCF93DF93282F30E0F901C4
:10038000E450FF4F8491F901E25DFE4FD491F901F1
:10039000E65EFE4FC491CC23A1F081110E94920130
:1003A000EC2FF0E0EE0FFF1FE05FFE4FA591B49140
:1003B000EC91ED2381E090E009F480E0DF91CF91B2
:1003C000089580E090E0FACF1F93CF93DF93282F1A
:1003D00030E0F901E450FF4F8491F901E25DFE4FF6
:1003E000D491F901E65EFE4FC491CC23A9F0162FFB
:1003F00081110E949201EC2FF0E0EE0FFF1FEE50F2
:10040000FF4FA591B4918FB7F894EC91111108C0EA
:10041000D095DE23DC938FBFDF91CF911F9108959C
:10042000DE2BF8CFCF93DF9390E0FC01E25DFE4F2F
:100430002491865E9E4FFC0184918823C9F090E050
:10044000880F991FFC01E851FF4FA591B491FC0161
:10045000EE50FF4FC591D49161110DC09FB7F89434
:100460008C91209582238C938881282328839FBF99
:10047000DF91CF910895623051F49FB7F8943C9189
:10048000822F809583238C93E8812E2BEFCF8FB71B
:10049000F894EC912E2B2C938FBFEACF4F925F9262
:1004A0006F927F928F929F92AF92BF92CF92DF9284
:1004B000EF92FF920F931F93CF93DF9300D000D062
:1004C0001F92CDB7DEB72091ED0527FD2CC14983E2
:1004D0005A836B837C838C0161E08091EC050E94E0
:1004E00012028091ED058D834801B12CA12C8D7FE6
:1004F00009F031C160E072E18AE790E0A50198015E
:100500000E94343129013A017A01690191E0C91A46
:10051000D108E108F108AFEFCA16D104E104F104F3
:1005200009F00CF4C7C060E472E48FE090E0A5012C
:1005300098010E94343169017A01B1E0CB1AD108E7
:10054000E108F1088D81823009F06AC082E09FEFF6
:10055000C916D104E104F10409F00CF45EC160E9AC
:1005600070ED83E090E0A50198010E9434316901AB
:100570007A01A1E0CA1AD108E108F10883E0BFEFCF
:10058000CB16D104E104F10409F00CF446C168E48F
:1005900078EE81E090E0A50198010E943431690174
:1005A0007A0181E0C81AD108E108F10884E09FEFE0
:1005B000C916D104E104F10409F00CF42EC164E27F
:1005C00074EF80E090E0A50194010E94343169014C
:1005D0007A01B1E0CB1AD108E108F10885E09FEF7C
:1005E000C916D104E104F10409F008F416C162E16E
:1005F0007AE780E090E0A50194010E94343169011E
:100600007A01B1E0CB1AD108E108F1088FEFC816E2
:10061000D104E104F10411F008F0F0C086E0FDC05F
:100620008FEFC816D104E104F10409F00CF491C075
:1006300068E478EE81E090E0A50198010E943431F1
:1006400069017A0191E0C91AD108E108F108AD8188
:1006500084E0A111C4CF83E0AFEFCA16D104E10456
:10066000F10461F15CF162E17AE780E090E0A501DC
:1006700094010E94343169017A0181E0C81AD108DD
:10068000E108F10884E09FEFC916D104E104F10408
:10069000A9F0A0F0730162019AE0F594E794D79471
:1006A000C7949A95D1F7A1E0CA1AD108E108F108D8
:1006B00085E004C081E0AD81A111AFC095B5987F00
:1006C000892B85BD89819A81AB81BC812FEF3FEF5A
:1006D000A901892B8A2B8B2B79F0D801AA0FBB1F7C
:1006E00029813A814B815C810E94F92F28EE33E009
:1006F00040E050E00E9412319D81913009F45CC0CD
:10070000923009F46BC091110EC0C7BC2093E8056C
:100710003093E9054093EA055093EB0580916E0014
:10072000826080936E000F900F900F900F900F904B
:10073000DF91CF911F910F91FF90EF90DF90CF90BD
:10074000BF90AF909F908F907F906F905F904F90F1
:10075000089582E0B0CF60E072E18AE790E0A50101
:1007600098010E94343169017A01B1E0CB1AD108B5
:10077000E108F10891E0C114D10481E0E806F10438
:1007800084F068E478EE81E090E0A50198010E9491
:10079000343169017A0191E0C91AD108E108F10800
:1007A00093E0AD81A13009F08DCF80918100887FE9
:1007B000892B8093810086CFD0928900C0928800D7
:1007C0002093E4053093E5054093E6055093E70553
:1007D00080916F00826080936F00A5CFC092B300BC
:1007E0002093E0053093E1054093E2055093E30543
:1007F0008091700082608093700095CF73016201D8
:100800008AE0F594E794D794C7948A95D1F7B1E03C
:10081000CB1AD108E108F10887E09091B100987FE8
:10082000892B8093B1004ECF1F93CF93DF93182F66
:10083000EB0161E00E941202209739F460E0812F01
:10084000DF91CF911F910C94E401CF3FD10511F4BA
:1008500061E0F5CFE12FF0E0E450FF4FE491E330A9
:1008600031F140F4E130B1F0E230E1F0C038D105CF
:100870007CF7E4CFE73029F1E83059F1E430B1F703
:1008800080918000806280938000D0938B00C09321
:100890008A0004C084B5806884BDC7BDDF91CF9154
:1008A0001F91089584B5806284BDC8BDF7CF809143
:1008B0008000806880938000D0938900C093880076
:1008C000EDCF8091B00080688093B000C093B300FA
:1008D000E5CF8091B00080628093B000C093B400F7
:1008E000DDCF3FB7F89480916A0590916B05A09198
:1008F0006C05B0916D0526B5A89B05C02F3F19F07A
:100900000196A11DB11D3FBFBA2FA92F982F88278F
:10091000BC01CD01620F711D811D911D42E0660F6A
:10092000771F881F991F4A95D1F708958F929F923C
:10093000AF92BF92CF92DF92EF92FF924B015C0198
:100940000E9471046B017C010E9471046C197D0985
:100950008E099F09683E734081059105A8F321E047
:10096000821A9108A108B10888EEC80E83E0D81E4B
:10097000E11CF11C81149104A104B10429F7FF903A
:10098000EF90DF90CF90BF90AF909F908F900895A1
:100990002FB7F8946091660570916705809168059E
:1009A000909169052FBF0895089508950895AF9215
:1009B000BF92CF92DF92EF92FF920F931F93CF934C
:1009C000DF936C017B018B01040F151FEB015E01AE
:1009D000AE18BF08C017D10759F06991D601ED9143
:1009E000FC910190F081E02DC6010995892B79F7E2
:1009F000C501DF91CF911F910F91FF90EF90DF9094
:100A0000CF90BF90AF90089542E050E068E173E06E
:100A10008EEE95E00C94D704FC01538D448D252F68
:100A200030E0842F90E0821B930B541710F0CF9688
:100A3000089501970895FC01918D828D981761F0BA
:100A4000A28DAE0FBF2FB11D5D968C91928D9F5FD1
:100A50009F73928F90E008958FEF9FEF0895FC01B0
:100A6000918D828D981731F0828DE80FF11D858D63
:100A700090E008958FEF9FEF0895FC01918D228DF6
:100A8000892F90E0805C9F4F821B91098F7399277B
:100A900008958EEE95E00E943D0521E0892B09F432
:100AA00020E0822F089580E090E0892B29F00E94B9
:100AB000490581110C9400000895FC01A48DA80F34
:100AC000B92FB11DA35ABF4F2C91848D90E0019690
:100AD0008F739927848FA689B7892C93A089B189B0
:100AE0008C91837080648C93938D848D981306C051
:100AF0000288F389E02D80818F7D80830895EF92B5
:100B0000FF920F931F93CF93DF93EC0181E0888FC7
:100B10009B8D8C8D98131AC0E889F989808185FF97
:100B200015C09FB7F894EE89FF896083E889F98939
:100B300080818370806480839FBF81E090E0DF913B
:100B4000CF911F910F91FF90EF900895F62E0B8D8E
:100B500010E00F5F1F4F0F731127E02E8C8D8E1149
:100B60000CC00FB607FCFACFE889F989808185FFB0
:100B7000F5CFCE010E945D05F1CFEB8DEC0FFD2F7F
:100B8000F11DE35AFF4FF0829FB7F8940B8FEA896B
:100B9000FB8980818062CFCF0F931F93CF93DF9328
:100BA0008C01D0E0C0E0F801EC0FFD1F64916623DA
:100BB00041F08EEE95E00E947F05892B11F0219681
:100BC000F2CFCE01DF91CF911F910F910895CF9376
:100BD000DF930E94CC05EC010E9404058C0F9D1F41
:100BE000DF91CF910895CF93DF93EC01888D882317
:100BF000B9F0AA89BB89E889F9898C9185FD03C080
:100C0000808186FD0DC00FB607FCF7CF8C9185FF64
:100C1000F2CF808185FFEDCFCE010E945D05E9CF47
:100C2000DF91CF91089560933105709332058093E1
:100C3000330590933405645D7E4F8F4F9F4F6093D3
:100C40002D0570932E0580932F059093300582E03B
:100C500090E090932C0580932B050E94C80460932C
:100C60002705709328058093290590932A050895F8
:100C70002F923F924F925F926F927F928F929F92AC
:100C8000AF92BF92CF92DF92EF92FF920F931F939A
:100C9000CF93DF93382E962E842E222E84E6E816EC
:100CA000F1040CF459C092EBE91A97E0F90AE092CA
:100CB0003B0500933A052092390530923705909212
:100CC000360580923505AE2DB0E020E833E341EEE5
:100CD00051E00E94F92F2B013C0122EB37E0FF2469
:100CE000E4E6F0E0C0E9D1E0C901825B97408E15EF
:100CF0009F05B4F19EE4E91A98EFF90AC70164E68A
:100D000070E00E94FE306C01C70160E971E00E9452
:100D1000FE305C01C8EED2E0E1E0F0E0112783E0B4
:100D2000E822FF24E017F1070CF042C0E230F105A1
:100D300091F5E114F10479F5C114D10419F4A11469
:100D4000B10449F580E8480E8BE3581E86E2681E20
:100D5000711C31962196E6CF8EE1E80EF11CA7CFEB
:100D6000C90183709927892B99F4C901BF010E9499
:100D7000FE30892B31F4C901BE010E94FE30892B5F
:100D800039F490E8490E91E5591E91E0691E711CF5
:100D90002F5F3F4FA9CFA881B0E020E831E541E0C7
:100DA00050E00E94F92F460E571E681E791ED1CFC3
:100DB000292D30E0ACE3B0E00E943B306B017C01B8
:100DC000C80CD11CE11CF11C232D30E0A0E1BEE0D9
:100DD0000E943B30C60ED71EE81EF91E822D8150A0
:100DE000990BDC0120E831E541E050E00E945931E7
:100DF0006C0D7D1D8E1D9F1D640D751D861D971D1F
:100E0000DF91CF911F910F91FF90EF90DF90CF90E6
:100E1000BF90AF909F908F907F906F905F904F901A
:100E20003F902F900C941306CF92DF92EF92FF9297
:100E30000F931F930E94C8048B019C01C09027054B
:100E4000D0902805E0902905F0902A0560913105A1
:100E50007091320580913305909134050C191D096C
:100E60002E093F09083E134021053105E0F0DC0161
:100E7000CB010196A11DB11D8093310590933205E0
:100E8000A0933305B0933405B701A60148515C4FD8
:100E90006F4F7F4F40932705509328056093290596
:100EA00070932A05C7CF1F910F91FF90EF90DF90AD
:100EB000CF9008954F925F926F927F928F929F9200
:100EC000AF92BF92CF92DF92EF92FF920F931F9358
:100ED000CF93DF934B015C01809123059091240512
:100EE000A0912505B091260588159905AA05BB0591
:100EF00009F4C6C08CE3C82ED12CE12CF12CC5011D
:100F0000A70196010E94123160933505CA01B9010B
:100F1000A70196010E94123160933605C501B40104
:100F200020E13EE040E050E00E941231CA01B901E8
:100F300028E130E040E050E00E9412316093370534
:100F4000C501B40120E831E541E050E00E941231D2
:100F500069017A01CA01B9016C5F7F4F8F4F9F4FC2
:100F600027E030E040E050E00E9412316F5F609374
:100F70003805412C512C320140E004E610E0C0E974
:100F8000D1E0242F30E02E54384FF901E370FF27D1
:100F90003097F9F4C901B8010E94FE30892B31F471
:100FA000C901BE010E94FE30892B99F48EE691E0C2
:100FB000A0E0B0E0480E591E6A1E7B1ED301C2019C
:100FC000AA27BB27C816D906EA06FB0638F04F5FEA
:100FD000D8CF8DE691E0A0E0B0E0ECCF40933B05A8
:100FE000C90164E670E00E94FE30EC01C90160E9CD
:100FF00071E00E94FE30309721F42097D9F40097D9
:10100000C9F04DE651E060E070E0441A550A660A06
:10101000770AC418D508E608F708A8EEB2E020E081
:10102000213069F43097E9F5209711F40097C9F55C
:101030004DE106C04EE651E060E070E0E6CF4C9135
:1010400050E070E060E031E0320FC416D506E606ED
:10105000F70640F0C41AD50AE60AF70A1196232FBC
:101060003C30F1F62F5F20933A05C394C0923905C6
:101070008092230590922405A0922505B092260522
:10108000DF91CF911F910F91FF90EF90DF90CF9064
:10109000BF90AF909F908F907F906F905F904F9098
:1010A00008954CE1CDCF0E9414070E945A07809109
:1010B0003B0590E08E54984F08950E9414070E94BB
:1010C0005A0780913A0590E008950E9414070E9403
:1010D0005A078091390590E008950E9414070E94F4
:1010E0005A078091350590E008950E9414070E94E8
:1010F0005A078091360590E008950E9414070E94D7
:101100005A078091370590E00895CF92DF92EF92D1
:10111000FF92CF93DF93EC010E94C8046B017C0126
:101120008F850E94BB019C0181E02115310509F4E6
:1011300080E0898B8889811105C091E0232B09F01B
:1011400090E0998B29898A89281721F0CD8ADE8A37
:10115000EF8AF88E8D899E89AF89B88DB701A60177
:10116000481B590B6A0B7B0BDB01CA01CB80DC806F
:10117000ED80FE80C816D906EA06FB0664F43A81C3
:10118000231749F02A83222349F04B895C894F5F5A
:101190005F4F5C8B4B8B3A81311117C0CF80D88465
:1011A000E984FA84C816D906EA06FB0634F48B896A
:1011B0009C89998388831C8A1B8A2A8BDF91CF9113
:1011C000FF90EF90DF90CF900895CB84DC84ED8486
:1011D000FE84C816D906EA06FB067CF78B899C8933
:1011E000919581959109E5CF20910005260F332730
:1011F000331F21323105ECF42091B605FC0190E05B
:1012000080E0243069F082E00895A09100052191EA
:10121000AC0140525B4FA40FB52FB11D2C9301962A
:10122000861798F380910005680F6093000580E0B1
:10123000089581E008951092B60581E08093B50588
:101240001092900561E082E10E94E40161E083E197
:101250000E94E401E9EBF0E080818E7F8083808151
:101260008D7F808388E48093B80085E48093BC0000
:101270000895CF93DF9391E09093DF048823B9F032
:10128000C091B800D091BA008091BC008A7B809355
:10129000BC0060E082E10E94E40160E083E10E9422
:1012A000E4010E941B09D093BA00C093B800DF91FB
:1012B000CF910895CF92DF92EF92FF920F931F93F9
:1012C000CF93DF93D091DF0581E0D13208F09CC04D
:1012D000C091DE050E9471046B017C018091B6050E
:1012E00081116CC082E08093B60581E08093B505E2
:1012F0008FEF8093B4051092B305D093B205AEEB97
:10130000B5E0E2E9F5E080E0D8138DC010929105D8
:1013100080919105CC0FC82BC093910580919005C9
:10132000813009F084C0109290050E9471046B0115
:101330007C01809191058093BB008091B8059091CC
:10134000B905A091BA05B091BB05892B8A2B8B2BCF
:10135000A1F00E9471040091B8051091B905209187
:10136000BA053091BB056C197D098E099F090617D6
:1013700017072807390708F442C08091BC0083FD95
:10138000D8CF85EC8093BC000E9471046B017C0176
:101390008091B605823009F44CC08091B4058F3F2E
:1013A00009F469C08091B405803209F466C0809167
:1013B000B405803309F463C084E026C08091B80589
:1013C0009091B905A091BA05B091BB05892B8A2BE4
:1013D0008B2B09F483CF0E9471040091B805109102
:1013E000B9052091BA053091BB056C197D098E09AC
:1013F0009F09061717072807390708F06FCF809154
:10140000B7050E94390985E01092BD051092DF05ED
:101410001092BC05DF91CF911F910F91FF90EF903B
:10142000DF90CF9008959D9191938F5F6DCF85EE62
:10143000A9CF8091B8059091B905A091BA05B09156
:10144000BB05892B8A2B8B2B09F4A2CF0E94710438
:101450000091B8051091B9052091BA053091BB05EE
:101460006C197D098E099F09061717072807390788
:1014700008F08ECFC4CF80E0C7CF82E0C5CF83E035
:10148000C3CF0895E0916F0580916E05E81730F4A1
:10149000F0E0E059FA4F808190E008958FEF9FEFE0
:1014A000089590916F0580916E052FEF3FEF98178B
:1014B00048F4E92FF0E0E059FA4F208130E09F5FD7
:1014C00090936F05C901089580916E0590916F0505
:1014D000891B990B0895CF92DF92EF92FF920F93A1
:1014E0001F93CF93DF937C01CB018A012091BC0530
:1014F000222389F0EB016B01C40ED51ECC15DD054E
:1015000069F06991D701ED91FC910190F081E02D96
:10151000C7010995F3CF642F0E94F408C801DF9139
:10152000CF911F910F91FF90EF90DF90CF90089592
:10153000CF93DF931F92CDB7DEB769832091BC05AF
:101540002223F9F02091DF05203258F021E030E02D
:10155000FC013383228390E080E00F90DF91CF91F4
:1015600008958091BD05E82FF0E0E254FA4F99818B
:1015700090838F5F8093BD058093DF0581E090E0CD
:10158000ECCF61E0CE0101960E94F408F7CF682FFE
:101590008BE896E00C94980A90E080E00895CF9252
:1015A000DF92EF92FF920F931F93CF93DF9390916F
:1015B000DE0491110BC08FEF9FEFDF91CF911F9150
:1015C0000F91FF90EF90DF90CF9008959091DD0400
:1015D000992389F3082FC091DC04D0E08091D404D2
:1015E00081110DC00E94C8046093D0047093D1048F
:1015F0008093D2049093D30481E08093D4040E941A
:10160000C804C090D004D090D104E090D204F090EF
:10161000D3046C197D098E099F096D3271408105D3
:101620009105B0F01091CF040E94C8046093D004DB
:101630007093D1048093D2049093D30491E09127C6
:101640009093CF04992331F11092CE041092CD04DF
:101650002091CD043091CE04209530958091CC041A
:10166000282326FF1CC081E08093CB0427FF1AC0EB
:1016700081E08093CA048091CF04882309F49BCF32
:1016800002C0D595C7950A95E2F7C0FF94CF80E0D8
:101690009CE393CFD093CE04C093CD04D9CF1092C6
:1016A000CB04E4CF1092CA04E6CFEF92FF920F93DF
:1016B0001F93CF93DF93182F8091A20481110DC047
:1016C0000E94C80460939E0470939F048093A004BA
:1016D0009093A10481E08093A204C0919C04D091D6
:1016E0009D04C930D10508F075C0FE01E658F44FDD
:1016F0000C945331830B8F0B930BA10B830B8F0B2C
:10170000C60BC80BD90B0E944F012196CA30D105D8
:1017100009F091C010929D0410929C0428C08CEC9A
:101720000E942501F2CF84E40E9425010E94C80492
:1017300060939E0470939F048093A0049093A104EF
:10174000E4CF0E94C80400919E0410919F04209150
:10175000A0043091A104601B710B820B930BC4E0B9
:10176000D0E06E3E72408105910508F064C0609142
:1017700098047091990480919A0490919B04DF9150
:10178000CF911F910F91FF90EF9008958EEBC8CFEE
:1017900098E0E92EF12C10E001E00E94D0008111C8
:1017A000102B000F81E0E81AF108B9F710939604A6
:1017B000ACCF88E0E82EF12C10E001E00E94D000D0
:1017C0008111102B000F21E0E21AF108B9F71093F4
:1017D00097049BCFC930D10509F097CF609196044B
:1017E000709197046F3F760711F470E060E0072E68
:1017F000000C880B990B0E94C62E20E030E040E8D8
:101800005DE30E94252F111109C060939804709325
:10181000990480939A0490939B0477CF26E636E64A
:1018200046EE5FE30E94252F20E030E040E052E4E6
:101830000E944B30EACFD0939D04C0939C0497CF75
:101840000F931F938091560190915701892B09F4B2
:1018500049C0809183048823A9F00E94C8040091A4
:101860007F04109180042091810430918204601BD8
:10187000710B820B930B693E73408105910590F1CA
:10188000109283040E947D082091500130915101F3
:101890008217930739F50E94750820915201309103
:1018A000530182179307F1F40E946D0820915401AF
:1018B0003091550182179307A9F40E94C8046093E0
:1018C0007F0470938004809381049093820481E06C
:1018D0008093830480910B0190910C0190935605A5
:1018E000809355051F910F910895CF93DF93EC01DD
:1018F0002196FC0120812A33C9F42181243609F57F
:10190000229630E020E06AE0899190ED980F9A30BD
:1019100078F4629FA001639F500D1124082E000CE3
:10192000990BC0979A01280F391FEECFCE01DFCF58
:1019300030937904209378042115310511F0209318
:10194000090188818F3689F48A81082E000C990B51
:101950009C01205331093093790420937804C39774
:10196000059710F420930801249688818236F1F4BB
:10197000229630E020E06AE0899190ED980F9A304D
:1019800068F4629FA001639F500D1124082E000C83
:10199000990BC0979A01280F391FEECF3093790425
:1019A00020937804309307012093060120910601CB
:1019B00030910701032E000C440B550B60E67AEEC4
:1019C00080E090E00E94343182E0220F331F441FF8
:1019D000551F8A95D1F72093740430937504409372
:1019E000760450937704CE01DF91CF9108958EBD98
:1019F00000000DB407FEFDCF8EB508958F929F9223
:101A0000AF92BF92CF92DF92EF92FF920F931F930C
:101A1000CF93DF937C01D62F0E9471044B015C01B0
:101A20008091B605811167C0CD2F81E08093B60506
:101A30008093B5059FEF9093B4051092B3059D0F69
:101A40009093B2058093910580919105EE0CFF1C57
:101A50008E298093910580919005813009F083C093
:101A6000109290050E9471046B017C018091910598
:101A70008093BB008091B8059091B905A091BA05FB
:101A8000B091BB05892B8A2B8B2BA1F00E9471048E
:101A90008090B8059090B905A090BA05B090BB05AC
:101AA0006C197D098E099F0986169706A806B90646
:101AB00008F442C08091BC0083FDD8CF85EC8093B0
:101AC000BC000E9471046B017C018091B6058130DD
:101AD00009F44BC08091B3058D1710F4C091B30584
:101AE000E2E9F5E0A0E7B5E080E08C1751F19191D3
:101AF0009D938F5FFACF8091B8059091B905A09121
:101B0000BA05B091BB05892B8A2B8B2B09F488CFA2
:101B10000E9471040091B8051091B9052091BA0591
:101B20003091BB05681979098A099B0906171707BF
:101B30002807390708F074CF8091B7050E9439094A
:101B4000C0E010926F05C0936E058C2FDF91CF918E
:101B50001F910F91FF90EF90DF90CF90BF90AF90CB
:101B60009F908F90089585EEAACF8091B8059091AF
:101B7000B905A091BA05B091BB05892B8A2B8B2B97
:101B800009F4A3CF0E9471048090B8059090B90524
:101B9000A090BA05B090BB056C197D098E099F090C
:101BA00086169706A806B90608F08FCFC5CFCF9343
:101BB000C0910A018C2F0E94880160E08BE896E0BA
:101BC0000E94980A0E945A0967E070E08C2F90E00A
:101BD0000E94FE0C8BE896E00E94510A982F929585
:101BE0009F70CAE08F709C9F800D112490E09093AD
:101BF0006305809362058BE896E00E94510A982F56
:101C000092959F708F709C9F800D112490E090930F
:101C10005A05809359058BE896E00E94510A982F47
:101C2000929593708F709C9F800D112490E09093FB
:101C30005805809357058BE896E00E94510A8BE87F
:101C400096E00E94510A982F92959F708F709C9FEA
:101C5000800D112490E090935C0580935B058BE8E8
:101C600096E00E94510A982F92959F708F709C9FCA
:101C7000800D112490E090935E0580935D058BE8C4
:101C800096E00E94510A982F92959F708F709C9FAA
:101C9000800D112490E08053984F909360058093BD
:101CA0005F05CF910895FC0180819181009711F02B
:101CB0000C942C2E60E070E0CB0108954F925F925F
:101CC0006F927F928F929F92AF92BF92CF92DF924C
:101CD000EF92FF92CF93DF93CDB7DEB72D970FB67C
:101CE000F894DEBF0FBECDBF0E947104C090C60441
:101CF000D090C704E090C804F090C9046C197D0925
:101D00008E099F096A3171448105910508F429C241
:101D10000E9471046093C6047093C7048093C80442
:101D20009093C90482EE96E00E94530E69837A83F1
:101D30008B839C8360E08AE00E94E401FAE0CF2E6E
:101D4000D12CE12CF12C69817A818B819C81A701B6
:101D500096010E94343149015A01660F771F6C5277
:101D60007D4FDB014D905C9087E090E00E94CF0AB0
:101D70003C01C501B401A70196010E943431660FF0
:101D8000771F6C527D4FFB01E080F18086E090E090
:101D90000E94CF0A46205720712C612C2AE0440C67
:101DA000551C661C771C2A95D1F78E219F21B0E027
:101DB000A0E0482A592A6A2A7B2A69817A818B8184
:101DC0009C8124E630E040E050E00E94343169011B
:101DD0007A018091CB04882311F0689477F8809180
:101DE000CA04882311F0689476F88091C404909115
:101DF000C504019711F4FFE37F2220914B052D8745
:101E0000872D9927AA27BB278D839E83AF83B88709
:101E10004301AA24BB24BB27A72D962D852D898796
:101E20009A87AB87BC87222309F46EC1842D0E9458
:101E3000F70C89850E94F70C882D0E94F70C8D8184
:101E40000E94F70C8AE0882E912CA12CB12CC7019E
:101E5000B601A50194010E943431660F771F6C52C0
:101E60007D4FDB01CD90DC9085E090E00E94CF0AB1
:101E70007C0169817A818B819C8128EE33E040E08E
:101E800050E00E943431CA01B901A50194010E94B9
:101E90003431660F771F6C527D4FFB01608071807B
:101EA00084E090E00E94CF0ACE20DF20F12CE12CCC
:101EB00034E1CC0CDD1CEE1CFF1C3A95D1F78621D9
:101EC0009721B0E0A0E04AE0880F991FAA1FBB1F2E
:101ED0004A95D1F7C82AD92AEA2AFB2A69817A8148
:101EE0008B819C8120E137E240E050E00E94343158
:101EF000CA01B901A50194010E943431660F771F10
:101F00006C527D4FDB01AD90BC9083E090E00E946D
:101F1000CF0A8A219B21B0E0A0E0C82AD92AEA2A68
:101F2000FB2A69817A818B819C8120EA36E841E035
:101F300050E00E94343129013A018091CB0488237A
:101F400009F4EDC06894F7F88091CA04882309F475
:101F5000E9C06894F6F88F2D9927AA27BB278D83AF
:101F60009E83AF83B8874701AA24BB24BB27AF2D2C
:101F70009E2D8D2D89879A87AB87BC879D85992358
:101F800009F4D3C08C2D0E94F70C89850E94F70CB0
:101F9000882D0E94F70C8D810E94F70C3AE0832E69
:101FA000912CA12CB12CC301B201A50194010E9476
:101FB0003431660F771F6C527D4FDB01CD90DC9082
:101FC00082E090E00E94CF0A7C0169817A818B8156
:101FD0009C8120E432E44FE050E00E943431CA0199
:101FE000B901A50194010E943431660F771F6C522C
:101FF0007D4FFB016080718081E090E00E94CF0AFC
:10200000CE20DF20F12CE12C64E1CC0CDD1CEE1C99
:10201000FF1C6A95D1F786219721B0E0A0E07AE015
:10202000880F991FAA1FBB1F7A95D1F7C82AD92AF2
:10203000EA2AFB2A69817A818B819C8120E836E932
:1020400048E950E00E943431CA01B901A501940168
:102050000E943431660F771F6C527D4FDB01AD90CB
:10206000BC9090E080E00E94CF0A8A219B21B0E0E2
:10207000A0E08C299D29AE29BF292091CB046C01B9
:102080007D01222309F45CC06894F7F88091CA04AA
:10209000882309F458C06894F6F84F2C5524662418
:1020A00077244701AA24BB24BB27AF2D9E2D8D2D5D
:1020B00089839A83AB83BC839D85992309F446C0A9
:1020C0008C2D0E94F70C89810E94F70C882D0E94AC
:1020D000F70C842D0E94F70C61E08AE02D960FB674
:1020E000F894DEBF0FBECDBFDF91CF91FF90EF9090
:1020F000DF90CF90BF90AF909F908F907F906F9028
:102100005F904F900C94E4018D810E94F70C882D14
:102110000E94F70C89850E94F70C842D91CEE894DB
:10212000F7F812CFE894F6F816CF8D810E94F70CDD
:10213000882D0E94F70C89850E94F70C8C2D2CCFDE
:10214000E894F7F8A3CFE894F6F8A7CF842D0E947F
:10215000F70C882D0E94F70C89810E94F70C8C2DBA
:10216000B9CF2D960FB6F894DEBF0FBECDBFDF916D
:10217000CF91FF90EF90DF90CF90BF90AF909F9066
:102180008F907F906F905F904F9008950F931F9363
:10219000CF93DF938C01EB01FC018081918100974B
:1021A000E1F06881798161157105A9F0428153815F
:1021B0002C813D814217530770F00E9460338C815F
:1021C0009D81F801958384831D821C82DF91CF91CC
:1021D0001F910F9108950E94113288819981F80111
:1021E000918380838A819B81938382838C819D816B
:1021F00095838483198218821B821A82E5CFCF933C
:10220000DF93EC0188819981009711F00E941132CF
:10221000198218821D821C821B821A82DF91CF9143
:102220000895FC0180819181009711F00C94113286
:1022300008950F931F93CF93DF93EC0188819981C9
:10224000009759F02A813B812617370730F081E04B
:10225000DF91CF911F910F9108958B016F5F7F4F99
:102260000E949A32009759F0998388831B830A83CE
:102270002C813D81232B59F7FC011082E8CF80E0AF
:10228000E7CFEF92FF920F931F93CF93DF936115E8
:10229000710541F480E0DF91CF911F910F91FF9084
:1022A000EF90089541155105B1F07B01EC010C81CF
:1022B0001D81040F151FB8010E941911882351F3C5
:1022C000288139818C819D81B701820F931F0E94E3
:1022D00060331D830C8381E0DECFEF92FF920F937A
:1022E0001F93CF93DF93CDB7DEB72D970FB6F8943A
:1022F000DEBF0FBECDBF7C01CB01BA012AE08E014B
:102300000F5F1F4FA8010E94732EF801019000205B
:10231000E9F73197AF01401B510BB801C7010E948B
:102320004111811103C0C7010E94FF10C7012D9602
:102330000FB6F894DEBF0FBECDBFDF91CF911F91D6
:102340000F91FF90EF900895CF93DF93EC01FB0185
:1023500001900020E9F73197AF01461B570B0E940F
:102360004111811103C0CE010E94FF10CE01DF9107
:10237000CF910895CF93DF93EC01FB014481558108
:10238000608171810E944111811103C0CE010E94C0
:10239000FF10CE01DF91CF910895EF92FF920F933E
:1023A0001F93CF93DF9300D000D0CDB7DEB77C0171
:1023B000862F4AE08E010F5F1F4FB80190E00E9408
:1023C000532EF80101900020E9F73197AF01401B2F
:1023D000510BB801C7010E9441110F900F900F904F
:1023E0000F90DF91CF911F910F91FF90EF90089583
:1023F000EF92FF920F931F93CF93DF93EC017B013A
:102400008A01BA010E94191181110BC0CE010E94EC
:10241000FF10CE01DF91CF911F910F91FF90EF90B0
:1024200008951D830C83B701888199810E946033D0
:10243000F0CFFB0101900020E9F73197AF01461B77
:10244000570B0C94F8110F931F93CF93DF93CDB7D5
:10245000DEB762970FB6F894DEBF0FBECDBF8C011A
:10246000CB01F8011182108213821282158214822C
:102470004AE0BE016F5F7F4F0E94532EBE016F5F27
:102480007F4FC8010E94191262960FB6F894DEBF02
:102490000FBECDBFDF91CF911F910F910895CF93C4
:1024A000DF93EC01FB018617970749F0608171818A
:1024B0006115710541F0448155810E94F811CE01EA
:1024C000DF91CF9108950E94FF10F9CFFC01118296
:1024D000108213821282158214820C944F12FC0116
:1024E000118210821382128215821482FB010190E4
:1024F0000020E9F73197AF01461B570B0C94F811F8
:10250000AF92BF92CF92DF92EF92FF920F931F9301
:10251000CF93DF936C015B017A01890124173507A2
:1025200020F48F2D7901042F182F6AE173E0C60182
:102530000E946F12D5011496CD91DC91EC16FD0628
:10254000E0F40C171D0708F4E801D501ED91FC91AA
:102550001197EC0FFD1F108110826D917C916E0D13
:102560007F1DC60161157105A1F00E941912F501C8
:1025700080819181C80FD91F1883C601DF91CF9147
:102580001F910F91FF90EF90DF90CF90BF90AF9091
:1025900008950E94FF10EBCF4F925F926F927F924F
:1025A0008F929F92AF92BF92CF92DF92EF92FF9263
:1025B0000F931F93CF93DF9300D000D000D0CDB7FF
:1025C000DEB77C014B015A018091950481113AC01C
:1025D00081E0809395049DE8692E94E0792E25E8AA
:1025E000422E24E0522E10E000E00F5F1F4F6801E2
:1025F00081E0C81AD1089801A601B401CE01019664
:102600000E948012CE0101960E94530ED3016D9359
:102610003D01CE0101960E9411119801A601B5015C
:10262000CE0101960E948012CE0101960E94530EA7
:10263000F20161932F01CE0101960E941111083021
:10264000110599F6909184048DE8C82E84E0D82E67
:10265000E5E8F4E08601A801D8018C919A30D8F51C
:102660008F5F8C930F5F1F4FDA018C918A3019F4C2
:10267000D80111971C923196B4E005391B0759F720
:102680009F5F943169F1909384046AE173E0C7011C
:102690000E946F12F60161916F01C7010E94CD1176
:1026A0000C151D05B9F7C70126960FB6F894DEBFC5
:1026B0000FBECDBFDF91CF911F910F91FF90EF9093
:1026C000DF90CF90BF90AF909F908F907F906F9052
:1026D0005F904F9008952081281721F28F5FC1CF1E
:1026E0001092840410929504D0CFCF92DF92EF9293
:1026F000FF921F93CF93DF93CDB7DEB72C970FB622
:10270000F894DEBF0FBECDBF182F66E473E0CE0194
:1027100007960E946F1222E030E050E040E0133054
:1027200081F024E030E042E050E01C3051F026E03F
:1027300030E0103321F0103FA9F428E030E044E00D
:1027400050E062EE76E0CE0101960E948012BE015A
:102750006F5F7F4FCE0107960E94C610CE01019693
:102760000E941111CE0107960E94530E6B01CE01FB
:1027700007960E941111C6012C960FB6F894DEBF81
:102780000FBECDBFDF91CF911F91FF90EF90DF90F3
:10279000CF900895EF92FF920F931F93CF93DF9303
:1027A000CDB7DEB762970FB6F894DEBF0FBECDBFD0
:1027B0007C018B0177FF03C0119501951109B801C8
:1027C000C7010E942312083E83E018070CF082C064
:1027D000B801CE010D960E9423126BE373E0CE0187
:1027E00001960E946F12BE016F5F7F4FCE01079668
:1027F0000E946612BE01635F7F4FCE0107960E9462
:10280000BA11BC01C7010E944F12CE0107960E9467
:102810001111CE0101960E941111CE010D960E9458
:102820001111043611050CF055C0B801CE010D96FA
:102830000E9423126AE373E0CE0101960E946F1298
:10284000BE016F5F7F4FCE0107960E946612BE01E8
:10285000635F7F4FCE0107960E94BA11BC01C7018A
:102860000E944F12CE0107960E941111CE010196CF
:102870000E941111CE010D960E9411110A3011050E
:102880004CF5B801CE010D960E94231269E373E066
:10289000CE0101960E946F12BE016F5F7F4FCE0185
:1028A00007960E946612BE01635F7F4FCE010796B6
:1028B0000E94BA11BC01C7010E944F12CE010796B7
:1028C0000E941111CE0101960E941111CE010D96A8
:1028D0000E941111C70162960FB6F894DEBF0FBEB9
:1028E000CDBFDF91CF911F910F91FF90EF90089591
:1028F0000F931F93CF93DF93CDB7DEB762970FB6D9
:10290000F894DEBF0FBECDBF8C0177FF03C0719579
:10291000619571096A307105A4F5CE010D960E948A
:1029200023126BE373E0CE0101960E946F12BE0189
:102930006F5F7F4FCE0107960E946612BE01635FF4
:102940007F4FCE0107960E94BA11BC01C8010E94B8
:102950006612CE0107960E941111CE0101960E94C7
:102960001111CE010D960E941111C80162960FB689
:10297000F894DEBF0FBECDBFDF91CF911F910F91B5
:102980000895C8010E942312F0CF0F931F93CF9395
:10299000DF93CDB7DEB768970FB6F894DEBF0FBEF2
:1029A000CDBF8B018330D9F52091E6063091E70643
:1029B00042E050E062EE76E0CE010D960E94801279
:1029C000B801CE0101960E947814BE016F5F7F4F5F
:1029D000CE0107960E946612BE01635F7F4FCE0153
:1029E00007960E94BA11BC0182EE96E00E944F1237
:1029F000CE0107960E941111CE0101960E9411117D
:102A0000CE010D960E94111168960FB6F894DEBFA4
:102A10000FBECDBFDF91CF911F910F9108958C30E4
:102A200009F042C02091E6063091E70644E050E00C
:102A300062EE76E0CE0143960E948012B801CE018C
:102A40000D960E94781422E030E050E040E062EE03
:102A500076E0CE0101960E948012BE016F5F7F4F2B
:102A6000CE0107960E946612BE01635F7F4FCE01C2
:102A700007960E94BA11BE016D5E7F4F0E94BA1187
:102A8000BC0182EE96E00E944F12CE0107960E9492
:102A90001111CE0101960E941111CE010D960E94D6
:102AA0001111CE014396AECF2091E6063091E70694
:102AB00046E050E0803349F0803F09F0A5CF2091F7
:102AC000E6063091E70648E050E062EE76E0CE019F
:102AD00043960E948012B801CE010D960E94781490
:102AE00024E030E0B2CF0E94C80460937B0470936E
:102AF0007C0480937D0490937E0480917A048823E3
:102B000009F44FC02091C4043091C504C901880F55
:102B1000991F21313105A1F1FC01EA5CFE4F408192
:102B200051814150510951834083DC01AA5CBE4F61
:102B30006D917C911197FC01E25AFE4F40815181C9
:102B4000641775073CF4FC01EA57FE4F4081518140
:102B50004D935C932031310509F520915601309158
:102B6000570121303105B9F420E82093CC048A5C68
:102B70009E4FFC01608171818091DC040C94C5142E
:102B800040915801509159014C50510950935901AD
:102B900040935801CACF1092CC04E9CF29303105B7
:102BA00031F708950E94C80460937B0470937C04FD
:102BB00080937D0490937E0480917A04882309F4A5
:102BC00044C02091C4043091C504C901880F991FE5
:102BD0002131310561F1FC01EA5CFE4F40815181F8
:102BE0004F5F5F4F51834083DC01AA5CBE4F6D9104
:102BF0007C911197FC01EA57FE4F408151814617A5
:102C000057073CF4FC01E25AFE4F408151814D933D
:102C10005C9320313105B1F41092CC048A5C9E4F54
:102C2000FC01608171818091DC040C94C514409199
:102C3000580150915901445F5F4F5093590140939F
:102C40005801D2CF2930310549F708958F929F92CC
:102C5000AF92BF92DF92EF92FF920F931F93CF93A9
:102C6000DF93CDB7DEB7A2970FB6F894DEBF0FBEE5
:102C7000CDBF8C018AE0E4EBF1E0DE01119601901A
:102C80000D928A95E1F780917204909173040196F8
:102C90008A3091050CF086C090937304809372047F
:102CA000E0917204F091730481E090E08C0F9D1F1D
:102CB000E80FF91FD08080915801909159014897F1
:102CC00009F075C00E94C8044B015C010E946D08A8
:102CD000BC01CE014D960E9478140E947508BC017B
:102CE000CE0147960E9478140E947D08BC01CE0157
:102CF0000B960E947814BE01655F7F4FCE0141960E
:102D00000E946612BE01695E7F4FCE0141960E940D
:102D1000BA11BE01635E7F4F0E94BA117C01C501EA
:102D2000B40128EE33E040E050E00E94123124E686
:102D300030E040E050E00E941231BA01A901C70121
:102D40000E946D117C016D2D0E94CD11811103C077
:102D5000C7010E94FF10B701C8010E946612CE0190
:102D600041960E941111CE010B960E941111CE01C5
:102D700047960E941111CE014D960E941111C80173
:102D8000A2960FB6F894DEBF0FBECDBFDF91CF91F4
:102D90001F910F91FF90EF90DF90BF90AF909F90A9
:102DA0008F900895109273041092720479CF0E944C
:102DB000C80428EE33E040E050E00E94123124E6DF
:102DC00030E040E050E00E94123149015A010E9477
:102DD0006D08BC01CE014D960E9478140E947508C2
:102DE000BC01CE0147960E9478140E9414070E94ED
:102DF0005A07809137056CE070E0882331F0682F26
:102E000070E08D3010F06C507109CE010B960E946D
:102E10007814BE01655F7F4FCE0141960E94661215
:102E2000BE01695E7F4FCE0141960E94BA11BE017C
:102E3000635E7F4F0E94BA11B501A40181CF8F92CA
:102E40009F92AF92BF92CF92DF92EF92FF920F9339
:102E50001F93CF93DF93CDB7DEB72C970FB6F894BF
:102E6000DEBF0FBECDBF8C016A017B018091BC0427
:102E7000811111C00E94C804645B7B4F8F4F9F4F2C
:102E80006093B8047093B9048093BA049093BB0420
:102E900081E08093BC048091B004811109C066E395
:102EA00073E08AEA94E00E946F1281E08093B0049C
:102EB0000E94C8048090B8049090B904A090BA040D
:102EC000B090BB04681979098A099B09693E73406F
:102ED0008105910508F4D8C00E94C8046093B80425
:102EE0007093B9048093BA049093BB0420E030E05F
:102EF00040E251E4C701B6010E94252F6B017C011D
:102F000020E030E0A9010E94ED3020E030E040E018
:102F10005FE387FDD2C0C701B6010E944B300E941B
:102F2000B7307B0177FF04C0EE24FF24E61AF70ACE
:102F30005B0139E1A31A3CEFB30A80915A019091E9
:102F40005B019B012D593F4F69012A553109490108
:102F5000B701892B09F0B6C0CE0107960E94231253
:102F60006BE373E0CE0101960E946F12BE01695FB0
:102F70007F4FCE0101960E94BA116BE373E00E946D
:102F8000A411BC018AEA94E00E944F12CE0101967E
:102F90000E941111CE0107960E9411113FECA31659
:102FA00037E0B30618F5B701CE0107960E94231249
:102FB0006AE373E0CE0101960E946F12BE01695F61
:102FC0007F4FCE0101960E94BA116BE373E00E941D
:102FD000A411BC018AEA94E00E944F12CE0101962E
:102FE0000E941111CE0107960E94111187ECC8169C
:102FF000D10418F5B701CE0107960E94231269E3A8
:1030000073E0CE0101960E946F12BE01695F7F4F8F
:10301000CE0101960E94BA116BE373E00E94A411E5
:10302000BC018AEA94E00E944F12CE0101960E94F0
:103030001111CE0107960E94111123E1821691040D
:1030400018F5B701CE0107960E94231268E373E0DA
:10305000CE0101960E946F12BE01695F7F4FCE01C3
:1030600001960E94BA116BE373E00E94A411BC01A7
:103070008AEA94E00E944F12CE0101960E9411113B
:10308000CE0107960E9411116AEA74E0C8010E94FD
:103090006612C8012C960FB6F894DEBF0FBECDBFE6
:1030A000DF91CF911F910F91FF90EF90DF90CF9024
:1030B000BF90AF909F908F900895C701B6010E9476
:1030C0004A302DCFCE0107960E9423126BE373E0A6
:1030D000CE0101960E946F12BE01695F7F4FCE0143
:1030E00001960E94BA116BE373E00E94A411BC0127
:1030F0008AEA94E00E944F12CE0101960E941111BB
:10310000CE0107960E9411113FECA31637E0B306DB
:1031100038F5C7016AE070E00E94FE30CE010796E4
:103120000E9423126AE373E0CE0101960E946F129F
:10313000BE01695F7F4FCE0101960E94BA116AE31A
:1031400073E00E94A411BC018AEA94E00E944F122D
:10315000CE0101960E941111CE0107960E94111115
:1031600087ECC816D10438F5C7016AE070E00E9408
:10317000FE30CE0107960E94231269E373E0CE0170
:1031800001960E946F12BE01695F7F4FCE010196CA
:103190000E94BA116AE373E00E94A411BC018AEA9A
:1031A00094E00E944F12CE0101960E941111CE01AF
:1031B00007960E94111123E18216910408F064CF52
:1031C000C7016AE070E00E94FE30CE0107960E94BF
:1031D000231268E373E0CE0101960E946F12BE01D4
:1031E000695F7F4FCE0101960E94BA116AE373E0D6
:1031F0003CCF85ED8093BC008091B8059091B905D6
:10320000A091BA05B091BB050796A11DB11D23E0A1
:10321000B695A795979587952A95D1F72091BC00EB
:1032200024FD03C01092B60508954091B805509151
:10323000B9056091BA057091BB05452B462B472B0C
:1032400069F30097A105B10541F02AE22A95F1F74B
:1032500000C00197A109B109E1CF8091B7050C9495
:1032600039090C94EB2F0C94E32F88E090E00E9436
:103270003319682F70E089E00E94140489E090E01F
:103280000E943319682F70E086E00E9414048AE0DF
:1032900090E00E943319682F70E083E00C941404CE
:1032A0008F929F92AF92BF92CF92DF92EF92FF9256
:1032B0000F931F93CF93DF93CDB7DEB7EC970FB685
:1032C000F894DEBF0FBECDBF0E94C80420E137E2F4
:1032D00040E050E00E941231672B682B692B01F50A
:1032E000809161058823E1F00E94D70DE0905F0591
:1032F000F090600500915D0510915E0520915B05E1
:1033000030915C05409162055091630560915905CB
:1033100070915A0580915705909158050E94380682
:10332000109271041092700410926F0410926E0447
:1033300010926D0410926C04009155051091560581
:10334000F8018081882309F409C10E94C804C09053
:103350000E04D0900F04E0901004F09011046C194A
:103360007D098E099F09C0900A04D0900B04E0905B
:103370000C04F0900D04C616D706E806F90608F00E
:10338000EDC00E94C8044B015C0180920E04909233
:103390000F04A0921004B0921104680130E020E004
:1033A0004AE0F801F1908F0180ED8F0D8A3070F4C2
:1033B000429FC001439F900D11242F2DFF0C330B12
:1033C00020533109280F391F6F01EBCF3093790457
:1033D0002093780460917404709175048091760450
:1033E000909177042115310501F1032E000C440B57
:1033F000550B0E94343120930A0430930B04409300
:103400000C0450930D04EFE9EF0DE730A0F40E2EFD
:10341000000CFF0BE25FF54E0C945331981D9A1D82
:103420008C1D901D921D941D961D2091090130E068
:1034300050E040E0DECF10920904F6018181833232
:1034400041F4809109048F5F8093090486010E5F27
:103450001F4FF80180818E32F1F4C0900A04D090A1
:103460000B04E0900C04F0900D04C701B60122E0BB
:1034700030E040E050E00E943431C20ED31EE41E22
:10348000F51EC0920A04D0920B04E0920C04F09254
:103490000D040F5F1F4FF801808180538A3008F0C0
:1034A0004BC3809308040F5F1F4FF80180818C325B
:1034B00011F40F5F1F4FE0910904EE2309F44EC091
:1034C000C0900A04D0900B04E0900C04F0900D041E
:1034D000809108048450990B4CE0489F9001499FCB
:1034E000300D1124E20FF32FF11DEE0FFF1FEA52F2
:1034F000FE4FB701A601808191810E944E020E9479
:10350000C804681979098A099B09C616D706E8060E
:10351000F90620F50E94C80460930E0470930F040E
:1035200080931004909311048091ED05813009F48B
:1035300008C3823009F40BC3811105C080916E006D
:103540008D7F80936E0060E08091EC050E94E40125
:1035500088E690E00E94E70510E000E01093560531
:10356000009355050E94C8040091680410916904F5
:1035700020916A0430916B04601B710B820B930BDA
:103580006630710581059105E8F080910D0181118A
:10359000E4C270E060E089E00E94140470E060E042
:1035A00086E00E94140470E060E083E00E9414044E
:1035B0000E94C804609368047093690480936A044D
:1035C00090936B048091C4049091C504892B21F0E1
:1035D000809167048111DBC180917A048111D7C188
:1035E0008091280481110DC00E94C80460932404B6
:1035F00070932504809326049093270481E08093A0
:10360000280480911C0481110DC00E94C80460939D
:1036100018047093190480931A0490931B0481E09A
:1036200080931C040E94C804009124041091250476
:103630002091260430912704601B710B820B930BA1
:1036400000910001109101012091020130910301CC
:10365000061717072807390708F04DC00E94C8044D
:103660006093240470932504809326049093270488
:103670008091160490911704009709F0DAC281E056
:1036800090E09093C5048093C40488E893E1A0E09F
:10369000B0E08093000190930101A0930201B093E8
:1036A000030180911604909117048230910581F4F2
:1036B0001092C5041092C40440E65AEE60E070E037
:1036C0004093000150930101609302017093030144
:1036D0000196833091050CF0CCC29093170480932F
:1036E000160480916704882321F01092C50410927B
:1036F000C404109267040E94C8040091240410912D
:1037000025042091260430912704601B710B820B45
:10371000930B603D77408105910508F07CC30E94C2
:10372000C804009118041091190420911A043091D2
:103730001B04601B710B820B930B653671058105B1
:10374000910508F424C10E94C80460931804709382
:10375000190480931A0490931B048091C4049091DF
:10376000C50420914C05222309F488C2892B89F5D0
:10377000CE0149960E94261681E020915A0130918F
:103780005B01232B09F480E00E94550BAB01BC01C7
:10379000CE0101960E941F17AE01475E5F4FBE012A
:1037A0006F5F7F4FCE014F960E94CC12BE01615ECB
:1037B0007F4F82EE96E00E94C610CE014F960E9487
:1037C0001111CE0101960E941111CE0149960E945D
:1037D00011118091C4049091C504019709F062C051
:1037E0000E94530868EE73E00E94FE30BC01CE01D7
:1037F0008B960E9478140E945D08BC01CE018596CC
:103800000E9478140E946508BC01CE0149960E946E
:103810007814BE01675E7F4FCE014F960E946612FC
:10382000BE016B5D7F4FCE014F960E94BA11BE0163
:10383000655D7F4F0E94BA11BC01CE01C1960E9406
:103840006612CE0101960E942616AE014F5C5F4FB4
:10385000BE016F5F7F4FCE01C7960E94CC12BE01A2
:10386000695C7F4F82EE96E00E94C610CE01C7963B
:103870000E941111CE0101960E941111CE01C19634
:103880000E941111CE014F960E941111CE0149964E
:103890000E941111CE0185960E941111CE018B96C6
:1038A0000E9411118091C4049091C504049709F0FD
:1038B0006EC081E020915A0130915B01232B09F405
:1038C00080E00E94550BAB01BC01CE01C1960E9465
:1038D0001F170E94530868EE73E00E94FE30BC017F
:1038E000CE0185960E9478140E945D08BC01CE012D
:1038F0004F960E9478140E946508BC01CE01019683
:103900000E947814BE016F5F7F4FCE0149960E94DE
:103910006612BE01615E7F4FCE0149960E94BA11C8
:10392000BE016B5D7F4F0E94BA11BC01CE018B9628
:103930000E946612AE014F5C5F4FBE01655D7F4F16
:10394000CE01C7960E94CC12BE01695C7F4F82EE09
:1039500096E00E94C610CE01C7960E941111CE01BA
:103960008B960E941111CE0149960E941111CE0131
:1039700001960E941111CE014F960E941111CE01A5
:1039800085960E941111CE01C1960E9411110E94CC
:103990005E0E89EC96E00E94850880EB96E00E941E
:1039A000850887E996E00E94850880917A04811154
:1039B00035C21092DC048091C9069091CA0618168F
:1039C00019063CF08091700490917104019709F000
:1039D00062C381E0809367041092560510925505EA
:1039E00044E650E060E070E088EE93E00E944E0212
:1039F0000E94C80460937B0470937C0480937D04D0
:103A000090937E048091C4049091C5040196853002
:103A1000910509F430C29093C5048093C404809149
:103A2000C4049091C504069721F41092C504109225
:103A3000C4042091C4043091C5048901000F111FF2
:103A4000F801E25FFE4F80818093DC04D901119779
:103A5000FD01EE0FFF1FEC57FD4F60817181611575
:103A6000710509F409C3AB0141505109FA01EE0F88
:103A7000FF1FE45AFD4F0190F081E02DAE17BF0704
:103A800009F0FAC26230710509F0F8C188E1EEEB85
:103A9000F1E0DE01119601900D928A95E1F7809197
:103AA0004E0190914F0183709927892B21F48DE16C
:103AB00090E09C838B8380914C0190914D01019704
:103AC000880F991FE1E0F0E0EC0FFD1F8E0F9F1FA4
:103AD00020914A0130914B01FC0180819181821734
:103AE00093070CF0CBC18AE090E09093C5048093DB
:103AF000C404EC960FB6F894DEBF0FBECDBFDF91C5
:103B0000CF911F910F91FF90EF90DF90CF90BF90DA
:103B1000AF909F908F90089581E0809309048DCCA1
:103B200083E0FBCF85E0F9CF86E0F7CF88E0F5CFE3
:103B30008AE0F3CF8CE0F1CF8091080180930804F4
:103B4000B4CC80916F008D7F80936F00FCCC80910E
:103B500070008D7F80937000F6CC80916405811198
:103B600027CD0091140410911504F801EE0FFF1FEA
:103B7000E00FF11FDF01AA0FBB1FA85CBD4F8D91A5
:103B80009C916091040170910501680F791F7093F9
:103B9000050160930401DF01AA0FBB1FA65CBD4FA6
:103BA000CD90DC9080915D0490915E04C80ED91E8A
:103BB000D0925E04C0925D04EE0FFF1FE45CFD4FE7
:103BC000E080F18080915B0490915C04E80EF91E26
:103BD000F0925C04E0925B0489E00E941404B60158
:103BE00086E00E941404B70183E00E9414048091CF
:103BF000120490911304019690931304809312047D
:103C00008F3F910551F40F5F1F4F109315040093E0
:103C100014041092130410921204809114049091D1
:103C2000150406970CF4C4CC1092150410921404D9
:103C3000BFCC019709F035CD84E090E09093C504A6
:103C40008093C40488E893E1A0E0B0E08093000191
:103C500090930101A0930201B093030180914C0560
:103C6000811107C782E090E09093170480931604B7
:103C700018CD109217041092160433CD892B09F039
:103C800062C0CE01C1960E9426160E94530868EEBB
:103C900073E00E94FE30BC01CE0185960E9478142C
:103CA0000E945D08BC01CE014F960E9478140E94CC
:103CB0006508BC01CE0101960E947814BE016F5FB9
:103CC0007F4FCE0149960E946612BE01615E7F4F12
:103CD000CE0149960E94BA11BE016B5D7F4F0E94D2
:103CE000BA11BC01CE018B960E946612AE014F5CE8
:103CF0005F4FBE01655D7F4FCE01C7960E94CC121B
:103D0000BE01695C7F4F82EE96E00E94C610CE0134
:103D1000C7960E941111CE018B960E941111CE01FF
:103D200049960E941111CE0101960E941111CE01F7
:103D30004F960E941111CE0185960E941111CE015D
:103D4000C1960E9411118091C4049091C5040197FD
:103D500009F01DCE0E94530868EE73E00E94FE3009
:103D6000BC01CE018B960E9478140E945D08BC01B4
:103D7000CE0185960E9478140E946508BC01CE0190
:103D800049960E947814BE01675E7F4FCE014F9620
:103D90000E946612BE016B5D7F4FCE014F960E945E
:103DA000BA11BE01655D7F4F0E94BA11BC01CE0100
:103DB000C1960E946612CE0101960E942616AE019F
:103DC0004F5C5F4FBE016F5F7F4FCE01C7960E9471
:103DD000CC12BE01695C7F4F82EE96E00E94C61055
:103DE000CE01C7960E941111CE0101960E941111B9
:103DF000CE01C1960E941111CE014F960E94111161
:103E0000CE0149960E941111CE0185960E94111192
:103E1000CE018B96BACD10929504B9CD0E94C804FC
:103E200000917B0410917C0420917D0430917E04EC
:103E3000601B710B820B930B61367A4E81059105E5
:103E400008F4B9CD10927A04E091C404F091C5044D
:103E5000EE0FFF1FE455FD4F808191819093C504C3
:103E60008093C404880F991FFC01E25FFE4F80819C
:103E70008093DC04A0CD86E090E0CDCD10927A0452
:103E80005093C5044093C404452BB9F40E945308D1
:103E90007C010E945D088C010E94650840914601EA
:103EA0005091470160914401709145019C018091BE
:103EB0004201909143010E9438068091C404909180
:103EC000C5040197F9F4E0904E01F0904F01009184
:103ED0004C0110914D0180904A0190904B010E943D
:103EE0006D085C010E9475086C010E947D089401B8
:103EF000A501B6010E943806609148018DE090E06E
:103F00000E9431198091C4049091C5040297C1F4B4
:103F10006091500182E090E00E943119609152015D
:103F200083E090E00E9431196091540184E090E0B8
:103F30000E9431196091560186E090E00E9431198B
:103F40008091C4049091C504039731F460915801A5
:103F500081E090E00E9431198091C4049091C504E1
:103F6000049731F460915A018BE090E00E9431197E
:103F70008091C4049091C504059749F460915C0157
:103F800080918401681B8CE090E00E9431190E94AE
:103F9000530868EE73E00E94FE30082F0E945D080F
:103FA000F82E0E946508E82E0E946D08B82E0E9427
:103FB0007508C82E0E947D08D82E80910A010E94A3
:103FC000880160E08BE896E00E94980A1AE08B2D49
:103FD000612F0E94F2308295807F682F690F8BE8F5
:103FE00096E00E94980A8C2D612F0E94F2308295F3
:103FF000807F682F690F8BE896E00E94980A8D2DCC
:10400000612F0E94F2308295807F682F690F8BE8C4
:1040100096E00E94980A61E08BE896E00E94980A78
:104020008E2D612F0E94F2308295807F682F690F5C
:104030008BE896E00E94980A8F2D612F0E94F23043
:104040008295807F682F690F8BE896E00E94980A1E
:10405000802F612F0E94F2308295807F682F690F38
:104060008BE896E00E94980A60E08BE896E00E9458
:10407000980A0E945A093DCD2331310561F029503B
:1040800031092230310538F00E947513F801EA5CDD
:10409000FE4F918380838091C9069091CA0697FD57
:1040A00007C08091700490917104019609F0F4C0EA
:1040B00044E650E060E070E088EE93E00E944E023B
:1040C00080917A04811152C00091C4041091C504FA
:1040D0000E94C80460937B0470937C0480937D04E9
:1040E00090937E04012B09F041C00E946D08BC0131
:1040F000CE0185960E9478140E947508BC01CE01FD
:104100004F960E9478140E947D08BC01CE01019652
:104110000E947814BE016F5F7F4FCE0149960E94C6
:104120006612BE01615E7F4FCE0149960E94BA11B0
:10413000BE016B5D7F4F0E94BA116AE373E00E947B
:10414000A411BC0182EE96E00E944F12CE01499666
:104150000E941111CE0101960E941111CE014F96BD
:104160000E941111CE0185960E9411118091C40404
:104170009091C504019709F056C00E94650890937C
:104180004B0180934A010E945D0890934D018093FA
:104190004C010E945308BC0190934F0180934E0143
:1041A0008091480190914901892B09F099C1CE0174
:1041B00085960E94781460914C0170914D01CE015A
:1041C0004F960E94781460914A0170914B01CE0184
:1041D00001960E947814BE016F5F7F4FCE01499611
:1041E0000E946612BE01615E7F4FCE0149960E9419
:1041F000BA11BE016B5D7F4F0E94BA11BC0182EE05
:1042000096E00E944F12CE0149960E941111CE01F4
:1042100001960E941111CE014F960E941111CE01FC
:1042200085960E941111E091C404F091C504EE0F2F
:10423000FF1FE455FD4F208131813093C504209349
:10424000C4042D30310549F481E090E0909357018A
:104250008093560180E88093CC0480917A0491E0A9
:10426000892780937A048901000F111FF801E25F0A
:10427000FE4F80818093DC04A901425151094230F4
:10428000510550F02930310539F00E947513F801BD
:10429000EA5CFE4F918380838091B0069091B106D5
:1042A000009709F02EC180916E0490916F040197E0
:1042B000E1F481E080936704109256051092550551
:1042C00044E650E060E070E088EE93E00E944E0229
:1042D0000E94D21580917A04811107C01092640562
:1042E00060E087E090E00E94311980916504909130
:1042F0006604019609F00EC18091B206882309F484
:1043000009C11092DE0480917A048823F9F00E949A
:10431000C8040091610410916204209163043091FB
:104320006404601B710B820B930B67397105810567
:10433000910560F00E94C804609361047093620468
:1043400080936304909364040E94D2158091970631
:1043500090919806009709F0E1C080916C049091CB
:104360006D04019771F511E01093670410925605E2
:104370001092550544E650E060E070E088EE93E06E
:104380000E944E020E94731580917A04811119C017
:104390001093640561E087E090E00E94311960911C
:1043A000040188E090E00E94311960915D0489E089
:1043B00090E00E94311960915B048AE090E00E94D5
:1043C000311980915F0490916004019609F0AFC0AB
:1043D00080919906882309F4AAC080917A041092EA
:1043E000DD04882321F10E94C80400915704109134
:1043F00058042091590430915A04601B710B820BB0
:10440000930B673971058105910508F449C00E9435
:10441000C804609357047093580480935904909390
:104420005A040E94731580917A04811139C08091D9
:10443000B0069091B10697FD06C080916E049091F0
:104440006F04019691F444E650E060E070E088EE7D
:1044500093E00E944E0281E080930D0161E090E0C4
:1044600080E00E9431190E94351980919706909141
:10447000980697FD06C080916C0490916D0401969A
:1044800079F444E650E060E070E088EE93E00E944A
:104490004E0210920D0160E090E080E00E94311920
:1044A000E091C404F091C504E431F10508F021CB9A
:1044B000E45AFD4D0C9453319B22DA22CF231B2466
:1044C00046248A24791D791D791DB924E124E1242B
:1044D000E124791D791D791D791D791D46248A24D1
:1044E000CE0185960E94781460914A0170914B012B
:1044F000CE014F960E94781460914C0170914D014D
:1045000066CE9093660480936504181619060CF421
:10451000D0CEC9CE81E08093DE0418CF90936004A2
:1045200080935F04181619060CF41DCF16CF81E096
:104530008093DD0478CF8091950481112CC00E9476
:10454000C80400913004109131042091320430915C
:104550003304601B710B820B930B63337105810570
:10456000910508F10E94C8046093300470933104EF
:104570008093320490933304CE0101960E94261654
:10458000BE016F5F7F4F82EE96E00E94C610CE01A3
:1045900001960E9411110E946D0880FD72C180EC8D
:1045A0008093CC0470C162EE76E0CE0101960E9449
:1045B0006612E6CF809195048111DEC080914F0490
:1045C000811111C00E94C80467517C4F8F4F9F4FCB
:1045D00060934B0470934C0480934D0490934E046D
:1045E00081E080934F0480914304811144C00E9474
:1045F000530868EE73E00E94FE30BC01CE010196C4
:104600000E9478140E945D08BC01CE0149960E9468
:1046100078140E946508BC01CE0185960E9478142A
:10462000BE016B5D7F4FCE014F960E946612BE01A8
:10463000675E7F4FCE014F960E94BA11BE016F5F39
:104640007F4F0E94BA11BC018DE394E00E94661274
:1046500081E080934304CE014F960E941111CE0158
:1046600085960E941111CE0149960E941111CE012A
:1046700001960E9411110091480110914901809109
:104680003504811105C00093340481E08093350422
:104690000E94C804C0904B04D0904C04E0904D049C
:1046A000F0904E046C197D098E099F09693E734094
:1046B0008105910530F4809134048017110609F4C6
:1046C0004AC00E94C80460934B0470934C048093CA
:1046D0004D0490934E04012B09F050C00E945308E2
:1046E000BC01CE0101960E9478140E945D08BC01B5
:1046F000CE0149960E9478140E946508BC01CE0143
:1047000085960E947814BE016B5D7F4FCE014F9657
:104710000E946612BE01675E7F4FCE014F960E94D7
:10472000BA11BE016F5F7F4F0E94BA11BC018DE3C9
:1047300094E00E944F12CE014F960E941111CE01BB
:1047400085960E941111CE0149960E941111CE0149
:1047500001960E9411116DE374E0CE0101960E9452
:104760006612BE016F5F7F4F82EE96E00E94C61018
:10477000CE0101960E94111180E412CF0E945308CD
:10478000BC01CE0101960E9478140E946508BC010C
:10479000CE0149960E9478140E945D08AFCF6091C7
:1047A000540170915501CE0185960E947814609154
:1047B000520170915301CE014F960E94781460917E
:1047C000500170915101CE0101960E947814BE01F2
:1047D0006F5F7F4FCE0149960E946612BE01615EF7
:1047E0007F4FCE0149960E94BA11BE016B5D7F4F8B
:1047F0000E94BA116AE373E00E94A411BC0182EE28
:1048000096E00E944F12CE0149960E941111CE01EE
:1048100001960E941111CE014F960E941111CE01F6
:1048200085960E9411118091560190915701019730
:1048300041F580E8B5CE6091580170915901CE01E3
:1048400049960E9423126AE373E0CE0101960E940A
:104850006F12BE01675E7F4FCE0101960E94BA11B2
:1048600068E373E00E94A411BC0182EE96E00E940E
:104870004F12CE0101960E941111CE0149960E945D
:1048800011111092CC040E94200C33C98091950420
:10489000811124C081E020915A0130915B01232BCA
:1048A00009F480E00E94550BAB01BC01CE010196DA
:1048B0000E941F17BE016F5F7F4F82EE96E00E943D
:1048C000C610CE0101960E94111180915A0190915B
:1048D0005B01892BD1F480E48093CC0481E02091AA
:1048E0005A0130915B01232B09F480E00E94550BA3
:1048F0001091CC0420E030E0A9010E94BF2E87FF78
:1049000007C010681093CC04F4C81092CC04E6CF12
:104910001F77F8CF60915C0170915D01CE01019627
:104920000E947814BE016F5F7F4FCE0149960E94AE
:10493000661266E373E0CE0149960E94A411BC01A1
:1049400082EE96E00E944F12CE0149960E9411110C
:10495000CE0101960E94111180915C0190915D0140
:1049600097FD03C01092CC04C4C880E88093CC04A7
:10497000C0C88091480190914901892B99F46BE15D
:1049800073E082EE96E00E94191283E090E090932B
:104990002301809322018CE090E090932501809385
:1049A0002401A7C864E273E082EE96E00E94191227
:1049B0008CE090E0909323018093220183E090E0CB
:1049C000ECCF60914E0170914F0180914801909120
:1049D0004901892BE9F5CE0185960E94CA136091A1
:1049E0004C0170914D01CE014F960E947814609158
:1049F0004A0170914B01CE0101960E947814BE01CC
:104A00006F5F7F4FCE0149960E946612BE01615EC4
:104A10007F4FCE0149960E94BA11BE016B5D7F4F58
:104A20000E94BA11BC0182EE96E00E944F12CE01A4
:104A300049960E941111CE0101960E941111CE01DA
:104A40004F960E941111CE0185960E94111151C8F6
:104A5000CE0185960E94CA1360914A0170914B0164
:104A6000CE014F960E94781460914C0170914D01D7
:104A7000C2CF81E090E00C94681B1F920F920FB69A
:104A80000F9211242F933F938F939F93AF93BF93D4
:104A90008091660590916705A0916805B0916905C0
:104AA0003091650523E0230F2D3758F50196A11DA0
:104AB000B11D209365058093660590936705A093CB
:104AC0006805B093690580916A0590916B05A09186
:104AD0006C05B0916D050196A11DB11D80936A050D
:104AE00090936B05A0936C05B0936D05BF91AF914A
:104AF0009F918F913F912F910F900FBE0F901F901C
:104B0000189526E8230F0296A11DB11DD2CF1F9242
:104B10000F920FB60F9211242F933F934F935F93F1
:104B20006F937F938F939F93AF93BF93EF93FF9375
:104B30008EEE95E00E945D05FF91EF91BF91AF91E0
:104B40009F918F917F916F915F914F913F912F91A5
:104B50000F900FBE0F901F9018951F920F920FB6D7
:104B60000F9211242F938F939F93EF93FF93E091D4
:104B7000FE05F091FF058081E0910406F0910506A5
:104B800082FD1BC09081809107068F5F8F732091FB
:104B90000806821741F0E0910706F0E0E251FA4F73
:104BA000958F80930706FF91EF919F918F912F91A1
:104BB0000F900FBE0F901F9018958081F4CF1F9219
:104BC0000F920FB60F9211242F933F938F939F93C1
:104BD000AF93BF93EF93FF938091E0059091E10530
:104BE000A091E205B091E3050097A105B10531F16F
:104BF00030914005E0914105F09142052081232745
:104C00002083181619061A061B061CF40197A10921
:104C1000B1098093E0059093E105A093E205B0937C
:104C2000E305FF91EF91BF91AF919F918F913F91DC
:104C30002F910F900FBE0F901F901895209170002C
:104C40002D7F2093700020914005E0914105F09167
:104C500042053081209523232083DBCF1F920F92C2
:104C60000FB60F9211248F939F93AF93BF93EF933F
:104C7000FF938091E4059091E505A091E605B09140
:104C8000E705892B8A2B8B2BA1F190914305E091AD
:104C90004405F09145058081892780838091E40552
:104CA0009091E505A091E605B091E7051816190663
:104CB0001A061B069CF48091E4059091E505A091ED
:104CC000E605B091E7050197A109B1098093E405D4
:104CD0009093E505A093E605B093E705FF91EF916A
:104CE000BF91AF919F918F910F900FBE0F901F902A
:104CF000189580916F008D7F80936F0080914305A0
:104D0000E0914405F0914505908180958923808349
:104D1000E5CF1F920F920FB60F9211248F939F939E
:104D2000AF93BF93EF93FF938091E8059091E905CE
:104D3000A091EA05B091EB05892B8A2B8B2BA1F171
:104D400090914605E0914705F091480580818927BB
:104D500080838091E8059091E905A091EA05B091E2
:104D6000EB05181619061A061B069CF48091E80537
:104D70009091E905A091EA05B091EB050197A10991
:104D8000B1098093E8059093E905A093EA05B093F3
:104D9000EB05FF91EF91BF91AF919F918F910F9094
:104DA0000FBE0F901F90189580916E008D7F80939D
:104DB0006E0080914605E0914705F091480590818D
:104DC000809589238083E5CF1F920F920FB60F92B3
:104DD00011242F933F934F935F936F937F938F9300
:104DE0009F93AF93BF93EF93FF938091B900887F18
:104DF000803609F44AC0F0F5883209F4A7C018F5E6
:104E0000803109F49BC0B8F4882309F4F9C08830D4
:104E100009F494C0FF91EF91BF91AF919F918F9151
:104E20007F916F915F914F913F912F910F900FBEA6
:104E30000F901F901895883109F488C0803251F77F
:104E40008093B40514C0803409F49DC040F48033CD
:104E5000B9F38833F9F68093B40585ECB0C080359A
:104E600009F485C0883509F496C0883499F60E9403
:104E7000F918D0CF883909F48CC038F5883729F073
:104E800050F4883611F0803729F683E08093B60518
:104E90001092220557C0883809F47BC0803919F078
:104EA000803809F0B7CF80912205803208F071C0B8
:104EB000E091220581E08E0F809322058091BB0056
:104EC000F0E0EE5FFA4F80833DC0803B39F0E0F4C4
:104ED000803A09F479C0883A09F09CCF84E0809345
:104EE000B6051092010510920005E0913E05F09183
:104EF0003F0509958091000581110FC081E08093E5
:104F000000051092E00409C0803C09F4A6CF883C5B
:104F100009F4A3CF883B09F07DCFE091010581E042
:104F20008E0F80930105F0E0E052FB4F808180936B
:104F3000BB00909101058091000529C080919105E9
:104F40008093BB0085EC8093BC0064CF9091B30547
:104F50008091B205981758F5E091B30581E08E0F66
:104F60008093B305F0E0EE56FA4F8081E9CFE091EF
:104F7000B30581E08E0F8093B3058091BB00F0E014
:104F8000EE56FA4F80839091B3058091B205981741
:104F9000C8F285E8D8CFE091B30581E08E0F809309
:104FA000B3058091BB00F0E0EE56FA4F808380910C
:104FB000B50581115CCF81E08093900584EA8093F0
:104FC000BC001092B60526CF85EC8093BC001092F1
:104FD000B60580912205803230F4E0912205F0E0A0
:104FE000EE5FFA4F10826091220570E0E0913C057F
:104FF000F0913D0582E095E00995109222050ACFD7
:105000001092B40534CFCF93DF93EC01862F6F87D6
:10501000188A91E0998B9A8B1C8A1B8A19821882B4
:105020001A821D8A1E8A1F8A188E44E150E060E0B1
:1050300070E04B835C836D837E834AEF50E060E0D9
:1050400070E04F83588769877A8748EE53E060E0C5
:1050500070E04B875C876D877E8760E00E9412025C
:105060008889811106C061E08F85DF91CF910C9412
:10507000E401DF91CF910895EEEEF5E01382128204
:1050800088EE93E0A0E0B0E084839583A683B783A5
:1050900028EF32E03183208325EC30E03587248708
:1050A00024EC30E03787268720EC30E0318B208BF2
:1050B00021EC30E0338B228B22EC30E0358B248BDB
:1050C00026EC30E0378B268B118E128E138E148EC9
:1050D000EBE8F6E01382128284839583A683B7837C
:1050E0008AE093E0918380836DE273E086EF96E03F
:1050F0000E946F1260E087E00E941202E5E3F1E097
:10510000E491A8EEB6E0EC93E1E2F1E0E491F0E0A6
:10511000EE0FFF1FE05FFE4F8591949112969C93D6
:105120008E9311971B961C921B971D961C921D9790
:105130001C961C921C971A961C921A9719961C92F0
:10514000199718961C92189717961C9217971696EF
:105150001C92169715961C92159714961C921497EC
:1051600013961C9264E373E082EE96E00E946F1245
:105170006EE089EC96E00E94032860E180EB96E007
:105180000E9403286FE087E996E00C940328CF93F0
:10519000DF93CDB7DEB7CE54D1090FB6F894DEBF9A
:1051A0000FBECDBF789484B5826084BD84B5816024
:1051B00084BD85B5826085BD85B5816085BD8091E2
:1051C0006E00816080936E0010928100809181005A
:1051D0008260809381008091810081608093810052
:1051E000809180008160809380008091B100846014
:1051F0008093B1008091B00081608093B000809175
:105200007A00846080937A0080917A008260809333
:105210007A0080917A00816080937A0080917A0090
:10522000806880937A001092C10010926F051092EE
:105230006E051092BD051092DF050E941B0984EDDA
:1052400094E090933F0580933E0585ED94E0909324
:105250003D0580933C05E091FE05F091FF0582E05D
:105260008083E091FA05F091FB051082E091FC0546
:10527000F091FD0580E1808310920606E091020620
:10528000F091030686E08083E0910006F09101062C
:10529000808180618083E0910006F0910106808129
:1052A00088608083E0910006F0910106808180682B
:1052B0008083E0910006F091010680818F7D8083DC
:1052C00083E398E090939F0180939E0181EE97E0A5
:1052D000909377018093760190934F0180934E01D4
:1052E00080EF90E0909327018093260181E090E089
:1052F0000E9433198C3009F4A2C188E190E09093A8
:1053000059018093580190E080E00E94331988236E
:1053100009F498C181E080930D0182E090E00E9441
:1053200033198F3F09F091C1109251011092500131
:1053300083E090E00E9433198F3F09F08CC11092F6
:1053400053011092520184E090E00E9433198F3F84
:1053500009F087C1109255011092540186E090E047
:105360000E9433198F3F09F082C1109257011092A9
:10537000560187E090E00E9433198F3F09F07DC10C
:10538000109264058BE090E00E9433198F3F09F082
:105390007BC110925B0110925A018CE090E00E9458
:1053A00033198F3F59F02091840130918501820F8C
:1053B000932F911D90935D0180935C018DE090E0AF
:1053C0000E9433198F3F29F090E090934901809318
:1053D000480161E089E00E94120261E086E00E94DB
:1053E000120261E083E00E9412028091490583303D
:1053F00008F0BFC192E09093EC05E82FF0E0E1588F
:10540000FF4FE491E093ED058F5F80934905E13014
:1054100009F461C108F43EC1E23009F483C180910E
:105420000B0190910C010E94750C90930C018093DC
:105430000B0161E08AE00E94120262E088E00E94B3
:10544000120288E00E94BB0121E0892B09F020E0D4
:1054500020934B051FB7F89480914A05811127C00E
:10546000E4E2F1E08491E8E3F1E09491E82FF0E0E8
:10547000EE0FFF1FE851FF4FA591B491EC91E92386
:1054800021F461E08AE00E94E40161E08AE00E9488
:1054900012028CB580618CBD8CB580648CBD61E0DE
:1054A0008DE00E94120261E08BE00E941202809166
:1054B0004A058F5F80934A051FBF80914B05882363
:1054C00009F45BC189E791E00E94CD0062E08EE0C3
:1054D0000E94120262E080E10E94120262E08FE00C
:1054E0000E94120261E082E00E94120204E110E0D8
:1054F00020E030E00093CC061093CD062093CE063A
:105500003093CF064EE150E060E070E04093D0066B
:105510005093D1066093D2067093D30680ED97E046
:10552000A0E0B0E08093D4069093D506A093D60671
:10553000B093D7060093B3061093B4062093B50634
:105540003093B6064093B7065093B8066093B906F9
:105550007093BA068093BB069093BC06A093BD06D9
:10556000B093BE0600939A0610939B0620939C0668
:1055700030939D0640939E0650939F066093A0062D
:105580007093A1068093A2069093A306A093A4060D
:10559000B093A50689EC90E00E94CC0525E030E0B0
:1055A00042E050E066EF76E0CE0101967C010E9479
:1055B000801222E030E041E050E066EF76E0CE017C
:1055C000875B9F4F0E948012BE01675B7F4FCE01B9
:1055D0008D5B9F4F0E9466126DE373E0CE018D5B81
:1055E0009F4F0E94A411B7010E94BA11FC0144818F
:1055F0005581608171818EEE95E00E94D7040E94F2
:105600000405CE018D5B9F4F0E941111CE01875B77
:105610009F4F0E941111C7010E9411110FEA10E063
:105620004AE1D42EDA94DD2009F4A9C0F80164918E
:105630008EEE95E00E947F050F5F1F4FF3CF8CE049
:1056400090E05DCE10920D0168CE90E090935101F4
:10565000809350016DCE90E090935301809352015E
:1056600072CE90E0909355018093540177CE90E0F4
:1056700090935701809356017CCE91E0811101C037
:1056800090E0909364057ECE90E090935B018093D0
:105690005A0183CE14BC15BC84B5826084BD85B527
:1056A000816085BD8091EC0590E0FC01E65EFE4FD7
:1056B000E491F0E0EE0FFF1FEE50FF4F2591349183
:1056C0003093480520934705FC01E25DFE4FE491CD
:1056D000E0934605A4CE1092800010928100809144
:1056E0008100886080938100809181008160809337
:1056F00081008091EC0590E0FC01E65EFE4FE491B4
:10570000F0E0EE0FFF1FEE50FF4F259134913093E4
:10571000450520934405FC01E25DFE4FE491E093D2
:1057200043057DCE1092B0001092B1008091B00080
:1057300082608093B0008091B10081608093B1005D
:105740008091EC0590E0FC01E65EFE4FE491F0E014
:10575000EE0FFF1FEE50FF4F25913491309342051D
:1057600020934105FC01E25DFE4FE491E09340058A
:1057700056CE8FEF8093ED0552CE89E5A4CE0E94E0
:10578000040584EA90E00E94E70580910B01909166
:105790000C0190935605809355050E94750C6FEF90
:1057A00070E089E00E94140468EE73E080E090E00D
:1057B0000E94960470E060E089E00E9414046FEF9C
:1057C00070E086E00E94140468EE73E080E090E0F0
:1057D0000E94960470E060E086E00E9414046FEF7F
:1057E00070E083E00E94140468EE73E080E090E0D3
:1057F0000E94960470E060E083E00E94140464E379
:1058000073E0C7010E946F126FE373E0CE01079649
:105810000E946F1268E473E0CE010D960E946F1231
:1058200061E573E0CE0143960E946F126AE573E072
:10583000CE0149960E946F1263E673E0CE014F9647
:105840000E946F126CE673E0CE0185960E946F1283
:1058500065E773E0CE018B960E946F126EE773E0EE
:10586000CE01C1960E946F1267E873E0CE01C79621
:105870000E946F126AE173E0CE01CD960E946F1212
:1058800066EF76E0CE018D5B9F4F0E9466126AE361
:1058900073E0CE018D5B9F4F0E94A411BC01CE012D
:1058A000CD960E944F12CE018D5B9F4F0E94111129
:1058B0000E94C8042B013C01F8EE4F0EF3E05F1E7E
:1058C000611C711C912C1FEF94EFC92EDD24D39421
:1058D00026E0822E3BE3A32E3FE1B32E8FE00E9411
:1058E000BB01892B11F49924939480E10E94BB01A0
:1058F000892B09F4912C0E94C80464197509860942
:10590000970996010D2C000C440B550B01E026174E
:10591000370748075907C0F40E94C8042B013C010F
:10592000911001C01F5F1A3009F4D5C008F0D8C02B
:1059300001E0B701189D600D711D112482EE96E003
:105940000E944F120E945E0EC5010197F1F70111EE
:10595000C5CFC090F506C11004C00E944F0181114F
:10596000C2C01092F3061092F5061092F4068CE86D
:1059700090E00E94E70582E890E00E94E7058E0132
:105980000D5B1F4F06501109C8010E941111E0164E
:10599000F106C1F710910A01812F0E94880181E16F
:1059A00090E00E94C70A0E945A0962E070E0812FCD
:1059B00090E00E94FE0C8BE896E00E94510A855010
:1059C00000E0883320F082E580930A0101E0109125
:1059D0000A01812F0E94880188E290E00E94C70A94
:1059E0000E945A0961E070E0812F90E00E94FE0C55
:1059F0008BE896E00E94510A181619060CF4D5C0DF
:105A0000013009F0D2C08CED90E00E94E70505E07E
:105A100010E048EE53E060E070E088EE93E00E9412
:105A20004E0260ED77E080E090E00E949604015025
:105A3000110979F78091640581110E9435190E943E
:105A4000D70D00916205109163050E94C8046B0197
:105A50007C0181E08093610511278091620590911E
:105A600063050817190779F40E94D70D0E94C8042E
:105A70006C197D098E099F09693B7B408105910561
:105A800060F310926105E0905F05F0906005009171
:105A90005D0510915E0520915B0530915C0540919C
:105AA0006205509163056091590570915A05809186
:105AB0005705909158050E94380600E010E00E94BA
:105AC000501901151105D9F30E9449058823B9F32E
:105AD0000E940000F4CF80EDC82E87E0D82E28CF9A
