:100000000C94AA000C94D2000C94D2000C94D20050
:100010000C94D2000C94D2000C94D2000C94622662
:100020000C94D2000C94D2000C94D2000C94B12603
:100030000C94D2000C94D2000C940C270C94D20097
:100040000C94C0250C94D2000C9430260C940A26F3
:100050000C94D2000C94D2000C94D2000C94D200D8
:100060000C9467270C94D200496E636F72726563BB
:100070007420536F6E6720466F726D6174210002A9
:10008000010053746F7020546573740054656D7073
:100090002E2073656E736F72206E6F7420666F759D
:1000A0006E642E0053746172742054657374004E34
:1000B00043533331322D3820485635313232206F98
:1000C0007220485635323232004669726D7761725D
:1000D000652076657273696F6E3A20004661756CB3
:1000E0007479204453333233312100445333323353
:1000F000315F543D0000000000240027002A00006A
:10010000000000250028002B00000000080002016C
:1001100000000304070000000000000000000000D1
:10012000002300260029000404040404040404023B
:100130000202020202030303030303010204081084
:100140002040800102040810200102040810200051
:10015000BF28612E11241FBECFEFD8E0DEBFCDBF78
:1001600027E0A6E0B4E001C01D92AB30B207E1F792
:1001700014E0A0E0B1E0E2E6F7E602C005900D92DF
:10018000A630B107D9F710E0C9EAD0E004C0219742
:10019000FE010E949031C83AD107C9F70E944A294E
:1001A0000C94A4330C9400008CBD9DBD08958091E7
:1001B000F306E091F406F091F506F8949181982BFE
:1001C00091832281382F309523232283A7E0B0E04A
:1001D0001197F1F7918193239183A3E2B0E01197F6
:1001E000F1F790817894EFECF0E03197F1F79823F4
:1001F00081E009F480E008959091F306E091F4061F
:10020000F091F506292F209580FF14C0F894828183
:10021000822382838181892B8183A3E2B0E01197BD
:10022000F1F78281982B9283789487ED90E0019783
:10023000F1F70895F8948281822382838181892B4A
:100240008183AFEFB0E01197F1F78281982B928311
:1002500078948FE090E0EBCF0F931F93CF93DF93D1
:10026000082FC8E0D0E011E081E0902F912309F43D
:1002700080E00E94FC00110F2197B1F7F894E09103
:10028000F406F091F50691818091F306809598230C
:100290009183E091F406F091F5069281892382839F
:1002A0007894DF91CF911F910F9108958091F3067B
:1002B000E091F406F091F506F8949181282F2095AD
:1002C0009223918378943DE743E050E0315029F147
:1002D000DA011197F1F790819823C1F3F894928194
:1002E000922392839181982B91837894ABE7B7E026
:1002F0001197F1F7F894918192239183A3E1B1E0F2
:100300001197F1F79081982381E009F080E07894CB
:10031000E3E6F6E03197F1F7089580E00895833041
:1003200081F028F4813099F08230A9F00895873067
:10033000A9F08830C9F08430B1F4809180008F7DBD
:1003400003C0809180008F7780938000089584B5EA
:100350008F7784BD089584B58F7DFBCF8091B000E9
:100360008F778093B00008958091B0008F7DF9CF92
:10037000CF93DF93282F30E0F901E75FFE4F8491A0
:10038000F901E55CFE4FD491F901E95DFE4FC4919E
:10039000CC23A1F081110E948F01EC2FF0E0EE0F31
:1003A000FF1FE35EFE4FA591B491EC91ED2381E038
:1003B00090E009F480E0DF91CF91089580E090E033
:1003C000FACF1F93CF93DF93282F30E0F901E75F37
:1003D000FE4F8491F901E55CFE4FD491F901E95D8E
:1003E000FE4FC491CC23A9F0162F81110E948F01DA
:1003F000EC2FF0E0EE0FFF1FE150FF4FA591B491FD
:100400008FB7F894EC91111108C0D095DE23DC93DE
:100410008FBFDF91CF911F910895DE2BF8CFCF933F
:10042000DF9390E0FC01E55CFE4F2491895D9E4FD7
:10043000FC0184918823C9F090E0880F991FFC018A
:10044000EB50FF4FA591B491FC01E150FF4FC591D6
:10045000D49161110DC09FB7F8948C91209582239F
:100460008C938881282328839FBFDF91CF910895A3
:10047000623051F49FB7F8943C91822F809583238A
:100480008C93E8812E2BEFCF8FB7F894EC912E2B25
:100490002C938FBFEACF4F925F926F927F928F9291
:1004A0009F92AF92BF92CF92DF92EF92FF920F9303
:1004B0001F93CF93DF9300D000D01F92CDB7DEB74C
:1004C0002091F80527FD2CC149835A836B837C83D7
:1004D0008C0161E08091F7050E940F028091F80580
:1004E0008D834801B12CA12C8D7F09F031C160E0D2
:1004F00072E18AE790E0A50198010E94713129011B
:100500003A017A01690191E0C91AD108E108F108BC
:10051000AFEFCA16D104E104F10409F00CF4C7C02E
:1005200060E472E48FE090E0A50198010E947131CF
:1005300069017A01B1E0CB1AD108E108F1088D8197
:10054000823009F06AC082E09FEFC916D104E1044D
:10055000F10409F00CF45EC160E970ED83E090E015
:10056000A50198010E94713169017A01A1E0CA1ABE
:10057000D108E108F10883E0BFEFCB16D104E10414
:10058000F10409F00CF446C168E478EE81E090E0F3
:10059000A50198010E94713169017A0181E0C81AB0
:1005A000D108E108F10884E09FEFC916D104E10405
:1005B000F10409F00CF42EC164E274EF80E090E0E5
:1005C000A50194010E94713169017A01B1E0CB1A51
:1005D000D108E108F10885E09FEFC916D104E104D4
:1005E000F10409F008F416C162E17AE780E090E0D6
:1005F000A50194010E94713169017A01B1E0CB1A21
:10060000D108E108F1088FEFC816D104E104F10424
:1006100011F008F0F0C086E0FDC08FEFC816D104DD
:10062000E104F10409F00CF491C068E478EE81E093
:1006300090E0A50198010E94713169017A0191E071
:10064000C91AD108E108F108AD8184E0A111C4CF35
:1006500083E0AFEFCA16D104E104F10461F15CF16B
:1006600062E17AE780E090E0A50194010E94713197
:1006700069017A0181E0C81AD108E108F10884E033
:100680009FEFC916D104E104F104A9F0A0F07301B1
:1006900062019AE0F594E794D794C7949A95D1F7BC
:1006A000A1E0CA1AD108E108F10885E004C081E0A0
:1006B000AD81A111AFC095B5987F892B85BD89818A
:1006C0009A81AB81BC812FEF3FEFA901892B8A2B47
:1006D0008B2B79F0D801AA0FBB1F29813A814B815E
:1006E0005C810E94363028EE33E040E050E00E940A
:1006F0004F319D81913009F45CC0923009F46BC098
:1007000091110EC0C7BC2093F3053093F4054093BC
:10071000F5055093F60580916E00826080936E001F
:100720000F900F900F900F900F90DF91CF911F912E
:100730000F91FF90EF90DF90CF90BF90AF909F9080
:100740008F907F906F905F904F90089582E0B0CF30
:1007500060E072E18AE790E0A50198010E947131A2
:1007600069017A01B1E0CB1AD108E108F10891E002
:10077000C114D10481E0E806F10484F068E478EE65
:1007800081E090E0A50198010E94713169017A0130
:1007900091E0C91AD108E108F10893E0AD81A130D8
:1007A00009F08DCF80918100887F892B8093810013
:1007B00086CFD0928900C09288002093EF053093B5
:1007C000F0054093F1055093F20580916F0082602F
:1007D00080936F00A5CFC092B3002093EB053093B8
:1007E000EC054093ED055093EE058091700082601A
:1007F0008093700095CF730162018AE0F594E794CD
:10080000D794C7948A95D1F7B1E0CB1AD108E10803
:10081000F10887E09091B100987F892B8093B10017
:100820004ECF1F93CF93DF93182FEB0161E00E940F
:100830000F02209739F460E0812FDF91CF911F9153
:100840000C94E101CF3FD10511F461E0F5CFE12F28
:10085000F0E0E75FFE4FE491E33031F140F4E13046
:10086000B1F0E230E1F0C038D1057CF7E4CFE730F9
:1008700029F1E83059F1E430B1F7809180008062CD
:1008800080938000D0938B00C0938A0004C084B50D
:10089000806884BDC7BDDF91CF911F91089584B555
:1008A000806284BDC8BDF7CF80918000806880934E
:1008B0008000D0938900C0938800EDCF8091B00074
:1008C00080688093B000C093B300E5CF8091B00002
:1008D00080628093B000C093B400DDCF3FB7F8943E
:1008E0008091770590917805A0917905B0917A056E
:1008F00026B5A89B05C02F3F19F00196A11DB11D7B
:100900003FBFBA2FA92F982F8827BC01CD01620FB6
:10091000711D811D911D42E0660F771F881F991F71
:100920004A95D1F708958F929F92AF92BF92CF923E
:10093000DF92EF92FF924B015C010E946E046B010B
:100940007C010E946E046C197D098E099F09683E26
:10095000734081059105A8F321E0821A9108A1084E
:10096000B10888EEC80E83E0D81EE11CF11C81148A
:100970009104A104B10429F7FF90EF90DF90CF908C
:10098000BF90AF909F908F9008952FB7F89460918B
:1009900073057091740580917505909176052FBF50
:1009A0000895089508950895AF92BF92CF92DF926F
:1009B000EF92FF920F931F93CF93DF936C017B0114
:1009C0008B01040F151FEB015E01AE18BF08C017A5
:1009D000D10759F06991D601ED91FC910190F08118
:1009E000E02DC6010995892B79F7C501DF91CF91DB
:1009F0001F910F91FF90EF90DF90CF90BF90AF903D
:100A00000895FC01538D448D252F30E0842F90E014
:100A1000821B930B541710F0CF96089501970895F9
:100A2000FC01918D828D981761F0A28DAE0FBF2FC2
:100A3000B11D5D968C91928D9F5F9F73928F90E018
:100A400008958FEF9FEF0895FC01918D828D981787
:100A500031F0828DE80FF11D858D90E008958FEFC4
:100A60009FEF0895FC01918D228D892F90E0805C8D
:100A70009F4F821B91098F739927089589EF95E005
:100A80000E94320521E0892B09F420E0822F08958D
:100A900080E090E0892B29F00E943E0581110C94A2
:100AA00000000895FC01A48DA80FB92FB11DA35A11
:100AB000BF4F2C91848D90E001968F739927848F7E
:100AC000A689B7892C93A089B1898C9183708064A1
:100AD0008C93938D848D981306C00288F389E02D42
:100AE00080818F7D80830895EF92FF920F931F93F3
:100AF000CF93DF93EC0181E0888F9B8D8C8D9813D1
:100B00001AC0E889F989808185FF15C09FB7F894DC
:100B1000EE89FF896083E889F98980818370806428
:100B200080839FBF81E090E0DF91CF911F910F9173
:100B3000FF90EF900895F62E0B8D10E00F5F1F4F82
:100B40000F731127E02E8C8D8E110CC00FB607FC91
:100B5000FACFE889F989808185FFF5CFCE010E941F
:100B60005205F1CFEB8DEC0FFD2FF11DE35AFF4F36
:100B7000F0829FB7F8940B8FEA89FB8980818062AD
:100B8000CFCF0F931F93CF93DF938C01D0E0C0E0C2
:100B9000F801EC0FFD1F6491662341F089EF95E0A9
:100BA0000E947405892B11F02196F2CFCE01DF91BE
:100BB000CF911F910F910895CF93DF93EC01888D12
:100BC0008823B9F0AA89BB89E889F9898C9185FDC8
:100BD00003C0808186FD0DC00FB607FCF7CF8C9156
:100BE00085FFF2CF808185FFEDCFCE010E945205B7
:100BF000E9CFDF91CF91089560933C0570933D0557
:100C000080933E0590933F05645D7E4F8F4F9F4FCD
:100C1000609338057093390580933A0590933B05AE
:100C200082E090E090933705809336050E94C504DA
:100C300060933205709333058093340590933505A6
:100C400008952F923F924F925F926F927F928F9270
:100C50009F92AF92BF92CF92DF92EF92FF920F934B
:100C60001F93CF93DF93382E962E842E222E84E668
:100C7000E816F1040CF459C092EBE91A97E0F90A6E
:100C8000E0924605009345052092440530924205C6
:100C90009092410580924005AE2DB0E020E833E30C
:100CA00041EE51E00E9436302B013C0122EB37E04F
:100CB000FF24E4E6F0E0C0E9D1E0C901825B97409F
:100CC0008E159F05B4F19EE4E91A98EFF90AC70161
:100CD00064E670E00E943B316C01C70160E971E09D
:100CE0000E943B315C01C7EED2E0E1E0F0E0112769
:100CF00083E0E822FF24E017F1070CF042C0E23065
:100D0000F10591F5E114F10479F5C114D10419F458
:100D1000A114B10449F580E8480E8BE3581E86E221
:100D2000681E711C31962196E6CF8EE1E80EF11C0B
:100D3000A7CFC90183709927892B99F4C901BF01F5
:100D40000E943B31892B31F4C901BE010E943B3125
:100D5000892B39F490E8490E91E5591E91E0691EFE
:100D6000711C2F5F3F4FA9CFA881B0E020E831E58B
:100D700041E050E00E943630460E571E681E791E34
:100D8000D1CF292D30E0ACE3B0E00E9478306B0188
:100D90007C01C80CD11CE11CF11C232D30E0A0E12A
:100DA000BEE00E947830C60ED71EE81EF91E822DC6
:100DB0008150990BDC0120E831E541E050E00E94D0
:100DC00096316C0D7D1D8E1D9F1D640D751D861D3C
:100DD000971DDF91CF911F910F91FF90EF90DF90C2
:100DE000CF90BF90AF909F908F907F906F905F90CB
:100DF0004F903F902F900C94FC05CF92DF92EF9292
:100E0000FF920F931F930E94C5048B019C01C09019
:100E10003205D0903305E0903405F09035056091AF
:100E20003C0570913D0580913E0590913F050C1960
:100E30001D092E093F09083E134021053105E0F048
:100E4000DC01CB010196A11DB11D80933C0590935F
:100E50003D05A0933E05B0933F05B701A60148515B
:100E60005C4F6F4F7F4F4093320550933305609333
:100E7000340570933505C7CF1F910F91FF90EF9008
:100E8000DF90CF9008954F925F926F927F928F92F2
:100E90009F92AF92BF92CF92DF92EF92FF920F9309
:100EA0001F93CF93DF934B015C0180912E059091AE
:100EB0002F05A0913005B091310588159905AA0537
:100EC000BB0509F4C6C08CE3C82ED12CE12CF12C53
:100ED000C501A70196010E944F3160934005CA01E8
:100EE000B901A70196010E944F3160934105C501E8
:100EF000B40120E13EE040E050E00E944F31CA01E1
:100F0000B90128E130E040E050E00E944F316093A9
:100F10004205C501B40120E831E541E050E00E94FE
:100F20004F3169017A01CA01B9016C5F7F4F8F4F60
:100F30009F4F27E030E040E050E00E944F316F5F6C
:100F400060934305412C512C320140E004E610E04F
:100F5000C0E9D1E0242F30E02E54384FF901E3707E
:100F6000FF273097F9F4C901B8010E943B31892B62
:100F700031F4C901BE010E943B31892B99F48EE600
:100F800091E0A0E0B0E0480E591E6A1E7B1ED3011E
:100F9000C201AA27BB27C816D906EA06FB0638F005
:100FA0004F5FD8CF8DE691E0A0E0B0E0ECCF40936A
:100FB0004605C90164E670E00E943B31EC01C901BD
:100FC00060E971E00E943B31309721F42097D9F419
:100FD0000097C9F04DE651E060E070E0441A550A10
:100FE000660A770AC418D508E608F708A7EEB2E043
:100FF00020E0213069F43097E9F5209711F400974B
:10100000C9F54DE106C04EE651E060E070E0E6CF84
:101010004C9150E070E060E031E0320FC416D5062C
:10102000E606F70640F0C41AD50AE60AF70A119652
:10103000232F3C30F1F62F5F20934505C394C092D7
:10104000440580922E0590922F05A0923005B09213
:101050003105DF91CF911F910F91FF90EF90DF90BD
:10106000CF90BF90AF909F908F907F906F905F9048
:101070004F9008954CE1CDCF0E94FD060E9443079A
:101080008091460590E08E54984F08950E94FD0689
:101090000E9443078091450590E008950E94FD0657
:1010A0000E9443078091440590E008950E94FD0648
:1010B0000E9443078091400590E008950E94FD063C
:1010C0000E9443078091410590E008950E94FD062B
:1010D0000E9443078091420590E00895CF92DF92ED
:1010E000EF92FF92CF93DF93EC010E94C5046B0156
:1010F0007C018F850E94B8019C0181E0211531059A
:1011000009F480E0898B8889811105C091E0232B47
:1011100009F090E0998B29898A89281721F0CD8AD6
:10112000DE8AEF8AF88E8D899E89AF89B88DB701E6
:10113000A601481B590B6A0B7B0BDB01CA01CB8054
:10114000DC80ED80FE80C816D906EA06FB0664F452
:101150003A81231749F02A83222349F04B895C897D
:101160004F5F5F4F5C8B4B8B3A81311117C0CF8043
:10117000D884E984FA84C816D906EA06FB0634F452
:101180008B899C89998388831C8A1B8A2A8BDF918F
:10119000CF91FF90EF90DF90CF900895CB84DC84C7
:1011A000ED84FE84C816D906EA06FB067CF78B8917
:1011B0009C89919581959109E5CF20910B05260F8A
:1011C0003327331F21323105ECF42091C105FC0196
:1011D00090E080E0243069F082E00895A0910B0552
:1011E0002191AC0145515B4FA40FB52FB11D2C933C
:1011F0000196861798F380910B05680F60930B0595
:1012000080E0089581E008951092C10581E0809307
:10121000C00510929B0561E082E10E94E10161E05E
:1012200083E10E94E101E9EBF0E080818E7F808321
:1012300080818D7F808388E48093B80085E48093EB
:10124000BC000895CF93DF9391E09093EA04882344
:10125000B9F0C091B800D091BA008091BC008A7BEF
:101260008093BC0060E082E10E94E10160E083E1E4
:101270000E94E1010E940409D093BA00C093B80013
:10128000DF91CF910895CF92DF92EF92FF920F936B
:101290001F93CF93DF93D091EA0581E0D13208F01C
:1012A0009CC0C091E9050E946E046B017C01809195
:1012B000C10581116CC082E08093C10581E08093FB
:1012C000C0058FEF8093BF051092BE05D093BD057A
:1012D000A9ECB5E0EDE9F5E080E0D8138DC01092FF
:1012E0009C0580919C05CC0FC82BC0939C058091D8
:1012F0009B05813009F084C010929B050E946E040A
:101300006B017C0180919C058093BB008091C3059B
:101310009091C405A091C505B091C605892B8A2B73
:101320008B2BA1F00E946E040091C3051091C4059F
:101330002091C5053091C6056C197D098E099F095C
:10134000061717072807390708F442C08091BC0028
:1013500083FDD8CF85EC8093BC000E946E046B01A6
:101360007C018091C105823009F44CC08091BF0599
:101370008F3F09F469C08091BF05803209F466C0CF
:101380008091BF05803309F463C084E026C080915A
:10139000C3059091C405A091C505B091C605892BE0
:1013A0008A2B8B2B09F483CF0E946E040091C30516
:1013B0001091C4052091C5053091C6056C197D09B1
:1013C0008E099F09061717072807390708F06FCFFE
:1013D0008091C2050E94220985E01092C8051092F2
:1013E000EA051092C705DF91CF911F910F91FF90F1
:1013F000EF90DF90CF9008959D9191938F5F6DCF87
:1014000085EEA9CF8091C3059091C405A091C50533
:10141000B091C605892B8A2B8B2B09F4A2CF0E9491
:101420006E040091C3051091C4052091C50530914B
:10143000C6056C197D098E099F090617170728072D
:10144000390708F08ECFC4CF80E0C7CF82E0C5CF88
:1014500083E0C3CFCF92DF92EF92FF920F931F935F
:10146000CF93DF93D82FC62F613208F098C00E9427
:101470006E046B017C018091C10581116BC081E01C
:101480008093C1058093C0059FEF9093BF05109294
:10149000BE059C0F9093BD0580939C0580919C0593
:1014A000DD0FD82BD0939C0580919B05813009F0EE
:1014B00078C010929B050E946E046B017C018091A4
:1014C0009C058093BB008091C3059091C405A091B9
:1014D000C505B091C605892B8A2B8B2BA1F00E94E4
:1014E0006E040091C3051091C4052091C50530918B
:1014F000C6056C197D098E099F090617170728076D
:10150000390708F448C08091BC0083FDD8CF85EC32
:101510008093BC000E946E046B017C018091C10528
:10152000813009F440C08091BE058C1710F4C09141
:10153000BE05EDE9F5E0ABE7B5E080E08C1355C002
:101540008C2FDF91CF911F910F91FF90EF90DF9043
:10155000CF9008958091C3059091C405A091C505D1
:10156000B091C605892B8A2B8B2B09F484CF0E945E
:101570006E040091C3051091C4052091C5053091FA
:10158000C6056C197D098E099F09061717072807DC
:10159000390708F070CF8091C2050E942209C0E08F
:1015A000CFCF85EEB5CF8091C3059091C405A091B2
:1015B000C505B091C605892B8A2B8B2B09F4AECFBC
:1015C0000E946E040091C3051091C4052091C505C9
:1015D0003091C6056C197D098E099F0906171707FA
:1015E0002807390708F09ACFD6CF91919D938F5F46
:1015F000A5CF0895E091630580916205E81730F466
:10160000F0E0E558FA4F808190E008958FEF9FEF6A
:10161000089590916305809162052FEF3FEF981731
:1016200048F4E92FF0E0E558FA4F208130E09F5F61
:1016300090936305C90108958091620590916305B7
:10164000891B990B0895CF92DF92EF92FF920F932F
:101650001F93CF93DF937C01CB018A012091C705B3
:10166000222389F0EB016B01C40ED51ECC15DD05DC
:1016700069F06991D701ED91FC910190F081E02D25
:10168000C7010995F3CF642F0E94DD08C801DF91DF
:10169000CF911F910F91FF90EF90DF90CF90089521
:1016A000CF93DF931F92CDB7DEB769832091C70533
:1016B0002223F9F02091EA05203258F021E030E0B1
:1016C000FC013383228390E080E00F90DF91CF9183
:1016D00008958091C805E82FF0E0E753FA4F99810B
:1016E00090838F5F8093C8058093EA0581E090E046
:1016F000ECCF61E0CE0101960E94DD08F7CF90E0CB
:1017000080E00895CF92DF92EF92FF920F931F93A4
:10171000CF93DF939091E90491110BC08FEF9FEF6E
:10172000DF91CF911F910F91FF90EF90DF90CF90BD
:1017300008959091E804992389F3082FC091E70454
:10174000D0E08091DF0481110DC00E94C504609338
:10175000DB047093DC048093DD049093DE0481E06D
:101760008093DF040E94C504C090DB04D090DC04A9
:10177000E090DD04F090DE046C197D098E099F096C
:101780006D32714081059105B0F01091DA040E942C
:10179000C5046093DB047093DC048093DD049093B4
:1017A000DE0491E091279093DA04992331F11092AD
:1017B000D9041092D8042091D8043091D9042095EE
:1017C00030958091D704282326FF1CC081E08093A8
:1017D000D60427FF1AC081E08093D5048091DA04F3
:1017E000882309F49BCF02C0D595C7950A95E2F7E7
:1017F000C0FF94CF80E09CE393CFD093D904C093F3
:10180000D804D9CF1092D604E4CF1092D504E6CFF5
:10181000EF92FF920F931F93CF93DF93182F809136
:10182000AD0481110DC00E94C5046093A90470939A
:10183000AA048093AB049093AC0481E08093AD0440
:10184000C091A704D091A804C930D10508F075C093
:10185000FE01E35DF34F0C949031360C420C460CC4
:10186000540C360C420C790C7B0C8C0C0E945601EB
:101870002196CA30D10509F091C01092A8041092A7
:10188000A70428C08CEC0E942C01F2CF84E40E94B3
:101890002C010E94C5046093A9047093AA0480934C
:1018A000AB049093AC04E4CF0E94C5040091A9045A
:1018B0001091AA042091AB043091AC04601B710B11
:1018C000820B930BC4E0D0E06E3E7240810591051F
:1018D00008F064C06091A3047091A4048091A504F1
:1018E0009091A604DF91CF911F910F91FF90EF90FF
:1018F00008958EEBC8CF98E0E92EF12C10E001E0BE
:101900000E94D7008111102B000F81E0E81AF10826
:10191000B9F71093A104ACCF88E0E82EF12C10E0C9
:1019200001E00E94D7008111102B000F21E0E21A84
:10193000F108B9F71093A2049BCFC930D10509F083
:1019400097CF6091A1047091A2046F3F760711F4C4
:1019500070E060E0072E000C880B990B0E94032FAB
:1019600020E030E040E85DE30E94622F111109C0E1
:101970006093A3047093A4048093A5049093A60499
:1019800077CF26E636E646EE5FE30E94622F20E040
:1019900030E040E052E40E948830EACFD093A804BF
:1019A000C093A70497CF0F931F93809155019091F7
:1019B0005601892B09F449C080918E048823A9F02F
:1019C0000E94C50400918A0410918B0420918C041C
:1019D00030918D04601B710B820B930B693E734039
:1019E0008105910590F110928E040E946608209165
:1019F0004F01309150018217930739F50E945E081C
:101A0000209151013091520182179307F1F40E9405
:101A10005608209153013091540182179307A9F47D
:101A20000E94C50460938A0470938B0480938C0495
:101A300090938D0481E080938E0480910A019091AF
:101A40000B0190936105809360051F910F9108959C
:101A5000CF93DF93EC012196FC0120812A33C9F456
:101A60002181243609F5229630E020E06AE0899150
:101A700090ED980F9A3078F4629FA001639F500D0B
:101A80001124082E000C990BC0979A01280F391FBA
:101A9000EECFCE01DFCF3093840420938304211551
:101AA000310511F02093090188818F3689F48A81EC
:101AB000082E000C990B9C012053310930938404AB
:101AC00020938304C397059710F42093080124966C
:101AD00088818236F1F4229630E020E06AE0899134
:101AE00090ED980F9A3068F4629FA001639F500DAB
:101AF0001124082E000C990BC0979A01280F391F4A
:101B0000EECF309384042093830430930701209315
:101B100006012091060130910701032E000C440BB1
:101B2000550B60E67AEE80E090E00E94713182E031
:101B3000220F331F441F551F8A95D1F720937F042E
:101B4000309380044093810450938204CE01DF914E
:101B5000CF9108958EBD00000DB407FEFDCF8EB568
:101B60000895CF9381E08093C70588E68093E905C7
:101B70001092C8051092EA0560E086E996E00E949E
:101B8000500B0E94430967E088E60E942A0A1092DF
:101B900063058093620586E996E00E94090B982F01
:101BA00092959F70CAE08F709C9F800D112490E0E9
:101BB0009093700580936F0586E996E00E94090B6B
:101BC000982F92959F708F709C9F800D112490E0AC
:101BD000909367058093660586E996E00E94090B5D
:101BE000982F929593708F709C9F800D112490E098
:101BF000909365058093640586E996E00E94090B41
:101C000086E996E00E94090B982F92959F708F703D
:101C10009C9F800D112490E0909369058093680546
:101C200086E996E00E94090B982F92959F708F701D
:101C30009C9F800D112490E090936B0580936A0522
:101C400086E996E00E94090B982F92959F708F70FD
:101C50009C9F800D112490E08053984F90936D05C8
:101C600080936C05CF9108958F929F92AF92BF920F
:101C70000F931F93CF93DF93CDB7DEB7A1970FB626
:101C8000F894DEBF0FBECDBF19A2423008F44AE07F
:101C90008E010F5D1F4F842E912CB12CA12CA5011C
:101CA00094010E944F31E62FB901CA01EA3044F590
:101CB000E05DD801EE938D01232B242B252B79F7A2
:101CC00090E080E0109769F0FD0101900020E9F7B5
:101CD0003197AF014A1B5B0BBD0189EF95E00E9474
:101CE000D404A1960FB6F894DEBF0FBECDBFDF912E
:101CF000CF911F910F91BF90AF909F908F900895BB
:101D0000E95CD7CF42E050E067E173E089EF95E00E
:101D10000C94D404CF93DF930E94C105EC010E9480
:101D2000820E8C0F9D1FDF91CF910895FC01808161
:101D30009181009711F00C94692E60E070E0CB0166
:101D400008954F925F926F927F928F929F92AF927F
:101D5000BF92CF92DF92EF92FF92CF93DF93CDB7F6
:101D6000DEB72D970FB6F894DEBF0FBECDBF0E9431
:101D70006E04C090D104D090D204E090D304F090CF
:101D8000D4046C197D098E099F096A31714481055B
:101D9000910508F429C20E946E046093D1047093E7
:101DA000D2048093D3049093D4048DEE96E00E94E5
:101DB000960E69837A838B839C8360E08AE00E941D
:101DC000E101FAE0CF2ED12CE12CF12C69817A814E
:101DD0008B819C81A70196010E94713149015A01B2
:101DE000660F771F6D527D4FDB014D905C9087E051
:101DF00090E00E94820B3C01C501B401A70196014D
:101E00000E947131660F771F6D527D4FFB01E0809C
:101E1000F18086E090E00E94820B46205720712CD2
:101E2000612C2AE0440C551C661C771C2A95D1F7BE
:101E30008E219F21B0E0A0E0482A592A6A2A7B2AF5
:101E400069817A818B819C8124E630E040E050E01A
:101E50000E94713169017A018091D604882311F0C2
:101E6000689477F88091D504882311F0689476F807
:101E70008091CF049091D004019711F4FFE37F2269
:101E8000209156052D87872D9927AA27BB278D835B
:101E90009E83AF83B8874301AA24BB24BB27A72D09
:101EA000962D852D89879A87AB87BC87222309F4D5
:101EB0006EC1842D0E94AA0D89850E94AA0D882DCD
:101EC0000E94AA0D8D810E94AA0D8AE0882E912C75
:101ED000A12CB12CC701B601A50194010E9471315A
:101EE000660F771F6D527D4FDB01CD90DC9085E052
:101EF00090E00E94820B7C0169817A818B819C81B8
:101F000028EE33E040E050E00E947131CA01B9018F
:101F1000A50194010E947131660F771F6D527D4FAC
:101F2000FB016080718084E090E00E94820BCE20F3
:101F3000DF20F12CE12C34E1CC0CDD1CEE1CFF1C6D
:101F40003A95D1F786219721B0E0A0E04AE0880FCA
:101F5000991FAA1FBB1F4A95D1F7C82AD92AEA2A76
:101F6000FB2A69817A818B819C8120E137E240E004
:101F700050E00E947131CA01B901A50194010E948B
:101F80007131660F771F6D527D4FDB01AD90BC90B4
:101F900083E090E00E94820B8A219B21B0E0A0E0C8
:101FA000C82AD92AEA2AFB2A69817A818B819C81F5
:101FB00020EA36E841E050E00E94713129013A01FF
:101FC0008091D604882309F4EDC06894F7F88091D5
:101FD000D504882309F4E9C06894F6F88F2D992771
:101FE000AA27BB278D839E83AF83B8874701AA2486
:101FF000BB24BB27AF2D9E2D8D2D89879A87AB875C
:10200000BC879D85992309F4D3C08C2D0E94AA0D0D
:1020100089850E94AA0D882D0E94AA0D8D810E949B
:10202000AA0D3AE0832E912CA12CB12CC301B20150
:10203000A50194010E947131660F771F6D527D4F8B
:10204000DB01CD90DC9082E090E00E94820B7C016D
:1020500069817A818B819C8120E432E44FE050E0F9
:102060000E947131CA01B901A50194010E94713128
:10207000660F771F6D527D4FFB016080718081E09C
:1020800090E00E94820BCE20DF20F12CE12C64E155
:10209000CC0CDD1CEE1CFF1C6A95D1F78621972124
:1020A000B0E0A0E07AE0880F991FAA1FBB1F7A95C5
:1020B000D1F7C82AD92AEA2AFB2A69817A818B8139
:1020C0009C8120E836E948E950E00E947131CA015C
:1020D000B901A50194010E947131660F771F6D52FD
:1020E0007D4FDB01AD90BC9090E080E00E94820BC0
:1020F0008A219B21B0E0A0E08C299D29AE29BF292F
:102100002091D6046C017D01222309F45CC06894FF
:10211000F7F88091D504882309F458C06894F6F83C
:102120004F2C5524662477244701AA24BB24BB27BF
:10213000AF2D9E2D8D2D89839A83AB83BC839D8586
:10214000992309F446C08C2D0E94AA0D89810E9412
:10215000AA0D882D0E94AA0D842D0E94AA0D61E06F
:102160008AE02D960FB6F894DEBF0FBECDBFDF918B
:10217000CF91FF90EF90DF90CF90BF90AF909F9066
:102180008F907F906F905F904F900C94E1018D81C4
:102190000E94AA0D882D0E94AA0D89850E94AA0D71
:1021A000842D91CEE894F7F812CFE894F6F816CF84
:1021B0008D810E94AA0D882D0E94AA0D89850E94FA
:1021C000AA0D8C2D2CCFE894F7F8A3CFE894F6F85D
:1021D000A7CF842D0E94AA0D882D0E94AA0D898167
:1021E0000E94AA0D8C2DB9CF2D960FB6F894DEBFA4
:1021F0000FBECDBFDF91CF91FF90EF90DF90CF90DA
:10220000BF90AF909F908F907F906F905F904F9016
:1022100008950F931F93CF93DF938C01EB01FC0183
:10222000808191810097E1F0688179816115710564
:10223000A9F0428153812C813D814217530770F0F0
:102240000E949D338C819D81F801958384831D823A
:102250001C82DF91CF911F910F9108950E944E3201
:1022600088819981F801918380838A819B819383FE
:1022700082838C819D8195838483198218821B823D
:102280001A82E5CFCF93DF93EC0188819981009783
:1022900011F00E944E32198218821D821C821B820C
:1022A0001A82DF91CF910895FC018081918100977E
:1022B00011F00C944E3208950F931F93CF93DF9338
:1022C000EC0188819981009759F02A813B8126177A
:1022D000370730F081E0DF91CF911F910F91089582
:1022E0008B016F5F7F4F0E94D732009759F099831F
:1022F00088831B830A832C813D81232B59F7FC01A2
:102300001082E8CF80E0E7CFEF92FF920F931F9308
:10231000CF93DF936115710541F480E0DF91CF9198
:102320001F910F91FF90EF90089541155105B1F065
:102330007B01EC010C811D81040F151FB8010E9467
:102340005C11882351F3288139818C819D81B701EB
:10235000820F931F0E949D331D830C8381E0DECF8B
:10236000EF92FF920F931F93CF93DF93CDB7DEB71A
:102370002D970FB6F894DEBF0FBECDBF7C01CB0109
:10238000BA012AE08E010F5F1F4FA8010E94B02EF4
:10239000F80101900020E9F73197AF01401B510B84
:1023A000B801C7010E948411811103C0C7010E94B6
:1023B0004211C7012D960FB6F894DEBF0FBECDBFF8
:1023C000DF91CF911F910F91FF90EF900895CF93E0
:1023D000DF93EC01FB0101900020E9F73197AF0199
:1023E000461B570B0E948411811103C0CE010E942D
:1023F0004211CE01DF91CF910895CF93DF93EC018D
:10240000FB0144815581608171810E948411811199
:1024100003C0CE010E944211CE01DF91CF910895F9
:10242000EF92FF920F931F93CF93DF9300D000D0D2
:10243000CDB7DEB77C01862F4AE08E010F5F1F4FBC
:10244000B80190E00E94902EF80101900020E9F779
:102450003197AF01401B510BB801C7010E94841195
:102460000F900F900F900F90DF91CF911F910F91D0
:10247000FF90EF900895EF92FF920F931F93CF93E9
:10248000DF93EC017B018A01BA010E945C1181118A
:102490000BC0CE010E944211CE01DF91CF911F915E
:1024A0000F91FF90EF9008951D830C83B7018881F1
:1024B00099810E949D33F0CFFB0101900020E9F744
:1024C0003197AF01461B570B0C943B120F931F9390
:1024D000CF93DF93CDB7DEB762970FB6F894DEBF28
:1024E0000FBECDBF8C01CB01F80111821082138287
:1024F0001282158214824AE0BE016F5F7F4F0E94F4
:10250000902EBE016F5F7F4FC8010E945C126296E1
:102510000FB6F894DEBF0FBECDBFDF91CF911F91F4
:102520000F910895CF93DF93EC01FB018617970776
:1025300049F0608171816115710541F044815581D7
:102540000E943B12CE01DF91CF9108950E9442116B
:10255000F9CFFC011182108213821282158214823B
:102560000C949212FC011182108213821282158245
:102570001482FB0101900020E9F73197AF01461B5F
:10258000570B0C943B12AF92BF92CF92DF92EF9217
:10259000FF920F931F93CF93DF936C015B017A013E
:1025A00089012417350720F48F2D7901042F182F66
:1025B00069E173E0C6010E94B212D5011496CD9173
:1025C000DC91EC16FD06E0F40C171D0708F4E80199
:1025D000D501ED91FC911197EC0FFD1F1081108238
:1025E0006D917C916E0D7F1DC60161157105A1F085
:1025F0000E945C12F50180819181C80FD91F188358
:10260000C601DF91CF911F910F91FF90EF90DF9066
:10261000CF90BF90AF9008950E944211EBCF4F92A0
:102620005F926F927F928F929F92AF92BF92CF9262
:10263000DF92EF92FF920F931F93CF93DF9300D01F
:1026400000D000D0CDB7DEB77C014B015A0180919C
:10265000A00481113AC081E08093A00498E9692E1A
:1026600094E0792E20E9422E24E0522E10E000E082
:102670000F5F1F4F680181E0C81AD1089801A601B9
:10268000B401CE0101960E94C312CE0101960E94B0
:10269000960ED3016D933D01CE0101960E94541117
:1026A0009801A601B501CE0101960E94C312CE0188
:1026B00001960E94960EF20161932F01CE010196C0
:1026C0000E9454110830110599F690918F0488E901
:1026D000C82E84E0D82EE0E9F4E08601A801D801F4
:1026E0008C919A30D8F58F5F8C930F5F1F4FDA0172
:1026F0008C918A3019F4D80111971C923196B4E06C
:10270000003A1B0759F79F5F943169F190938F044A
:1027100069E173E0C7010E94B212F60161916F0195
:10272000C7010E9410120C151D05B9F7C7012696A6
:102730000FB6F894DEBF0FBECDBFDF91CF911F91D2
:102740000F91FF90EF90DF90CF90BF90AF909F9050
:102750008F907F906F905F904F9008952081281701
:1027600021F28F5FC1CF10928F041092A004D0CFBE
:10277000CF92DF92EF92FF921F93CF93DF93CDB76B
:10278000DEB72C970FB6F894DEBF0FBECDBF182F63
:1027900065E473E0CE0107960E94B21222E030E0B9
:1027A00050E040E0133081F024E030E042E050E0BF
:1027B0001C3051F026E030E0103321F0103FA9F436
:1027C00028E030E044E050E06DEE76E0CE01019686
:1027D0000E94C312BE016F5F7F4FCE0107960E9419
:1027E0000911CE0101960E945411CE0107960E9454
:1027F000960E6B01CE0107960E945411C6012C96CD
:102800000FB6F894DEBF0FBECDBFDF91CF911F9101
:10281000FF90EF90DF90CF900895EF92FF920F938B
:102820001F93CF93DF93CDB7DEB762970FB6F894BF
:10283000DEBF0FBECDBF7C018B0177FF03C01195BA
:1028400001951109B801C7010E946612083E83E094
:1028500018070CF082C0B801CE010D960E946612D6
:102860006AE373E0CE0101960E94B212BE016F5F6F
:102870007F4FCE0107960E94A912BE01635F7F4F72
:10288000CE0107960E94FD11BC01C7010E94921261
:10289000CE0107960E945411CE0101960E94541158
:1028A000CE010D960E945411043611050CF055C04E
:1028B000B801CE010D960E94661269E373E0CE0165
:1028C00001960E94B212BE016F5F7F4FCE01079644
:1028D0000E94A912BE01635F7F4FCE0107960E943E
:1028E000FD11BC01C7010E949212CE0107960E9401
:1028F0005411CE0101960E945411CE010D960E94F2
:1029000054110A3011054CF5B801CE010D960E9404
:10291000661268E373E0CE0101960E94B212BE0116
:102920006F5F7F4FCE0107960E94A912BE01635FC1
:102930007F4FCE0107960E94FD11BC01C7010E9486
:102940009212CE0107960E945411CE0101960E9468
:102950005411CE010D960E945411C70162960FB614
:10296000F894DEBF0FBECDBFDF91CF911F910F91C5
:10297000FF90EF9008950F931F93CF93DF93CDB700
:10298000DEB762970FB6F894DEBF0FBECDBF8C01E5
:1029900077FF03C07195619571096A307105A4F5DF
:1029A000CE010D960E9466126AE373E0CE01019695
:1029B0000E94B212BE016F5F7F4FCE0107960E9448
:1029C000A912BE01635F7F4FCE0107960E94FD11E1
:1029D000BC01C8010E94A912CE0107960E945411A1
:1029E000CE0101960E945411CE010D960E94541101
:1029F000C80162960FB6F894DEBF0FBECDBFDF915F
:102A0000CF911F910F910895C8010E946612F0CFD7
:102A10000F931F93CF93DF93CDB7DEB768970FB6B1
:102A2000F894DEBF0FBECDBF8B018330D9F5209166
:102A3000F1063091F20642E050E06DEE76E0CE0114
:102A40000D960E94C312B801CE0101960E94BB14DC
:102A5000BE016F5F7F4FCE0107960E94A912BE0193
:102A6000635F7F4FCE0107960E94FD11BC018DEE82
:102A700096E00E949212CE0107960E945411CE0158
:102A800001960E945411CE010D960E945411689631
:102A90000FB6F894DEBF0FBECDBFDF91CF911F916F
:102AA0000F9108958C3009F042C02091F1063091C9
:102AB000F20644E050E06DEE76E0CE0143960E94CF
:102AC000C312B801CE010D960E94BB1422E030E083
:102AD00050E040E06DEE76E0CE0101960E94C31218
:102AE000BE016F5F7F4FCE0107960E94A912BE0103
:102AF000635F7F4FCE0107960E94FD11BE016D5EA0
:102B00007F4F0E94FD11BC018DEE96E00E94921253
:102B1000CE0107960E945411CE0101960E945411D5
:102B2000CE010D960E945411CE014396AECF209156
:102B3000F1063091F20646E050E0803349F0803FE4
:102B400009F0A5CF2091F1063091F20648E050E05F
:102B50006DEE76E0CE0143960E94C312B801CE011D
:102B60000D960E94BB1424E030E0B2CF0E94C50451
:102B700060938604709387048093880490938904FB
:102B800080918504882309F44FC02091CF043091AF
:102B9000D004C901880F991F21313105A1F1FC0131
:102BA000EB5CFE4F4081518141505109518340837C
:102BB000DC01AB5CBE4F6D917C911197FC01E35A37
:102BC000FE4F40815181641775073CF4FC01EB57BF
:102BD000FE4F408151814D935C932031310509F5C1
:102BE000209155013091560121303105B9F420E88A
:102BF0002093D7048B5C9E4FFC0160817181809192
:102C0000E7040C94081540915701509158014C501D
:102C100051095093580140935701CACF1092D704DD
:102C2000E9CF2930310531F708950E94C50460933A
:102C3000860470938704809388049093890480911C
:102C40008504882309F444C02091CF043091D00436
:102C5000C901880F991F2131310561F1FC01EB5C3D
:102C6000FE4F408151814F5F5F4F51834083DC01B4
:102C7000AB5CBE4F6D917C911197FC01EB57FE4F01
:102C800040815181461757073CF4FC01E35AFE4F3F
:102C9000408151814D935C9320313105B1F4109204
:102CA000D7048B5C9E4FFC01608171818091E704A9
:102CB0000C9408154091570150915801445F5F4FA3
:102CC0005093580140935701D2CF2930310549F72D
:102CD00008958F929F92AF92BF92DF92EF92FF92F0
:102CE0000F931F93CF93DF93CDB7DEB7A2970FB6A5
:102CF000F894DEBF0FBECDBF8C018AE0E3EBF1E0BC
:102D0000DE01119601900D928A95E1F780917D0484
:102D100090917E0401968A3091050CF086C09093C4
:102D20007E0480937D04E0917D04F0917E0481E037
:102D300090E08C0F9D1FE80FF91FD0808091570104
:102D400090915801489709F075C00E94C5044B0145
:102D50005C010E945608BC01CE014D960E94BB1436
:102D60000E945E08BC01CE0147960E94BB140E94DF
:102D70006608BC01CE010B960E94BB14BE01655FC4
:102D80007F4FCE0141960E94A912BE01695E7F4F1E
:102D9000CE0141960E94FD11BE01635E7F4F0E94ED
:102DA000FD117C01C501B40128EE33E040E050E0A4
:102DB0000E944F3124E630E040E050E00E944F3165
:102DC000BA01A901C7010E94B0117C016D2D0E94BA
:102DD0001012811103C0C7010E944211B701C8013E
:102DE0000E94A912CE0141960E945411CE010B9669
:102DF0000E945411CE0147960E945411CE014D9667
:102E00000E945411C801A2960FB6F894DEBF0FBEFF
:102E1000CDBFDF91CF911F910F91FF90EF90DF9089
:102E2000BF90AF909F908F90089510927E04109263
:102E30007D0479CF0E94C50428EE33E040E050E0E5
:102E40000E944F3124E630E040E050E00E944F31D4
:102E500049015A010E945608BC01CE014D960E94BC
:102E6000BB140E945E08BC01CE0147960E94BB14B1
:102E70000E94FD060E944307809142056CE070E0CD
:102E8000882331F0682F70E08D3010F06C5071099C
:102E9000CE010B960E94BB14BE01655F7F4FCE0131
:102EA00041960E94A912BE01695E7F4FCE014196F4
:102EB0000E94FD11BE01635E7F4F0E94FD11B501AE
:102EC000A40181CF8F929F92AF92BF92CF92DF9257
:102ED000EF92FF920F931F93CF93DF93CDB7DEB79F
:102EE0002C970FB6F894DEBF0FBECDBF8C016A01E0
:102EF0007B018091C704811111C00E94C504645BED
:102F00007B4F8F4F9F4F6093C3047093C404809393
:102F1000C5049093C60481E08093C7048091BB04EC
:102F2000811109C065E373E085EB94E00E94B21261
:102F300081E08093BB040E94C5048090C3049090FC
:102F4000C404A090C504B090C604681979098A0920
:102F50009B09693E73408105910508F4D8C00E9421
:102F6000C5046093C3047093C4048093C504909314
:102F7000C60420E030E040E251E4C701B6010E94FF
:102F8000622F6B017C0120E030E0A9010E942A3110
:102F900020E030E040E05FE387FDD2C0C701B6012A
:102FA0000E9488300E94F4307B0177FF04C0EE2439
:102FB000FF24E61AF70A5B0139E1A31A3CEFB30AD2
:102FC0008091590190915A019B012D593F4F690100
:102FD0002A5531094901B701892B09F0B6C0CE0144
:102FE00007960E9466126AE373E0CE0101960E9482
:102FF000B212BE01695F7F4FCE0101960E94FD11A2
:103000006AE373E00E94E711BC0185EB94E00E9443
:103010009212CE0101960E945411CE0107960E9491
:1030200054113FECA31637E0B30618F5B701CE01F3
:1030300007960E94661269E373E0CE0101960E9432
:10304000B212BE01695F7F4FCE0101960E94FD1151
:103050006AE373E00E94E711BC0185EB94E00E94F3
:103060009212CE0101960E945411CE0107960E9441
:10307000541187ECC816D10418F5B701CE01079694
:103080000E94661268E373E0CE0101960E94B212BC
:10309000BE01695F7F4FCE0101960E94FD116AE378
:1030A00073E00E94E711BC0185EB94E00E9492124C
:1030B000CE0101960E945411CE0107960E94541130
:1030C00023E18216910418F5B701CE0107960E94FC
:1030D000661267E373E0CE0101960E94B212BE0150
:1030E000695F7F4FCE0101960E94FD116AE373E094
:1030F0000E94E711BC0185EB94E00E949212CE0180
:1031000001960E945411CE0107960E94541165EB5E
:1031100074E0C8010E94A912C8012C960FB6F89459
:10312000DEBF0FBECDBFDF91CF911F910F91FF90FA
:10313000EF90DF90CF90BF90AF909F908F900895C9
:10314000C701B6010E9487302DCFCE0107960E949D
:1031500066126AE373E0CE0101960E94B212BE01CC
:10316000695F7F4FCE0101960E94FD116AE373E013
:103170000E94E711BC0185EB94E00E949212CE01FF
:1031800001960E945411CE0107960E9454113FEC03
:10319000A31637E0B30638F5C7016AE070E00E9475
:1031A0003B31CE0107960E94661269E373E0CE01BF
:1031B00001960E94B212BE01695F7F4FCE01019657
:1031C0000E94FD1169E373E00E94E711BC0185EBE9
:1031D00094E00E949212CE0101960E945411CE01F9
:1031E00007960E94541187ECC816D10438F5C70120
:1031F0006AE070E00E943B31CE0107960E946612A1
:1032000068E373E0CE0101960E94B212BE01695FCD
:103210007F4FCE0101960E94FD1169E373E00E9489
:10322000E711BC0185EB94E00E949212CE01019659
:103230000E945411CE0107960E94541123E1821678
:10324000910408F064CFC7016AE070E00E943B314E
:10325000CE0107960E94661267E373E0CE010196E5
:103260000E94B212BE01695F7F4FCE0101960E949B
:10327000FD1169E373E03CCF85ED8093BC00809144
:10328000C3059091C405A091C505B091C6050796E8
:10329000A11DB11D23E0B695A795979587952A9511
:1032A000D1F72091BC0024FD03C01092C105089500
:1032B0004091C3055091C4056091C5057091C60544
:1032C000452B462B472B69F30097A105B10541F02B
:1032D0002AE22A95F1F700C00197A109B109E1CFCF
:1032E0008091C2050C9422090C9428300C94203053
:1032F00088E090E00E947619682F70E089E00E94D3
:10330000110489E090E00E947619682F70E086E051
:103310000E9411048AE090E00E947619682F70E004
:1033200083E00C9411048F929F92AF92BF92CF9240
:10333000DF92EF92FF920F931F93CF93DF93CDB75E
:10334000DEB7EC970FB6F894DEBF0FBECDBF0E947C
:10335000C50420E137E240E050E00E944F31672B86
:10336000682B692B01F580916E058823E1F00E949E
:10337000B10DE0906C05F0906D0500916A0510911B
:103380006B05209168053091690540916F0550915A
:103390007005609166057091670580916405909154
:1033A00065050E94210610927C0410927B04109205
:1033B0007A041092790410927804109277040091A4
:1033C000600510916105F8018081882309F409C125
:1033D0000E94C504C0900C04D0900D04E0900E042F
:1033E000F0900F046C197D098E099F09C0900804A4
:1033F000D0900904E0900A04F0900B04C616D7069A
:10340000E806F90608F0EDC00E94C5044B015C0116
:1034100080920C0490920D04A0920E04B0920F04BE
:10342000680130E020E04AE0F801F1908F0180ED82
:103430008F0D8A3070F4429FC001439F900D11247C
:103440002F2DFF0C330B20533109280F391F6F012B
:10345000EBCF309384042093830460917F047091B8
:10346000800480918104909182042115310501F13D
:10347000032E000C440B550B0E947131209308045D
:103480003093090440930A0450930B04EFE9EF0DC5
:10349000E730A0F40E2E000CFF0BEF5AF54E0C9403
:1034A0009031DB1DDD1DCF1DD31DD51DD71DD91DB1
:1034B0002091090130E050E040E0DECF1092070497
:1034C000F6018181833241F4809107048F5F8093FC
:1034D000070486010E5F1F4FF80180818E32F1F4E0
:1034E000C0900804D0900904E0900A04F0900B0406
:1034F000C701B60122E030E040E050E00E947131A7
:10350000C20ED31EE41EF51EC0920804D092090418
:10351000E0920A04F0920B040F5F1F4FF8018081C4
:1035200080538A3008F04BC3809306040F5F1F4F0F
:10353000F80180818C3211F40F5F1F4FE091070476
:10354000EE2309F44EC0C0900804D0900904E09026
:103550000A04F0900B04809106048450990B4CE00F
:10356000489F9001499F300D1124E20FF32FF11D68
:10357000EE0FFF1FEB52FE4FB701A6018081918134
:103580000E944B020E94C504681979098A099B09A7
:10359000C616D706E806F90620F50E94C504609312
:1035A0000C0470930D0480930E0490930F0480918B
:1035B000F805813009F408C3823009F40BC3811186
:1035C00005C080916E008D7F80936E0060E08091D9
:1035D000F7050E94E10188E690E00E948A0E10E063
:1035E00000E010936105009360050E94C5040091FE
:1035F0007304109174042091750430917604601B5B
:10360000710B820B930B6630710581059105E8F013
:1036100080910C018111E4C270E060E089E00E94B9
:10362000110470E060E086E00E94110470E060E048
:1036300083E00E9411040E94C50460937304709398
:10364000740480937504909376048091CF049091D4
:10365000D004892B21F0809172048111DBC180910B
:1036600085048111D7C18091260481110DC00E946B
:10367000C5046093220470932304809324049093E0
:10368000250481E08093260480911A0481110DC0E5
:103690000E94C50460931604709317048093180465
:1036A0009093190481E080931A040E94C50400914C
:1036B0002204109123042091240430912504601BDE
:1036C000710B820B930B009100011091010120916D
:1036D000020130910301061717072807390708F080
:1036E0004DC00E94C504609322047093230480930C
:1036F000240490932504809114049091150400975C
:1037000009F0DAC281E090E09093D0048093CF0476
:1037100088E893E1A0E0B0E080930001909301017C
:10372000A0930201B09303018091140490911504B9
:103730008230910581F41092D0041092CF0440E6BB
:103740005AEE60E070E040930001509301016093F5
:103750000201709303010196833091050CF0CCC2F5
:10376000909315048093140480917204882321F0AF
:103770001092D0041092CF04109272040E94C504DB
:1037800000912204109123042091240430912504F7
:10379000601B710B820B930B603D77408105910597
:1037A00008F07CC30E94C504009116041091170410
:1037B0002091180430911904601B710B820B930B3C
:1037C000653671058105910508F424C10E94C50480
:1037D000609316047093170480931804909319044F
:1037E0008091CF049091D00420915705222309F4B1
:1037F00088C2892B89F5CE0149960E94691681E01D
:103800002091590130915A01232B09F480E00E9444
:10381000080CAB01BC01CE0101960E946217AE01FB
:10382000475E5F4FBE016F5F7F4FCE014F960E9494
:103830000F13BE01615E7F4F8DEE96E00E9409116D
:10384000CE014F960E945411CE0101960E94541150
:10385000CE0149960E9454118091CF049091D004DA
:10386000019709F062C00E943C0868EE73E00E9474
:103870003B31BC01CE018B960E94BB140E944608CE
:10388000BC01CE0185960E94BB140E944E08BC016B
:10389000CE0149960E94BB14BE01675E7F4FCE01E8
:1038A0004F960E94A912BE016B5D7F4FCE014F96CD
:1038B0000E94FD11BE01655D7F4F0E94FD11BC019C
:1038C000CE01C1960E94A912CE0101960E946916EE
:1038D000AE014F5C5F4FBE016F5F7F4FCE01C79659
:1038E0000E940F13BE01695C7F4F8DEE96E00E942F
:1038F0000911CE01C7960E945411CE0101960E9473
:103900005411CE01C1960E945411CE014F960E94CF
:103910005411CE0149960E945411CE0185960E9401
:103920005411CE018B960E9454118091CF04909136
:10393000D004049709F06EC081E0209159013091C4
:103940005A01232B09F480E00E94080CAB01BC0152
:10395000CE01C1960E9462170E943C0868EE73E097
:103960000E943B31BC01CE0185960E94BB140E948F
:103970004608BC01CE014F960E94BB140E944E081F
:10398000BC01CE0101960E94BB14BE016F5F7F4F48
:10399000CE0149960E94A912BE01615E7F4FCE0101
:1039A00049960E94FD11BE016B5D7F4F0E94FD1183
:1039B000BC01CE018B960E94A912AE014F5C5F4FF5
:1039C000BE01655D7F4FCE01C7960E940F13BE01F9
:1039D000695C7F4F8DEE96E00E940911CE01C7967B
:1039E0000E945411CE018B960E945411CE0149962B
:1039F0000E945411CE0101960E945411CE014F969F
:103A00000E945411CE0185960E945411CE01C19698
:103A10000E9454110E94A10E84ED96E00E946E084F
:103A20008BEB96E00E946E0882EA96E00E946E0898
:103A300080918504811135C21092E7048091D406EB
:103A40009091D506181619063CF080917B04909150
:103A50007C04019709F068C381E08093720410929E
:103A600061051092600544E650E060E070E088EE89
:103A700093E00E944B020E94C504609386047093F9
:103A8000870480938804909389048091CF04909157
:103A9000D00401968530910509F430C29093D0048A
:103AA0008093CF048091CF049091D004069721F4A5
:103AB0001092D0041092CF042091CF043091D00402
:103AC0008901000F111FF801E35FFE4F8081809391
:103AD000E704D9011197FD01EE0FFF1FED57FD4FD0
:103AE000608171816115710509F40FC3AB0141500B
:103AF0005109FA01EE0FFF1FE55AFD4F0190F081C9
:103B0000E02DAE17BF0709F000C36230710509F060
:103B1000F8C188E1EDEBF1E0DE01119601900D9224
:103B20008A95E1F780914D0190914E01837099271C
:103B3000892B21F48DE190E09C838B8380914B0154
:103B400090914C010197880F991FE1E0F0E0EC0F94
:103B5000FD1F8E0F9F1F2091490130914A01FC01EA
:103B600080819181821793070CF0CBC18AE090E0AD
:103B70009093D0048093CF04EC960FB6F894DEBFF8
:103B80000FBECDBFDF91CF911F910F91FF90EF90AE
:103B9000DF90CF90BF90AF909F908F90089581E07D
:103BA000809307048DCC83E0FBCF85E0F9CF86E0DE
:103BB000F7CF88E0F5CF8AE0F3CF8CE0F1CF8091AA
:103BC000080180930604B4CC80916F008D7F8093B0
:103BD0006F00FCCC809170008D7F80937000F6CCDC
:103BE00080917105811127CD009112041091130469
:103BF000F801EE0FFF1FE00FF11FDF01AA0FBB1F3F
:103C0000A95CBD4F8D919C9160910401709105015B
:103C1000680F791F7093050160930401DF01AA0FFB
:103C2000BB1FA75CBD4FCD90DC9080916804909144
:103C30006904C80ED91ED0926904C0926804EE0FC0
:103C4000FF1FE55CFD4FE080F1808091660490915C
:103C50006704E80EF91EF0926704E092660489E0BA
:103C60000E941104B60186E00E941104B70183E0AE
:103C70000E94110480911004909111040196909378
:103C80001104809310048F3F910551F40F5F1F4F73
:103C90001093130400931204109211041092100454
:103CA000809112049091130406970CF4C4CC1092E6
:103CB000130410921204BFCC019709F035CD84E0B3
:103CC00090E09093D0048093CF0488E893E1A0E043
:103CD000B0E08093000190930101A0930201B093A2
:103CE000030180915705811147C782E090E09093CE
:103CF00015048093140418CD109215041092140426
:103D000033CD892B09F062C0CE01C1960E9469169D
:103D10000E943C0868EE73E00E943B31BC01CE017A
:103D200085960E94BB140E944608BC01CE014F96A6
:103D30000E94BB140E944E08BC01CE0101960E9455
:103D4000BB14BE016F5F7F4FCE0149960E94A9123E
:103D5000BE01615E7F4FCE0149960E94FD11BE01FA
:103D60006B5D7F4F0E94FD11BC01CE018B960E94BE
:103D7000A912AE014F5C5F4FBE01655D7F4FCE0162
:103D8000C7960E940F13BE01695C7F4F8DEE96E0CF
:103D90000E940911CE01C7960E945411CE018B9644
:103DA0000E945411CE0149960E945411CE010196F1
:103DB0000E945411CE014F960E945411CE01859657
:103DC0000E945411CE01C1960E9454118091CF04DB
:103DD0009091D004019709F01DCE0E943C0868EE36
:103DE00073E00E943B31BC01CE018B960E94BB1454
:103DF0000E944608BC01CE0185960E94BB140E9419
:103E00004E08BC01CE0149960E94BB14BE01675EFC
:103E10007F4FCE014F960E94A912BE016B5D7F4F6E
:103E2000CE014F960E94FD11BE01655D7F4F0E943D
:103E3000FD11BC01CE01C1960E94A912CE010196CE
:103E40000E946916AE014F5C5F4FBE016F5F7F4FEE
:103E5000CE01C7960E940F13BE01695C7F4F8DEEA5
:103E600096E00E940911CE01C7960E945411CE011E
:103E700001960E945411CE01C1960E945411CE01A8
:103E80004F960E945411CE0149960E945411CE01C2
:103E900085960E945411CE018B96BACD1092A00443
:103EA000B9CD0E94C5040091860410918704209129
:103EB000880430918904601B710B820B930B61366F
:103EC0007A4E8105910508F4B9CD10928504E091F0
:103ED000CF04F091D004EE0FFF1FE555FD4F808118
:103EE00091819093D0048093CF04880F991FFC0197
:103EF000E35FFE4F80818093E704A0CD86E090E0F1
:103F0000CDCD109285045093D0044093CF04452B1F
:103F1000B9F40E943C087C010E9446088C010E9472
:103F20004E084091450150914601609143017091C6
:103F300044019C0180914101909142010E9421061F
:103F40008091CF049091D0040197F9F4E0904D0155
:103F5000F0904E0100914B0110914C01809049016D
:103F600090904A010E9456085C010E945E086C0114
:103F70000E9466089401A501B6010E942106609185
:103F800047018DE090E00E9474198091CF049091D8
:103F9000D0040297C1F460914F0182E090E00E944A
:103FA00074196091510183E090E00E94741960914E
:103FB000530184E090E00E9474196091550186E0FD
:103FC00090E00E9474198091CF049091D0040397DF
:103FD00031F46091570181E090E00E947419809162
:103FE000CF049091D004049731F4609159018BE093
:103FF00090E00E9474198091CF049091D0040597AD
:1040000049F460915B0180918301681B8CE090E032
:104010000E9474190E943C0868EE73E00E943B31D4
:10402000082F0E944608F82E0E944E08E82E0E9493
:104030005608B82E0E945E08C82E0E946608D82E28
:1040400081E08093C70588E68093E9051092C80552
:104050001092EA0560E086E996E00E94500B1AE0B3
:104060008B2D612F0E942F318295807F682F690FE1
:1040700086E996E00E94500B8C2D612F0E942F3113
:104080008295807F682F690F86E996E00E94500B29
:104090008D2D612F0E942F318295807F682F690FAF
:1040A00086E996E00E94500B61E086E996E00E9466
:1040B000500B8E2D612F0E942F318295807F682FAB
:1040C000690F86E996E00E94500B8F2D612F0E94A8
:1040D0002F318295807F682F690F86E996E00E94D4
:1040E000500B802F612F0E942F318295807F682F87
:1040F000690F86E996E00E94500B60E086E996E041
:104100000E94500B0E94430937CD2331310561F0E5
:10411000295031092230310538F00E94B813F801D6
:10412000EB5CFE4F918380838091D4069091D506FD
:1041300097FD07C080917B0490917C04019609F063
:10414000F4C044E650E060E070E088EE93E00E9446
:104150004B0280918504811152C00091CF041091CF
:10416000D0040E94C50460938604709387048093F2
:10417000880490938904012B09F041C00E945608DD
:10418000BC01CE0185960E94BB140E945E08BC0152
:10419000CE014F960E94BB140E946608BC01CE015E
:1041A00001960E94BB14BE016F5F7F4FCE014996FE
:1041B0000E94A912BE01615E7F4FCE0149960E9406
:1041C000FD11BE016B5D7F4F0E94FD1169E373E03D
:1041D0000E94E711BC018DEE96E00E949212CE0182
:1041E00049960E945411CE0101960E945411CE01AD
:1041F0004F960E945411CE0185960E9454118091D1
:10420000CF049091D004019709F056C00E944E0847
:1042100090934A01809349010E94460890934C0173
:1042200080934B010E943C08BC0190934E01809307
:104230004D018091470190914801892B09F099C166
:10424000CE0185960E94BB1460914B0170914C0188
:10425000CE014F960E94BB146091490170914A01B2
:10426000CE0101960E94BB14BE016F5F7F4FCE014D
:1042700049960E94A912BE01615E7F4FCE01499608
:104280000E94FD11BE016B5D7F4F0E94FD11BC01BC
:104290008DEE96E00E949212CE0149960E94541132
:1042A000CE0101960E945411CE014F960E945411E6
:1042B000CE0185960E945411E091CF04F091D00474
:1042C000EE0FFF1FE555FD4F208131813093D00463
:1042D0002093CF042D30310549F481E090E0909394
:1042E00056018093550180E88093D704809185041E
:1042F00091E08927809385048901000F111FF8013F
:10430000E35FFE4F80818093E704A9014251510988
:104310004230510550F02930310539F00E94B81370
:10432000F801EB5CFE4F918380838091BB069091F6
:10433000BC06009709F02EC18091790490917A040F
:104340000197E1F481E0809372041092610510926C
:10435000600544E650E060E070E088EE93E00E9483
:104360004B020E94151680918504811107C010929E
:10437000710560E087E090E00E94741980917004FC
:1043800090917104019609F00EC18091BD068823B9
:1043900009F409C11092E904809185048823F9F099
:1043A0000E94C50400916C0410916D0420916E046C
:1043B00030916F04601B710B820B930B6739710591
:1043C0008105910560F00E94C50460936C047093B0
:1043D0006D0480936E0490936F040E941516809173
:1043E000A2069091A306009709F0E1C0809177049E
:1043F00090917804019771F511E010937204109276
:1044000061051092600544E650E060E070E088EEDF
:1044100093E00E944B020E94B615809185048111A1
:1044200019C01093710561E087E090E00E94741953
:104430006091040188E090E00E9474196091680422
:1044400089E090E00E947419609166048AE090E02F
:104450000E94741980916A0490916B04019609F08E
:10446000AFC08091A406882309F4AAC08091850476
:104470001092E804882321F10E94C504009162048F
:10448000109163042091640430916504601B710BEA
:10449000820B930B673971058105910508F449C0BA
:1044A0000E94C50460936204709363048093640463
:1044B000909365040E94B61580918504811139C0DE
:1044C0008091BB069091BC0697FD06C0809179044F
:1044D00090917A04019691F444E650E060E070E037
:1044E00088EE93E00E944B0281E080930C0161E032
:1044F00090E080E00E9474190E9478198091A206D1
:104500009091A30697FD06C080917704909178045E
:10451000019679F444E650E060E070E088EE93E0C4
:104520000E944B0210920C0160E090E080E00E943B
:104530007419E091CF04F091D004E431F10508F052
:104540001BCBEB55FD4D0C949031E4225E2353249C
:104550009F24C8240C25BC1DBC1DBC1D3B25632508
:1045600063256325BC1DBC1DBC1DBC1DBC1DC82412
:104570000C25CE0185960E94BB1460914901709173
:104580004A01CE014F960E94BB1460914B0170917D
:104590004C0166CE9093710480937004181619062E
:1045A0000CF4D0CEC9CE81E08093E90418CF90936B
:1045B0006B0480936A04181619060CF41DCF16CFED
:1045C00081E08093E80478CF8091A00481112DC010
:1045D0000E94C50400912E0410912F0420913004F4
:1045E00030913104601B710B820B930B63337105A7
:1045F0008105910508F45BC00E94C50460932E04F8
:1046000070932F048093300490933104CE0101966F
:104610000E946916BE016F5F7F4F8DEE96E00E948B
:104620000911CE0101960E94541180913704811125
:104630000DC00E94C50460933304709334048093CA
:1046400035049093360481E080933704009132045E
:1046500010E00E9456080817190781F00E94C5044F
:10466000609333047093340480933504909336043C
:104670001092D7040E945608809332040E94C50409
:1046800000913304109134042091350430913604A4
:10469000601B710B820B930B653F71408105910587
:1046A00018F080EC8093D7040E94D30C65CA6DEE9D
:1046B00076E0CE0101960E94A912ACCF8091A004B1
:1046C0008111DEC080915A04811111C00E94C5047D
:1046D00067517C4F8F4F9F4F6093560470935704E0
:1046E000809358049093590481E080935A048091F8
:1046F0004E04811144C00E943C0868EE73E00E94A1
:104700003B31BC01CE0101960E94BB140E944608B9
:10471000BC01CE0149960E94BB140E944E08BC0108
:10472000CE0185960E94BB14BE016B5D7F4FCE010A
:104730004F960E94A912BE01675E7F4FCE014F9631
:104740000E94FD11BE016F5F7F4F0E94FD11BC01F1
:1047500088E494E00E94A91281E080934E04CE0187
:104760004F960E945411CE0185960E945411CE019D
:1047700049960E945411CE0101960E945411009155
:1047800047011091480180914004811105C00093B8
:104790003F0481E0809340040E94C504C090560409
:1047A000D0905704E0905804F09059046C197D099A
:1047B0008E099F09693E73408105910530F480910F
:1047C0003F048017110609F44AC00E94C504609393
:1047D0005604709357048093580490935904012B06
:1047E00009F050C00E943C08BC01CE0101960E9415
:1047F000BB140E944608BC01CE0149960E94BB141E
:104800000E944E08BC01CE0185960E94BB14BE01D9
:104810006B5D7F4FCE014F960E94A912BE01675E6D
:104820007F4FCE014F960E94FD11BE016F5F7F4FFB
:104830000E94FD11BC0188E494E00E949212CE0116
:104840004F960E945411CE0185960E945411CE01BC
:1048500049960E945411CE0101960E94541168E4B9
:1048600074E0CE0101960E94A912BE016F5F7F4FD6
:104870008DEE96E00E940911CE0101960E9454111E
:1048800080E410CF0E943C08BC01CE0101960E943A
:10489000BB140E944E08BC01CE0149960E94BB1475
:1048A0000E944608AFCF6091530170915401CE0130
:1048B00085960E94BB146091510170915201CE0106
:1048C0004F960E94BB1460914F0170915001CE0130
:1048D00001960E94BB14BE016F5F7F4FCE014996C7
:1048E0000E94A912BE01615E7F4FCE0149960E94CF
:1048F000FD11BE016B5D7F4F0E94FD1169E373E006
:104900000E94E711BC018DEE96E00E949212CE014A
:1049100049960E945411CE0101960E945411CE0175
:104920004F960E945411CE0185960E945411809199
:10493000550190915601019741F580E8B3CE609101
:10494000570170915801CE0149960E94661269E3A1
:1049500073E0CE0101960E94B212BE01675E7F4FE6
:10496000CE0101960E94FD1167E373E00E94E711FA
:10497000BC018DEE96E00E949212CE0101960E943B
:104980005411CE0149960E9454111092D7048CCE36
:104990008091A004811124C081E0209159013091BF
:1049A0005A01232B09F480E00E94080CAB01BC01E2
:1049B000CE0101960E946217BE016F5F7F4F8DEEA0
:1049C00096E00E940911CE0101960E945411809137
:1049D000590190915A01892BD1F480E48093D70436
:1049E00081E02091590130915A01232B09F480E094
:1049F0000E94080C1091D70420E030E0A9010E9429
:104A0000FC2E87FF07C010681093D704B5C810921A
:104A1000D704E6CF1F77F8CF60915B0170915C01FE
:104A2000CE0101960E94BB14BE016F5F7F4FCE0185
:104A300049960E94A91265E373E0CE0149960E944F
:104A4000E711BC018DEE96E00E949212CE014996CC
:104A50000E945411CE0101960E94541180915B0175
:104A600090915C0197FD03C01092D70485C880E83F
:104A70008093D70481C88091470190914801892B88
:104A800099F46AE173E08DEE96E00E945C1283E097
:104A900090E090932201809321018CE090E090932C
:104AA00024018093230168C863E273E08DEE96E0F1
:104AB0000E945C128CE090E090932201809321018F
:104AC00083E090E0ECCF60914D0170914E018091B8
:104AD000470190914801892BF1F5CE0185960E94FE
:104AE0000D1460914B0170914C01CE014F960E94C4
:104AF000BB146091490170914A01CE0101960E9458
:104B0000BB14BE016F5F7F4FCE0149960E94A91270
:104B1000BE01615E7F4FCE0149960E94FD11BE012C
:104B20006B5D7F4F0E94FD11BC018DEE96E00E94EF
:104B30009212CE0149960E945411CE0101960E9414
:104B40005411CE014F960E945411CE0185960E94B9
:104B500054110C94BC1DCE0185960E940D146091D9
:104B6000490170914A01CE014F960E94BB14609199
:104B70004B0170914C01C1CF81E090E00C94AB1BD4
:104B80001F920F920FB60F9211242F933F938F9382
:104B90009F93AF93BF938091730590917405A091FB
:104BA0007505B09176053091720523E0230F2D37FE
:104BB00058F50196A11DB11D2093720580937305D0
:104BC00090937405A0937505B09376058091770551
:104BD00090917805A0917905B0917A050196A11D73
:104BE000B11D8093770590937805A0937905B093D4
:104BF0007A05BF91AF919F918F913F912F910F9027
:104C00000FBE0F901F90189526E8230F0296A11D46
:104C1000B11DD2CF1F920F920FB60F9211242F9376
:104C20003F934F935F936F937F938F939F93AF9334
:104C3000BF93EF93FF9389EF95E00E945205FF9198
:104C4000EF91BF91AF919F918F917F916F915F9104
:104C50004F913F912F910F900FBE0F901F9018957D
:104C60001F920F920FB60F9211242F938F939F9341
:104C7000EF93FF93E0910906F0910A068081E0919D
:104C80000F06F091100682FD1BC0908180911206E4
:104C90008F5F8F7320911306821741F0E091120607
:104CA000F0E0E750FA4F958F80931206FF91EF9155
:104CB0009F918F912F910F900FBE0F901F9018957D
:104CC0008081F4CF1F920F920FB60F9211242F9371
:104CD0003F938F939F93AF93BF93EF93FF938091F5
:104CE000EB059091EC05A091ED05B091EE050097D4
:104CF000A105B10531F130914B05E0914C05F091E2
:104D00004D05208123272083181619061A061B0635
:104D10001CF40197A109B1098093EB059093EC0570
:104D2000A093ED05B093EE05FF91EF91BF91AF9188
:104D30009F918F913F912F910F900FBE0F901F90D9
:104D40001895209170002D7F2093700020914B05C5
:104D5000E0914C05F0914D0530812095232320836F
:104D6000DBCF1F920F920FB60F9211248F939F9358
:104D7000AF93BF93EF93FF938091EF059091F00570
:104D8000A091F105B091F205892B8A2B8B2BA1F113
:104D900090914E05E0914F05F09150058081892753
:104DA00080838091EF059091F005A091F105B0917D
:104DB000F205181619061A061B069CF48091EF05D9
:104DC0009091F005A091F105B091F2050197A1092C
:104DD000B1098093EF059093F005A093F105B0938E
:104DE000F205FF91EF91BF91AF919F918F910F903D
:104DF0000FBE0F901F90189580916F008D7F80934C
:104E00006F0080914E05E0914F05F0915005908123
:104E1000809589238083E5CF1F920F920FB60F9262
:104E200011248F939F93AF93BF93EF93FF93809140
:104E3000F3059091F405A091F505B091F605892B45
:104E40008A2B8B2BA1F190915105E0915205F091A5
:104E500053058081892780838091F3059091F40523
:104E6000A091F505B091F605181619061A061B064D
:104E70009CF48091F3059091F405A091F505B09113
:104E8000F6050197A109B1098093F3059093F40504
:104E9000A093F505B093F605FF91EF91BF91AF9107
:104EA0009F918F910F900FBE0F901F90189580913A
:104EB0006E008D7F80936E0080915105E0915205C8
:104EC000F09153059081809589238083E5CF1F92CF
:104ED0000F920FB60F9211242F933F934F935F932E
:104EE0006F937F938F939F93AF93BF93EF93FF93B2
:104EF0008091B900887F803609F44AC0F0F5883285
:104F000009F4A7C018F5803109F49BC0B8F48823D0
:104F100009F4F9C0883009F494C0FF91EF91BF9172
:104F2000AF919F918F917F916F915F914F913F9141
:104F30002F910F900FBE0F901F901895883109F494
:104F400088C0803251F78093BF0514C0803409F4C3
:104F50009DC040F48033B9F38833F9F68093BF05E0
:104F600085ECB0C0803509F485C0883509F496C059
:104F7000883499F60E943C19D0CF883909F48CC046
:104F800038F5883729F050F4883611F0803729F643
:104F900083E08093C10510922D0557C0883809F42D
:104FA0007BC0803919F0803809F0B7CF80912D058A
:104FB000803208F071C0E0912D0581E08E0F809362
:104FC0002D058091BB00F0E0E35FFA4F80833DC088
:104FD000803B39F0E0F4803A09F479C0883A09F06E
:104FE0009CCF84E08093C10510920C0510920B05B4
:104FF000E0914905F0914A05099580910B058111D1
:105000000FC081E080930B051092EB0409C0803C37
:1050100009F4A6CF883C09F4A3CF883B09F07DCFE3
:10502000E0910C0581E08E0F80930C05F0E0E551D6
:10503000FB4F80818093BB0090910C0580910B0504
:1050400029C080919C058093BB0085EC8093BC00B7
:1050500064CF9091BE058091BD05981758F5E091F9
:10506000BE0581E08E0F8093BE05F0E0E356FA4F57
:105070008081E9CFE091BE0581E08E0F8093BE056F
:105080008091BB00F0E0E356FA4F80839091BE051B
:105090008091BD059817C8F285E8D8CFE091BE058C
:1050A00081E08E0F8093BE058091BB00F0E0E35657
:1050B000FA4F80838091C00581115CCF81E080939D
:1050C0009B0584EA8093BC001092C10526CF85EC35
:1050D0008093BC001092C10580912D05803230F480
:1050E000E0912D05F0E0E35FFA4F108260912D050D
:1050F00070E0E0914705F09148058DE095E0099555
:1051000010922D050ACF1092BF0534CFCF93DF93B5
:10511000EC01862F6F87188A91E0998B9A8B1C8AF5
:105120001B8A198218821A821D8A1E8A1F8A188E6B
:1051300044E150E060E070E04B835C836D837E83EC
:105140004AEF50E060E070E04F83588769877A87C4
:1051500048EE53E060E070E04B875C876D877E87A8
:1051600060E00E940F028889811106C061E08F858E
:10517000DF91CF910C94E101DF91CF910895E9EF98
:10518000F5E01382128288EE93E0A0E0B0E0848321
:105190009583A683B78327EF32E03183208325EC04
:1051A00030E03587248724EC30E03787268720ECF1
:1051B00030E0318B208B21EC30E0338B228B22ECE2
:1051C00030E0358B248B26EC30E0378B268B118E2C
:1051D000128E138E148EE6E9F6E013821282848317
:1051E0009583A683B78389E093E0918380836CE203
:1051F00073E081E097E00E94B21260E087E00E94D5
:105200000F02E2E4F1E0E491A3EFB6E0EC93EEE20A
:10521000F1E0E491F0E0EE0FFF1FE35EFE4F8591B9
:10522000949112969C938E9311971B961C921B97A8
:105230001D961C921D971C961C921C971A961C92E8
:105240001A9719961C92199718961C9218971796E8
:105250001C92179716961C92169715961C921597E6
:1052600014961C92149713961C9263E373E08DEED0
:1052700096E00E94B2126EE084ED96E00E948628CD
:1052800060E18BEB96E00E9486286FE082EA96E070
:105290000C948628CF93DF93CDB7DEB7CE54D109D7
:1052A0000FB6F894DEBF0FBECDBF789484B5826090
:1052B00084BD84B5816084BD85B5826085BD85B5BA
:1052C000816085BD80916E00816080936E00109238
:1052D00081008091810082608093810080918100B3
:1052E0008160809381008091800081608093800044
:1052F0008091B10084608093B1008091B0008160A2
:105300008093B00080917A00846080937A008091CD
:105310007A00826080937A0080917A008160809325
:105320007A0080917A00806880937A001092C100A0
:1053300010926305109262051092C8051092EA055A
:105340000E94040981ED94E090934A0580934905F9
:1053500082ED94E09093480580934705E09109061B
:10536000F0910A0682E08083E0910506F09106063E
:105370001082E0910706F091080680E18083109288
:105380001106E0910D06F0910E0686E08083E09113
:105390000B06F0910C06808180618083E0910B0602
:1053A000F0910C06808188608083E0910B06F0917B
:1053B0000C06808180688083E0910B06F0910C06DA
:1053C00080818F7D808383E398E090939E0180931A
:1053D0009D0181EE97E09093760180937501909303
:1053E0004E0180934D0180EF90E0909326018093D1
:1053F000250181E090E00E9476198C3009F4A2C169
:1054000088E190E0909358018093570190E080E00C
:105410000E947619882309F498C181E080930C01D9
:1054200082E090E00E9476198F3F09F091C11092BE
:10543000500110924F0183E090E00E9476198F3F57
:1054400009F08CC1109252011092510184E090E059
:105450000E9476198F3F09F087C110925401109273
:10546000530186E090E00E9476198F3F09F082C1D7
:10547000109256011092550187E090E00E94761933
:105480008F3F09F07DC1109271058BE090E00E9482
:1054900076198F3F09F07BC110925A011092590181
:1054A0008CE090E00E9476198F3F59F020918301A3
:1054B00030918401820F932F911D90935C01809312
:1054C0005B018DE090E00E9476198F3F29F090E01B
:1054D000909348018093470161E089E00E940F02A8
:1054E00061E086E00E940F0261E083E00E940F020B
:1054F00080915405833008F0BFC192E09093F70586
:10550000E82FF0E0E158FF4FE491E093F8058F5F5A
:1055100080935405E13009F461C108F43EC1E230E2
:1055200009F483C180910A0190910B010E94280D1A
:1055300090930B0180930A0161E08AE00E940F02C0
:1055400062E088E00E940F0288E00E94B80121E03A
:10555000892B09F020E0209356051FB7F89480911D
:105560005505811127C0E1E3F1E08491E5E4F1E024
:105570009491E82FF0E0EE0FFF1FEB50FF4FA59145
:10558000B491EC91E92321F461E08AE00E94E10109
:1055900061E08AE00E940F028CB580618CBD8CB501
:1055A00080648CBD61E08DE00E940F0261E08BE0C1
:1055B0000E940F02809155058F5F809355051FBF94
:1055C00080915605882309F45BC189E791E00E9428
:1055D000D40062E08EE00E940F0262E080E10E944F
:1055E0000F0262E08FE00E940F0261E082E00E9401
:1055F0000F0204E110E020E030E00093D7061093A2
:10560000D8062093D9063093DA064EE150E060E0E8
:1056100070E04093DB065093DC066093DD067093E8
:10562000DE0680ED97E0A0E0B0E08093DF06909387
:10563000E006A093E106B093E2060093BE06109345
:10564000BF062093C0063093C1064093C206509314
:10565000C3066093C4067093C5068093C6069093F4
:10566000C706A093C806B093C9060093A506109379
:10567000A6062093A7063093A8064093A906509348
:10568000AA066093AB067093AC068093AD06909328
:10569000AE06A093AF06B093B00689EC90E00E94EE
:1056A000C10525E030E042E050E061E077E0CE0166
:1056B00001967C010E94C31222E030E041E050E0FC
:1056C00061E077E0CE01875B9F4F0E94C312BE016D
:1056D000675B7F4FCE018D5B9F4F0E94A9126CE3E9
:1056E00073E0CE018D5B9F4F0E94E711B7010E94CE
:1056F000FD11FC01448155816081718189EF95E044
:105700000E94D4040E94820ECE018D5B9F4F0E94A6
:105710005411CE01875B9F4F0E945411C7010E9414
:1057200054110FEA10E04AE1D42EDA94DD2009F496
:10573000A9C0F801649189EF95E00E9474050F5F9C
:105740001F4FF3CF8CE090E05DCE10920C0168CE3D
:1057500090E09093500180934F016DCE90E0909334
:1057600052018093510172CE90E090935401809346
:10577000530177CE90E090935601809355017CCEF3
:1057800091E0811101C090E0909371057ECE90E090
:1057900090935A018093590183CE14BC15BC84B5F3
:1057A000826084BD85B5816085BD8091F70590E0FC
:1057B000FC01E95DFE4FE491F0E0EE0FFF1FE150C8
:1057C000FF4F259134913093530520935205FC01EE
:1057D000E55CFE4FE491E0935105A4CE1092800069
:1057E0001092810080918100886080938100809177
:1057F00081008160809381008091F70590E0FC0139
:10580000E95DFE4FE491F0E0EE0FFF1FE150FF4F26
:10581000259134913093500520934F05FC01E55CB0
:10582000FE4FE491E0934E057DCE1092B0001092B1
:10583000B1008091B00082608093B0008091B1008F
:1058400081608093B1008091F70590E0FC01E95DF3
:10585000FE4FE491F0E0EE0FFF1FE150FF4F259166
:10586000349130934D0520934C05FC01E55CFE4FCF
:10587000E491E0934B0556CE8FEF8093F80552CE1E
:1058800089E5A4CE0E94820E84EA90E00E948A0EEE
:1058900080910A0190910B019093610580936005BE
:1058A0000E94280D6FEF70E089E00E94110468EEFD
:1058B00073E080E090E00E94930470E060E089E093
:1058C0000E9411046FEF70E086E00E94110468EE00
:1058D00073E080E090E00E94930470E060E086E076
:1058E0000E9411046FEF70E083E00E94110468EEE3
:1058F00073E080E090E00E94930470E060E083E059
:105900000E94110463E373E0C7010E94B2126EE3C8
:1059100073E0CE0107960E94B21267E473E0CE01F5
:105920000D960E94B21260E573E0CE0143960E948C
:10593000B21269E573E0CE0149960E94B21262E6A6
:1059400073E0CE014F960E94B2126BE673E0CE0177
:1059500085960E94B21264E773E0CE018B960E9496
:10596000B2126DE773E0CE01C1960E94B21266E8F2
:1059700073E0CE01C7960E94B21269E173E0CE01D6
:10598000CD960E94B21261E077E0CE018D5B9F4F11
:105990000E94A91269E373E0CE018D5B9F4F0E94C4
:1059A000E711BC01CE01CD960E949212CE018D5B13
:1059B0009F4F0E9454110E94C5042B013C01F8EE38
:1059C0004F0EF3E05F1E611C711C912C1FEF94EFD2
:1059D000C92EDD24D39426E0822E3BE3A32E3FE1A3
:1059E000B32E8FE00E94B801892B11F4992493946F
:1059F00080E10E94B801892B09F4912C0E94C50412
:105A0000641975098609970996010D2C000C440B41
:105A1000550B01E02617370748075907C0F40E94C5
:105A2000C5042B013C01911001C01F5F1A3009F41D
:105A3000DDC008F0E0C001E0B701189D600D711DE8
:105A400011248DEE96E00E9492120E94A10EC501D3
:105A50000197F1F70111C5CFC0900007C11004C034
:105A60000E9456018111CAC01092FE0610920007D2
:105A70001092FF068CE890E00E948A0E82E890E087
:105A80000E948A0E8E010D5B1F4F06501109C8013E
:105A90000E945411E016F106C1F781E08093C7051A
:105AA00088E68093E9051092C8051092EA0561E145
:105AB00086E996E00E94500B0E94430962E088E666
:105AC0000E942A0A109263058093620586E996E097
:105AD0000E94090B182F8BEE90E00E94C105C12E89
