:100000000C94A3000C94CB000C94CB000C94CB006C
:100010000C94CB000C94CB000C94CB000C94B12628
:100020000C94CB000C94CB000C94CB000C940027C8
:100030000C94CB000C94CB000C945B270C94CB005D
:100040000C940F260C94CB000C947F260C9459260C
:100050000C94CB000C94CB000C94CB000C94CB00F4
:100060000C94B6270C94CB00496E636F7272656373
:100070007420536F6E6720466F726D6174210002A9
:10008000010053746F7020546573740054656D7073
:100090002E2073656E736F72206E6F7420666F759D
:1000A0006E642E0053746172742054657374004E34
:1000B00043533331322D3820485635313232206F98
:1000C0007220485635323232004669726D7761725D
:1000D000652076657273696F6E3A20004661756CB3
:1000E00074792052544321000000000024002700AE
:1000F0002A0000000000250028002B000000000856
:1001000000020100000304070000000000000000DE
:100110000000000023002600290004040404040455
:1001200004040202020202020303030303030102A6
:100130000408102040800102040810200102040875
:1001400010200E290C2F11241FBECFEFD8E0DEBFE8
:10015000CDBF27E0A6E3B4E001C01D92A933B207EA
:10016000E1F714E0A0E0B1E0E8EBF8E602C00590AA
:100170000D92A633B107D9F710E0C2EAD0E004C06F
:100180002197FE010E943B32C13AD107C9F70E9474
:1001900099290C944F340C9400008CBD9DBD08959A
:1001A00080912107E0912207F0912307F894918133
:1001B000982B91832281382F309523232283A7E027
:1001C000B0E01197F1F7918193239183A3E2B0E01E
:1001D0001197F1F790817894EFECF0E03197F1F717
:1001E000982381E009F480E0089590912107E0913F
:1001F0002207F0912307292F209580FF14C0F8943F
:100200008281822382838181892B8183A3E2B0E072
:100210001197F1F78281982B9283789487ED90E083
:100220000197F1F70895F894828182238283818176
:10023000892B8183AFEFB0E01197F1F78281982B82
:10024000928378948FE090E0EBCF0F931F93CF933E
:10025000DF93082FC8E0D0E011E081E0902F9123D8
:1002600009F480E00E94F500110F2197B1F7F8948E
:10027000E0912207F09123079181809121078095D9
:1002800098239183E0912207F0912307928189239B
:1002900082837894DF91CF911F910F91089580917F
:1002A0002107E0912207F0912307F8949181282FEC
:1002B00020959223918378943DE743E050E03150BC
:1002C00029F1DA011197F1F790819823C1F3F8949D
:1002D0009281922392839181982B91837894ABE7BA
:1002E000B7E01197F1F7F894918192239183A3E1FC
:1002F000B1E01197F1F79081982381E009F080E057
:100300007894E3E6F6E03197F1F7089580E00895F8
:1003100091E09093F505809317061092F6051092E0
:1003200018060895833081F028F4813099F08230E6
:10033000A9F008958730A9F08830C9F08430B1F46D
:10034000809180008F7D03C0809180008F778093A3
:100350008000089584B58F7784BD089584B58F7D1E
:10036000FBCF8091B0008F778093B000089580918B
:10037000B0008F7DF9CFCF93DF93282F30E0F901C4
:10038000E450FF4F8491F901E25DFE4FD491F901F1
:10039000E65EFE4FC491CC23A1F081110E94920130
:1003A000EC2FF0E0EE0FFF1FE05FFE4FA591B49140
:1003B000EC91ED2381E090E009F480E0DF91CF91B2
:1003C000089580E090E0FACF1F93CF93DF93282F1A
:1003D00030E0F901E450FF4F8491F901E25DFE4FF6
:1003E000D491F901E65EFE4FC491CC23A9F0162FFB
:1003F00081110E949201EC2FF0E0EE0FFF1FEE50F2
:10040000FF4FA591B4918FB7F894EC91111108C0EA
:10041000D095DE23DC938FBFDF91CF911F9108959C
:10042000DE2BF8CFCF93DF9390E0FC01E25DFE4F2F
:100430002491865E9E4FFC0184918823C9F090E050
:10044000880F991FFC01E851FF4FA591B491FC0161
:10045000EE50FF4FC591D49161110DC09FB7F89434
:100460008C91209582238C938881282328839FBF99
:10047000DF91CF910895623051F49FB7F8943C9189
:10048000822F809583238C93E8812E2BEFCF8FB71B
:10049000F894EC912E2B2C938FBFEACF4F925F9262
:1004A0006F927F928F929F92AF92BF92CF92DF9284
:1004B000EF92FF920F931F93CF93DF9300D000D062
:1004C0001F92CDB7DEB72091260627FD2CC14983A8
:1004D0005A836B837C838C0161E0809125060E94A6
:1004E0001202809126068D834801B12CA12C8D7FAC
:1004F00009F031C160E072E18AE790E0A50198015E
:100500000E941C3229013A017A01690191E0C91A5D
:10051000D108E108F108AFEFCA16D104E104F104F3
:1005200009F00CF4C7C060E472E48FE090E0A5012C
:1005300098010E941C3269017A01B1E0CB1AD108FE
:10054000E108F1088D81823009F06AC082E09FEFF6
:10055000C916D104E104F10409F00CF45EC160E9AC
:1005600070ED83E090E0A50198010E941C326901C2
:100570007A01A1E0CA1AD108E108F10883E0BFEFCF
:10058000CB16D104E104F10409F00CF446C168E48F
:1005900078EE81E090E0A50198010E941C3269018B
:1005A0007A0181E0C81AD108E108F10884E09FEFE0
:1005B000C916D104E104F10409F00CF42EC164E27F
:1005C00074EF80E090E0A50194010E941C32690163
:1005D0007A01B1E0CB1AD108E108F10885E09FEF7C
:1005E000C916D104E104F10409F008F416C162E16E
:1005F0007AE780E090E0A50194010E941C32690135
:100600007A01B1E0CB1AD108E108F1088FEFC816E2
:10061000D104E104F10411F008F0F0C086E0FDC05F
:100620008FEFC816D104E104F10409F00CF491C075
:1006300068E478EE81E090E0A50198010E941C3208
:1006400069017A0191E0C91AD108E108F108AD8188
:1006500084E0A111C4CF83E0AFEFCA16D104E10456
:10066000F10461F15CF162E17AE780E090E0A501DC
:1006700094010E941C3269017A0181E0C81AD108F4
:10068000E108F10884E09FEFC916D104E104F10408
:10069000A9F0A0F0730162019AE0F594E794D79471
:1006A000C7949A95D1F7A1E0CA1AD108E108F108D8
:1006B00085E004C081E0AD81A111AFC095B5987F00
:1006C000892B85BD89819A81AB81BC812FEF3FEF5A
:1006D000A901892B8A2B8B2B79F0D801AA0FBB1F7C
:1006E00029813A814B815C810E94E13028EE33E020
:1006F00040E050E00E94FA319D81913009F45CC0E5
:10070000923009F46BC091110EC0C7BC2093210632
:1007100030932206409323065093240680916E0066
:10072000826080936E000F900F900F900F900F904B
:10073000DF91CF911F910F91FF90EF90DF90CF90BD
:10074000BF90AF909F908F907F906F905F904F90F1
:10075000089582E0B0CF60E072E18AE790E0A50101
:1007600098010E941C3269017A01B1E0CB1AD108CC
:10077000E108F10891E0C114D10481E0E806F10438
:1007800084F068E478EE81E090E0A50198010E9491
:100790001C3269017A0191E0C91AD108E108F10817
:1007A00093E0AD81A13009F08DCF80918100887FE9
:1007B000892B8093810086CFD0928900C0928800D7
:1007C00020931D0630931E0640931F06509320066B
:1007D00080916F00826080936F00A5CFC092B300BC
:1007E0002093190630931A0640931B0650931C065B
:1007F0008091700082608093700095CF73016201D8
:100800008AE0F594E794D794C7948A95D1F7B1E03C
:10081000CB1AD108E108F10887E09091B100987FE8
:10082000892B8093B1004ECF1F93CF93DF93182F66
:10083000EB0161E00E941202209739F460E0812F01
:10084000DF91CF911F910C94E401CF3FD10511F4BA
:1008500061E0F5CFE12FF0E0E450FF4FE491E330A9
:1008600031F140F4E130B1F0E230E1F0C038D105CF
:100870007CF7E4CFE73029F1E83059F1E430B1F703
:1008800080918000806280938000D0938B00C09321
:100890008A0004C084B5806884BDC7BDDF91CF9154
:1008A0001F91089584B5806284BDC8BDF7CF809143
:1008B0008000806880938000D0938900C093880076
:1008C000EDCF8091B00080688093B000C093B300FA
:1008D000E5CF8091B00080628093B000C093B400F7
:1008E000DDCF3FB7F8948091A3059091A405A09126
:1008F000A505B091A60526B5A89B05C02F3F19F008
:100900000196A11DB11D3FBFBA2FA92F982F88278F
:10091000BC01CD01620F711D811D911D42E0660F6A
:10092000771F881F991F4A95D1F708958F929F923C
:10093000AF92BF92CF92DF92EF92FF924B015C0198
:100940000E9471046B017C010E9471046C197D0985
:100950008E099F09683E734081059105A8F321E047
:10096000821A9108A108B10888EEC80E83E0D81E4B
:10097000E11CF11C81149104A104B10429F7FF903A
:10098000EF90DF90CF90BF90AF909F908F900895A1
:100990002FB7F89460919F057091A0058091A105F3
:1009A0009091A2052FBF0895089508950895AF92DC
:1009B000BF92CF92DF92EF92FF920F931F93CF934C
:1009C000DF936C017B018B01040F151FEB015E01AE
:1009D000AE18BF08C017D10759F06991D601ED9143
:1009E000FC910190F081E02DC6010995892B79F7E2
:1009F000C501DF91CF911F910F91FF90EF90DF9094
:100A0000CF90BF90AF90089542E050E062E473E071
:100A100087E296E00C94D704FC01538D448D252F7A
:100A200030E0842F90E0821B930B541710F0CF9688
:100A3000089501970895FC01918D828D981761F0BA
:100A4000A28DAE0FBF2FB11D5D968C91928D9F5FD1
:100A50009F73928F90E008958FEF9FEF0895FC01B0
:100A6000918D828D981731F0828DE80FF11D858D63
:100A700090E008958FEF9FEF0895FC01918D228DF6
:100A8000892F90E0805C9F4F821B91098F7399277B
:100A9000089587E296E00E943D0521E0892B09F444
:100AA00020E0822F089580E090E0892B29F00E94B9
:100AB000490581110C9400000895FC01A48DA80F34
:100AC000B92FB11DA35ABF4F2C91848D90E0019690
:100AD0008F739927848FA689B7892C93A089B189B0
:100AE0008C91837080648C93938D848D981306C051
:100AF0000288F389E02D80818F7D80830895EF92B5
:100B0000FF920F931F93CF93DF93EC0181E0888FC7
:100B10009B8D8C8D98131AC0E889F989808185FF97
:100B200015C09FB7F894EE89FF896083E889F98939
:100B300080818370806480839FBF81E090E0DF913B
:100B4000CF911F910F91FF90EF900895F62E0B8D8E
:100B500010E00F5F1F4F0F731127E02E8C8D8E1149
:100B60000CC00FB607FCFACFE889F989808185FFB0
:100B7000F5CFCE010E945D05F1CFEB8DEC0FFD2F7F
:100B8000F11DE35AFF4FF0829FB7F8940B8FEA896B
:100B9000FB8980818062CFCF0F931F93CF93DF9328
:100BA0008C01D0E0C0E0F801EC0FFD1F64916623DA
:100BB00041F087E296E00E947F05892B11F0219693
:100BC000F2CFCE01DF91CF911F910F910895CF9376
:100BD000DF930E94CC05EC010E9404058C0F9D1F41
:100BE000DF91CF910895CF93DF93EC01888D882317
:100BF000B9F0AA89BB89E889F9898C9185FD03C080
:100C0000808186FD0DC00FB607FCF7CF8C9185FF64
:100C1000F2CF808185FFEDCFCE010E945D05E9CF47
:100C2000DF91CF91089560936A0570936B0580936F
:100C30006C0590936D05645D7E4F8F4F9F4F609361
:100C4000660570936705809368059093690582E057
:100C500090E090936505809364050E94C8046093BA
:100C60006005709361058093620590936305089514
:100C70002F923F924F925F926F927F928F929F92AC
:100C8000AF92BF92CF92DF92EF92FF920F931F939A
:100C9000CF93DF93382E962E842E222E84E6E816EC
:100CA000F1040CF459C092EBE91A97E0F90AE092CA
:100CB000740500937305209272053092700590922E
:100CC0006F0580926E05AE2DB0E020E833E341EE73
:100CD00051E00E94E1302B013C0122EB37E0FF2480
:100CE000E4E6F0E0C0E9D1E0C901825B97408E15EF
:100CF0009F05B4F19EE4E91A98EFF90AC70164E68A
:100D000070E00E94E6316C01C70160E971E00E9469
:100D1000E6315C01C2E1D3E0E1E0F0E0112783E0DD
:100D2000E822FF24E017F1070CF042C0E230F105A1
:100D300091F5E114F10479F5C114D10419F4A11469
:100D4000B10449F580E8480E8BE3581E86E2681E20
:100D5000711C31962196E6CF8EE1E80EF11CA7CFEB
:100D6000C90183709927892B99F4C901BF010E9499
:100D7000E631892B31F4C901BE010E94E631892B8D
:100D800039F490E8490E91E5591E91E0691E711CF5
:100D90002F5F3F4FA9CFA881B0E020E831E541E0C7
:100DA00050E00E94E130460E571E681E791ED1CFDA
:100DB000292D30E0ACE3B0E00E9423316B017C01CF
:100DC000C80CD11CE11CF11C232D30E0A0E1BEE0D9
:100DD0000E942331C60ED71EE81EF91E822D8150B7
:100DE000990BDC0120E831E541E050E00E944132FE
:100DF0006C0D7D1D8E1D9F1D640D751D861D971D1F
:100E0000DF91CF911F910F91FF90EF90DF90CF90E6
:100E1000BF90AF909F908F907F906F905F904F901A
:100E20003F902F900C941306CF92DF92EF92FF9297
:100E30000F931F930E94C8048B019C01C090600512
:100E4000D0906105E0906205F090630560916A05BD
:100E500070916B0580916C0590916D050C191D09C1
:100E60002E093F09083E134021053105E0F0DC0161
:100E7000CB010196A11DB11D80936A0590936B056E
:100E8000A0936C05B0936D05B701A60148515C4F66
:100E90006F4F7F4F409360055093610560936205EB
:100EA00070936305C7CF1F910F91FF90EF90DF9074
:100EB000CF9008954F925F926F927F928F929F9200
:100EC000AF92BF92CF92DF92EF92FF920F931F9358
:100ED000CF93DF934B015C0180915C0590915D05A0
:100EE000A0915E05B0915F0588159905AA05BB051F
:100EF00009F4C6C08CE3C82ED12CE12CF12CC5011D
:100F0000A70196010E94FA3160936E05CA01B901EA
:100F1000A70196010E94FA3160936F05C501B401E3
:100F200020E13EE040E050E00E94FA31CA01B90100
:100F300028E130E040E050E00E94FA316093700513
:100F4000C501B40120E831E541E050E00E94FA31EA
:100F500069017A01CA01B9016C5F7F4F8F4F9F4FC2
:100F600027E030E040E050E00E94FA316F5F60938C
:100F70007105412C512C320140E004E610E0C0E93B
:100F8000D1E0242F30E02E54384FF901E370FF27D1
:100F90003097F9F4C901B8010E94E631892B31F488
:100FA000C901BE010E94E631892B99F48EE691E0D9
:100FB000A0E0B0E0480E591E6A1E7B1ED301C2019C
:100FC000AA27BB27C816D906EA06FB0638F04F5FEA
:100FD000D8CF8DE691E0A0E0B0E0ECCF409374056F
:100FE000C90164E670E00E94E631EC01C90160E9E4
:100FF00071E00E94E631309721F42097D9F40097F0
:10100000C9F04DE651E060E070E0441A550A660A06
:10101000770AC418D508E608F708A2E1B3E020E093
:10102000213069F43097E9F5209711F40097C9F55C
:101030004DE106C04EE651E060E070E0E6CF4C9135
:1010400050E070E060E031E0320FC416D506E606ED
:10105000F70640F0C41AD50AE60AF70A1196232FBC
:101060003C30F1F62F5F20937305C394C092720554
:1010700080925C0590925D05A0925E05B0925F053E
:10108000DF91CF911F910F91FF90EF90DF90CF9064
:10109000BF90AF909F908F907F906F905F904F9098
:1010A00008954CE1CDCF0E9414070E945A07809109
:1010B000740590E08E54984F08950E9414070E9482
:1010C0005A078091730590E008950E9414070E94CA
:1010D0005A078091720590E008950E9414070E94BB
:1010E0005A0780916E0590E008950E9414070E94AF
:1010F0005A0780916F0590E008950E9414070E949E
:101100005A078091700590E00895CF92DF92EF9298
:10111000FF92CF93DF93EC010E94C8046B017C0126
:101120008F850E94BB019C0181E02115310509F4E6
:1011300080E0898B8889811105C091E0232B09F01B
:1011400090E0998B29898A89281721F0CD8ADE8A37
:10115000EF8AF88E8D899E89AF89B88DB701A60177
:10116000481B590B6A0B7B0BDB01CA01CB80DC806F
:10117000ED80FE80C816D906EA06FB0664F43A81C3
:10118000231749F02A83222349F04B895C894F5F5A
:101190005F4F5C8B4B8B3A81311117C0CF80D88465
:1011A000E984FA84C816D906EA06FB0634F48B896A
:1011B0009C89998388831C8A1B8A2A8BDF91CF9113
:1011C000FF90EF90DF90CF900895CB84DC84ED8486
:1011D000FE84C816D906EA06FB067CF78B899C8933
:1011E000919581959109E5CF20913905260F3327F7
:1011F000331F21323105ECF42091EF05FC0190E022
:1012000080E0243069F082E00895A09139052191B1
:10121000AC01475E5A4FA40FB52FB11D2C93019618
:10122000861798F380913905680F6093390580E03F
:10123000089581E008951092EF0581E08093EE0516
:101240001092C90561E082E10E94E40161E083E15E
:101250000E94E401E9EBF0E080818E7F8083808151
:101260008D7F808388E48093B80085E48093BC0000
:101270000895CF93DF9391E0909318058823B9F0F8
:10128000C091B800D091BA008091BC008A7B809355
:10129000BC0060E082E10E94E40160E083E10E9422
:1012A000E4010E941B09D093BA00C093B800DF91FB
:1012B000CF910895CF92DF92EF92FF920F931F93F9
:1012C000CF93DF93D091180681E0D13208F09CC013
:1012D000C09117060E9471046B017C018091EF059B
:1012E00081116CC082E08093EF0581E08093EE0570
:1012F0008FEF8093ED051092EC05D093EB05A7EFEF
:10130000B5E0EBECF5E080E0D8138DC01092CA0593
:101310008091CA05CC0FC82BC093CA058091C9051E
:10132000813009F084C01092C9050E9471046B01DC
:101330007C018091CA058093BB008091F10590915A
:10134000F205A091F305B091F405892B8A2B8B2B24
:10135000A1F00E9471040091F1051091F205209115
:10136000F3053091F4056C197D098E099F09061764
:1013700017072807390708F442C08091BC0083FD95
:10138000D8CF85EC8093BC000E9471046B017C0176
:101390008091EF05823009F44CC08091ED058F3FBC
:1013A00009F469C08091ED05803209F466C080912E
:1013B000ED05803309F463C084E026C08091F10517
:1013C0009091F205A091F305B091F405892B8A2B39
:1013D0008B2B09F483CF0E9471040091F1051091C9
:1013E000F2052091F3053091F4056C197D098E0901
:1013F0009F09061717072807390708F06FCF809154
:10140000F0050E94390985E01092F6051092180641
:101410001092F505DF91CF911F910F91FF90EF9002
:10142000DF90CF9008959D9191938F5F6DCF85EE62
:10143000A9CF8091F1059091F205A091F305B091AB
:10144000F405892B8A2B8B2B09F4A2CF0E947104FF
:101450000091F1051091F2052091F3053091F4050A
:101460006C197D098E099F09061717072807390788
:1014700008F08ECFC4CF80E0C7CF82E0C5CF83E035
:10148000C3CF0895E091A8058091A705E81730F42F
:10149000F0E0E755FA4F808190E008958FEF9FEFDD
:1014A00008959091A8058091A7052FEF3FEF981719
:1014B00048F4E92FF0E0E755FA4F208130E09F5FD4
:1014C0009093A805C90108958091A7059091A8055A
:1014D000891B990B0895CF92DF92EF92FF920F93A1
:1014E0001F93CF93DF937C01CB018A012091F505F7
:1014F000222389F0EB016B01C40ED51ECC15DD054E
:1015000069F06991D701ED91FC910190F081E02D96
:10151000C7010995F3CF642F0E94F408C801DF9139
:10152000CF911F910F91FF90EF90DF90CF90089592
:10153000CF93DF931F92CDB7DEB769832091F50576
:101540002223F9F020911806203258F021E030E0F3
:10155000FC013383228390E080E00F90DF91CF91F4
:1015600008958091F605E82FF0E0E950FA4F99814F
:1015700090838F5F8093F6058093180681E090E05A
:10158000ECCF61E0CE0101960E94F408F7CF682FFE
:1015900084EC96E00C94980A90E080E00895CF9255
:1015A000DF92EF92FF920F931F93CF93DF9390916F
:1015B000170591110BC08FEF9FEFDF91CF911F9116
:1015C0000F91FF90EF90DF90CF90089590911605C6
:1015D000992389F3082FC0911505D0E080910D055E
:1015E00081110DC00E94C8046093090570930A051B
:1015F00080930B0590930C0581E080930D050E946C
:10160000C804C0900905D0900A05E0900B05F09041
:101610000C056C197D098E099F096D327140810599
:101620009105B0F0109108050E94C8046093090567
:1016300070930A0580930B0590930C0591E0912718
:1016400090930805992331F1109207051092060531
:10165000209106053091070520953095809105056C
:10166000282326FF1CC081E08093040527FF1AC0B1
:1016700081E08093030580910805882309F49BCFBE
:1016800002C0D595C7950A95E2F7C0FF94CF80E0D8
:101690009CE393CFD0930705C0930605D9CF109252
:1016A0000405E4CF10920305E6CFEF92FF920F936B
:1016B0001F93CF93DF93182F8091D90481110DC010
:1016C0000E94C8046093D5047093D6048093D70415
:1016D0009093D80481E08093D904C091D304D09131
:1016E000D404C930D10508F075C0FE01E658F44FA6
:1016F0000C943B32830B8F0B930BA10B830B8F0B43
:10170000C60BC80BD90B0E944F012196CA30D105D8
:1017100009F091C01092D4041092D30428C08CEC2C
:101720000E942501F2CF84E40E9425010E94C80492
:101730006093D5047093D6048093D7049093D80413
:10174000E4CF0E94C8040091D5041091D6042091E2
:10175000D7043091D804601B710B820B930BC4E04B
:10176000D0E06E3E72408105910508F064C0609142
:10177000CF047091D0048091D1049091D204DF9174
:10178000CF911F910F91FF90EF9008958EEBC8CFEE
:1017900098E0E92EF12C10E001E00E94D0008111C8
:1017A000102B000F81E0E81AF108B9F71093CD046F
:1017B000ACCF88E0E82EF12C10E001E00E94D000D0
:1017C0008111102B000F21E0E21AF108B9F71093F4
:1017D000CE049BCFC930D10509F097CF6091CD04DD
:1017E0007091CE046F3F760711F470E060E0072E31
:1017F000000C880B990B0E94AE2F20E030E040E8EF
:101800005DE30E940D30111109C06093CF04709305
:10181000D0048093D1049093D20477CF26E636E6A5
:1018200046EE5FE30E940D3020E030E040E052E4FD
:101830000E943331EACFD093D404C093D30497CF1E
:10184000CF93DF93EC012196FC0120812A33C9F468
:101850002181243609F5229630E020E06AE0899162
:1018600090ED980F9A3078F4629FA001639F500D1D
:101870001124082E000C990BC0979A01280F391FCC
:10188000EECFCE01DFCF3093B0042093AF0421150B
:10189000310511F02093090188818F3689F48A81FE
:1018A000082E000C990B9C01205331093093B00491
:1018B0002093AF04C397059710F420930801249652
:1018C00088818236F1F4229630E020E06AE0899146
:1018D00090ED980F9A3068F4629FA001639F500DBD
:1018E0001124082E000C990BC0979A01280F391F5C
:1018F000EECF3093B0042093AF04309307012093D0
:1019000006012091060130910701032E000C440BC3
:10191000550B60E67AEE80E090E00E941C3282E097
:10192000220F331F441F551F8A95D1F72093AB0414
:101930003093AC044093AD045093AE04CE01DF91DC
:10194000CF9108958EBD00000DB407FEFDCF8EB57A
:1019500008958F929F92AF92BF92CF92DF92EF92B3
:10196000FF920F931F93CF93DF937C01D62F0E949A
:1019700071044B015C018091EF05811167C0CD2F8F
:1019800081E08093EF058093EE059FEF9093ED0546
:101990001092EC059D0F9093EB058093CA05809102
:1019A000CA05EE0CFF1C8E298093CA058091C905DB
:1019B000813009F083C01092C9050E9471046B0147
:1019C0007C018091CA058093BB008091F1059091C4
:1019D000F205A091F305B091F405892B8A2B8B2B8E
:1019E000A1F00E9471048090F1059090F205A09002
:1019F000F305B090F4056C197D098E099F098616D0
:101A00009706A806B90608F442C08091BC0083FD81
:101A1000D8CF85EC8093BC000E9471046B017C01DF
:101A20008091EF05813009F44BC08091EC058D1752
:101A300010F4C091EC05EBECF5E0A9EAB5E080E02C
:101A40008C1751F191919D938F5FFACF8091F105A1
:101A50009091F205A091F305B091F405892B8A2BA2
:101A60008B2B09F488CF0E9471040091F10510912D
:101A7000F2052091F3053091F405681979098A0976
:101A80009B09061717072807390708F074CF8091BC
:101A9000F0050E943909C0E01092A805C093A7057F
:101AA0008C2FDF91CF911F910F91FF90EF90DF90DE
:101AB000CF90BF90AF909F908F90089585EEAACF62
:101AC0008091F1059091F205A091F305B091F40594
:101AD000892B8A2B8B2B09F4A3CF0E947104809051
:101AE000F1059090F205A090F305B090F4056C1903
:101AF0007D098E099F0986169706A806B90608F083
:101B00008FCFC5CFCF93C0910A018C2F0E9488013F
:101B100060E084EC96E00E94980A0E945A0967E00F
:101B200070E08C2F90E00E94A90C84EC96E00E945B
:101B3000510A982F92959F70CAE08F709C9F800DDC
:101B4000112490E090939C0580939B0584EC96E093
:101B50000E94510A982F92959F708F709C9F800DC4
:101B6000112490E0909393058093920584EC96E085
:101B70000E94510A982F929593708F709C9F800DB0
:101B8000112490E0909391058093900584EC96E069
:101B90000E94510A84EC96E00E94510A982F929577
:101BA0009F708F709C9F800D112490E090939505FD
:101BB0008093940584EC96E00E94510A982F9295A8
:101BC0009F708F709C9F800D112490E090939705DB
:101BD0008093960584EC96E00E94510A982F929586
:101BE0009F708F709C9F800D112490E08053984FC0
:101BF0009093990580939805CF910895FC01808179
:101C00009181009711F00C94142F60E070E0CB01EB
:101C100008954F925F926F927F928F929F92AF92B0
:101C2000BF92CF92DF92EF92FF92CF93DF93CDB727
:101C3000DEB72D970FB6F894DEBF0FBECDBF0E9462
:101C40007104C090FF04D0900005E0900105F09071
:101C500002056C197D098E099F096A31714481055D
:101C6000910508F44AC20E9471046093FF047093C6
:101C7000000580930105909302058091FE0488235E
:101C8000A1F180E00E94A20C80E00E94A20C80E002
:101C90000E94A20C80E00E94A20C80E00E94A20C94
:101CA00080E00E94A20C80E00E94A20C80E00E94D2
:101CB000A20C61E08AE00E94E40160E08AE02D96D7
:101CC0000FB6F894DEBF0FBECDBFDF91CF91FF906E
:101CD000EF90DF90CF90BF90AF909F908F907F90CC
:101CE0006F905F904F900C94E4018BE197E00E941D
:101CF000FE0D69837A838B839C8360E08AE00E9477
:101D0000E401FAE0CF2ED12CE12CF12C69817A810B
:101D10008B819C81A70196010E941C3249015A01C6
:101D2000660F771F62507D4FDB014D905C9087E01E
:101D300090E00E94CF0A3C01C501B401A7019601C1
:101D40000E941C32660F771F62507D4FFB01E080BE
:101D5000F18086E090E00E94CF0A46205720712C47
:101D6000612C2AE0440C551C661C771C2A95D1F77F
:101D70008E219F21B0E0A0E0482A592A6A2A7B2AB6
:101D800069817A818B819C8124E630E040E050E0DB
:101D90000E941C3269017A0180910405882311F0A8
:101DA000689477F880910305882311F0689476F899
:101DB0008091FC049091FD04019711F4FFE37F22D0
:101DC000209184052D87872D9927AA27BB278D83EE
:101DD0009E83AF83B8874301AA24BB24BB27A72DCA
:101DE000962D852D89879A87AB87BC87222309F496
:101DF00057C1842D0E94A20C89850E94A20C882DB7
:101E00000E94A20C8D810E94A20C8AE0882E912C47
:101E1000A12CB12CC701B601A50194010E941C326E
:101E2000660F771F62507D4FDB01CD90DC9085E01F
:101E300090E00E94CF0A7C0169817A818B819C812C
:101E400028EE33E040E050E00E941C32CA01B901A4
:101E5000A50194010E941C32660F771F62507D4FCE
:101E6000FB016080718084E090E00E94CF0ACE2068
:101E7000DF20F12CE12C34E1CC0CDD1CEE1CFF1C2E
:101E80003A95D1F786219721B0E0A0E04AE0880F8B
:101E9000991FAA1FBB1F4A95D1F7C82AD92AEA2A37
:101EA000FB2A69817A818B819C8120E137E240E0C5
:101EB00050E00E941C32CA01B901A50194010E94A0
:101EC0001C32660F771F62507D4FDB01AD90BC90D6
:101ED00083E090E00E94CF0A8A219B21B0E0A0E03D
:101EE000C82AD92AEA2AFB2A69817A818B819C81B6
:101EF00020EA36E841E050E00E941C3229013A0114
:101F000080910405882309F4D6C06894F7F880917D
:101F10000305882309F4D2C06894F6F88F2D992719
:101F2000AA27BB278D839E83AF83B8874701AA2446
:101F3000BB24BB27AF2D9E2D8D2D89879A87AB871C
:101F4000BC879D85992309F4BCC08C2D0E94A20CEE
:101F500089850E94A20C882D0E94A20C8D810E946E
:101F6000A20C3AE0832E912CA12CB12CC301B2011A
:101F7000A50194010E941C32660F771F62507D4FAD
:101F8000DB01CD90DC9082E090E00E94CF0A7C01E2
:101F900069817A818B819C8120E432E44FE050E0BA
:101FA0000E941C32CA01B901A50194010E941C3291
:101FB000660F771F62507D4FFB016080718081E06A
:101FC00090E00E94CF0ACE20DF20F12CE12C64E1CA
:101FD000CC0CDD1CEE1CFF1C6A95D1F786219721E5
:101FE000B0E0A0E07AE0880F991FAA1FBB1F7A9586
:101FF000D1F7C82AD92AEA2AFB2A69817A818B81FA
:102000009C8120E836E948E950E00E941C32CA0170
:10201000B901A50194010E941C32660F771F62501E
:102020007D4FDB01AD90BC9090E080E00E94CF0A34
:102030008A219B21B0E0A0E08C299D29AE29BF29EF
:10204000209104056C017D01222309F445C06894A8
:10205000F7F880910305882309F441C06894F6F8E5
:102060004F2C5524662477244701AA24BB24BB2780
:10207000AF2D9E2D8D2D89839A83AB83BC839D8547
:10208000992381F18C2D0E94A20C89810E94A20CBF
:10209000882D0E94A20C842D0E94A20C61E00ECE1D
:1020A0008D810E94A20C882D0E94A20C89850E941D
:1020B000A20C842DA8CEE894F7F829CFE894F6F87E
:1020C0002DCF8D810E94A20C882D0E94A20C8985A3
:1020D0000E94A20C8C2D43CFE894F7F8BACFE89475
:1020E000F6F8BECF842D0E94A20C882D0E94A20C6F
:1020F00089810E94A20C8C2DCFCF2D960FB6F8941B
:10210000DEBF0FBECDBFDF91CF91FF90EF90DF908C
:10211000CF90BF90AF909F908F907F906F905F9087
:102120004F9008950F931F93CF93DF938C01EB0192
:10213000FC01808191810097E1F0688179816115CE
:102140007105A9F0428153812C813D8142175307CB
:1021500070F00E9448348C819D81F80195838483BE
:102160001D821C82DF91CF911F910F9108950E94D3
:10217000F93288819981F801918380838A819B81DA
:10218000938382838C819D819583848319821882B5
:102190001B821A82E5CFCF93DF93EC01888199816E
:1021A000009711F00E94F932198218821D821C8258
:1021B0001B821A82DF91CF910895FC018081918169
:1021C000009711F00C94F93208950F931F93CF9359
:1021D000DF93EC0188819981009759F02A813B8136
:1021E0002617370730F081E0DF91CF911F910F91D3
:1021F00008958B016F5F7F4F0E948233009759F0E3
:10220000998388831B830A832C813D81232B59F773
:10221000FC011082E8CF80E0E7CFEF92FF920F93AE
:102220001F93CF93DF936115710541F480E0DF9137
:10223000CF911F910F91FF90EF9008954115510597
:10224000B1F07B01EC010C811D81040F151FB80159
:102250000E94E510882351F3288139818C819D816A
:10226000B701820F931F0E9448341D830C8381E0C5
:10227000DECFEF92FF920F931F93CF93DF93CDB7F3
:10228000DEB72D970FB6F894DEBF0FBECDBF7C0131
:10229000CB01BA012AE08E010F5F1F4FA8010E94F7
:1022A0005B2FF80101900020E9F73197AF01401B47
:1022B000510BB801C7010E940D11811103C0C70164
:1022C0000E94CB10C7012D960FB6F894DEBF0FBE4B
:1022D000CDBFDF91CF911F910F91FF90EF900895A7
:1022E000CF93DF93EC01FB0101900020E9F73197D8
:1022F000AF01461B570B0E940D11811103C0CE0187
:102300000E94CB10CE01DF91CF910895CF93DF9340
:10231000EC01FB0144815581608171810E940D11A6
:10232000811103C0CE010E94CB10CE01DF91CF916D
:102330000895EF92FF920F931F93CF93DF9300D0F6
:1023400000D0CDB7DEB77C01862F4AE08E010F5F4B
:102350001F4FB80190E00E943B2FF8010190002030
:10236000E9F73197AF01401B510BB801C7010E943B
:102370000D110F900F900F900F90DF91CF911F9143
:102380000F91FF90EF900895EF92FF920F931F939C
:10239000CF93DF93EC017B018A01BA010E94E51023
:1023A00081110BC0CE010E94CB10CE01DF91CF91E5
:1023B0001F910F91FF90EF9008951D830C83B7013B
:1023C000888199810E944834F0CFFB010190002060
:1023D000E9F73197AF01461B570B0C94C4110F93CB
:1023E0001F93CF93DF93CDB7DEB762970FB6F89404
:1023F000DEBF0FBECDBF8C01CB01F8011182108270
:1024000013821282158214824AE0BE016F5F7F4FF1
:102410000E943B2FBE016F5F7F4FC8010E94E511F4
:1024200062960FB6F894DEBF0FBECDBFDF91CF919D
:102430001F910F910895CF93DF93EC01FB01861755
:10244000970749F0608171816115710541F0448100
:1024500055810E94C411CE01DF91CF9108950E9451
:10246000CB10F9CFFC0111821082138212821582E7
:1024700014820C941B12FC011182108213821282AE
:1024800015821482FB0101900020E9F73197AF011A
:10249000461B570B0C94C411AF92BF92CF92DF92A0
:1024A000EF92FF920F931F93CF93DF936C015B0129
:1024B0007A0189012417350720F48F2D7901042F23
:1024C000182F64E473E0C6010E943B12D5011496F4
:1024D000CD91DC91EC16FD06E0F40C171D0708F415
:1024E000E801D501ED91FC911197EC0FFD1F1081D2
:1024F00010826D917C916E0D7F1DC6016115710575
:10250000A1F00E94E511F50180819181C80FD91FCA
:102510001883C601DF91CF911F910F91FF90EF902B
:10252000DF90CF90BF90AF9008950E94CB10EBCF7B
:102530004F925F926F927F928F929F92AF92BF92D3
:10254000CF92DF92EF92FF920F931F93CF93DF937F
:1025500000D000D000D0CDB7DEB77C014B015A01CE
:102560008091CC0481113AC081E08093CC0494EC3A
:10257000692E94E0792E2CEB422E24E0522E10E0AE
:1025800000E00F5F1F4F680181E0C81AD108980171
:10259000A601B401CE0101960E944C12CE01019613
:1025A0000E94FE0DD3016D933D01CE0101960E9464
:1025B000DD109801A601B501CE0101960E944C12D2
:1025C000CE0101960E94FE0DF20161932F01CE0112
:1025D00001960E94DD100830110599F69091BB0418
:1025E00084ECC82E84E0D82EECEBF4E08601A80140
:1025F000D8018C919A30D8F58F5F8C930F5F1F4F65
:10260000DA018C918A3019F4D80111971C92319615
:10261000B4E00C3C1B0759F79F5F943169F190932C
:10262000BB0464E473E0C7010E943B12F6016191B0
:102630006F01C7010E9499110C151D05B9F7C7015B
:1026400026960FB6F894DEBF0FBECDBFDF91CF91B7
:102650001F910F91FF90EF90DF90CF90BF90AF90C0
:102660009F908F907F906F905F904F900895208102
:10267000281721F28F5FC1CF1092BB041092CC04B7
:10268000D0CFCF92DF92EF92FF921F93CF93DF9341
:10269000CDB7DEB72C970FB6F894DEBF0FBECDBF17
:1026A000182F65E773E0CE0107960E943B1222E0E7
:1026B00030E050E040E0133081F024E030E042E0D0
:1026C00050E01C3051F026E030E0103321F0103F94
:1026D000A9F428E030E044E050E06BE177E0CE017F
:1026E00001960E944C12BE016F5F7F4FCE0107968C
:1026F0000E949210CE0101960E94DD10CE01079635
:102700000E94FE0D6B01CE0107960E94DD10C601EE
:102710002C960FB6F894DEBF0FBECDBFDF91CF91E0
:102720001F91FF90EF90DF90CF900895EF92FF926E
:102730000F931F93CF93DF93CDB7DEB762970FB69A
:10274000F894DEBF0FBECDBF7C018B0177FF03C0C5
:10275000119501951109B801C7010E94EF11083EBA
:1027600083E018070CF082C0B801CE010D960E94DC
:10277000EF116AE673E0CE0101960E943B12BE01A2
:102780006F5F7F4FCE0107960E943212BE01635FDA
:102790007F4FCE0107960E948611BC01C7010E949F
:1027A0001B12CE0107960E94DD10CE0101960E94F9
:1027B000DD10CE010D960E94DD10043611050CF0DF
:1027C00055C0B801CE010D960E94EF1169E673E085
:1027D000CE0101960E943B12BE016F5F7F4FCE017A
:1027E00007960E943212BE01635F7F4FCE010796AB
:1027F0000E948611BC01C7010E941B12CE010796E0
:102800000E94DD10CE0101960E94DD10CE010D96D2
:102810000E94DD100A3011054CF5B801CE010D966D
:102820000E94EF1168E673E0CE0101960E943B1210
:10283000BE016F5F7F4FCE0107960E943212BE012C
:10284000635F7F4FCE0107960E948611BC01C701CE
:102850000E941B12CE0107960E94DD10CE01019648
:102860000E94DD10CE010D960E94DD10C701629618
:102870000FB6F894DEBF0FBECDBFDF91CF911F9191
:102880000F91FF90EF9008950F931F93CF93DF93D5
:10289000CDB7DEB762970FB6F894DEBF0FBECDBFDF
:1028A0008C0177FF03C07195619571096A307105DC
:1028B000A4F5CE010D960E94EF116AE673E0CE01F9
:1028C00001960E943B12BE016F5F7F4FCE010796BB
:1028D0000E943212BE01635F7F4FCE0107960E94B5
:1028E0008611BC01C8010E943212CE0107960E94D7
:1028F000DD10CE0101960E94DD10CE010D960E94E2
:10290000DD10C80162960FB6F894DEBF0FBECDBFD2
:10291000DF91CF911F910F910895C8010E94EF118F
:10292000F0CF0F931F93CF93DF93CDB7DEB76897A8
:102930000FB6F894DEBF0FBECDBF8B018330D9F543
:1029400020911F073091200742E050E06BE177E0D3
:10295000CE010D960E944C12B801CE0101960E9444
:102960004414BE016F5F7F4FCE0107960E94321262
:10297000BE01635F7F4FCE0107960E948611BC01A6
:102980008BE197E00E941B12CE0107960E94DD109A
:10299000CE0101960E94DD10CE010D960E94DD1041
:1029A00068960FB6F894DEBF0FBECDBFDF91CF9112
:1029B0001F910F9108958C3009F042C020911F079C
:1029C0003091200744E050E06BE177E0CE01439680
:1029D0000E944C12B801CE010D960E94441422E0D0
:1029E00030E050E040E06BE177E0CE0101960E94DC
:1029F0004C12BE016F5F7F4FCE0107960E943212CC
:102A0000BE01635F7F4FCE0107960E948611BE0113
:102A10006D5E7F4F0E948611BC018BE197E00E94A2
:102A20001B12CE0107960E94DD10CE0101960E9476
:102A3000DD10CE010D960E94DD10CE014396AECF83
:102A400020911F073091200746E050E0803349F085
:102A5000803F09F0A5CF20911F073091200748E063
:102A600050E06BE177E0CE0143960E944C12B80132
:102A7000CE010D960E94441424E030E0B2CF0E94B3
:102A8000C8046093B2047093B3048093B404909329
:102A9000B5048091B104882309F44FC02091FC044F
:102AA0003091FD04C901880F991F22313105A1F130
:102AB000FC01E45CFE4F408151814150510951833A
:102AC0004083DC01A45CBE4F6D917C911197FC01A9
:102AD000E659FE4F40815181641775073CF4FC01B3
:102AE000E856FE4F408151814D935C932131310571
:102AF00009F520915E0130915F0121303105B9F473
:102B000020E820930505845C9E4FFC016081718163
:102B1000809115050C9491144091600150916101D0
:102B20004C5051095093610140936001CACF1092FB
:102B30000505E9CF2A30310531F708950E94C80410
:102B40006093B2047093B3048093B4049093B5047B
:102B50008091B104882309F444C02091FC04309191
:102B6000FD04C901880F991F2231310561F1FC0173
:102B7000E45CFE4F408151814F5F5F4F5183408342
:102B8000DC01A45CBE4F6D917C911197FC01E8566D
:102B9000FE4F40815181461757073CF4FC01E6592E
:102BA000FE4F408151814D935C9321313105B1F449
:102BB00010920505845C9E4FFC01608171818091BB
:102BC00015050C9491144091600150916101445F8E
:102BD0005F4F5093610140936001D2CF2A3031059D
:102BE00049F708958F929F92AF92BF92DF92EF9232
:102BF000FF920F931F93CF93DF93CDB7DEB7A297CA
:102C00000FB6F894DEBF0FBECDBF8C018AE0ECECAE
:102C1000F1E0DE01119601900D928A95E1F7809125
:102C2000A9049091AA0401968A3091050CF086C0FF
:102C30009093AA048093A904E091A904F091AA04B6
:102C400081E090E08C0F9D1FE80FF91FD0808091EC
:102C5000600190916101489709F075C00E94C80415
:102C60004B015C010E946D08BC01CE014D960E9493
:102C700044140E947508BC01CE0147960E9444147A
:102C80000E947D08BC01CE010B960E944414BE0137
:102C9000655F7F4FCE0141960E943212BE01695E90
:102CA0007F4FCE0141960E948611BE01635E7F4F29
:102CB0000E9486117C01C501B40128EE33E040E09A
:102CC00050E00E94FA3124E630E040E050E00E94FB
:102CD000FA31BA01A901C7010E9439117C016D2D99
:102CE0000E949911811103C0C7010E94CB10B70146
:102CF000C8010E943212CE0141960E94DD10CE0121
:102D00000B960E94DD10CE0147960E94DD10CE0189
:102D10004D960E94DD10C801A2960FB6F894DEBF52
:102D20000FBECDBFDF91CF911F910F91FF90EF901C
:102D3000DF90BF90AF909F908F9008951092AA045B
:102D40001092A90479CF0E94C80428EE33E040E035
:102D500050E00E94FA3124E630E040E050E00E946A
:102D6000FA3149015A010E946D08BC01CE014D960D
:102D70000E9444140E947508BC01CE0147960E942F
:102D800044140E9414070E945A07809170056CE059
:102D900070E0882331F0682F70E08D3010F06C50B7
:102DA0007109CE010B960E944414BE01655F7F4FEE
:102DB000CE0141960E943212BE01695E7F4FCE0164
:102DC00041960E948611BE01635E7F4F0E9486116C
:102DD000B501A40181CF8F929F92AF92BF92CF9203
:102DE000DF92EF92FF920F931F93CF93DF93CDB7B4
:102DF000DEB72C970FB6F894DEBF0FBECDBF8C01A7
:102E00006A017B018091F304811111C00E94C80402
:102E1000645B7B4F8F4F9F4F6093EF047093F00480
:102E20008093F1049093F20481E08093F304809105
:102E3000E704811109C065E673E081EE94E00E9429
:102E40003B1281E08093E7040E94C8048090EF0465
:102E50009090F004A090F104B090F2046819790900
:102E60008A099B09693E73408105910508F4D8C021
:102E70000E94C8046093EF047093F0048093F104FF
:102E80009093F20420E030E040E251E4C701B60143
:102E90000E940D306B017C0120E030E0A9010E940E
:102EA000D53120E030E040E05FE387FDD2C0C701CC
:102EB000B6010E9433310E949F317B0177FF04C02D
:102EC000EE24FF24E61AF70A5B0139E1A31A3CEF6E
:102ED000B30A80916201909163019B012D593F4F8C
:102EE00069012A5531094901B701892B09F0B6C09A
:102EF000CE0107960E94EF116AE673E0CE010196BB
:102F00000E943B12BE01695F7F4FCE0101960E9475
:102F100086116AE673E00E947011BC0181EE94E0B4
:102F20000E941B12CE0101960E94DD10CE01079671
:102F30000E94DD103FECA31637E0B30618F5B70189
:102F4000CE0107960E94EF1169E673E0CE0101966B
:102F50000E943B12BE01695F7F4FCE0101960E9425
:102F600086116AE673E00E947011BC0181EE94E064
:102F70000E941B12CE0101960E94DD10CE01079621
:102F80000E94DD1087ECC816D10418F5B701CE01F8
:102F900007960E94EF1168E673E0CE0101960E9449
:102FA0003B12BE01695F7F4FCE0101960E948611E0
:102FB0006AE673E00E947011BC0181EE94E00E9409
:102FC0001B12CE0101960E94DD10CE0107960E94D1
:102FD000DD1023E18216910418F5B701CE010796A2
:102FE0000E94EF1167E673E0CE0101960E943B124A
:102FF000BE01695F7F4FCE0101960E9486116AE68D
:1030000073E00E947011BC0181EE94E00E941B12DB
:10301000CE0101960E94DD10CE0107960E94DD10C0
:1030200061EE74E0C8010E943212C8012C960FB6FE
:10303000F894DEBF0FBECDBFDF91CF911F910F91EE
:10304000FF90EF90DF90CF90BF90AF909F908F90C8
:103050000895C701B6010E9432312DCFCE010796E7
:103060000E94EF116AE673E0CE0101960E943B12C6
:10307000BE01695F7F4FCE0101960E9486116AE60C
:1030800073E00E947011BC0181EE94E00E941B125B
:10309000CE0101960E94DD10CE0107960E94DD1040
:1030A0003FECA31637E0B30638F5C7016AE070E0DD
:1030B0000E94E631CE0107960E94EF1169E673E0A7
:1030C000CE0101960E943B12BE01695F7F4FCE0187
:1030D00001960E94861169E673E00E947011BC019E
:1030E00081EE94E00E941B12CE0101960E94DD1039
:1030F000CE0107960E94DD1087ECC816D10438F582
:10310000C7016AE070E00E94E631CE0107960E9496
:10311000EF1168E673E0CE0101960E943B12BE01FA
:10312000695F7F4FCE0101960E94861169E673E0C8
:103130000E947011BC0181EE94E00E941B12CE012E
:1031400001960E94DD10CE0107960E94DD1023E15A
:103150008216910408F064CFC7016AE070E00E9413
:10316000E631CE0107960E94EF1167E673E0CE01CB
:1031700001960E943B12BE01695F7F4FCE0101960E
:103180000E94861169E673E03CCF85ED8093BC0018
:103190008091F1059091F205A091F305B091F405AD
:1031A0000796A11DB11D23E0B695A7959795879524
:1031B0002A95D1F72091BC0024FD03C01092EF05A1
:1031C00008954091F1055091F2056091F3057091D9
:1031D000F405452B462B472B69F30097A105B10554
:1031E00041F02AE22A95F1F700C00197A109B1093F
:1031F000E1CF8091F0050C9439090C94D3300C94F4
:10320000CB3080910D018823D9F088E090E00E94B6
:10321000FF18682F70E089E00E94140489E090E0B4
:103220000E94FF18682F70E086E00E9414048AE074
:1032300090E00E94FF18682F70E083E00C94140463
:1032400070E060E089E00E94140470E060E086E0D5
:103250000E94140470E060E0F0CF8091FE048823A7
:1032600041F01092FE048091FB0480930D010C94B8
:10327000011908950F931F9380915E0190915F0152
:10328000892B09F44BC08091BA048823A9F00E94CD
:10329000C8040091B6041091B7042091B80430918D
:1032A000B904601B710B820B930B693E734081055F
:1032B0009105A0F11092BA040E947D082091580156
:1032C000309159018217930749F50E9475082091A2
:1032D0005A0130915B018217930701F50E946D0836
:1032E00020915C0130915D0182179307B9F40E942F
:1032F0002D190E94C8046093B6047093B70480939C
:10330000B8049093B90481E08093BA0480910B01D2
:1033100090910C0190938F0580938E051F910F91D2
:1033200008958F929F92AF92BF92CF92DF92EF92C9
:10333000FF920F931F93CF93DF93CDB7DEB7EC9738
:103340000FB6F894DEBF0FBECDBF80913704811158
:1033500007C00E947D088093360481E08093370483
:103360008091B104811129C00091360410E00E94BF
:103370007D080817190709F10E947D08809336041B
:103380000E947D08209166013091670182179307A2
:1033900049F481E08093FE0480910D018093FB0449
:1033A00010920D010E947D08209168013091690101
:1033B0008217930711F40E942D190E94C80420E17E
:1033C00037E240E050E00E94FA31672B682B692B0E
:1033D00001F580919A058823E1F00E94820DE0902A
:1033E0009805F09099050091960510919705209108
:1033F00094053091950540919B0550919C056091F5
:1034000092057091930580919005909191050E948D
:1034100038061092A8041092A7041092A6041092E5
:10342000A5041092A4041092A30400918E0510919B
:103430008F05F8018081882309F409C10E94C8041E
:10344000C0904504D0904604E0904704F0904804B2
:103450006C197D098E099F09C0904104D0904204E7
:10346000E0904304F0904404C616D706E806F90637
:1034700008F0EDC00E94C8044B015C018092450435
:1034800090924604A0924704B0924804680130E04C
:1034900020E04AE0F801F1908F0180ED8F0D8A3035
:1034A00070F4429FC001439F900D11242F2DFF0CFB
:1034B000330B20533109280F391F6F01EBCF3093A5
:1034C000B0042093AF046091AB047091AC04809180
:1034D000AD049091AE042115310501F1032E000CCD
:1034E000440B550B0E941C3220934104309342043C
:1034F0004093430450934404EFE9EF0DE730A0F408
:103500000E2E000CFF0BE957F54E0C943B32971D25
:10351000991D8B1D8F1D911D931D951D20910901D6
:1035200030E050E040E0DECF10924004F6018181AF
:10353000833241F4809140048F5F80934004860180
:103540000E5F1F4FF80180818E32F1F4C09041046C
:10355000D0904204E0904304F0904404C701B601C7
:1035600022E030E040E050E00E941C32C20ED31E48
:10357000E41EF51EC0924104D0924204E09243043E
:10358000F09244040F5F1F4FF801808180538A300E
:1035900008F0D1C280933F040F5F1F4FF801808174
:1035A0008C3211F40F5F1F4FE0914004EE2309F4B9
:1035B0004EC0C0904104D0904204E0904304F0908B
:1035C000440480913F048450990B4CE0489F900143
:1035D000499F300D1124E20FF32FF11DEE0FFF1F55
:1035E000E251FE4FB701A601808191810E944E02F7
:1035F0000E94C804681979098A099B09C616D7066A
:10360000E806F90620F50E94C8046093450470930B
:1036100046048093470490934804809126068130A5
:1036200009F48EC2823009F491C2811105C08091E3
:103630006E008D7F80936E0060E0809125060E9471
:10364000E40188E690E00E94E70510E000E01093B6
:103650008F0500938E050E94C80400919F0410916D
:10366000A0042091A1043091A204601B710B820B75
:10367000930B6630710581059105E8F080910D018D
:1036800081116AC270E060E089E00E94140470E079
:1036900060E086E00E94140470E060E083E00E9435
:1036A00014040E94C80460939F047093A004809344
:1036B000A1049093A2048091FC049091FD04892BB5
:1036C00021F080919E048111DBC18091B1048111B0
:1036D000D7C180915F0481110DC00E94C80460931E
:1036E0005B0470935C0480935D0490935E0481E0BE
:1036F00080935F048091530481110DC00E94C8041F
:1037000060934F047093500480935104909352043B
:1037100081E0809353040E94C80400915B041091DF
:103720005C0420915D0430915E04601B710B820B80
:10373000930B009100011091010120910201309141
:103740000301061717072807390708F04DC00E9424
:10375000C80460935B0470935C0480935D04909351
:103760005E0480914D0490914E04009709F060C270
:1037700081E090E09093FD048093FC0488E893E15D
:10378000A0E0B0E08093000190930101A0930201BA
:10379000B093030180914D0490914E0482309105C5
:1037A00081F41092FD041092FC0440E65AEE60E0B1
:1037B00070E0409300015093010160930201709307
:1037C00003010196833091050CF052C290934E0490
:1037D00080934D0480919E04882321F01092FD0473
:1037E0001092FC0410929E040E94C80400915B0495
:1037F00010915C0420915D0430915E04601B710B9C
:10380000820B930B603D77408105910508F002C360
:103810000E94C80400914F0410915004209151045B
:1038200030915204601B710B820B930B653671054E
:103830008105910508F424C10E94C80460934F04D7
:103840007093500480935104909352048091FC042F
:103850009091FD0420918505222309F40EC2892B45
:1038600089F5CE0149960E94F21581E0209162010E
:1038700030916301232B09F480E00E94550BAB01CA
:10388000BC01CE0101960E94EB16AE01475E5F4F70
:10389000BE016F5F7F4FCE014F960E949812BE010E
:1038A000615E7F4F8BE197E00E949210CE014F96B0
:1038B0000E94DD10CE0101960E94DD10CE014996D6
:1038C0000E94DD108091FC049091FD04019709F0A5
:1038D00062C00E94530868EE73E00E94E631BC01AA
:1038E000CE018B960E9444140E945D08BC01CE015B
:1038F00085960E9444140E946508BC01CE01499639
:103900000E944414BE01675E7F4FCE014F960E9415
:103910003212BE016B5D7F4FCE014F960E94861121
:10392000BE01655D7F4F0E948611BC01CE01C1962C
:103930000E943212CE0101960E94F215AE014F5C38
:103940005F4FBE016F5F7F4FCE01C7960E949812F6
:10395000BE01695C7F4F8BE197E00E949210CE011F
:10396000C7960E94DD10CE0101960E94DD10CE01A7
:10397000C1960E94DD10CE014F960E94DD10CE014F
:1039800049960E94DD10CE0185960E94DD10CE0181
:103990008B960E94DD108091FC049091FD040497A9
:1039A00009F06EC081E02091620130916301232B08
:1039B00009F480E00E94550BAB01BC01CE01C19619
:1039C0000E94EB160E94530868EE73E00E94E631F5
:1039D000BC01CE0185960E9444140E945D08BC0182
:1039E000CE014F960E9444140E946508BC01CE018E
:1039F00001960E944414BE016F5F7F4FCE0149962D
:103A00000E943212BE01615E7F4FCE0149960E9434
:103A10008611BE016B5D7F4F0E948611BC01CE01F5
:103A20008B960E943212AE014F5C5F4FBE01655D06
:103A30007F4FCE01C7960E949812BE01695C7F4FEE
:103A40008BE197E00E949210CE01C7960E94DD1094
:103A5000CE018B960E94DD10CE0149960E94DD10AA
:103A6000CE0101960E94DD10CE014F960E94DD101E
:103A7000CE0185960E94DD10CE01C1960E94DD1018
:103A80000E94090E82E097E00E94850889EE96E088
:103A90000E94850880ED96E00E9485088091B1041F
:103AA0008111BBC110921505809102079091030707
:103AB000181619063CF08091A7049091A80401976C
:103AC00009F07AC381E080939E0410928F051092D2
:103AD0008E0544E650E060E070E088EE93E00E94DE
:103AE0004E028091FE04882309F4C4C10E942D195E
:103AF000EC960FB6F894DEBF0FBECDBFDF91CF912D
:103B00001F910F91FF90EF90DF90CF90BF90AF90FB
:103B10009F908F90089581E08093400407CD83E0CB
:103B2000FBCF85E0F9CF86E0F7CF88E0F5CF8AE0DC
:103B3000F3CF8CE0F1CF8091080180933F042ECD2C
:103B400080916F008D7F80936F0076CD80917000A3
:103B50008D7F8093700070CD80919D058111A1CDE6
:103B600000914B0410914C04F801EE0FFF1FE00F81
:103B7000F11FDF01AA0FBB1FA05BBD4F8D919C9170
:103B80006091040170910501680F791F7093050120
:103B900060930401DF01AA0FBB1FAE5ABD4FCD9049
:103BA000DC908091940490919504C80ED91ED09217
:103BB0009504C0929404EE0FFF1FEC5AFD4FE08075
:103BC000F1808091920490919304E80EF91EF09296
:103BD0009304E092920489E00E941404B60186E006
:103BE0000E941404B70183E00E94140480914904E8
:103BF00090914A04019690934A04809349048F3F20
:103C0000910551F40F5F1F4F10934C0400934B0428
:103C100010924A041092490480914B0490914C04F4
:103C200006970CF43ECD10924C0410924B0439CD03
:103C3000019709F0AFCD84E090E09093FD0480936C
:103C4000FC0488E893E1A0E0B0E080930001909349
:103C50000101A0930201B0930301809185058111B8
:103C6000DAC782E090E090934E0480934D0492CDA9
:103C700010924E0410924D04ADCD892B09F062C014
:103C8000CE01C1960E94F2150E94530868EE73E0BF
:103C90000E94E631BC01CE0185960E9444140E9428
:103CA0005D08BC01CE014F960E9444140E94650835
:103CB000BC01CE0101960E944414BE016F5F7F4F8C
:103CC000CE0149960E943212BE01615E7F4FCE0145
:103CD00049960E948611BE016B5D7F4F0E9486113E
:103CE000BC01CE018B960E943212AE014F5C5F4F39
:103CF000BE01655D7F4FCE01C7960E949812BE013E
:103D0000695C7F4F8BE197E00E949210CE01C796CD
:103D10000E94DD10CE018B960E94DD10CE014996E7
:103D20000E94DD10CE0101960E94DD10CE014F965B
:103D30000E94DD10CE0185960E94DD10CE01C19655
:103D40000E94DD108091FC049091FD04019709F020
:103D500097CE0E94530868EE73E00E94E631BC01E2
:103D6000CE018B960E9444140E945D08BC01CE01D6
:103D700085960E9444140E946508BC01CE014996B4
:103D80000E944414BE01675E7F4FCE014F960E9491
:103D90003212BE016B5D7F4FCE014F960E9486119D
:103DA000BE01655D7F4F0E948611BC01CE01C196A8
:103DB0000E943212CE0101960E94F215AE014F5CB4
:103DC0005F4FBE016F5F7F4FCE01C7960E94981272
:103DD000BE01695C7F4F8BE197E00E949210CE019B
:103DE000C7960E94DD10CE0101960E94DD10CE0123
:103DF000C1960E94DD10CE014F960E94DD10CE01CB
:103E000049960E94DD10CE0185960E94DD10CE01FC
:103E10008B9634CE1092CC0433CE0E94C80400910D
:103E2000B2041091B3042091B4043091B504601B26
:103E3000710B820B930B61367A4E8105910508F464
:103E400033CE1092B104E091FC04F091FD04EE0F2A
:103E5000FF1FE053FD4F808191819093FD0480937B
:103E6000FC04880F991FFC01E25FFE4F8081809364
:103E700015051ACE0E94C8046093B2047093B3046F
:103E80008093B4049093B5048091FC049091FD0458
:103E900001968530910509F46DC09093FD048093DF
:103EA000FC048091FC049091FD04079721F410928A
:103EB000FD041092FC042091FC043091FD04890162
:103EC000000F111FF801E25FFE4F808180931505FE
:103ED000D9011197FD01EE0FFF1FEE55FD4F6081D7
:103EE00071816115710509F458C1AB014150510947
:103EF000FA01EE0FFF1FEC58FD4F0190F081E02D0D
:103F0000AE17BF0709F049C162307105B1F588E10C
:103F1000E6EDF1E0DE01119601900D928A95E1F750
:103F2000809156019091570183709927892B21F434
:103F30008DE190E09C838B83809154019091550199
:103F40000197880F991FE1E0F0E0EC0FFD1F8E0F45
:103F50009F1F2091520130915301FC01808191817A
:103F60008217930754F48BE090E09093FD048093C4
:103F7000FC04BECD86E090E090CF1092B104509347
:103F8000FD044093FC04452BB9F40E9453087C01C6
:103F90000E945D088C010E94650840914E0150917D
:103FA0004F0160914C0170914D019C0180914A013B
:103FB00090914B010E9438068091FC049091FD0481
:103FC0000197F9F4E0905601F090570100915401E7
:103FD0001091550180905201909053010E946D08FC
:103FE0005C010E9475086C010E947D089401A50186
:103FF000B6010E943806609150018DE090E00E9469
:10400000FD188091FC049091FD040297C1F4609129
:10401000580182E090E00E94FD1860915A0183E00F
:1040200090E00E94FD1860915C0184E090E00E94A5
:10403000FD1860915E0186E090E00E94FD1880917D
:10404000FC049091FD04039731F46091600181E0DC
:1040500090E00E94FD188091FC049091FD0404976B
:1040600031F4609162018BE090E00E94FD18809134
:10407000FC049091FD04059749F4609164018091DE
:104080009201681B8CE090E00E94FD188091FC0476
:104090009091FD04069761F4609166018EE090E0D6
:1040A0000E94FD18609168018FE090E00E94FD1869
:1040B0000E94530868EE73E00E94E631082F0E94C8
:1040C0005D08F82E0E946508E82E0E946D08B82E43
:1040D0000E947508C82E0E947D08D82E80910A0182
:1040E0000E94880160E084EC96E00E94980A1AE041
:1040F0008B2D612F0E94DA318295807F682F690FA6
:1041000084EC96E00E94980A8C2D612F0E94DA318F
:104110008295807F682F690F84EC96E00E94980A50
:104120008D2D612F0E94DA318295807F682F690F73
:1041300084EC96E00E94980A61E084EC96E00E948C
:10414000980A8E2D612F0E94DA318295807F682F28
:10415000690F84EC96E00E94980A8F2D612F0E94CF
:10416000DA318295807F682F690F84EC96E00E9497
:10417000980A802F612F0E94DA318295807F682F04
:10418000690F84EC96E00E94980A60E084EC96E067
:104190000E94980A0E945A09ABCC2431310561F083
:1041A0002A5031092230310538F00E944113F801BC
:1041B000E45CFE4F91838083809102079091030716
:1041C00097FD07C08091A7049091A804019609F07B
:1041D000F4C044E650E060E070E088EE93E00E94B6
:1041E0004E028091B104811152C00091FC041091E3
:1041F000FD040E94C8046093B2047093B3048093DA
:10420000B4049093B504012B09F041C00E946D08DD
:10421000BC01CE0185960E9444140E947508BC0121
:10422000CE014F960E9444140E947D08BC01CE012D
:1042300001960E944414BE016F5F7F4FCE014996E4
:104240000E943212BE01615E7F4FCE0149960E94EC
:104250008611BE016B5D7F4F0E94861169E673E097
:104260000E947011BC018BE197E00E941B12CE01ED
:1042700049960E94DD10CE0101960E94DD10CE010C
:104280004F960E94DD10CE0185960E94DD10809130
:10429000FC049091FD04019709F056C00E94650846
:1042A00090935301809352010E945D0890935501B1
:1042B000809354010E945308BC019093570180934E
:1042C00056018091500190915101892B09F0A4C1B0
:1042D000CE0185960E94441460915401709155015D
:1042E000CE014F960E944414609152017091530187
:1042F000CE0101960E944414BE016F5F7F4FCE0134
:1043000049960E943212BE01615E7F4FCE014996EE
:104310000E948611BE016B5D7F4F0E948611BC0119
:104320008BE197E00E941B12CE0149960E94DD109E
:10433000CE0101960E94DD10CE014F960E94DD1045
:10434000CE0185960E94DD10E091FC04F091FD0401
:10435000EE0FFF1FE053FD4F208131813093FD04AC
:104360002093FC042E30310549F481E090E09093D5
:104370005F0180935E0180E8809305058091B10420
:1043800091E089278093B1048901000F111FF80182
:10439000E25FFE4F808180931505A90143515109C9
:1043A0004230510550F02A30310539F00E94411356
:1043B000F801E45CFE4F918380838091E90690913F
:1043C000EA06009709F039C18091A5049091A604EE
:1043D000019701F581E080939E0410928F05109261
:1043E0008E0544E650E060E070E088EE93E00E94C5
:1043F0004E028091FE04811179CB0E949E1580911E
:10440000B104811107C010929D0560E087E090E043
:104410000E94FD1880919C0490919D04019609F0E2
:1044200015C18091EB06882309F410C1109217057D
:104430008091B1048823F9F00E94C8040091980487
:104440001091990420919A0430919B04601B710B88
:10445000820B930B673971058105910560F00E940D
:10446000C804609398047093990480939A0490937D
:104470009B040E949E158091D0069091D1060097D2
:1044800009F0E8C08091A3049091A404019791F5EC
:1044900011E010939E0410928F0510928E0544E651
:1044A00050E060E070E088EE93E00E944E02809160
:1044B000FE0481111BCB0E943F158091B104811134
:1044C00019C010939D0561E087E090E00E94FD18FF
:1044D0006091040188E090E00E94FD1860919404CE
:1044E00089E090E00E94FD18609192048AE090E0DB
:1044F0000E94FD188091960490919704019609F00E
:10450000B2C08091D206882309F4ADC08091B10475
:1045100010921605882321F10E94C80400918E0490
:1045200010918F042091900430919104601B710BC5
:10453000820B930B673971058105910508F449C019
:104540000E94C80460938E0470938F04809390043B
:10455000909391040E943F158091B104811139C05C
:104560008091E9069091EA0697FD06C08091A50426
:104570009091A604019691F444E650E060E070E06A
:1045800088EE93E00E944E0281E080930D0161E08D
:1045900090E080E00E94FD180E9401198091D006F1
:1045A0009091D10697FD06C08091A3049091A40438
:1045B000019679F444E650E060E070E088EE93E024
:1045C0000E944E0210920D0160E090E080E00E9497
:1045D000FD18E091FC04F091FD04E731F10508F0CD
:1045E00087CAEB50FD4D0C943B32372376236B2466
:1045F000B724E2242625D725781D781D781D55255A
:104600007E257E257E25781D781D781D781D781DD8
:10461000E2242625D725D725CE0185960E9444146D
:104620006091520170915301CE014F960E94441443
:1046300060915401709155015BCE90939D048093DD
:104640009C04181619060CF4C5CEBECE81E08093EA
:10465000170511CF909397048093960418161906A6
:104660000CF416CF0FCF81E08093160575CF8091A3
:10467000CC0481112CC00E94C804009167041091E1
:1046800068042091690430916A04601B710B820BED
:10469000930B633371058105910508F10E94C804ED
:1046A00060936704709368048093690490936A042C
:1046B000CE0101960E94F215BE016F5F7F4F8BE124
:1046C00097E00E949210CE0101960E94DD100E9498
:1046D0006D0880FD72C180EC8093050570C16BE1AF
:1046E00077E0CE0101960E943212E6CF8091CC0491
:1046F0008111DEC080918604811111C00E94C8041E
:1047000067517C4F8F4F9F4F609382047093830457
:10471000809384049093850481E080938604809143
:104720007A04811144C00E94530868EE73E00E942D
:10473000E631BC01CE0101960E9444140E945D083E
:10474000BC01CE0149960E9444140E946508BC0138
:10475000CE0185960E944414BE016B5D7F4FCE0151
:104760004F960E943212BE01675E7F4FCE014F9678
:104770000E948611BE016F5F7F4F0E948611BC01AF
:1047800084E794E00E94321281E080937A04CE01A3
:104790004F960E94DD10CE0185960E94DD10CE015D
:1047A00049960E94DD10CE0101960E94DD10009115
:1047B00050011091510180916C04811105C000934A
:1047C0006B0481E080936C040E94C804C090820452
:1047D000D0908304E0908404F09085046C197D09E6
:1047E0008E099F09693E73408105910530F48091DF
:1047F0006B048017110609F44AC00E94C804609334
:104800008204709383048093840490938504012B25
:1048100009F050C00E945308BC01CE0101960E94CD
:1048200044140E945D08BC01CE0149960E944414C4
:104830000E946508BC01CE0185960E944414BE0109
:104840006B5D7F4FCE014F960E943212BE01675EB4
:104850007F4FCE014F960E948611BE016F5F7F4F42
:104860000E948611BC0184E794E00E941B12CE01D5
:104870004F960E94DD10CE0185960E94DD10CE017C
:1048800049960E94DD10CE0101960E94DD1064E77A
:1048900074E0CE0101960E943212BE016F5F7F4F1D
:1048A0008BE197E00E949210CE0101960E94DD10EC
:1048B00080E412CF0E945308BC01CE0101960E94F1
:1048C00044140E946508BC01CE0149960E9444141C
:1048D0000E945D08AFCF60915C0170915D01CE01D7
:1048E00085960E94441460915A0170915B01CE013B
:1048F0004F960E9444146091580170915901CE0165
:1049000001960E944414BE016F5F7F4FCE0149960D
:104910000E943212BE01615E7F4FCE0149960E9415
:104920008611BE016B5D7F4F0E94861169E673E0C0
:104930000E947011BC018BE197E00E941B12CE0116
:1049400049960E94DD10CE0101960E94DD10CE0135
:104950004F960E94DD10CE0185960E94DD10809159
:104960005E0190915F01019741F580E8B5CE6091BD
:10497000600170916101CE0149960E94EF1169E6D4
:1049800073E0CE0101960E943B12BE01675E7F4F2D
:10499000CE0101960E94861167E673E00E947011B5
:1049A000BC018BE197E00E941B12CE0101960E9490
:1049B000DD10CE0149960E94DD10109205050E947F
:1049C0003A1996C88091CC04811124C081E02091CD
:1049D000620130916301232B09F480E00E94550BA2
:1049E000AB01BC01CE0101960E94EB16BE016F5FC8
:1049F0007F4F8BE197E00E949210CE0101960E94BA
:104A0000DD108091620190916301892BD1F480E4E3
:104A10008093050581E02091620130916301232B91
:104A200009F480E00E94550B1091050520E030E06C
:104A3000A9010E94A72F87FF07C0106810930505E2
:104A400057C810920505E6CF1F77F8CF6091640133
:104A500070916501CE0101960E944414BE016F5F02
:104A60007F4FCE0149960E94321265E673E0CE0177
:104A700049960E947011BC018BE197E00E941B12C5
:104A8000CE0149960E94DD10CE0101960E94DD10F4
:104A9000809164019091650197FD03C01092050516
:104AA00027C880E88093050523C880915001909124
:104AB0005101892BA1F465E473E08BE197E00E943A
:104AC000E51183E090E090932501809324018CE030
:104AD00090E090932701809326010C94781D6EE45A
:104AE00073E08BE197E00E94E5118CE090E09093F9
:104AF00025018093240183E090E0EBCF6091560183
:104B0000709157018091500190915101892BF1F5DD
:104B1000CE0185960E9496136091540170915501C3
:104B2000CE014F960E94441460915201709153013E
:104B3000CE0101960E944414BE016F5F7F4FCE01EB
:104B400049960E943212BE01615E7F4FCE014996A6
:104B50000E948611BE016B5D7F4F0E948611BC01D1
:104B60008BE197E00E941B12CE0149960E94DD1056
:104B7000CE0101960E94DD10CE014F960E94DD10FD
:104B8000CE0185960E94DD100C94781DCE0185968D
:104B90000E9496136091520170915301CE014F967D
:104BA0000E9444146091540170915501C1CF6091ED
:104BB000680170916901CE014F960E944414609182
:104BC000660170916701CE0101960E944414BE01F6
:104BD0006F5F7F4FCE0149960E943212BE01615E27
:104BE0007F4FCE0149960E94861167E573E00E94CF
:104BF0007011BC018BE197E00E941B12CE01499617
:104C00000E94DD10CE0101960E94DD10CE014F966C
:104C10000E94DD1043CF81E090E00C94E11B1F92D5
:104C20000F920FB60F9211242F933F938F939F9360
:104C3000AF93BF9380919F059091A005A091A1058E
:104C4000B091A20530919E0523E0230F2D3758F532
:104C50000196A11DB11D20939E0580939F05909301
:104C6000A005A093A105B093A2058091A305909102
:104C7000A405A091A505B091A6050196A11DB11DA1
:104C80008093A3059093A405A093A505B093A605D2
:104C9000BF91AF919F918F913F912F910F900FBE38
:104CA0000F901F90189526E8230F0296A11DB11DA5
:104CB000D2CF1F920F920FB60F9211242F933F93D2
:104CC0004F935F936F937F938F939F93AF93BF9314
:104CD000EF93FF9387E296E00E945D05FF91EF91CD
:104CE000BF91AF919F918F917F916F915F914F9104
:104CF0003F912F910F900FBE0F901F9018951F920C
:104D00000F920FB60F9211242F938F939F93EF93CF
:104D1000FF93E0913706F09138068081E0913D06DF
:104D2000F0913E0682FD1BC09081809140068F5F0E
:104D30008F7320914106821741F0E0914006F0E028
:104D4000E95DF94F958F80934006FF91EF919F9118
:104D50008F912F910F900FBE0F901F90189580810B
:104D6000F4CF1F920F920FB60F9211242F933F93FF
:104D70008F939F93AF93BF93EF93FF938091190607
:104D800090911A06A0911B06B0911C060097A105F0
:104D9000B10531F130917905E0917A05F0917B050B
:104DA000208123272083181619061A061B061CF4D7
:104DB0000197A109B1098093190690931A06A0934F
:104DC0001B06B0931C06FF91EF91BF91AF919F918D
:104DD0008F913F912F910F900FBE0F901F901895BC
:104DE000209170002D7F2093700020917905E09133
:104DF0007A05F0917B053081209523232083DBCF3A
:104E00001F920F920FB60F9211248F939F93AF931F
:104E1000BF93EF93FF9380911D0690911E06A09182
:104E20001F06B0912006892B8A2B8B2BA1F1909124
:104E30007C05E0917D05F0917E0580818927808346
:104E400080911D0690911E06A0911F06B09120062C
:104E5000181619061A061B069CF480911D069091DF
:104E60001E06A0911F06B09120060197A109B10965
:104E700080931D0690931E06A0931F06B0932006F4
:104E8000FF91EF91BF91AF919F918F910F900FBEC6
:104E90000F901F90189580916F008D7F80936F0009
:104EA00080917C05E0917D05F0917E059081809553
:104EB00089238083E5CF1F920F920FB60F921124A2
:104EC0008F939F93AF93BF93EF93FF9380912106AE
:104ED00090912206A0912306B0912406892B8A2B5B
:104EE0008B2BA1F190917F05E0918005F0918105D8
:104EF0008081892780838091210690912206A0914C
:104F00002306B0912406181619061A061B069CF4EF
:104F10008091210690912206A0912306B09124064B
:104F20000197A109B1098093210690932206A093CD
:104F30002306B0932406FF91EF91BF91AF919F910B
:104F40008F910F900FBE0F901F90189580916E005B
:104F50008D7F80936E0080917F05E0918005F091B8
:104F600081059081809589238083E5CF1F920F92E0
:104F70000FB60F9211242F933F934F935F936F932C
:104F80007F938F939F93AF93BF93EF93FF93809102
:104F9000B900887F803609F44AC0F0F5883209F4F8
:104FA000A7C018F5803109F49BC0B8F4882309F430
:104FB000F9C0883009F494C0FF91EF91BF91AF918F
:104FC0009F918F917F916F915F914F913F912F9121
:104FD0000F900FBE0F901F901895883109F488C06C
:104FE000803251F78093ED0514C0803409F49DC0E0
:104FF00040F48033B9F38833F9F68093ED0585ECFE
:10500000B0C0803509F485C0883509F496C088346D
:1050100099F60E94C518D0CF883909F48CC038F5AC
:10502000883729F050F4883611F0803729F683E06C
:105030008093EF0510925B0557C0883809F47BC058
:10504000803919F0803809F0B7CF80915B05803244
:1050500008F071C0E0915B0581E08E0F80935B05E5
:105060008091BB00F0E0E55CFA4F80833DC0803B5F
:1050700039F0E0F4803A09F479C0883A09F09CCF1D
:1050800084E08093EF0510923A0510923905E09183
:105090007705F091780509958091390581110FC048
:1050A00081E0809339051092190509C0803C09F40C
:1050B000A6CF883C09F4A3CF883B09F07DCFE091CF
:1050C0003A0581E08E0F80933A05F0E0E75EFA4FF3
:1050D00080818093BB0090913A058091390529C069
:1050E0008091CA058093BB0085EC8093BC0064CF9F
:1050F0009091EC058091EB05981758F5E091EC053F
:1051000081E08E0F8093EC05F0E0E553FA4F80814B
:10511000E9CFE091EC0581E08E0F8093EC05809162
:10512000BB00F0E0E553FA4F80839091EC0580914D
:10513000EB059817C8F285E8D8CFE091EC0581E03F
:105140008E0F8093EC058091BB00F0E0E553FA4FA1
:1051500080838091EE0581115CCF81E08093C90549
:1051600084EA8093BC001092EF0526CF85EC8093F3
:10517000BC001092EF0580915B05803230F4E09125
:105180005B05F0E0E55CFA4F108260915B0570E032
:10519000E0917505F09176058BE395E00995109205
:1051A0005B050ACF1092ED0534CFCF93DF93EC016E
:1051B000862F6F87188A91E0998B9A8B1C8A1B8A9D
:1051C000198218821A821D8A1E8A1F8A188E44E14B
:1051D00050E060E070E04B835C836D837E834AEF38
:1051E00050E060E070E04F83588769877A8748EE27
:1051F00053E060E070E04B875C876D877E8760E0FE
:105200000E9412028889811106C061E08F85DF91BA
:10521000CF910C94E401DF91CF910895E7E2F6E09D
:105220001382128288EE93E0A0E0B0E0848395833D
:10523000A683B78322E233E03183208325EC30E07C
:105240003587248724EC30E03787268720EC30E050
:10525000318B208B21EC30E0338B228B22EC30E041
:10526000358B248B26EC30E0378B268B118E128EFB
:10527000138E148EE4ECF6E01382128284839583FD
:10528000A683B78384E393E0918380836CE573E026
:105290008FE297E00E943B1260E087E00E941202DA
:1052A000E5E3F1E0E491A1E2B7E0EC93E1E2F1E0C3
:1052B000E491F0E0EE0FFF1FE05FFE4F85919491C7
:1052C00012969C938E9311971B961C921B971D967A
:1052D0001C921D971C961C921C971A961C921A974A
:1052E00019961C92199718961C92189717961C924B
:1052F000179716961C92169715961C92159714964A
:105300001C92149713961C9263E673E08BE197E06E
:105310000E943B126EE082E097E00E94D52860E197
:1053200089EE96E00E94D5286FE080ED96E00C941F
:10533000D528CF93DF93CDB7DEB7CE54D1090FB6C2
:10534000F894DEBF0FBECDBF789484B5826084BD73
:1053500084B5816084BD85B5826085BD85B5816079
:1053600085BD80916E00816080936E0010928100F7
:1053700080918100826080938100809181008160B2
:105380008093810080918000816080938000809173
:10539000B10084608093B1008091B00081608093FF
:1053A000B00080917A00846080937A0080917A00C6
:1053B000826080937A0080917A00816080937A0085
:1053C00080917A00806880937A001092C1001092D8
:1053D000A8051092A7051092F605109218060E94D3
:1053E0001B0984ED94E0909378058093770585ED13
:1053F00094E09093760580937505E0913706F091DF
:10540000380682E08083E0913306F0913406108202
:10541000E0913506F091360680E1808310923F06D8
:10542000E0913B06F0913C0686E08083E0913906EE
:10543000F0913A06808180618083E0913906F09195
:105440003A06808188608083E0913906F0913A06BF
:10545000808180688083E0913906F0913A068081EE
:105460008F7D808383E398E09093B3018093B201B2
:1054700081EE97E09093850180938401909357018A
:105480008093560180EF90E090932901809328014A
:1054900081E090E00E94FF188C3009F4B8C188E1E7
:1054A00090E0909361018093600190E080E00E9421
:1054B000FF18882309F4AEC181E080930D0182E0DA
:1054C00090E00E94FF188F3F09F0A7C11092590188
:1054D0001092580183E090E00E94FF188F3F09F07E
:1054E000A2C110925B0110925A0184E090E00E94E8
:1054F000FF188F3F09F09DC110925D0110925C0171
:1055000086E090E00E94FF188F3F09F098C110924A
:105510005F0110925E0187E090E00E94FF188F3FCC
:1055200009F093C110929D058BE090E00E94FF1856
:105530008F3F09F091C110926301109262018CE0DB
:1055400090E00E94FF188F3F59F020919201309116
:105550009301820F932F911D9093650180936401B5
:105560008DE090E00E94FF188F3F29F090E090932B
:105570005101809350018EE090E00E94FF188F3F10
:1055800029F090E090936701809366018FE090E0AE
:105590000E94FF188F3F29F090E09093690180935B
:1055A000680161E089E00E94120261E086E00E94E9
:1055B000120261E083E00E94120280918205833032
:1055C00008F0BFC192E090932506E82FF0E0E15883
:1055D000FF4FE491E09326068F5F80938205E130D0
:1055E00009F461C108F43EC1E23009F483C180913D
:1055F0000B0190910C010E94200C90930C01809360
:105600000B0161E08AE00E94120262E088E00E94E1
:10561000120288E00E94BB0121E0892B09F020E002
:10562000209384051FB7F89480918305811127C0CA
:10563000E4E2F1E08491E8E3F1E09491E82FF0E016
:10564000EE0FFF1FE851FF4FA591B491EC91E923B4
:1056500021F461E08AE00E94E40161E08AE00E94B6
:1056600012028CB580618CBD8CB580648CBD61E00C
:105670008DE00E94120261E08BE00E941202809194
:1056800083058F5F809383051FBF809184058823E6
:1056900009F45BC189E791E00E94CD0062E08EE0F1
:1056A0000E94120262E080E10E94120262E08FE03A
:1056B0000E94120261E082E00E94120204E110E006
:1056C00020E030E0009305071093060720930707BA
:1056D000309308074EE150E060E070E04093090726
:1056E00050930A0760930B0770930C0780ED97E0C7
:1056F000A0E0B0E080930D0790930E07A0930F07F2
:10570000B09310070093EC061093ED062093EE067D
:105710003093EF064093F0065093F1066093F20643
:105720007093F3068093F4069093F506A093F60623
:10573000B093F7060093D3061093D4062093D506B2
:105740003093D6064093D7065093D8066093D90677
:105750007093DA068093DB069093DC06A093DD0657
:10576000B093DE0689EC90E00E94CC0525E030E0A5
:1057700042E050E06FE277E0CE0101967C010E94AA
:105780004C1222E030E041E050E06FE277E0CE01E1
:10579000875B9F4F0E944C12BE01675B7F4FCE011B
:1057A0008D5B9F4F0E9432126CE673E0CE018D5BE1
:1057B0009F4F0E947011B7010E948611FC01448125
:1057C00055816081718187E296E00E94D7040E9432
:1057D0000405CE018D5B9F4F0E94DD10CE01875BDB
:1057E0009F4F0E94DD10C7010E94DD100FEA10E0FC
:1057F0004AE1D42EDA94DD2009F4A9C0F8016491BD
:1058000087E296E00E947F050F5F1F4FF3CF8CE089
:1058100090E047CE10920D0152CE90E09093590146
:105820008093580157CE90E090935B0180935A018A
:105830005CCE90E090935D0180935C0161CE90E03E
:1058400090935F0180935E0166CE91E0811101C06B
:1058500090E090939D0568CE90E0909363018093D3
:1058600062016DCE14BC15BC84B5826084BD85B563
:10587000816085BD8091250690E0FC01E65EFE4FCB
:10588000E491F0E0EE0FFF1FEE50FF4F25913491B1
:105890003093810520938005FC01E25DFE4FE49189
:1058A000E0937F05A4CE1092800010928100809139
:1058B0008100886080938100809181008160809365
:1058C00081008091250690E0FC01E65EFE4FE491A8
:1058D000F0E0EE0FFF1FEE50FF4F25913491309313
:1058E0007E0520937D05FC01E25DFE4FE491E0938F
:1058F0007C057DCE1092B0001092B1008091B00076
:1059000082608093B0008091B10081608093B1008B
:105910008091250690E0FC01E65EFE4FE491F0E008
:10592000EE0FFF1FEE50FF4F2591349130937B0512
:1059300020937A05FC01E25DFE4FE491E093790546
:1059400056CE8FEF8093260652CE89E5A4CE0E94D4
:10595000040584EA90E00E94E70580910B01909194
:105960000C0190938F0580938E050E94200C6FEFA1
:1059700070E089E00E94140468EE73E080E090E03B
:105980000E94960470E060E089E00E9414046FEFCA
:1059900070E086E00E94140468EE73E080E090E01E
:1059A0000E94960470E060E086E00E9414046FEFAD
:1059B00070E083E00E94140468EE73E080E090E001
:1059C0000E94960470E060E083E00E94140463E6A5
:1059D00073E0C7010E943B126EE673E0CE010796AA
:1059E0000E943B1267E773E0CE010D960E943B12C6
:1059F00060E873E0CE0143960E943B1269E873E0D1
:105A0000CE0149960E943B1262E973E0CE014F96A7
:105A10000E943B126BE973E0CE0185960E943B1217
:105A200064EA73E0CE018B960E943B126DEA73E04C
:105A3000CE01C1960E943B1266EB73E0CE01C79681
:105A40000E943B1264E473E0CE01CD960E943B12AB
:105A50006FE277E0CE018D5B9F4F0E94321269E6C4
:105A600073E0CE018D5B9F4F0E947011BC01CE018F
:105A7000CD960E941B12CE018D5B9F4F0E94DD10C0
:105A80000E94C8042B013C01F8EE4F0EF3E05F1EAC
:105A9000611C711C912C1FEF94EFC92EDD24D3944F
:105AA00026E0822E3BE3A32E3FE1B32E8FE00E943F
:105AB000BB01892B11F49924939480E10E94BB01CE
:105AC000892B09F4912C0E94C80464197509860970
:105AD000970996010D2C000C440B550B01E026177D
