:020000040000FA
:100000000C94AA000C94D2000C94D2000C94D20050
:100010000C94D2000C94D2000C94D2000C9428269C
:100020000C94D2000C94D2000C94D2000C9477263D
:100030000C94D2000C94D2000C94D2260C94D200D2
:100040000C9486250C94D2000C94F6250C94D025A3
:100050000C94D2000C94D2000C94D2000C94D200D8
:100060000C942D270C94D200496E636F72726563F5
:100070007420536F6E6720466F726D6174210002A9
:10008000010053746F7020546573740054656D7073
:100090002E2073656E736F72206E6F7420666F759D
:1000A0006E642E0053746172742054657374004E34
:1000B00043533331322D3820485635313232206F98
:1000C0007220485635323232004669726D7761725D
:1000D000652076657273696F6E3A20004661756CB3
:1000E0007479204453333233312100445333323353
:1000F000315F543D0000000000240027002A00006A
:10010000000000250028002B00000000080002016C
:1001100000000304070000000000000000000000D1
:10012000002300260029000404040404040404023B
:100130000202020202030303030303010204081084
:100140002040800102040810200102040810200051
:100150008528272E11241FBECFEFD8E0DEBFCDBFEC
:1001600026E0A6E0B4E001C01D92AE3FB207E1F781
:1001700014E0A0E0B1E0EEEEF6E602C005900D92CC
:10018000A630B107D9F710E0C9EAD0E004C0219742
:10019000FE010E945631C83AD107C9F70E941029C2
:1001A0000C946A330C9400008CBD9DBD0895809121
:1001B000E606E091E706F091E806F8949181982B25
:1001C00091832281382F309523232283A7E0B0E04A
:1001D0001197F1F7918193239183A3E2B0E01197F6
:1001E000F1F790817894EFECF0E03197F1F79823F4
:1001F00081E009F480E008959091E606E091E70639
:10020000F091E806292F209580FF14C0F894828190
:10021000822382838181892B8183A3E2B0E01197BD
:10022000F1F78281982B9283789487ED90E0019783
:10023000F1F70895F8948281822382838181892B4A
:100240008183AFEFB0E01197F1F78281982B928311
:1002500078948FE090E0EBCF0F931F93CF93DF93D1
:10026000082FC8E0D0E011E081E0902F912309F43D
:1002700080E00E94FC00110F2197B1F7F894E09103
:10028000E706F091E80691818091E6068095982333
:100290009183E091E706F091E806928189238283B9
:1002A0007894DF91CF911F910F9108958091E60688
:1002B000E091E706F091E806F8949181282F2095C7
:1002C0009223918378943DE743E050E0315029F147
:1002D000DA011197F1F790819823C1F3F894928194
:1002E000922392839181982B91837894ABE7B7E026
:1002F0001197F1F7F894918192239183A3E1B1E0F2
:100300001197F1F79081982381E009F080E07894CB
:10031000E3E6F6E03197F1F7089580E00895833041
:1003200081F028F4813099F08230A9F00895873067
:10033000A9F08830C9F08430B1F4809180008F7DBD
:1003400003C0809180008F7780938000089584B5EA
:100350008F7784BD089584B58F7DFBCF8091B000E9
:100360008F778093B00008958091B0008F7DF9CF92
:10037000CF93DF93282F30E0F901E75FFE4F8491A0
:10038000F901E55CFE4FD491F901E95DFE4FC4919E
:10039000CC23A1F081110E948F01EC2FF0E0EE0F31
:1003A000FF1FE35EFE4FA591B491EC91ED2381E038
:1003B00090E009F480E0DF91CF91089580E090E033
:1003C000FACF1F93CF93DF93282F30E0F901E75F37
:1003D000FE4F8491F901E55CFE4FD491F901E95D8E
:1003E000FE4FC491CC23A9F0162F81110E948F01DA
:1003F000EC2FF0E0EE0FFF1FE150FF4FA591B491FD
:100400008FB7F894EC91111108C0D095DE23DC93DE
:100410008FBFDF91CF911F910895DE2BF8CFCF933F
:10042000DF9390E0FC01E55CFE4F2491895D9E4FD7
:10043000FC0184918823C9F090E0880F991FFC018A
:10044000EB50FF4FA591B491FC01E150FF4FC591D6
:10045000D49161110DC09FB7F8948C91209582239F
:100460008C938881282328839FBFDF91CF910895A3
:10047000623051F49FB7F8943C91822F809583238A
:100480008C93E8812E2BEFCF8FB7F894EC912E2B25
:100490002C938FBFEACF4F925F926F927F928F9291
:1004A0009F92AF92BF92CF92DF92EF92FF920F9303
:1004B0001F93CF93DF9300D000D01F92CDB7DEB74C
:1004C0002091EB0527FD2CC149835A836B837C83E4
:1004D0008C0161E08091EA050E940F028091EB059A
:1004E0008D834801B12CA12C8D7F09F031C160E0D2
:1004F00072E18AE790E0A50198010E943731290155
:100500003A017A01690191E0C91AD108E108F108BC
:10051000AFEFCA16D104E104F10409F00CF4C7C02E
:1005200060E472E48FE090E0A50198010E94373109
:1005300069017A01B1E0CB1AD108E108F1088D8197
:10054000823009F06AC082E09FEFC916D104E1044D
:10055000F10409F00CF45EC160E970ED83E090E015
:10056000A50198010E94373169017A01A1E0CA1AF8
:10057000D108E108F10883E0BFEFCB16D104E10414
:10058000F10409F00CF446C168E478EE81E090E0F3
:10059000A50198010E94373169017A0181E0C81AEA
:1005A000D108E108F10884E09FEFC916D104E10405
:1005B000F10409F00CF42EC164E274EF80E090E0E5
:1005C000A50194010E94373169017A01B1E0CB1A8B
:1005D000D108E108F10885E09FEFC916D104E104D4
:1005E000F10409F008F416C162E17AE780E090E0D6
:1005F000A50194010E94373169017A01B1E0CB1A5B
:10060000D108E108F1088FEFC816D104E104F10424
:1006100011F008F0F0C086E0FDC08FEFC816D104DD
:10062000E104F10409F00CF491C068E478EE81E093
:1006300090E0A50198010E94373169017A0191E0AB
:10064000C91AD108E108F108AD8184E0A111C4CF35
:1006500083E0AFEFCA16D104E104F10461F15CF16B
:1006600062E17AE780E090E0A50194010E943731D1
:1006700069017A0181E0C81AD108E108F10884E033
:100680009FEFC916D104E104F104A9F0A0F07301B1
:1006900062019AE0F594E794D794C7949A95D1F7BC
:1006A000A1E0CA1AD108E108F10885E004C081E0A0
:1006B000AD81A111AFC095B5987F892B85BD89818A
:1006C0009A81AB81BC812FEF3FEFA901892B8A2B47
:1006D0008B2B79F0D801AA0FBB1F29813A814B815E
:1006E0005C810E94FC2F28EE33E040E050E00E9445
:1006F00015319D81913009F45CC0923009F46BC0D2
:1007000091110EC0C7BC2093E6053093E7054093D6
:10071000E8055093E90580916E00826080936E0039
:100720000F900F900F900F900F90DF91CF911F912E
:100730000F91FF90EF90DF90CF90BF90AF909F9080
:100740008F907F906F905F904F90089582E0B0CF30
:1007500060E072E18AE790E0A50198010E943731DC
:1007600069017A01B1E0CB1AD108E108F10891E002
:10077000C114D10481E0E806F10484F068E478EE65
:1007800081E090E0A50198010E94373169017A016A
:1007900091E0C91AD108E108F10893E0AD81A130D8
:1007A00009F08DCF80918100887F892B8093810013
:1007B00086CFD0928900C09288002093E2053093C2
:1007C000E3054093E4055093E50580916F00826056
:1007D00080936F00A5CFC092B3002093DE053093C5
:1007E000DF054093E0055093E10580917000826041
:1007F0008093700095CF730162018AE0F594E794CD
:10080000D794C7948A95D1F7B1E0CB1AD108E10803
:10081000F10887E09091B100987F892B8093B10017
:100820004ECF1F93CF93DF93182FEB0161E00E940F
:100830000F02209739F460E0812FDF91CF911F9153
:100840000C94E101CF3FD10511F461E0F5CFE12F28
:10085000F0E0E75FFE4FE491E33031F140F4E13046
:10086000B1F0E230E1F0C038D1057CF7E4CFE730F9
:1008700029F1E83059F1E430B1F7809180008062CD
:1008800080938000D0938B00C0938A0004C084B50D
:10089000806884BDC7BDDF91CF911F91089584B555
:1008A000806284BDC8BDF7CF80918000806880934E
:1008B0008000D0938900C0938800EDCF8091B00074
:1008C00080688093B000C093B300E5CF8091B00002
:1008D00080628093B000C093B400DDCF3FB7F8943E
:1008E00080916A0590916B05A0916C05B0916D05A2
:1008F00026B5A89B05C02F3F19F00196A11DB11D7B
:100900003FBFBA2FA92F982F8827BC01CD01620FB6
:10091000711D811D911D42E0660F771F881F991F71
:100920004A95D1F708958F929F92AF92BF92CF923E
:10093000DF92EF92FF924B015C010E946E046B010B
:100940007C010E946E046C197D098E099F09683E26
:10095000734081059105A8F321E0821A9108A1084E
:10096000B10888EEC80E83E0D81EE11CF11C81148A
:100970009104A104B10429F7FF90EF90DF90CF908C
:10098000BF90AF909F908F9008952FB7F89460918B
:1009900066057091670580916805909169052FBF84
:1009A0000895089508950895AF92BF92CF92DF926F
:1009B000EF92FF920F931F93CF93DF936C017B0114
:1009C0008B01040F151FEB015E01AE18BF08C017A5
:1009D000D10759F06991D601ED91FC910190F08118
:1009E000E02DC6010995892B79F7C501DF91CF91DB
:1009F0001F910F91FF90EF90DF90CF90BF90AF903D
:100A00000895FC01538D448D252F30E0842F90E014
:100A1000821B930B541710F0CF96089501970895F9
:100A2000FC01918D828D981761F0A28DAE0FBF2FC2
:100A3000B11D5D968C91928D9F5F9F73928F90E018
:100A400008958FEF9FEF0895FC01918D828D981787
:100A500031F0828DE80FF11D858D90E008958FEFC4
:100A60009FEF0895FC01918D228D892F90E0805C8D
:100A70009F4F821B91098F73992708958CEE95E003
:100A80000E94320521E0892B09F420E0822F08958D
:100A900080E090E0892B29F00E943E0581110C94A2
:100AA00000000895FC01A48DA80FB92FB11DA35A11
:100AB000BF4F2C91848D90E001968F739927848F7E
:100AC000A689B7892C93A089B1898C9183708064A1
:100AD0008C93938D848D981306C00288F389E02D42
:100AE00080818F7D80830895EF92FF920F931F93F3
:100AF000CF93DF93EC0181E0888F9B8D8C8D9813D1
:100B00001AC0E889F989808185FF15C09FB7F894DC
:100B1000EE89FF896083E889F98980818370806428
:100B200080839FBF81E090E0DF91CF911F910F9173
:100B3000FF90EF900895F62E0B8D10E00F5F1F4F82
:100B40000F731127E02E8C8D8E110CC00FB607FC91
:100B5000FACFE889F989808185FFF5CFCE010E941F
:100B60005205F1CFEB8DEC0FFD2FF11DE35AFF4F36
:100B7000F0829FB7F8940B8FEA89FB8980818062AD
:100B8000CFCF0F931F93CF93DF938C01D0E0C0E0C2
:100B9000F801EC0FFD1F6491662341F08CEE95E0A7
:100BA0000E947405892B11F02196F2CFCE01DF91BE
:100BB000CF911F910F910895CF93DF93EC01888D12
:100BC0008823B9F0AA89BB89E889F9898C9185FDC8
:100BD00003C0808186FD0DC00FB607FCF7CF8C9156
:100BE00085FFF2CF808185FFEDCFCE010E945205B7
:100BF000E9CFDF91CF91089560932F057093300571
:100C00008093310590933205645D7E4F8F4F9F4FE7
:100C100060932B0570932C0580932D0590932E05E2
:100C200082E090E090932A05809329050E94C504F4
:100C300060932505709326058093270590932805DA
:100C400008952F923F924F925F926F927F928F9270
:100C50009F92AF92BF92CF92DF92EF92FF920F934B
:100C60001F93CF93DF93382E962E842E222E84E668
:100C7000E816F1040CF459C092EBE91A97E0F90A6E
:100C8000E0923905009338052092370530923505FA
:100C90009092340580923305AE2DB0E020E833E326
:100CA00041EE51E00E94FC2F2B013C0122EB37E08A
:100CB000FF24E4E6F0E0C0E9D1E0C901825B97409F
:100CC0008E159F05B4F19EE4E91A98EFF90AC70161
:100CD00064E670E00E9401316C01C70160E971E0D7
:100CE0000E9401315C01C7EED2E0E1E0F0E01127A3
:100CF00083E0E822FF24E017F1070CF042C0E23065
:100D0000F10591F5E114F10479F5C114D10419F458
:100D1000A114B10449F580E8480E8BE3581E86E221
:100D2000681E711C31962196E6CF8EE1E80EF11C0B
:100D3000A7CFC90183709927892B99F4C901BF01F5
:100D40000E940131892B31F4C901BE010E94013199
:100D5000892B39F490E8490E91E5591E91E0691EFE
:100D6000711C2F5F3F4FA9CFA881B0E020E831E58B
:100D700041E050E00E94FC2F460E571E681E791E6F
:100D8000D1CF292D30E0ACE3B0E00E943E306B01C2
:100D90007C01C80CD11CE11CF11C232D30E0A0E12A
:100DA000BEE00E943E30C60ED71EE81EF91E822D00
:100DB0008150990BDC0120E831E541E050E00E94D0
:100DC0005C316C0D7D1D8E1D9F1D640D751D861D76
:100DD000971DDF91CF911F910F91FF90EF90DF90C2
:100DE000CF90BF90AF909F908F907F906F905F90CB
:100DF0004F903F902F900C94FC05CF92DF92EF9292
:100E0000FF920F931F930E94C5048B019C01C09019
:100E10002505D0902605E0902705F09028056091E3
:100E20002F057091300580913105909132050C1994
:100E30001D092E093F09083E134021053105E0F048
:100E4000DC01CB010196A11DB11D80932F0590936C
:100E50003005A0933105B0933205B701A601485182
:100E60005C4F6F4F7F4F409325055093260560934D
:100E7000270570932805C7CF1F910F91FF90EF9022
:100E8000DF90CF9008954F925F926F927F928F92F2
:100E90009F92AF92BF92CF92DF92EF92FF920F9309
:100EA0001F93CF93DF934B015C01809121059091BB
:100EB0002205A0912305B091240588159905AA055E
:100EC000BB0509F4C6C08CE3C82ED12CE12CF12C53
:100ED000C501A70196010E94153160933305CA012F
:100EE000B901A70196010E94153160933405C5012F
:100EF000B40120E13EE040E050E00E941531CA011B
:100F0000B90128E130E040E050E00E9415316093E3
:100F10003505C501B40120E831E541E050E00E940B
:100F2000153169017A01CA01B9016C5F7F4F8F4F9A
:100F30009F4F27E030E040E050E00E9415316F5FA6
:100F400060933605412C512C320140E004E610E05C
:100F5000C0E9D1E0242F30E02E54384FF901E3707E
:100F6000FF273097F9F4C901B8010E940131892B9C
:100F700031F4C901BE010E940131892B99F48EE63A
:100F800091E0A0E0B0E0480E591E6A1E7B1ED3011E
:100F9000C201AA27BB27C816D906EA06FB0638F005
:100FA0004F5FD8CF8DE691E0A0E0B0E0ECCF40936A
:100FB0003905C90164E670E00E940131EC01C90104
:100FC00060E971E00E940131309721F42097D9F453
:100FD0000097C9F04DE651E060E070E0441A550A10
:100FE000660A770AC418D508E608F708A7EEB2E043
:100FF00020E0213069F43097E9F5209711F400974B
:10100000C9F54DE106C04EE651E060E070E0E6CF84
:101010004C9150E070E060E031E0320FC416D5062C
:10102000E606F70640F0C41AD50AE60AF70A119652
:10103000232F3C30F1F62F5F20933805C394C092E4
:1010400037058092210590922205A0922305B09247
:101050002405DF91CF911F910F91FF90EF90DF90CA
:10106000CF90BF90AF909F908F907F906F905F9048
:101070004F9008954CE1CDCF0E94FD060E9443079A
:101080008091390590E08E54984F08950E94FD0696
:101090000E9443078091380590E008950E94FD0664
:1010A0000E9443078091370590E008950E94FD0655
:1010B0000E9443078091330590E008950E94FD0649
:1010C0000E9443078091340590E008950E94FD0638
:1010D0000E9443078091350590E00895CF92DF92FA
:1010E000EF92FF92CF93DF93EC010E94C5046B0156
:1010F0007C018F850E94B8019C0181E0211531059A
:1011000009F480E0898B8889811105C091E0232B47
:1011100009F090E0998B29898A89281721F0CD8AD6
:10112000DE8AEF8AF88E8D899E89AF89B88DB701E6
:10113000A601481B590B6A0B7B0BDB01CA01CB8054
:10114000DC80ED80FE80C816D906EA06FB0664F452
:101150003A81231749F02A83222349F04B895C897D
:101160004F5F5F4F5C8B4B8B3A81311117C0CF8043
:10117000D884E984FA84C816D906EA06FB0634F452
:101180008B899C89998388831C8A1B8A2A8BDF918F
:10119000CF91FF90EF90DF90CF900895CB84DC84C7
:1011A000ED84FE84C816D906EA06FB067CF78B8917
:1011B0009C89919581959109E5CF2091FE04260F98
:1011C0003327331F21323105ECF42091B405FC01A3
:1011D00090E080E0243069F082E00895A091FE0460
:1011E0002191AC0142525B4FA40FB52FB11D2C933E
:1011F0000196861798F38091FE04680F6093FE04B1
:1012000080E0089581E008951092B40581E0809314
:10121000B30510928E0561E082E10E94E10161E078
:1012200083E10E94E101E9EBF0E080818E7F808321
:1012300080818D7F808388E48093B80085E48093EB
:10124000BC000895CF93DF9391E09093DD04882351
:10125000B9F0C091B800D091BA008091BC008A7BEF
:101260008093BC0060E082E10E94E10160E083E1E4
:101270000E94E1010E940409D093BA00C093B80013
:10128000DF91CF910895CF92DF92EF92FF920F936B
:101290001F93CF93DF93D091DD0581E0D13208F029
:1012A0009CC0C091DC050E946E046B017C018091A2
:1012B000B40581116CC082E08093B40581E0809315
:1012C000B3058FEF8093B2051092B105D093B005AE
:1012D000ACEBB5E0E0E9F5E080E0D8138DC010920A
:1012E0008F0580918F05CC0FC82BC0938F058091FF
:1012F0008E05813009F084C010928E050E946E0424
:101300006B017C0180918F058093BB008091B605B5
:101310009091B705A091B805B091B905892B8A2B9A
:101320008B2BA1F00E946E040091B6051091B705B9
:101330002091B8053091B9056C197D098E099F0976
:10134000061717072807390708F442C08091BC0028
:1013500083FDD8CF85EC8093BC000E946E046B01A6
:101360007C018091B405823009F44CC08091B205B3
:101370008F3F09F469C08091B205803209F466C0DC
:101380008091B205803309F463C084E026C0809167
:10139000B6059091B705A091B805B091B905892B14
:1013A0008A2B8B2B09F483CF0E946E040091B60523
:1013B0001091B7052091B8053091B9056C197D09D8
:1013C0008E099F09061717072807390708F06FCFFE
:1013D0008091B5050E94220985E01092BB0510920C
:1013E000DD051092BA05DF91CF911F910F91FF900B
:1013F000EF90DF90CF9008959D9191938F5F6DCF87
:1014000085EEA9CF8091B6059091B705A091B8055A
:10141000B091B905892B8A2B8B2B09F4A2CF0E949E
:101420006E040091B6051091B7052091B805309172
:10143000B9056C197D098E099F090617170728073A
:10144000390708F08ECFC4CF80E0C7CF82E0C5CF88
:1014500083E0C3CFCF92DF92EF92FF920F931F935F
:10146000CF93DF93D82FC62F613208F098C00E9427
:101470006E046B017C018091B40581116BC081E029
:101480008093B4058093B3059FEF9093B2051092BB
:10149000B1059C0F9093B00580938F0580918F05C7
:1014A000DD0FD82BD0938F0580918E05813009F008
:1014B00078C010928E050E946E046B017C018091B1
:1014C0008F058093BB008091B6059091B705A091E0
:1014D000B805B091B905892B8A2B8B2BA1F00E94FE
:1014E0006E040091B6051091B7052091B8053091B2
:1014F000B9056C197D098E099F090617170728077A
:10150000390708F448C08091BC0083FDD8CF85EC32
:101510008093BC000E946E046B017C018091B40535
:10152000813009F440C08091B1058C1710F4C0914E
:10153000B105E0E9F5E0AEE6B5E080E08C1355C01A
:101540008C2FDF91CF911F910F91FF90EF90DF9043
:10155000CF9008958091B6059091B705A091B805F8
:10156000B091B905892B8A2B8B2B09F484CF0E946B
:101570006E040091B6051091B7052091B805309121
:10158000B9056C197D098E099F09061717072807E9
:10159000390708F070CF8091B5050E942209C0E09C
:1015A000CFCF85EEB5CF8091B6059091B705A091CC
:1015B000B805B091B905892B8A2B8B2B09F4AECFD6
:1015C0000E946E040091B6051091B7052091B805F0
:1015D0003091B9056C197D098E099F090617170707
:1015E0002807390708F09ACFD6CF91919D938F5F46
:1015F000A5CF0895E091560580915505E81730F480
:10160000F0E0E259FA4F808190E008958FEF9FEF6C
:10161000089590915605809155052FEF3FEF98174B
:1016200048F4E92FF0E0E259FA4F208130E09F5F63
:1016300090935605C90108958091550590915605DE
:10164000891B990B0895CF92DF92EF92FF920F932F
:101650001F93CF93DF937C01CB018A012091BA05C0
:10166000222389F0EB016B01C40ED51ECC15DD05DC
:1016700069F06991D701ED91FC910190F081E02D25
:10168000C7010995F3CF642F0E94DD08C801DF91DF
:10169000CF911F910F91FF90EF90DF90CF90089521
:1016A000CF93DF931F92CDB7DEB769832091BA0540
:1016B0002223F9F02091DD05203258F021E030E0BE
:1016C000FC013383228390E080E00F90DF91CF9183
:1016D00008958091BB05E82FF0E0E454FA4F99811A
:1016E00090838F5F8093BB058093DD0581E090E060
:1016F000ECCF61E0CE0101960E94DD08F7CF90E0CB
:1017000080E00895CF92DF92EF92FF920F931F93A4
:10171000CF93DF939091DC0491110BC08FEF9FEF7B
:10172000DF91CF911F910F91FF90EF90DF90CF90BD
:1017300008959091DB04992389F3082FC091DA046E
:10174000D0E08091D20481110DC00E94C504609345
:10175000CE047093CF048093D0049093D10481E0A1
:101760008093D2040E94C504C090CE04D090CF04D0
:10177000E090D004F090D1046C197D098E099F0986
:101780006D32714081059105B0F01091CD040E9439
:10179000C5046093CE047093CF048093D0049093DB
:1017A000D10491E091279093CD04992331F11092C7
:1017B000CC041092CB042091CB043091CC04209522
:1017C00030958091CA04282326FF1CC081E08093B5
:1017D000C90427FF1AC081E08093C8048091CD041A
:1017E000882309F49BCF02C0D595C7950A95E2F7E7
:1017F000C0FF94CF80E09CE393CFD093CC04C09300
:10180000CB04D9CF1092C904E4CF1092C804E6CF1C
:10181000EF92FF920F931F93CF93DF93182F809136
:10182000A00481110DC00E94C50460939C047093B4
:101830009D0480939E0490939F0481E08093A00474
:10184000C0919A04D0919B04C930D10508F075C0AD
:10185000FE01E35DF34F0C945631360C420C460CFE
:10186000540C360C420C790C7B0C8C0C0E945601EB
:101870002196CA30D10509F091C010929B041092B4
:101880009A0428C08CEC0E942C01F2CF84E40E94C0
:101890002C010E94C50460939C0470939D04809366
:1018A0009E0490939F04E4CF0E94C50400919C0481
:1018B00010919D0420919E0430919F04601B710B38
:1018C000820B930BC4E0D0E06E3E7240810591051F
:1018D00008F064C060919604709197048091980418
:1018E00090919904DF91CF911F910F91FF90EF900C
:1018F00008958EEBC8CF98E0E92EF12C10E001E0BE
:101900000E94D7008111102B000F81E0E81AF10826
:10191000B9F710939404ACCF88E0E82EF12C10E0D6
:1019200001E00E94D7008111102B000F21E0E21A84
:10193000F108B9F7109395049BCFC930D10509F090
:1019400097CF60919404709195046F3F760711F4DE
:1019500070E060E0072E000C880B990B0E94C92EE6
:1019600020E030E040E85DE30E94282F111109C01B
:1019700060939604709397048093980490939904CD
:1019800077CF26E636E646EE5FE30E94282F20E07A
:1019900030E040E052E40E944E30EACFD0939B0406
:1019A000C0939A0497CF0F931F9380915501909104
:1019B0005601892B09F449C0809181048823A9F03C
:1019C0000E94C50400917D0410917E0420917F0443
:1019D00030918004601B710B820B930B693E734046
:1019E0008105910590F1109281040E946608209172
:1019F0004F01309150018217930739F50E945E081C
:101A0000209151013091520182179307F1F40E9405
:101A10005608209153013091540182179307A9F47D
:101A20000E94C50460937D0470937E0480937F04BC
:101A30009093800481E08093810480910A019091C9
:101A40000B0190935405809353051F910F910895B6
:101A5000CF93DF93EC012196FC0120812A33C9F456
:101A60002181243609F5229630E020E06AE0899150
:101A700090ED980F9A3078F4629FA001639F500D0B
:101A80001124082E000C990BC0979A01280F391FBA
:101A9000EECFCE01DFCF309377042093760421156B
:101AA000310511F02093090188818F3689F48A81EC
:101AB000082E000C990B9C012053310930937704B8
:101AC00020937604C397059710F420930801249679
:101AD00088818236F1F4229630E020E06AE0899134
:101AE00090ED980F9A3068F4629FA001639F500DAB
:101AF0001124082E000C990BC0979A01280F391F4A
:101B0000EECF30937704209376043093070120932F
:101B100006012091060130910701032E000C440BB1
:101B2000550B60E67AEE80E090E00E94373182E06B
:101B3000220F331F441F551F8A95D1F7209372043B
:101B4000309373044093740450937504CE01DF9175
:101B5000CF9108958EBD00000DB407FEFDCF8EB568
:101B60000895CF9381E08093BA0588E68093DC05E1
:101B70001092BB051092DD0560E089E896E00E94B6
:101B8000500B0E94430967E088E60E942A0A1092DF
:101B900056058093550589E896E00E94090B982F19
:101BA00092959F70CAE08F709C9F800D112490E0E9
:101BB000909363058093620589E896E00E94090B83
:101BC000982F92959F708F709C9F800D112490E0AC
:101BD00090935A058093590589E896E00E94090B75
:101BE000982F929593708F709C9F800D112490E098
:101BF000909358058093570589E896E00E94090B59
:101C000089E896E00E94090B982F92959F708F703B
:101C10009C9F800D112490E090935C0580935B0560
:101C200089E896E00E94090B982F92959F708F701B
:101C30009C9F800D112490E090935E0580935D053C
:101C400089E896E00E94090B982F92959F708F70FB
:101C50009C9F800D112490E08053984F90936005D5
:101C600080935F05CF9108958F929F92AF92BF921C
:101C70000F931F93CF93DF93CDB7DEB7A1970FB626
:101C8000F894DEBF0FBECDBF19A2423008F44AE07F
:101C90008E010F5D1F4F842E912CB12CA12CA5011C
:101CA00094010E941531E62FB901CA01EA3044F5CA
:101CB000E05DD801EE938D01232B242B252B79F7A2
:101CC00090E080E0109769F0FD0101900020E9F7B5
:101CD0003197AF014A1B5B0BBD018CEE95E00E9472
:101CE000D404A1960FB6F894DEBF0FBECDBFDF912E
:101CF000CF911F910F91BF90AF909F908F900895BB
:101D0000E95CD7CF42E050E067E173E08CEE95E00C
:101D10000C94D404CF93DF930E94C105EC010E9480
:101D2000820E8C0F9D1FDF91CF910895FC01808161
:101D30009181009711F00C942F2E60E070E0CB01A0
:101D400008954F925F926F927F928F929F92AF927F
:101D5000BF92CF92DF92EF92FF92CF93DF93CDB7F6
:101D6000DEB72D970FB6F894DEBF0FBECDBF0E9431
:101D70006E04C090C404D090C504E090C604F090F6
:101D8000C7046C197D098E099F096A317144810568
:101D9000910508F429C20E946E046093C4047093F4
:101DA000C5048093C6049093C70480EE96E00E9419
:101DB000960E69837A838B839C8360E08AE00E941D
:101DC000E101FAE0CF2ED12CE12CF12C69817A814E
:101DD0008B819C81A70196010E94373149015A01EC
:101DE000660F771F6D527D4FDB014D905C9087E051
:101DF00090E00E94820B3C01C501B401A70196014D
:101E00000E943731660F771F6D527D4FFB01E080D6
:101E1000F18086E090E00E94820B46205720712CD2
:101E2000612C2AE0440C551C661C771C2A95D1F7BE
:101E30008E219F21B0E0A0E0482A592A6A2A7B2AF5
:101E400069817A818B819C8124E630E040E050E01A
:101E50000E94373169017A018091C904882311F009
:101E6000689477F88091C804882311F0689476F814
:101E70008091C2049091C304019711F4FFE37F2283
:101E8000209149052D87872D9927AA27BB278D8368
:101E90009E83AF83B8874301AA24BB24BB27A72D09
:101EA000962D852D89879A87AB87BC87222309F4D5
:101EB0006EC1842D0E94AA0D89850E94AA0D882DCD
:101EC0000E94AA0D8D810E94AA0D8AE0882E912C75
:101ED000A12CB12CC701B601A50194010E94373194
:101EE000660F771F6D527D4FDB01CD90DC9085E052
:101EF00090E00E94820B7C0169817A818B819C81B8
:101F000028EE33E040E050E00E943731CA01B901C9
:101F1000A50194010E943731660F771F6D527D4FE6
:101F2000FB016080718084E090E00E94820BCE20F3
:101F3000DF20F12CE12C34E1CC0CDD1CEE1CFF1C6D
:101F40003A95D1F786219721B0E0A0E04AE0880FCA
:101F5000991FAA1FBB1F4A95D1F7C82AD92AEA2A76
:101F6000FB2A69817A818B819C8120E137E240E004
:101F700050E00E943731CA01B901A50194010E94C5
:101F80003731660F771F6D527D4FDB01AD90BC90EE
:101F900083E090E00E94820B8A219B21B0E0A0E0C8
:101FA000C82AD92AEA2AFB2A69817A818B819C81F5
:101FB00020EA36E841E050E00E94373129013A0139
:101FC0008091C904882309F4EDC06894F7F88091E2
:101FD000C804882309F4E9C06894F6F88F2D99277E
:101FE000AA27BB278D839E83AF83B8874701AA2486
:101FF000BB24BB27AF2D9E2D8D2D89879A87AB875C
:10200000BC879D85992309F4D3C08C2D0E94AA0D0D
:1020100089850E94AA0D882D0E94AA0D8D810E949B
:10202000AA0D3AE0832E912CA12CB12CC301B20150
:10203000A50194010E943731660F771F6D527D4FC5
:10204000DB01CD90DC9082E090E00E94820B7C016D
:1020500069817A818B819C8120E432E44FE050E0F9
:102060000E943731CA01B901A50194010E9437319C
:10207000660F771F6D527D4FFB016080718081E09C
:1020800090E00E94820BCE20DF20F12CE12C64E155
:10209000CC0CDD1CEE1CFF1C6A95D1F78621972124
:1020A000B0E0A0E07AE0880F991FAA1FBB1F7A95C5
:1020B000D1F7C82AD92AEA2AFB2A69817A818B8139
:1020C0009C8120E836E948E950E00E943731CA0196
:1020D000B901A50194010E943731660F771F6D5237
:1020E0007D4FDB01AD90BC9090E080E00E94820BC0
:1020F0008A219B21B0E0A0E08C299D29AE29BF292F
:102100002091C9046C017D01222309F45CC068940C
:10211000F7F88091C804882309F458C06894F6F849
:102120004F2C5524662477244701AA24BB24BB27BF
:10213000AF2D9E2D8D2D89839A83AB83BC839D8586
:10214000992309F446C08C2D0E94AA0D89810E9412
:10215000AA0D882D0E94AA0D842D0E94AA0D61E06F
:102160008AE02D960FB6F894DEBF0FBECDBFDF918B
:10217000CF91FF90EF90DF90CF90BF90AF909F9066
:102180008F907F906F905F904F900C94E1018D81C4
:102190000E94AA0D882D0E94AA0D89850E94AA0D71
:1021A000842D91CEE894F7F812CFE894F6F816CF84
:1021B0008D810E94AA0D882D0E94AA0D89850E94FA
:1021C000AA0D8C2D2CCFE894F7F8A3CFE894F6F85D
:1021D000A7CF842D0E94AA0D882D0E94AA0D898167
:1021E0000E94AA0D8C2DB9CF2D960FB6F894DEBFA4
:1021F0000FBECDBFDF91CF91FF90EF90DF90CF90DA
:10220000BF90AF909F908F907F906F905F904F9016
:1022100008950F931F93CF93DF938C01EB01FC0183
:10222000808191810097E1F0688179816115710564
:10223000A9F0428153812C813D814217530770F0F0
:102240000E9463338C819D81F801958384831D8274
:102250001C82DF91CF911F910F9108950E9414323B
:1022600088819981F801918380838A819B819383FE
:1022700082838C819D8195838483198218821B823D
:102280001A82E5CFCF93DF93EC0188819981009783
:1022900011F00E941432198218821D821C821B8246
:1022A0001A82DF91CF910895FC018081918100977E
:1022B00011F00C94143208950F931F93CF93DF9372
:1022C000EC0188819981009759F02A813B8126177A
:1022D000370730F081E0DF91CF911F910F91089582
:1022E0008B016F5F7F4F0E949D32009759F0998359
:1022F00088831B830A832C813D81232B59F7FC01A2
:102300001082E8CF80E0E7CFEF92FF920F931F9308
:10231000CF93DF936115710541F480E0DF91CF9198
:102320001F910F91FF90EF90089541155105B1F065
:102330007B01EC010C811D81040F151FB8010E9467
:102340005C11882351F3288139818C819D81B701EB
:10235000820F931F0E9463331D830C8381E0DECFC5
:10236000EF92FF920F931F93CF93DF93CDB7DEB71A
:102370002D970FB6F894DEBF0FBECDBF7C01CB0109
:10238000BA012AE08E010F5F1F4FA8010E94762E2E
:10239000F80101900020E9F73197AF01401B510B84
:1023A000B801C7010E948411811103C0C7010E94B6
:1023B0004211C7012D960FB6F894DEBF0FBECDBFF8
:1023C000DF91CF911F910F91FF90EF900895CF93E0
:1023D000DF93EC01FB0101900020E9F73197AF0199
:1023E000461B570B0E948411811103C0CE010E942D
:1023F0004211CE01DF91CF910895CF93DF93EC018D
:10240000FB0144815581608171810E948411811199
:1024100003C0CE010E944211CE01DF91CF910895F9
:10242000EF92FF920F931F93CF93DF9300D000D0D2
:10243000CDB7DEB77C01862F4AE08E010F5F1F4FBC
:10244000B80190E00E94562EF80101900020E9F7B3
:102450003197AF01401B510BB801C7010E94841195
:102460000F900F900F900F90DF91CF911F910F91D0
:10247000FF90EF900895EF92FF920F931F93CF93E9
:10248000DF93EC017B018A01BA010E945C1181118A
:102490000BC0CE010E944211CE01DF91CF911F915E
:1024A0000F91FF90EF9008951D830C83B7018881F1
:1024B00099810E946333F0CFFB0101900020E9F77E
:1024C0003197AF01461B570B0C943B120F931F9390
:1024D000CF93DF93CDB7DEB762970FB6F894DEBF28
:1024E0000FBECDBF8C01CB01F80111821082138287
:1024F0001282158214824AE0BE016F5F7F4F0E94F4
:10250000562EBE016F5F7F4FC8010E945C1262961B
:102510000FB6F894DEBF0FBECDBFDF91CF911F91F4
:102520000F910895CF93DF93EC01FB018617970776
:1025300049F0608171816115710541F044815581D7
:102540000E943B12CE01DF91CF9108950E9442116B
:10255000F9CFFC011182108213821282158214823B
:102560000C949212FC011182108213821282158245
:102570001482FB0101900020E9F73197AF01461B5F
:10258000570B0C943B12AF92BF92CF92DF92EF9217
:10259000FF920F931F93CF93DF936C015B017A013E
:1025A00089012417350720F48F2D7901042F182F66
:1025B00069E173E0C6010E94B212D5011496CD9173
:1025C000DC91EC16FD06E0F40C171D0708F4E80199
:1025D000D501ED91FC911197EC0FFD1F1081108238
:1025E0006D917C916E0D7F1DC60161157105A1F085
:1025F0000E945C12F50180819181C80FD91F188358
:10260000C601DF91CF911F910F91FF90EF90DF9066
:10261000CF90BF90AF9008950E944211EBCF4F92A0
:102620005F926F927F928F929F92AF92BF92CF9262
:10263000DF92EF92FF920F931F93CF93DF9300D01F
:1026400000D000D0CDB7DEB77C014B015A0180919C
:10265000930481113AC081E0809393049BE8692E32
:1026600094E0792E23E8422E24E0522E10E000E080
:102670000F5F1F4F680181E0C81AD1089801A601B9
:10268000B401CE0101960E94C312CE0101960E94B0
:10269000960ED3016D933D01CE0101960E94541117
:1026A0009801A601B501CE0101960E94C312CE0188
:1026B00001960E94960EF20161932F01CE010196C0
:1026C0000E9454110830110599F6909182048BE80C
:1026D000C82E84E0D82EE3E8F4E08601A801D801F2
:1026E0008C919A30D8F58F5F8C930F5F1F4FDA0172
:1026F0008C918A3019F4D80111971C923196B4E06C
:1027000003391B0759F79F5F943169F19093820455
:1027100069E173E0C7010E94B212F60161916F0195
:10272000C7010E9410120C151D05B9F7C7012696A6
:102730000FB6F894DEBF0FBECDBFDF91CF911F91D2
:102740000F91FF90EF90DF90CF90BF90AF909F9050
:102750008F907F906F905F904F9008952081281701
:1027600021F28F5FC1CF1092820410929304D0CFD8
:10277000CF92DF92EF92FF921F93CF93DF93CDB76B
:10278000DEB72C970FB6F894DEBF0FBECDBF182F63
:1027900065E473E0CE0107960E94B21222E030E0B9
:1027A00050E040E0133081F024E030E042E050E0BF
:1027B0001C3051F026E030E0103321F0103FA9F436
:1027C00028E030E044E050E060EE76E0CE01019693
:1027D0000E94C312BE016F5F7F4FCE0107960E9419
:1027E0000911CE0101960E945411CE0107960E9454
:1027F000960E6B01CE0107960E945411C6012C96CD
:102800000FB6F894DEBF0FBECDBFDF91CF911F9101
:10281000FF90EF90DF90CF900895EF92FF920F938B
:102820001F93CF93DF93CDB7DEB762970FB6F894BF
:10283000DEBF0FBECDBF7C018B0177FF03C01195BA
:1028400001951109B801C7010E946612083E83E094
:1028500018070CF082C0B801CE010D960E946612D6
:102860006AE373E0CE0101960E94B212BE016F5F6F
:102870007F4FCE0107960E94A912BE01635F7F4F72
:10288000CE0107960E94FD11BC01C7010E94921261
:10289000CE0107960E945411CE0101960E94541158
:1028A000CE010D960E945411043611050CF055C04E
:1028B000B801CE010D960E94661269E373E0CE0165
:1028C00001960E94B212BE016F5F7F4FCE01079644
:1028D0000E94A912BE01635F7F4FCE0107960E943E
:1028E000FD11BC01C7010E949212CE0107960E9401
:1028F0005411CE0101960E945411CE010D960E94F2
:1029000054110A3011054CF5B801CE010D960E9404
:10291000661268E373E0CE0101960E94B212BE0116
:102920006F5F7F4FCE0107960E94A912BE01635FC1
:102930007F4FCE0107960E94FD11BC01C7010E9486
:102940009212CE0107960E945411CE0101960E9468
:102950005411CE010D960E945411C70162960FB614
:10296000F894DEBF0FBECDBFDF91CF911F910F91C5
:10297000FF90EF9008950F931F93CF93DF93CDB700
:10298000DEB762970FB6F894DEBF0FBECDBF8C01E5
:1029900077FF03C07195619571096A307105A4F5DF
:1029A000CE010D960E9466126AE373E0CE01019695
:1029B0000E94B212BE016F5F7F4FCE0107960E9448
:1029C000A912BE01635F7F4FCE0107960E94FD11E1
:1029D000BC01C8010E94A912CE0107960E945411A1
:1029E000CE0101960E945411CE010D960E94541101
:1029F000C80162960FB6F894DEBF0FBECDBFDF915F
:102A0000CF911F910F910895C8010E946612F0CFD7
:102A10000F931F93CF93DF93CDB7DEB768970FB6B1
:102A2000F894DEBF0FBECDBF8B018330D9F5209166
:102A3000E4063091E50642E050E060EE76E0CE013B
:102A40000D960E94C312B801CE0101960E94BB14DC
:102A5000BE016F5F7F4FCE0107960E94A912BE0193
:102A6000635F7F4FCE0107960E94FD11BC0180EE8F
:102A700096E00E949212CE0107960E945411CE0158
:102A800001960E945411CE010D960E945411689631
:102A90000FB6F894DEBF0FBECDBFDF91CF911F916F
:102AA0000F9108958C3009F042C02091E4063091D6
:102AB000E50644E050E060EE76E0CE0143960E94E9
:102AC000C312B801CE010D960E94BB1422E030E083
:102AD00050E040E060EE76E0CE0101960E94C31225
:102AE000BE016F5F7F4FCE0107960E94A912BE0103
:102AF000635F7F4FCE0107960E94FD11BE016D5EA0
:102B00007F4F0E94FD11BC0180EE96E00E94921260
:102B1000CE0107960E945411CE0101960E945411D5
:102B2000CE010D960E945411CE014396AECF209156
:102B3000E4063091E50646E050E0803349F0803FFE
:102B400009F0A5CF2091E4063091E50648E050E079
:102B500060EE76E0CE0143960E94C312B801CE012A
:102B60000D960E94BB1424E030E0B2CF0E94C50451
:102B70006093790470937A0480937B0490937C042F
:102B800080917804882309F44FC02091C2043091C9
:102B9000C304C901880F991F21313105A1F1FC013E
:102BA000EB5CFE4F4081518141505109518340837C
:102BB000DC01AB5CBE4F6D917C911197FC01E35A37
:102BC000FE4F40815181641775073CF4FC01EB57BF
:102BD000FE4F408151814D935C932031310509F5C1
:102BE000209155013091560121303105B9F420E88A
:102BF0002093CA048B5C9E4FFC016081718180919F
:102C0000DA040C94081540915701509158014C502A
:102C100051095093580140935701CACF1092CA04EA
:102C2000E9CF2930310531F708950E94C50460933A
:102C3000790470937A0480937B0490937C04809150
:102C40007804882309F444C02091C2043091C3045D
:102C5000C901880F991F2131310561F1FC01EB5C3D
:102C6000FE4F408151814F5F5F4F51834083DC01B4
:102C7000AB5CBE4F6D917C911197FC01EB57FE4F01
:102C800040815181461757073CF4FC01E35AFE4F3F
:102C9000408151814D935C9320313105B1F4109204
:102CA000CA048B5C9E4FFC01608171818091DA04C3
:102CB0000C9408154091570150915801445F5F4FA3
:102CC0005093580140935701D2CF2930310549F72D
:102CD00008958F929F92AF92BF92DF92EF92FF92F0
:102CE0000F931F93CF93DF93CDB7DEB7A2970FB6A5
:102CF000F894DEBF0FBECDBF8C018AE0E3EBF1E0BC
:102D0000DE01119601900D928A95E1F78091700491
:102D10009091710401968A3091050CF086C09093D1
:102D2000710480937004E0917004F091710481E06B
:102D300090E08C0F9D1FE80FF91FD0808091570104
:102D400090915801489709F075C00E94C5044B0145
:102D50005C010E945608BC01CE014D960E94BB1436
:102D60000E945E08BC01CE0147960E94BB140E94DF
:102D70006608BC01CE010B960E94BB14BE01655FC4
:102D80007F4FCE0141960E94A912BE01695E7F4F1E
:102D9000CE0141960E94FD11BE01635E7F4F0E94ED
:102DA000FD117C01C501B40128EE33E040E050E0A4
:102DB0000E94153124E630E040E050E00E941531D9
:102DC000BA01A901C7010E94B0117C016D2D0E94BA
:102DD0001012811103C0C7010E944211B701C8013E
:102DE0000E94A912CE0141960E945411CE010B9669
:102DF0000E945411CE0147960E945411CE014D9667
:102E00000E945411C801A2960FB6F894DEBF0FBEFF
:102E1000CDBFDF91CF911F910F91FF90EF90DF9089
:102E2000BF90AF909F908F90089510927104109270
:102E3000700479CF0E94C50428EE33E040E050E0F2
:102E40000E94153124E630E040E050E00E94153148
:102E500049015A010E945608BC01CE014D960E94BC
:102E6000BB140E945E08BC01CE0147960E94BB14B1
:102E70000E94FD060E944307809135056CE070E0DA
:102E8000882331F0682F70E08D3010F06C5071099C
:102E9000CE010B960E94BB14BE01655F7F4FCE0131
:102EA00041960E94A912BE01695E7F4FCE014196F4
:102EB0000E94FD11BE01635E7F4F0E94FD11B501AE
:102EC000A40181CF8F929F92AF92BF92CF92DF9257
:102ED000EF92FF920F931F93CF93DF93CDB7DEB79F
:102EE0002C970FB6F894DEBF0FBECDBF8C016A01E0
:102EF0007B018091BA04811111C00E94C504645BFA
:102F00007B4F8F4F9F4F6093B6047093B7048093AD
:102F1000B8049093B90481E08093BA048091AE0420
:102F2000811109C065E373E088EA94E00E94B2125F
:102F300081E08093AE040E94C5048090B604909016
:102F4000B704A090B804B090B904681979098A0947
:102F50009B09693E73408105910508F4D8C00E9421
:102F6000C5046093B6047093B7048093B80490933B
:102F7000B90420E030E040E251E4C701B6010E940C
:102F8000282F6B017C0120E030E0A9010E94F03085
:102F900020E030E040E05FE387FDD2C0C701B6012A
:102FA0000E944E300E94BA307B0177FF04C0EE24AD
:102FB000FF24E61AF70A5B0139E1A31A3CEFB30AD2
:102FC0008091590190915A019B012D593F4F690100
:102FD0002A5531094901B701892B09F0B6C0CE0144
:102FE00007960E9466126AE373E0CE0101960E9482
:102FF000B212BE01695F7F4FCE0101960E94FD11A2
:103000006AE373E00E94E711BC0188EA94E00E9441
:103010009212CE0101960E945411CE0107960E9491
:1030200054113FECA31637E0B30618F5B701CE01F3
:1030300007960E94661269E373E0CE0101960E9432
:10304000B212BE01695F7F4FCE0101960E94FD1151
:103050006AE373E00E94E711BC0188EA94E00E94F1
:103060009212CE0101960E945411CE0107960E9441
:10307000541187ECC816D10418F5B701CE01079694
:103080000E94661268E373E0CE0101960E94B212BC
:10309000BE01695F7F4FCE0101960E94FD116AE378
:1030A00073E00E94E711BC0188EA94E00E9492124A
:1030B000CE0101960E945411CE0107960E94541130
:1030C00023E18216910418F5B701CE0107960E94FC
:1030D000661267E373E0CE0101960E94B212BE0150
:1030E000695F7F4FCE0101960E94FD116AE373E094
:1030F0000E94E711BC0188EA94E00E949212CE017E
:1031000001960E945411CE0107960E94541168EA5C
:1031100074E0C8010E94A912C8012C960FB6F89459
:10312000DEBF0FBECDBFDF91CF911F910F91FF90FA
:10313000EF90DF90CF90BF90AF909F908F900895C9
:10314000C701B6010E944D302DCFCE0107960E94D7
:1031500066126AE373E0CE0101960E94B212BE01CC
:10316000695F7F4FCE0101960E94FD116AE373E013
:103170000E94E711BC0188EA94E00E949212CE01FD
:1031800001960E945411CE0107960E9454113FEC03
:10319000A31637E0B30638F5C7016AE070E00E9475
:1031A0000131CE0107960E94661269E373E0CE01F9
:1031B00001960E94B212BE01695F7F4FCE01019657
:1031C0000E94FD1169E373E00E94E711BC0188EAE7
:1031D00094E00E949212CE0101960E945411CE01F9
:1031E00007960E94541187ECC816D10438F5C70120
:1031F0006AE070E00E940131CE0107960E946612DB
:1032000068E373E0CE0101960E94B212BE01695FCD
:103210007F4FCE0101960E94FD1169E373E00E9489
:10322000E711BC0188EA94E00E949212CE01019657
:103230000E945411CE0107960E94541123E1821678
:10324000910408F064CFC7016AE070E00E94013188
:10325000CE0107960E94661267E373E0CE010196E5
:103260000E94B212BE01695F7F4FCE0101960E949B
:10327000FD1169E373E03CCF85ED8093BC00809144
:10328000B6059091B705A091B805B091B90507961C
:10329000A11DB11D23E0B695A795979587952A9511
:1032A000D1F72091BC0024FD03C01092B40508950D
:1032B0004091B6055091B7056091B8057091B90578
:1032C000452B462B472B69F30097A105B10541F02B
:1032D0002AE22A95F1F700C00197A109B109E1CFCF
:1032E0008091B5050C9422090C94EE2F0C94E62FD6
:1032F00088E090E00E947619682F70E089E00E94D3
:10330000110489E090E00E947619682F70E086E051
:103310000E9411048AE090E00E947619682F70E004
:1033200083E00C9411048F929F92AF92BF92CF9240
:10333000DF92EF92FF920F931F93CF93DF93CDB75E
:10334000DEB7EC970FB6F894DEBF0FBECDBF0E947C
:10335000C50420E137E240E050E00E941531672BC0
:10336000682B692B01F5809161058823E1F00E94AB
:10337000B10DE0905F05F090600500915D05109142
:103380005E0520915B0530915C054091620550918E
:1033900063056091590570915A0580915705909188
:1033A00058050E94210610926F0410926E0410922C
:1033B0006D0410926C0410926B0410926A040091D8
:1033C000530510915405F8018081882309F409C13F
:1033D0000E94C504C0900C04D0900D04E0900E042F
:1033E000F0900F046C197D098E099F09C0900804A4
:1033F000D0900904E0900A04F0900B04C616D7069A
:10340000E806F90608F0EDC00E94C5044B015C0116
:1034100080920C0490920D04A0920E04B0920F04BE
:10342000680130E020E04AE0F801F1908F0180ED82
:103430008F0D8A3070F4429FC001439F900D11247C
:103440002F2DFF0C330B20533109280F391F6F012B
:10345000EBCF3093770420937604609172047091DF
:10346000730480917404909175042115310501F164
:10347000032E000C440B550B0E9437312093080497
:103480003093090440930A0450930B04EFE9EF0DC5
:10349000E730A0F40E2E000CFF0BEF5AF54E0C9403
:1034A0005631DB1DDD1DCF1DD31DD51DD71DD91DEB
:1034B0002091090130E050E040E0DECF1092070497
:1034C000F6018181833241F4809107048F5F8093FC
:1034D000070486010E5F1F4FF80180818E32F1F4E0
:1034E000C0900804D0900904E0900A04F0900B0406
:1034F000C701B60122E030E040E050E00E943731E1
:10350000C20ED31EE41EF51EC0920804D092090418
:10351000E0920A04F0920B040F5F1F4FF8018081C4
:1035200080538A3008F04BC3809306040F5F1F4F0F
:10353000F80180818C3211F40F5F1F4FE091070476
:10354000EE2309F44EC0C0900804D0900904E09026
:103550000A04F0900B04809106048450990B4CE00F
:10356000489F9001499F300D1124E20FF32FF11D68
:10357000EE0FFF1FEB52FE4FB701A6018081918134
:103580000E944B020E94C504681979098A099B09A7
:10359000C616D706E806F90620F50E94C504609312
:1035A0000C0470930D0480930E0490930F0480918B
:1035B000EB05813009F408C3823009F40BC3811193
:1035C00005C080916E008D7F80936E0060E08091D9
:1035D000EA050E94E10188E690E00E948A0E10E070
:1035E00000E010935405009353050E94C504009118
:1035F0006604109167042091680430916904601B8F
:10360000710B820B930B6630710581059105E8F013
:1036100080910C018111E4C270E060E089E00E94B9
:10362000110470E060E086E00E94110470E060E048
:1036300083E00E9411040E94C504609366047093A5
:10364000670480936804909369048091C204909108
:10365000C304892B21F0809165048111DBC1809125
:1036600078048111D7C18091260481110DC00E9478
:10367000C5046093220470932304809324049093E0
:10368000250481E08093260480911A0481110DC0E5
:103690000E94C50460931604709317048093180465
:1036A0009093190481E080931A040E94C50400914C
:1036B0002204109123042091240430912504601BDE
:1036C000710B820B930B009100011091010120916D
:1036D000020130910301061717072807390708F080
:1036E0004DC00E94C504609322047093230480930C
:1036F000240490932504809114049091150400975C
:1037000009F0DAC281E090E09093C3048093C20490
:1037100088E893E1A0E0B0E080930001909301017C
:10372000A0930201B09303018091140490911504B9
:103730008230910581F41092C3041092C20440E6D5
:103740005AEE60E070E040930001509301016093F5
:103750000201709303010196833091050CF0CCC2F5
:10376000909315048093140480916504882321F0BC
:103770001092C3041092C204109265040E94C50402
:1037800000912204109123042091240430912504F7
:10379000601B710B820B930B603D77408105910597
:1037A00008F07CC30E94C504009116041091170410
:1037B0002091180430911904601B710B820B930B3C
:1037C000653671058105910508F424C10E94C50480
:1037D000609316047093170480931804909319044F
:1037E0008091C2049091C30420914A05222309F4D8
:1037F00088C2892B89F5CE0149960E94691681E01D
:103800002091590130915A01232B09F480E00E9444
:10381000080CAB01BC01CE0101960E946217AE01FB
:10382000475E5F4FBE016F5F7F4FCE014F960E9494
:103830000F13BE01615E7F4F80EE96E00E9409117A
:10384000CE014F960E945411CE0101960E94541150
:10385000CE0149960E9454118091C2049091C304F4
:10386000019709F062C00E943C0868EE73E00E9474
:103870000131BC01CE018B960E94BB140E94460808
:10388000BC01CE0185960E94BB140E944E08BC016B
:10389000CE0149960E94BB14BE01675E7F4FCE01E8
:1038A0004F960E94A912BE016B5D7F4FCE014F96CD
:1038B0000E94FD11BE01655D7F4F0E94FD11BC019C
:1038C000CE01C1960E94A912CE0101960E946916EE
:1038D000AE014F5C5F4FBE016F5F7F4FCE01C79659
:1038E0000E940F13BE01695C7F4F80EE96E00E943C
:1038F0000911CE01C7960E945411CE0101960E9473
:103900005411CE01C1960E945411CE014F960E94CF
:103910005411CE0149960E945411CE0185960E9401
:103920005411CE018B960E9454118091C204909143
:10393000C304049709F06EC081E0209159013091D1
:103940005A01232B09F480E00E94080CAB01BC0152
:10395000CE01C1960E9462170E943C0868EE73E097
:103960000E940131BC01CE0185960E94BB140E94C9
:103970004608BC01CE014F960E94BB140E944E081F
:10398000BC01CE0101960E94BB14BE016F5F7F4F48
:10399000CE0149960E94A912BE01615E7F4FCE0101
:1039A00049960E94FD11BE016B5D7F4F0E94FD1183
:1039B000BC01CE018B960E94A912AE014F5C5F4FF5
:1039C000BE01655D7F4FCE01C7960E940F13BE01F9
:1039D000695C7F4F80EE96E00E940911CE01C79688
:1039E0000E945411CE018B960E945411CE0149962B
:1039F0000E945411CE0101960E945411CE014F969F
:103A00000E945411CE0185960E945411CE01C19698
:103A10000E9454110E94A10E87EC96E00E946E084D
:103A20008EEA96E00E946E0885E996E00E946E0894
:103A300080917804811135C21092DA048091C70612
:103A40009091C806181619063CF080916E0490916A
:103A50006F04019709F068C381E0809365041092B8
:103A600054051092530544E650E060E070E088EEA3
:103A700093E00E944B020E94C50460937904709306
:103A80007A0480937B0490937C048091C20490918B
:103A9000C30401968530910509F430C29093C304A4
:103AA0008093C2048091C2049091C304069721F4CC
:103AB0001092C3041092C2042091C2043091C30436
:103AC0008901000F111FF801E35FFE4F8081809391
:103AD000DA04D9011197FD01EE0FFF1FED57FD4FDD
:103AE000608171816115710509F40FC3AB0141500B
:103AF0005109FA01EE0FFF1FE55AFD4F0190F081C9
:103B0000E02DAE17BF0709F000C36230710509F060
:103B1000F8C188E1EDEBF1E0DE01119601900D9224
:103B20008A95E1F780914D0190914E01837099271C
:103B3000892B21F48DE190E09C838B8380914B0154
:103B400090914C010197880F991FE1E0F0E0EC0F94
:103B5000FD1F8E0F9F1F2091490130914A01FC01EA
:103B600080819181821793070CF0CBC18AE090E0AD
:103B70009093C3048093C204EC960FB6F894DEBF12
:103B80000FBECDBFDF91CF911F910F91FF90EF90AE
:103B9000DF90CF90BF90AF909F908F90089581E07D
:103BA000809307048DCC83E0FBCF85E0F9CF86E0DE
:103BB000F7CF88E0F5CF8AE0F3CF8CE0F1CF8091AA
:103BC000080180930604B4CC80916F008D7F8093B0
:103BD0006F00FCCC809170008D7F80937000F6CCDC
:103BE00080916405811127CD009112041091130476
:103BF000F801EE0FFF1FE00FF11FDF01AA0FBB1F3F
:103C0000A95CBD4F8D919C9160910401709105015B
:103C1000680F791F7093050160930401DF01AA0FFB
:103C2000BB1FA75CBD4FCD90DC9080915B04909151
:103C30005C04C80ED91ED0925C04C0925B04EE0FE7
:103C4000FF1FE55CFD4FE080F18080915904909169
:103C50005A04E80EF91EF0925A04E092590489E0E1
:103C60000E941104B60186E00E941104B70183E0AE
:103C70000E94110480911004909111040196909378
:103C80001104809310048F3F910551F40F5F1F4F73
:103C90001093130400931204109211041092100454
:103CA000809112049091130406970CF4C4CC1092E6
:103CB000130410921204BFCC019709F035CD84E0B3
:103CC00090E09093C3048093C20488E893E1A0E05D
:103CD000B0E08093000190930101A0930201B093A2
:103CE000030180914A0581110DC782E090E0909315
:103CF00015048093140418CD109215041092140426
:103D000033CD892B09F062C0CE01C1960E9469169D
:103D10000E943C0868EE73E00E940131BC01CE01B4
:103D200085960E94BB140E944608BC01CE014F96A6
:103D30000E94BB140E944E08BC01CE0101960E9455
:103D4000BB14BE016F5F7F4FCE0149960E94A9123E
:103D5000BE01615E7F4FCE0149960E94FD11BE01FA
:103D60006B5D7F4F0E94FD11BC01CE018B960E94BE
:103D7000A912AE014F5C5F4FBE01655D7F4FCE0162
:103D8000C7960E940F13BE01695C7F4F80EE96E0DC
:103D90000E940911CE01C7960E945411CE018B9644
:103DA0000E945411CE0149960E945411CE010196F1
:103DB0000E945411CE014F960E945411CE01859657
:103DC0000E945411CE01C1960E9454118091C204E8
:103DD0009091C304019709F01DCE0E943C0868EE43
:103DE00073E00E940131BC01CE018B960E94BB148E
:103DF0000E944608BC01CE0185960E94BB140E9419
:103E00004E08BC01CE0149960E94BB14BE01675EFC
:103E10007F4FCE014F960E94A912BE016B5D7F4F6E
:103E2000CE014F960E94FD11BE01655D7F4F0E943D
:103E3000FD11BC01CE01C1960E94A912CE010196CE
:103E40000E946916AE014F5C5F4FBE016F5F7F4FEE
:103E5000CE01C7960E940F13BE01695C7F4F80EEB2
:103E600096E00E940911CE01C7960E945411CE011E
:103E700001960E945411CE01C1960E945411CE01A8
:103E80004F960E945411CE0149960E945411CE01C2
:103E900085960E945411CE018B96BACD1092930450
:103EA000B9CD0E94C5040091790410917A04209143
:103EB0007B0430917C04601B710B820B930B613689
:103EC0007A4E8105910508F4B9CD10927804E091FD
:103ED000C204F091C304EE0FFF1FE555FD4F808132
:103EE00091819093C3048093C204880F991FFC01B1
:103EF000E35FFE4F80818093DA04A0CD86E090E0FE
:103F0000CDCD109278045093C3044093C204452B46
:103F1000B9F40E943C087C010E9446088C010E9472
:103F20004E084091450150914601609143017091C6
:103F300044019C0180914101909142010E9421061F
:103F40008091C2049091C3040197F9F4E0904D016F
:103F5000F0904E0100914B0110914C01809049016D
:103F600090904A010E9456085C010E945E086C0114
:103F70000E9466089401A501B6010E942106609185
:103F800047018DE090E00E9474198091C2049091E5
:103F9000C3040297C1F460914F0182E090E00E9457
:103FA00074196091510183E090E00E94741960914E
:103FB000530184E090E00E9474196091550186E0FD
:103FC00090E00E9474198091C2049091C3040397F9
:103FD00031F46091570181E090E00E947419809162
:103FE000C2049091C304049731F4609159018BE0AD
:103FF00090E00E9474198091C2049091C3040597C7
:1040000049F460915B0180918301681B8CE090E032
:104010000E9474190E943C0868EE73E00E9401310E
:10402000082F0E944608F82E0E944E08E82E0E9493
:104030005608B82E0E945E08C82E0E946608D82E28
:1040400081E08093BA0588E68093DC051092BB0579
:104050001092DD0560E089E896E00E94500B1AE0BE
:104060008B2D612F0E94F5308295807F682F690F1C
:1040700089E896E00E94500B8C2D612F0E94F5304C
:104080008295807F682F690F89E896E00E94500B27
:104090008D2D612F0E94F5308295807F682F690FEA
:1040A00089E896E00E94500B61E089E896E00E9462
:1040B000500B8E2D612F0E94F5308295807F682FE6
:1040C000690F89E896E00E94500B8F2D612F0E94A6
:1040D000F5308295807F682F690F89E896E00E940D
:1040E000500B802F612F0E94F5308295807F682FC2
:1040F000690F89E896E00E94500B60E089E896E03D
:104100000E94500B0E94430937CD2331310561F0E5
:10411000295031092230310538F00E94B813F801D6
:10412000EB5CFE4F918380838091C7069091C80617
:1041300097FD07C080916E0490916F04019609F07D
:10414000F4C044E650E060E070E088EE93E00E9446
:104150004B0280917804811152C00091C2041091E9
:10416000C3040E94C5046093790470937A04809319
:104170007B0490937C04012B09F041C00E945608F7
:10418000BC01CE0185960E94BB140E945E08BC0152
:10419000CE014F960E94BB140E946608BC01CE015E
:1041A00001960E94BB14BE016F5F7F4FCE014996FE
:1041B0000E94A912BE01615E7F4FCE0149960E9406
:1041C000FD11BE016B5D7F4F0E94FD1169E373E03D
:1041D0000E94E711BC0180EE96E00E949212CE018F
:1041E00049960E945411CE0101960E945411CE01AD
:1041F0004F960E945411CE0185960E9454118091D1
:10420000C2049091C304019709F056C00E944E0861
:1042100090934A01809349010E94460890934C0173
:1042200080934B010E943C08BC0190934E01809307
:104230004D018091470190914801892B09F099C166
:10424000CE0185960E94BB1460914B0170914C0188
:10425000CE014F960E94BB146091490170914A01B2
:10426000CE0101960E94BB14BE016F5F7F4FCE014D
:1042700049960E94A912BE01615E7F4FCE01499608
:104280000E94FD11BE016B5D7F4F0E94FD11BC01BC
:1042900080EE96E00E949212CE0149960E9454113F
:1042A000CE0101960E945411CE014F960E945411E6
:1042B000CE0185960E945411E091C204F091C3048E
:1042C000EE0FFF1FE555FD4F208131813093C30470
:1042D0002093C2042D30310549F481E090E09093A1
:1042E00056018093550180E88093CA048091780438
:1042F00091E08927809378048901000F111FF8014C
:10430000E35FFE4F80818093DA04A9014251510995
:104310004230510550F02930310539F00E94B81370
:10432000F801EB5CFE4F918380838091AE06909103
:10433000AF06009709F02EC180916C0490916D0436
:104340000197E1F481E08093650410925405109286
:10435000530544E650E060E070E088EE93E00E9490
:104360004B020E94151680917804811107C01092AB
:10437000640560E087E090E00E9474198091630416
:1043800090916404019609F00EC18091B0068823D3
:1043900009F409C11092DC04809178048823F9F0B3
:1043A0000E94C50400915F04109160042091610493
:1043B00030916204601B710B820B930B673971059E
:1043C0008105910560F00E94C50460935F047093BD
:1043D000600480936104909362040E94151680919A
:1043E000950690919606009709F0E1C080916A04C5
:1043F00090916B04019771F511E010936504109290
:1044000054051092530544E650E060E070E088EEF9
:1044100093E00E944B020E94B615809178048111AE
:1044200019C01093640561E087E090E00E94741960
:104430006091040188E090E00E94741960915B042F
:1044400089E090E00E947419609159048AE090E03C
:104450000E94741980915D0490915E04019609F0A8
:10446000AFC080919706882309F4AAC08091780490
:104470001092DB04882321F10E94C50400915504A9
:10448000109156042091570430915804601B710B11
:10449000820B930B673971058105910508F449C0BA
:1044A0000E94C5046093550470935604809357048A
:1044B000909358040E94B61580917804811139C0F8
:1044C0008091AE069091AF0697FD06C080916C0476
:1044D00090916D04019691F444E650E060E070E044
:1044E00088EE93E00E944B0281E080930C0161E032
:1044F00090E080E00E9474190E94781980919506DE
:104500009091960697FD06C080916A0490916B0485
:10451000019679F444E650E060E070E088EE93E0C4
:104520000E944B0210920C0160E090E080E00E943B
:104530007419E091C204F091C304E431F10508F06C
:104540001BCBEB55FD4D0C945631E422232318244C
:1045500064248F24D324BC1DBC1DBC1D02252A2528
:104560002A252A25BC1DBC1DBC1DBC1DBC1D8F24BD
:10457000D324CE0185960E94BB14609149017091AD
:104580004A01CE014F960E94BB1460914B0170917D
:104590004C0166CE90936404809363041816190648
:1045A0000CF4D0CEC9CE81E08093DC0418CF909378
:1045B0005E0480935D04181619060CF41DCF16CF07
:1045C00081E08093DB0478CF8091930481112CC02B
:1045D0000E94C50400912E0410912F0420913004F4
:1045E00030913104601B710B820B930B63337105A7
:1045F0008105910508F10E94C50460932E04709313
:104600002F048093300490933104CE0101960E94D0
:104610006916BE016F5F7F4F80EE96E00E94091120
:10462000CE0101960E9454110E94560880FD72C16D
:1046300080EC8093CA0470C160EE76E0CE010196F2
:104640000E94A912E6CF809193048111DEC080916F
:104650004D04811111C00E94C50467517C4F8F4FDA
:104660009F4F6093490470934A0480934B04909346
:104670004C0481E080934D0480914104811144C039
:104680000E943C0868EE73E00E940131BC01CE013B
:1046900001960E94BB140E944608BC01CE014996B7
:1046A0000E94BB140E944E08BC01CE0185960E9458
:1046B000BB14BE016B5D7F4FCE014F960E94A912C5
:1046C000BE01675E7F4FCE014F960E94FD11BE0175
:1046D0006F5F7F4F0E94FD11BC018BE394E00E944D
:1046E000A91281E080934104CE014F960E9454119B
:1046F000CE0185960E945411CE0149960E94541114
:10470000CE0101960E945411009147011091480179
:1047100080913304811105C00093320481E08093BD
:1047200033040E94C504C0904904D0904A04E0902C
:104730004B04F0904C046C197D098E099F09693E69
:1047400073408105910530F4809132048017110681
:1047500009F44AC00E94C5046093490470934A0456
:1047600080934B0490934C04012B09F050C00E949D
:104770003C08BC01CE0101960E94BB140E94460871
:10478000BC01CE0149960E94BB140E944E08BC0198
:10479000CE0185960E94BB14BE016B5D7F4FCE019A
:1047A0004F960E94A912BE01675E7F4FCE014F96C1
:1047B0000E94FD11BE016F5F7F4F0E94FD11BC0181
:1047C0008BE394E00E949212CE014F960E94541106
:1047D000CE0185960E945411CE0149960E94541133
:1047E000CE0101960E9454116BE374E0CE01019654
:1047F0000E94A912BE016F5F7F4F80EE96E00E947B
:104800000911CE0101960E94541180E412CF0E943A
:104810003C08BC01CE0101960E94BB140E944E08C8
:10482000BC01CE0149960E94BB140E944608AFCF3E
:104830006091530170915401CE0185960E94BB1482
:104840006091510170915201CE014F960E94BB14AC
:1048500060914F0170915001CE0101960E94BB14EE
:10486000BE016F5F7F4FCE0149960E94A912BE0123
:10487000615E7F4FCE0149960E94FD11BE016B5DC6
:104880007F4F0E94FD1169E373E00E94E711BC01B4
:1048900080EE96E00E949212CE0149960E94541139
:1048A000CE0101960E945411CE014F960E945411E0
:1048B000CE0185960E945411809155019091560128
:1048C000019741F580E8B5CE60915701709158018C
:1048D000CE0149960E94661269E373E0CE0101960B
:1048E0000E94B212BE01675E7F4FCE0101960E9408
:1048F000FD1167E373E00E94E711BC0180EE96E0D2
:104900000E949212CE0101960E945411CE01499646
:104910000E9454111092CA040E94D30C2DC9809198
:104920009304811124C081E02091590130915A01F2
:10493000232B09F480E00E94080CAB01BC01CE01DE
:1049400001960E946217BE016F5F7F4F80EE96E076
:104950000E940911CE0101960E94541180915901C3
:1049600090915A01892BD1F480E48093CA0481E0AC
:104970002091590130915A01232B09F480E00E94C3
:10498000080C1091CA0420E030E0A9010E94C22E58
:1049900087FF07C010681093CA04EEC81092CA04BB
:1049A000E6CF1F77F8CF60915B0170915C01CE017B
:1049B00001960E94BB14BE016F5F7F4FCE014996E6
:1049C0000E94A91265E373E0CE0149960E94E711A7
:1049D000BC0180EE96E00E949212CE0149960E94A0
:1049E0005411CE0101960E94541180915B01909167
:1049F0005C0197FD03C01092CA04BEC880E8809392
:104A0000CA04BAC88091470190914801892B99F452
:104A10006AE173E080EE96E00E945C1283E090E031
:104A200090932201809321018CE090E090932401E7
:104A300080932301A1C863E273E080EE96E00E94B8
:104A40005C128CE090E0909322018093210183E03E
:104A500090E0ECCF60914D0170914E018091470143
:104A600090914801892BE9F5CE0185960E940D149D
:104A700060914B0170914C01CE014F960E94BB1486
:104A80006091490170914A01CE0101960E94BB14C8
:104A9000BE016F5F7F4FCE0149960E94A912BE01F1
:104AA000615E7F4FCE0149960E94FD11BE016B5D94
:104AB0007F4F0E94FD11BC0180EE96E00E94921291
:104AC000CE0149960E945411CE0101960E945411C4
:104AD000CE014F960E945411CE0185960E9454112A
:104AE0004BC8CE0185960E940D14609149017091CA
:104AF0004A01CE014F960E94BB1460914B01709108
:104B00004C01C2CF81E090E00C94AB1B1F920F923E
:104B10000FB60F9211242F933F938F939F93AF93D0
:104B2000BF938091660590916705A0916805B0914B
:104B300069053091650523E0230F2D3758F501965F
:104B4000A11DB11D209365058093660590936705AF
:104B5000A0936805B093690580916A0590916B05F3
:104B6000A0916C05B0916D050196A11DB11D8093BA
:104B70006A0590936B05A0936C05B0936D05BF918A
:104B8000AF919F918F913F912F910F900FBE0F90FA
:104B90001F90189526E8230F0296A11DB11DD2CFB4
:104BA0001F920F920FB60F9211242F933F934F93A2
:104BB0005F936F937F938F939F93AF93BF93EF9385
:104BC000FF938CEE95E00E945205FF91EF91BF910B
:104BD000AF919F918F917F916F915F914F913F9195
:104BE0002F910F900FBE0F901F9018951F920F924C
:104BF0000FB60F9211242F938F939F93EF93FF93F0
:104C0000E091FC05F091FD058081E0910206F091B4
:104C1000030682FD1BC09081809105068F5F8F7314
:104C200020910606821741F0E0910506F0E0E4517C
:104C3000FA4F958F80930506FF91EF919F918F9189
:104C40002F910F900FBE0F901F9018958081F4CF79
:104C50001F920F920FB60F9211242F933F938F93B1
:104C60009F93AF93BF93EF93FF938091DE05909155
:104C7000DF05A091E005B091E1050097A105B10520
:104C800031F130913E05E0913F05F09140052081E2
:104C900023272083181619061A061B061CF40197F1
:104CA000A109B1098093DE059093DF05A093E0058B
:104CB000B093E105FF91EF91BF91AF919F918F91DB
:104CC0003F912F910F900FBE0F901F90189520913C
:104CD00070002D7F2093700020913E05E0913F05EC
:104CE000F09140053081209523232083DBCF1F9254
:104CF0000F920FB60F9211248F939F93AF93BF9390
:104D0000EF93FF938091E2059091E305A091E40574
:104D1000B091E505892B8A2B8B2BA1F19091410550
:104D2000E0914205F091430580818927808380913D
:104D3000E2059091E305A091E405B091E505181610
:104D400019061A061B069CF48091E2059091E30572
:104D5000A091E405B091E5050197A109B1098093FF
:104D6000E2059093E305A093E405B093E505FF9178
:104D7000EF91BF91AF919F918F910F900FBE0F90C8
:104D80001F90189580916F008D7F80936F008091A8
:104D90004105E0914205F09143059081809589237A
:104DA0008083E5CF1F920F920FB60F9211248F933D
:104DB0009F93AF93BF93EF93FF938091E6059091FC
:104DC000E705A091E805B091E905892B8A2B8B2B8B
:104DD000A1F190914405E0914505F091460580814F
:104DE000892780838091E6059091E705A091E805E9
:104DF000B091E905181619061A061B069CF4809155
:104E0000E6059091E705A091E805B091E9050197C5
:104E1000A109B1098093E6059093E705A093E80501
:104E2000B093E905FF91EF91BF91AF919F918F9161
:104E30000F900FBE0F901F90189580916E008D7F80
:104E400080936E0080914405E0914505F091460500
:104E50009081809589238083E5CF1F920F920FB6B2
:104E60000F9211242F933F934F935F936F937F93F0
:104E70008F939F93AF93BF93EF93FF938091B9006C
:104E8000887F803609F44AC0F0F5883209F4A7C05B
:104E900018F5803109F49BC0B8F4882309F4F9C0EF
:104EA000883009F494C0FF91EF91BF91AF919F9129
:104EB0008F917F916F915F914F913F912F910F90C3
:104EC0000FBE0F901F901895883109F488C080326A
:104ED00051F78093B20514C0803409F49DC040F4AA
:104EE0008033B9F38833F9F68093B20585ECB0C00E
:104EF000803509F485C0883509F496C0883499F660
:104F00000E943C19D0CF883909F48CC038F5883715
:104F100029F050F4883611F0803729F683E0809329
:104F2000B4051092200557C0883809F47BC0803939
:104F300019F0803809F0B7CF80912005803208F051
:104F400071C0E091200581E08E0F80932005809153
:104F5000BB00F0E0E050FB4F80833DC0803B39F068
:104F6000E0F4803A09F479C0883A09F09CCF84E0F3
:104F70008093B4051092FF041092FE04E0913C056A
:104F8000F0913D0509958091FE0481110FC081E0EB
:104F90008093FE041092DE0409C0803C09F4A6CF81
:104FA000883C09F4A3CF883B09F07DCFE091FF0452
:104FB00081E08E0F8093FF04F0E0E252FB4F80818E
:104FC0008093BB009091FF048091FE0429C08091E2
:104FD0008F058093BB0085EC8093BC0064CF9091DB
:104FE000B1058091B005981758F5E091B10581E0C1
:104FF0008E0F8093B105F0E0E057FA4F8081E9CF42
:10500000E091B10581E08E0F8093B1058091BB00E6
:10501000F0E0E057FA4F80839091B1058091B005A0
:105020009817C8F285E8D8CFE091B10581E08E0FDE
:105030008093B1058091BB00F0E0E057FA4F808388
:105040008091B30581115CCF81E080938E0584EA65
:105050008093BC001092B40526CF85EC8093BC00F1
:105060001092B40580912005803230F4E091200543
:10507000F0E0E050FB4F10826091200570E0E0917D
:105080003A05F0913B0580E095E0099510922005E6
:105090000ACF1092B20534CFCF93DF93EC01862F65
:1050A0006F87188A91E0998B9A8B1C8A1B8A1982C8
:1050B00018821A821D8A1E8A1F8A188E44E150E0C7
:1050C00060E070E04B835C836D837E834AEF50E049
:1050D00060E070E04F83588769877A8748EE53E035
:1050E00060E070E04B875C876D877E8760E00E94A0
:1050F0000F028889811106C061E08F85DF91CF9111
:105100000C94E101DF91CF910895ECEEF5E013826C
:10511000128288EE93E0A0E0B0E084839583A683BA
:10512000B78327EF32E03183208325EC30E03587E9
:10513000248724EC30E03787268720EC30E0318B61
:10514000208B21EC30E0338B228B22EC30E0358B4E
:10515000248B26EC30E0378B268B118E128E138E2B
:10516000148EE9E8F6E01382128284839583A68385
:10517000B78389E093E0918380836CE273E084EFEE
:1051800096E00E94B21260E087E00E940F02E2E423
:10519000F1E0E491A6EEB6E0EC93EEE2F1E0E4910A
:1051A000F0E0EE0FFF1FE35EFE4F859194911296A3
:1051B0009C938E9311971B961C921B971D961C9285
:1051C0001D971C961C921C971A961C921A9719965A
:1051D0001C92199718961C92189717961C9217975D
:1051E00016961C92169715961C92159714961C925B
:1051F000149713961C9263E373E080EE96E00E948E
:10520000B2126EE087EC96E00E944C2860E18EEAD4
:1052100096E00E944C286FE085E996E00C944C28BB
:10522000CF93DF93CDB7DEB7CE54D1090FB6F89444
:10523000DEBF0FBECDBF789484B5826084BD84B5D7
:10524000816084BD85B5826085BD85B5816085BD81
:1052500080916E00816080936E0010928100809139
:1052600081008260809381008091810081608093C1
:105270008100809180008160809380008091B100E6
:1052800084608093B1008091B00081608093B00011
:1052900080917A00846080937A0080917A008260A5
:1052A00080937A0080917A00816080937A00809167
:1052B0007A00806880937A001092C100109256059F
:1052C000109255051092BB051092DD050E9404094D
:1052D00081ED94E090933D0580933C0582ED94E050
:1052E00090933B0580933A05E091FC05F091FD0514
:1052F00082E08083E091F805F091F9051082E09159
:10530000FA05F091FB0580E1808310920406E0919C
:105310000006F091010686E08083E091FE05F091A1
:10532000FF05808180618083E091FE05F091FF059B
:10533000808188608083E091FE05F091FF05808187
:1053400080688083E091FE05F091FF0580818F7D6C
:10535000808383E398E090939E0180939D0181EE8A
:1053600097E0909376018093750190934E0180931E
:105370004D0180EF90E0909326018093250181E01C
:1053800090E00E9476198C3009F4A2C188E190E087
:10539000909358018093570190E080E00E94761925
:1053A000882309F498C181E080930C0182E090E0A9
:1053B0000E9476198F3F09F091C11092500110920E
:1053C0004F0183E090E00E9476198F3F09F08CC175
:1053D000109252011092510184E090E00E947619DF
:1053E0008F3F09F087C1109254011092530186E05B
:1053F00090E00E9476198F3F09F082C11092560109
:105400001092550187E090E00E9476198F3F09F0D5
:105410007DC1109264058BE090E00E9476198F3F69
:1054200009F07BC110925A01109259018CE090E072
:105430000E9476198F3F59F02091830130918401A9
:10544000820F932F911D90935C0180935B018DE0FF
:1054500090E00E9476198F3F29F090E090934801E8
:105460008093470161E089E00E940F0261E086E0DD
:105470000E940F0261E083E00E940F0280914705C5
:10548000833008F0BFC192E09093EA05E82FF0E086
:10549000E158FF4FE491E093EB058F5F8093470560
:1054A000E13009F461C108F43EC1E23009F483C17E
:1054B00080910A0190910B010E94280D90930B019D
:1054C00080930A0161E08AE00E940F0262E088E0B6
:1054D0000E940F0288E00E94B80121E0892B09F0A8
:1054E00020E0209349051FB7F89480914805811169
:1054F00027C0E1E3F1E08491E5E4F1E09491E82F45
:10550000F0E0EE0FFF1FEB50FF4FA591B491EC912F
:10551000E92321F461E08AE00E94E10161E08AE090
:105520000E940F028CB580618CBD8CB580648CBDEF
:1055300061E08DE00E940F0261E08BE00E940F02AB
:10554000809148058F5F809348051FBF8091490572
:10555000882309F45BC189E791E00E94D40062E0EE
:105560008EE00E940F0262E080E10E940F0262E082
:105570008FE00E940F0261E082E00E940F0204E1CE
:1055800010E020E030E00093CA061093CB06209391
:10559000CC063093CD064EE150E060E070E04093E1
:1055A000CE065093CF066093D0067093D10680ED5F
:1055B00097E0A0E0B0E08093D2069093D306A0934A
:1055C000D406B093D5060093B1061093B20620938B
:1055D000B3063093B4064093B5065093B606609375
:1055E000B7067093B8068093B9069093BA06A09355
:1055F000BB06B093BC0600939806109399062093BF
:105600009A0630939B0640939C0650939D066093A8
:105610009E0670939F068093A0069093A106A09388
:10562000A206B093A30689EC90E00E94C10525E094
:1056300030E042E050E064EF76E0CE0101967C017C
:105640000E94C31222E030E041E050E064EF76E0D7
:10565000CE01875B9F4F0E94C312BE01675B7F4FE5
:10566000CE018D5B9F4F0E94A9126CE373E0CE01C7
:105670008D5B9F4F0E94E711B7010E94FD11FC0155
:1056800044815581608171818CEE95E00E94D40443
:105690000E94820ECE018D5B9F4F0E945411CE015D
:1056A000875B9F4F0E945411C7010E9454110FEA5B
:1056B00010E04AE1D42EDA94DD2009F4A9C0F80103
:1056C00064918CEE95E00E9474050F5F1F4FF3CF3D
:1056D0008CE090E05DCE10920C0168CE90E090934B
:1056E000500180934F016DCE90E0909352018093D2
:1056F000510172CE90E0909354018093530177CE84
:1057000090E090935601809355017CCE91E08111F9
:1057100001C090E0909364057ECE90E090935A0192
:105720008093590183CE14BC15BC84B5826084BDBE
:1057300085B5816085BD8091EA0590E0FC01E95D59
:10574000FE4FE491F0E0EE0FFF1FE150FF4F259177
:1057500034913093460520934505FC01E55CFE4FEE
:10576000E491E0934405A4CE109280001092810051
:1057700080918100886080938100809181008160A8
:10578000809381008091EA0590E0FC01E95DFE4F85
:10579000E491F0E0EE0FFF1FE150FF4F25913491AF
:1057A0003093430520934205FC01E55CFE4FE491F4
:1057B000E09341057DCE1092B0001092B10080912F
:1057C000B00082608093B0008091B10081608093CE
:1057D000B1008091EA0590E0FC01E95DFE4FE491A3
:1057E000F0E0EE0FFF1FE150FF4F25913491309311
:1057F000400520933F05FC01E55CFE4FE491E093FA
:105800003E0556CE8FEF8093EB0552CE89E5A4CEB0
:105810000E94820E84EA90E00E948A0E80910A0122
:1058200090910B0190935405809353050E94280D8D
:105830006FEF70E089E00E94110468EE73E080E091
:1058400090E00E94930470E060E089E00E941104FF
:105850006FEF70E086E00E94110468EE73E080E074
:1058600090E00E94930470E060E086E00E941104E2
:105870006FEF70E083E00E94110468EE73E080E057
:1058800090E00E94930470E060E083E00E941104C5
:1058900063E373E0C7010E94B2126EE373E0CE01CE
:1058A00007960E94B21267E473E0CE010D960E9443
:1058B000B21260E573E0CE0143960E94B21269E530
:1058C00073E0CE0149960E94B21262E673E0CE0107
:1058D0004F960E94B2126BE673E0CE0185960E944D
:1058E000B21264E773E0CE018B960E94B2126DE7AC
:1058F00073E0CE01C1960E94B21266E873E0CE0159
:10590000C7960E94B21269E173E0CE01CD960E9463
:10591000B21264EF76E0CE018D5B9F4F0E94A91218
:1059200069E373E0CE018D5B9F4F0E94E711BC01DC
:10593000CE01CD960E949212CE018D5B9F4F0E94A8
:1059400054110E94C5042B013C01F8EE4F0EF3E008
:105950005F1E611C711C912C1FEF94EFC92EDD247A
:10596000D39426E0822E3BE3A32E3FE1B32E8FE0BB
:105970000E94B801892B11F49924939480E10E942C
:10598000B801892B09F4912C0E94C504641975098A
:105990008609970996010D2C000C440B550B01E06C
:1059A0002617370748075907C0F40E94C5042B0182
:1059B0003C01911001C01F5F1A3009F4DDC008F0EE
:1059C000E0C001E0B701189D600D711D112480EE4B
:1059D00096E00E9492120E94A10EC5010197F1F774
:1059E0000111C5CFC090F306C11004C00E9456013A
:1059F0008111CAC01092F1061092F3061092F206BD
:105A00008CE890E00E948A0E82E890E00E948A0E64
:105A10008E010D5B1F4F06501109C8010E945411E1
:105A2000E016F106C1F781E08093BA0588E680931D
:105A3000DC051092BB051092DD0561E189E896E076
:105A40000E94500B0E94430962E088E60E942A0AE5
:105A5000109256058093550589E896E00E94090B3F
:105A6000182F8BEE90E00E94C105C12E012E000C74
:105A7000DD08EE08FF084AE0C701B601F7FE0DC0D9
:105A80006DE28CEE95E00E94740566277727CB01C6
:105A90006C197D098E099F094AE00E94340E0E940C
:105AA000820E15501D33B8F08CED90E00E948A0EE6
:105AB00005E010E048EE53E060E070E088EE93E02F
:105AC0000E944B0260ED77E080E090E00E9493043A
:105AD0000150110979F78091640581110E947819AC
